:020000040800F2
:1000000090430020D5010008DD010008DF01000851
:10001000E1010008E3010008E5010008000000001C
:100020000000000000000000000000006106000861
:10003000E90100080000000011060008A5060008FC
:10004000EF010008EF010008EF010008EF010008D0
:10005000EF010008EF010008EF010008EF010008C0
:10006000EF010008EF010008EF010008EF010008B0
:10007000EF010008EF010008EF010008EF010008A0
:10008000EF010008EF010008EF010008EF01000890
:10009000EF010008EF010008EF010008EF01000880
:1000A000EF010008EF010008EF0100084907000810
:1000B000EF010008EF010008EF010008EF01000860
:1000C000EF010008EF010008EF010008EF01000850
:1000D000EF01000899070008EF010008EF01000890
:1000E000EF010008EF010008EF010008EF01000830
:1000F000EF010008EF010008EF010008EF01000820
:10010000EF010008EF010008EF010008EF0100080F
:10011000EF010008EF010008EF010008EF010008FF
:10012000EF010008EF010008EF010008EF010008EF
:1001300000F002F800F03EF80AA090E8000C8244BB
:100140008344AAF10107DA4501D100F033F8AFF298
:10015000090EBAE80F0013F0010F18BFFB1A43F0A5
:1001600001031847D8600000F8600000103A24BF6F
:1001700078C878C1FAD8520724BF30C830C144BF0C
:1001800004680C607047000000230024002500264E
:10019000103A28BF78C1FBD8520728BF30C148BFEA
:1001A0000B6070471FB59DE8030000F0F5F81FBD18
:1001B00010B510BD00F0A6F91146FFF7F3FF01F0EE
:1001C0005BFA00F0C4F903B4FFF7F2FF03BC00F0E0
:1001D000F5F900000948804709480047FEE7FEE7B7
:1001E000FEE7FEE7FEE7FEE7FEE7FEE7FEE7FEE7E7
:1001F00004480549054A064B70470000E10600081F
:10020000310100089003002090430020902300203B
:100210009023002070B5064600F0A2F8056806F1AC
:100220000B0020F00704B4429CBF002070BD2B4699
:100230006A68BAB11068A04210D304F1080188427C
:100240003CBF5068586007D351681019416011686D
:10025000091B016058601460101D70BD1346526880
:10026000002AE7D12146284600F082F80028DED196
:1002700070BD70B50446051F00F072F80068002CD0
:1002800014BF446870BD002C18BFAC423CBF204670
:100290006468F8D301680A18AA4218BF456003D100
:1002A0002A6805461144016028684119A1421CBF13
:1002B0006C6070BD6168696021680844286070BD29
:1002C000032A40F2308010F0030C00F0158011F882
:1002D000013BBCF1020F624498BF11F801CB00F85A
:1002E000013B38BF11F8013BA2F1040298BF00F8AE
:1002F00001CB38BF00F8013B11F0030300F082800E
:10030000083AC0F0088051F8043B083A51F804CB91
:10031000A0E80810F5E7121D5CBF51F8043B40F857
:10032000043BAFF30080D20724BF11F8013B11F862
:1003300001CB48BF11F8012B24BF00F8013B00F8A6
:1003400001CB48BF00F8012B704702F0FF0343EADE
:10035000032242EA024200F089B8704770477047B2
:100360000048704710000020704770477047704782
:1003700038B504460A4600206946AFF300800028DD
:1003800008BF38BD02460099204600F099F80120C8
:1003900038BD012000F0AEB8F8B5AFF300800546D7
:1003A00000200C46102000BF0646A819A0420DD917
:1003B000324669460020AFF30080070008BF00F016
:1003C00099F80098A04218BF0546C419FFF7C8FF66
:1003D00005600746F01D20F007004619284600F08A
:1003E0000AF8B44208BFF8BDA21B31463868BDE820
:1003F000F84000F065B800210160C0E901107047C5
:100400001020704710B5203AC0F00B80B1E81850AA
:10041000A0E81850B1E81850A0E81850203ABFF4EE
:10042000F5AF5FEA027C24BFB1E81850A0E818508D
:1004300044BF18C918C0BDE810405FEA827C24BFE1
:1004400051F8043B40F8043B08BF7047D20728BF6F
:1004500031F8023B48BF11F8012B28BF20F8023BBE
:1004600048BF00F8012B70474FF0000200B513465B
:1004700094469646203922BFA0E80C50A0E80C50C4
:10048000B1F12001BFF4F7AF090728BFA0E80C5075
:1004900048BF0CC05DF804EB890028BF40F8042B6E
:1004A00008BF704748BF20F8022B11F0804F18BFDB
:1004B00000F8012B7047000000487047080000203A
:1004C000034640688C46002818BF88423CBF03465C
:1004D0004068F8D318681844884207D00CF103002C
:1004E00020F00700001D411A521A0146081D0A603B
:1004F000FFF7BFBE10B500F039F8BDE8104000F0BE
:100500002FB870477546FFF7D7FFAE46050069461E
:10051000534620F00700854618B020B5FFF768FE67
:10052000BDE820404FF000064FF000074FF00008F4
:100530004FF0000BAC46ACE8C009ACE8C009ACE831
:10054000C009ACE8C00921F007018D46704710B51D
:100550000446AFF300802046BDE81040FFF733BEED
:10056000002801D000F02AB87047000010B501281B
:1005700005D0002103A000F027F8012010BD09A13B
:10058000F8E7000053494752544D454D3A204F7506
:1005900074206F662068656170206D656D6F72797B
:1005A000000000003A2048656170206D656D6F7233
:1005B0007920636F72727570746564000149182048
:1005C000ABBEFEE72600020070B505460C460A20C9
:1005D00000E06D1C00F011F835B128780028F8D142
:1005E00002E0641C00F009F814B120780028F8D16A
:1005F000BDE870400A20AFF3008008B569468DF869
:1006000000000320ABBE08BDFFE700BFFDE7000010
:10061000EFF30980BFF36F8F0D4B1A6820E9F00FDD
:1006200010602DE908404FF0500080F3118804F06D
:10063000B1F94FF0000080F31188BDE80840196857
:100640000868B0E8F00F80F30988BFF36F8F704738
:100650001C0200200000000000000000000000005C
:10066000074B19680868B0E8F00F80F30988BFF3FA
:100670006F8F4FF0000080F311884EF00D0E704721
:100680001C02002080B500F0B9F800F0EDF800F091
:10069000C5FA00F009FA00F053FA00F09BFA00F0F6
:1006A00091F880BD80B582B04FF0500080F3118882
:1006B000BFF36F8FBFF34F8F009004F029FE40B15E
:1006C000FFE74EF60451CEF200014FF08050086073
:1006D000FFE700200190019880F3118802B080BDEF
:1006E00080B541F20001C4F20201086840F0010047
:1006F000086041F20403C4F2020318680C22CEF62B
:10070000FF021040186008684FF6FF72CFF6F662DD
:1007100010400860086820F48020086018684FF6D0
:10072000FF7CCFF2007C00EA0C00186008681040E3
:10073000086041F20801C4F202014FF41F00086092
:1007400002F0A6FE80BD000080B542F60040C4F273
:100750000100022103F01AFA012808D1FFE742F64E
:100760000040C4F20100022103F006FA12E042F652
:100770000040C4F20100042103F008FA012808D166
:10078000FFE742F60040C4F20100042103F0F4F94F
:10079000FFE7FFE780BD00007047000080B582B032
:1007A0008DF807008DF806109DF8060000F028F976
:1007B0009DF8070000F0C6F89DF8060000F04AF921
:1007C00002B080BD80B582B042F20040C4F20100A8
:1007D000019000F04FFB0020009000F0B9FB009961
:1007E000019800F033FB009B01980222194600F0AB
:1007F000BFFB019800F078FB02B080BD80B541F2EC
:100800001801C4F20201086840F01C000860086882
:1008100040F480400860086840F601021043086018
:10082000086840F40070086041F21C01C4F2020143
:10083000086840F001000860086840F002000860A5
:10084000086840F004000860032002F0B9FA80BD97
:1008500080B582B00190019805F016FC40F2D941B4
:10086000484380B202B080BD80B58AB041F200003A
:10087000C4F2010010210891012209924FF40053A3
:1008800000F046FE099B40F60000C4F2010005900E
:10089000042103910322029200F03AFE029A059885
:1008A00008994FF48063049300F032FE029A08998D
:1008B000099B40F60040C4F20100079000F028FEBA
:1008C000029A079818210091022300F021FE009956
:1008D000029A0598099B00F01BFE029A039B05985B
:1008E0000021019100F014FE0199029A0598082355
:1008F00000F00EFE039B07980899099A00F008FE85
:10090000049B07980899099A00F002FE0598089937
:10091000099A8023069300F0FBFD05980899099A2F
:10092000202300F0F5FD069B07980899099A00F02E
:10093000EFFD07980899099A402300F0E9FD0AB0F5
:1009400080BD000081B08DF8030000208DF802000A
:10095000FFE79DF80200012817DCFFE740F60C01D5
:10096000C4F20101086820F080000860086840F0C7
:1009700020000860086820F020000860FFE79DF86C
:10098000020001308DF80200E3E700208DF802003C
:10099000FFE79DF80200072830DCFFE79DF8030021
:1009A0000006002809D5FFE740F60C01C4F201015A
:1009B000086840F08000086008E040F60C01C4F2CE
:1009C0000101086820F080000860FFE740F60C0194
:1009D000C4F20101086840F0200008609DF803009F
:1009E00040008DF80300086820F020000860FFE751
:1009F0009DF8020001308DF80200CAE701B070478F
:100A000081B08DF803009DF8030048B9FFE740F678
:100A10000C41C4F20101086820F0040008600EE0F7
:100A20009DF80300012809D1FFE740F60C41C4F20C
:100A30000101086820F480600860FFE7FFE740F6E6
:100A40000C01C4F20101086820F02000086001B028
:100A50007047000081B08DF803009DF8030048B98D
:100A6000FFE740F60C41C4F20101086840F00400C1
:100A700008600EE09DF80300012809D1FFE740F669
:100A80000C41C4F20101086840F480600860FFE78F
:100A9000FFE740F60C01C4F20101086820F02000D5
:100AA000086001B07047000080B584B04FF4C060AA
:100AB00002F088FA4FF08040019002F00FFF019899
:100AC00040F26C01C2F2000140F237420A8000227B
:100AD00002924A808A8040F2E7338B608A818A736F
:100AE00002F092FF0198029940F27C02C2F20002E9
:100AF0009180012303931380D18051801181518112
:100B000002F0D4FC0198029940F2572202F07CFED8
:100B100001980299602202F031FE0198029A114672
:100B200002F096FE019802F0B7FC019802F062FF15
:100B3000029800F0E7FB039800F0E4FB04B080BDEE
:100B400080B584B04FF4C06002F03CFA40F200403F
:100B5000C4F20000039002F0C1FE039840F2880145
:100B6000C2F2000140F237420A80002202924A801B
:100B70008A8040F2E7338B608A818A7302F044FFF7
:100B80000299039840F29802C2F200029180012378
:100B90001380D1805180118151810321019102F094
:100BA00085FC0199039840F2572202F02DFE01992D
:100BB0000398602202F0E2FD0199029A039802F084
:100BC00047FE039802F068FC039802F013FF04B09C
:100BD00080BD000040F62C01C4F200014FF47A7091
:100BE000086040F62801C4F2000140F23740086076
:100BF00040F64001C4F2000140F2F310086040F6F4
:100C00002001C4F20001086840F48050086040F6FA
:100C10000001C4F2000101200860704780B582B075
:100C200043F60000C4F20100019003F0FDF80198C2
:100C30004FF4E13103F092F80198002103F05AF9E2
:100C40000198082103F066F900F056FC40F6000018
:100C5000C4F20100182103224FF4007300F058FC85
:100C6000019803F03DF902B080BD000080B586B068
:100C7000059000208DF81300022000F03BFA40F2AE
:100C8000CC00C2F2000003F0F3FB40F2A400C2F279
:100C9000000003F0F5FBFFE742F20040C4F2010060
:100CA00000F020FA40F2C601C2F20001088040F2D2
:100CB000A400C2F200008069002800F0AB80FFE7CA
:100CC00040F2C000C2F200000068039048B1FFE7A4
:100CD0000398012859D0FFE70398022800F0888084
:100CE00097E040F2C600C2F20000018840F2A40082
:100CF000C2F20000029003F047F90298007D0B2831
:100D00003FD1FFE740F2A400C2F2000002F058FF1A
:100D1000014640F2C400C2F2000001800088019048
:100D20004FF07C50FFF794FD01460198884207DAA6
:100D3000FFE740F2C001C2F20001022008601FE09C
:100D400040F2C400C2F20000008800904CF6CD4092
:100D5000C4F22C00FFF77CFD01460098884207DDB5
:100D6000FFE740F2C001C2F200010220086006E085
:100D700040F2C001C2F2000101200860FFE7FFE776
:100D8000FFE7642003F086FB43E040F2C600C2F2B6
:100D90000000038840F2C010C2F2000040F2CA0115
:100DA000C2F2000140F2C902C2F2000200F080FA71
:100DB000C0B1FFE740F2CA00C2F20000008802F0B2
:100DC0002DFF014640F2C800C2F200000170017818
:100DD00040F2CC00C2F2000002F06EFF0021FFF7EB
:100DE000DDFC01E000BFFFE7642003F053FB10E0EF
:100DF00040F2C001C2F200010020086040F2A400ED
:100E0000C2F2000003F03CFB4FF47A7003F042FBA7
:100E1000FFE700E0FFE73FE780B582B00190FA20EE
:100E20008DF80300FFE79DF80300292809D3FFE7A9
:100E30009DF80300411E8DF803100121FFF7AEFC61
:100E4000FFE741F2707003F025FBECE782B0019000
:100E50000091009830B1FFE70199886840F4006084
:100E6000886005E00199886820F400608860FFE7E9
:100E700002B0704780B586B005900598049042F2A4
:100E80000041C4F20101884210D0FFE7049842F605
:100E90000001C4F20101884211D0FFE7049843F633
:100EA0000041C4F20101884212D01AE040F2093038
:100EB000039002F0ABF8039802F096F812E040F2CB
:100EC0000A30029002F0A2F8029802F08DF809E0D0
:100ED00040F20F30019002F099F8019802F084F886
:100EE00000E0FFE706B080BD81B000900098806808
:100EF000C00730B9FFE70099886840F001008860BA
:100F0000FFE701B07047000082B001900091009AA5
:100F1000019908689043086002B0704783B002905E
:100F2000019100200090029800680199084203D0C6
:100F3000FFE701200090FFE7009803B07047000032
:100F400042F20440C4F20100006800F01F00704744
:100F500081B0009042F20441C4F20101086820F41B
:100F600070200860009A08681043086001B070475C
:100F700085B004908DF80F108DF80E2002939DF827
:100F80000F0005281CDCFFE70498406B01909DF8DA
:100F90000F0000EB80011F2000FA01F10198884347
:100FA00001909DF80E009DF80F1001EB810100FAF1
:100FB00001F10198084301900198049948634AE0BF
:100FC0009DF80F000B281FDCFFE70498006B0190D1
:100FD0009DF80F0000EB8000A0F11E011F2000FA19
:100FE00001F10198884301909DF80E009DF80F10C3
:100FF00001EB81011E3900FA01F1019808430190CB
:1010000001980499086325E09DF80F000F281FDC64
:10101000FFE70498C06A01909DF80F0000EB800084
:10102000A0F13C011F2000FA01F1019888430190D2
:101030009DF80E009DF80F1001EB81013C3900FA7C
:1010400001F101980843019001980499C86200E0F9
:10105000FFE7FFE7FFE79DF80E0009281BDCFFE72D
:101060000498006900909DF80E0000EB40010720F5
:1010700000FA01F100988843009002989DF80E1044
:1010800001EB410100FA01F100980843009000983B
:101090000499086124E09DF80E0011281EDCFFE78A
:1010A0000498C06800909DF80E0000EB4000A0F18D
:1010B0001E01072000FA01F1009888430090029871
:1010C0009DF80E1001EB41011E3900FA01F1009864
:1010D0000843009000980499C86000E0FFE7FFE72C
:1010E00005B0704781B000900098C06C80B201B02C
:1010F0007047000080B582B08DF807009DF80700AA
:1011000002280AD1FFE742F20040C4F201000222A5
:1011100000231946FFF72CFF11E09DF80700032874
:101120000AD1FFE742F20040C4F20100032200238B
:101130001946FFF71DFF01E000BFFFE7FFE702B020
:1011400080BD000082B001908DF803109DF803006F
:10115000C00730B1FFE70199886840F480008860DB
:10116000FFE79DF803008007002806D5FFE70199F7
:10117000886840F400108860FFE702B07047000004
:1011800080B582B00190FFE742F20040C4F2010056
:101190001021FFF7C3FEE0BBFFE742F20040C4F2BC
:1011A00001000221FFF7BAFE90B3FFE742F20040D0
:1011B000C4F201000221FFF7A7FEFFF7C1FE0228DB
:1011C0000FD1FFE742F20040C4F20100FFF78AFFAF
:1011D00040F2D411C2F2000108800320FFF78AFF19
:1011E0000EE042F20040C4F20100FFF77BFF40F244
:1011F000D611C2F2000108800220FFF77BFFFFE753
:1012000042F20040C4F201000121FFF79BFFFFE71B
:1012100011E042F20040C4F201000221FFF77EFE1D
:1012200040B1FFE742F20040C4F201000121FFF7A4
:1012300089FFFFE7FFE7012003F02CF942F20040AD
:10124000C4F201000221FFF769FEB0B1FFE742F2EC
:101250000040C4F2010000900221FFF755FE009803
:10126000FFF740FF0146009840F2D412C2F200029C
:1012700011800121FFF766FF19E042F20040C4F23D
:1012800001001021FFF74AFE40B1FFE742F20040A3
:10129000C4F201000121FFF755FF07E042F20040D0
:1012A000C4F201000121FFF74DFFFFE7FFE76BE705
:1012B00085B0049003910292ADF8063000200090B2
:1012C0000298007809280BD8FFE7BDF8062004999A
:1012D00008681044086002990878013008700DE031
:1012E000049800684CF6CD41CCF6CC41A0FB01102F
:1012F000C0080399088001200090FFE7009805B01E
:101300007047000081B00090009848B9FFE740F2B4
:101310002041C4F20001086820F4805008600EE00B
:101320000098012808D1FFE72021C4F200010868D5
:1013300020F00100086001E000BFFFE7FFE701B017
:101340007047000082B001200190009040F24030D0
:10135000C2F20000006818B1FFE70020009028E00A
:1013600040F28C30C2F20000006818B1FFE70020A4
:1013700000901DE040F23C30C2F20000006818B15D
:10138000FFE70020009012E040F25830C2F2000067
:10139000006840F2C821C2F20001096801398842A0
:1013A00003D1FFE70220009000E0FFE7FFE7FFE73F
:1013B000FFE7009802B0704780B588B006900698A5
:1013C0000190019858B9FFE74FF0500080F3118861
:1013D000BFF36F8FBFF34F8F0790FFE7FEE70198D2
:1013E00040F21C21C2F200010968884203D1FFE7E4
:1013F000002005905DE002F065FE019840690490D0
:1014000040F22420C2F200000068039040F228203D
:10141000C2F200000068029002F080FE0498039976
:10142000884205D0FFE704980299884203D1FFE77C
:10143000022005903CE0049840F25831C2F20001CD
:10144000884222D1FFE70198806AD0B9FFE70320E4
:10145000059000200090FFE70098002810DCFFE7CF
:1014600001980099084490F85400012803D1FFE73F
:101470000220059004E0FFE7009801300090EBE7C0
:1014800002E002200590FFE711E0049840F26C3181
:10149000C2F20001884203D0FFE7049818B9FFE7C1
:1014A0000420059002E001200590FFE7FFE7FFE739
:1014B000FFE7059808B080BD81B00090009848B95A
:1014C000FFE740F22041C4F20001086840F4805078
:1014D00008600EE00098012808D1FFE72021C4F23F
:1014E0000001086840F00100086001E000BFFFE76C
:1014F000FFE701B07047000080B582B04FF4407044
:10150000019001F083FD019801F06EFD02B080BDF5
:1015100087B00690059104920393002001900090FB
:10152000059800F00F0001909DF81400C0060028F7
:1015300005D5FFE70499019808430190FFE70020D3
:10154000ADF80A00FFE7BDF80A00072842D8FFE718
:10155000BDF80A100398C840C007A0B3FFE706987B
:1015600000680090BDF80A0081000F2000FA01F128
:101570000098884300900198BDF80A10890000FA8D
:1015800001F10098084300900598282809D1FFE749
:10159000BDF80A1001208840039908400699486167
:1015A0000DE00598482809D1FFE7BDF80A10012091
:1015B00088400399084006990861FFE7FFE7009813
:1015C00006990860FFE7FFE7BDF80A000130ADF8B3
:1015D0000A00B8E70820ADF80A00FFE7BDF80A00E6
:1015E0000F2846D8FFE7BDF80A100398C840C00787
:1015F000C0B3FFE7069840680090BDF80A006FF09E
:101600001F0101EB80020F2000FA02F200989043C4
:1016100000900198BDF80A2001EB820100FA01F167
:101620000098084300900598282809D1FFE7BDF8E5
:101630000A100120884003990840069948610DE08E
:101640000598482809D1FFE7BDF80A100120884015
:101650000399084006990861FFE7FFE7009806999B
:101660004860FFE7FFE7BDF80A000130ADF80A0067
:10167000B4E707B07047000080B586B00020049042
:101680000590FEF7FFFF049A01210391084603F03D
:1016900055FA049A0146039840F21823C2F2000357
:1016A0001960082103F04AFA049A0146039840F2AF
:1016B000DC13C2F200031960042103F03FFA03991E
:1016C000049A40F2A423C2F200031860052002909D
:1016D00003F034FA0399049A0346029840F2CC1CB2
:1016E000C2F2000CCCF8003003F028FA0399049AF7
:1016F00040F2D013C2F200031860FF2003F01EFA7C
:10170000049B40F2B421C2F20001086040F20820BC
:10171000C2F20000694648600220086041F61900E4
:10172000C0F6000046F2C511C0F600014FF4007289
:1017300003F07CFD012803D0FFE7FEF765FFFFE71C
:1017400040F2A020C2F20000694648600120086013
:1017500043F20D10C0F6000046F2B911C0F60001C8
:101760008022002303F062FD012803D0FFE7FEF78B
:101770004BFFFFE740F2D810C2F200006946486014
:101780000120086041F28110C0F6000046F2B0115D
:10179000C0F600018022002303F048FD012803D099
:1017A000FFE7FEF731FFFFE740F2C410C2F200008E
:1017B000694648600120086040F66D40C0F60000B0
:1017C00046F29411C0F600018022002303F02EFDA2
:1017D000012803D0FFE7FEF717FFFFE740F2C8102C
:1017E000C2F20000694648600120086040F61960B6
:1017F000C0F6000046F2A211C0F6000180220023CC
:1018000003F014FD012803D0FFE7FEF7FDFEFFE71C
:1018100002F076FFFFE7FEE780B58AB0099014205A
:1018200008900020FFF76EFD46F2F810C0F60000A9
:1018300000F090FAFFE740F26800C2F20000006892
:10184000032816D3FFE740F20420C2F2000000682C
:1018500078B9FFE700200790FFF72EFE07980A21CE
:1018600001F062FD40F20421C2F200010120086093
:10187000FFE740F26800C2F2000000680B2816D3B0
:10188000FFE740F20020C2F20000006878B9FFE7ED
:10189000012006900A2101F047FD0698FFF70CFE93
:1018A000069840F20021C2F200010860FFE740F212
:1018B0006800C2F20000006840F2E411C2F20001C8
:1018C0000968401A15281ED3FFE740F29420C2F29F
:1018D0000000006880B1FFE740F29420C2F20000EF
:1018E000006802F091FF40F60C01C4F201010868A3
:1018F00020F480600860FFE740F2E411C2F20001CA
:1019000000200860FFE740F26800C2F200000068B3
:1019100040F2E811C2F200010968401A03280AD314
:10192000FFE700200A21059101F0FEFC0599012046
:1019300001F0FAFCFFE740F2DC10C2F200000068A0
:1019400040F2F411C2F20001002203F003FB01286F
:1019500040F0C480FFE740F26800C2F20000006877
:1019600040F2E811C2F20001086040F2F410C2F245
:10197000000080880B280CDCFFE740F2EC11C2F27B
:1019800000010020086040F2FC11C2F20001087062
:10199000A3E040F2F410C2F20000808865285EDB0C
:1019A000FFE740F2F410C2F200008088F92856DC0C
:1019B000FFE740F2F410C2F200000068C8B1FFE790
:1019C00040F2F410C2F200008088A0380F2808DC32
:1019D000FFE740F2FC11C2F2000108780130087004
:1019E00006E040F2FC11C2F2000100200870FFE79F
:1019F00018E040F2F410C2F2000080888C380D2804
:101A000008DCFFE740F2FC11C2F200010878013067
:101A1000087006E040F2FC11C2F2000100200870DC
:101A2000FFE7FFE740F2FC10C2F200000078062852
:101A30000DD3FFE740F2EC11C2F200010120086073
:101A400040F2FC11C2F200010020087006E040F2F2
:101A5000EC11C2F2000103200860FFE73CE040F215
:101A6000F410C2F20000006840B3FFE740F2F41047
:101A7000C2F200008088B0F5487F17DDFFE740F232
:101A8000F410C2F20000808840F24B4188420DDC25
:101A9000FFE740F2EC11C2F200010220086040F2C0
:101AA000FC11C2F200010020087006E040F2EC11C7
:101AB000C2F2000103200860FFE70CE040F2EC11E5
:101AC000C2F200010320086040F2FC11C2F20001E2
:101AD00000200870FFE7FFE7FFE7FFE740F2EC10A8
:101AE000C2F2000000680490032800F22F810499DC
:101AF000DFE811F00400AD00FC002A0140F2EC1117
:101B0000C2F200010320086040F60800C4F20100A0
:101B10000068C005002809D5FFE740F60C41C4F273
:101B20000101086820F00100086008E040F60C415F
:101B3000C4F20101086840F001000860FFE740F2CC
:101B40001820C2F20000006840F2F011C2F2000159
:101B5000002203F0FFF9012876D1FFE740F2F010F0
:101B6000C2F2000000780A2818D8FFE700210846D2
:101B700001F0DAFB40F21420C2F20000006860B10C
:101B8000FFE740F21420C2F20000006802F03CFEC1
:101B900001200A2101F0C8FBFFE754E040F21420C5
:101BA000C2F200000068D0B9FFE740F21420C2F290
:101BB0000000694648600220086042F62550C0F6E1
:101BC000000046F20D21C0F600018022002303F040
:101BD0002DFB012802D1FFE700BFFFE707E040F23D
:101BE0001420C2F20000006802F006FDFFE740F298
:101BF000F010C2F200000078282805D8FFE7002086
:101C00001E2101F091FB12E040F2F010C2F2000040
:101C10000078502805D8FFE70020322101F084FB2E
:101C200004E00020502101F07FFBFFE7FFE740F2D6
:101C30000020C2F20000006820B1FFE70020FFF79B
:101C40003BFCFFE7FFE701E000BFFFE77EE046F275
:101C5000DF10C0F6000000F07DF800200A2103919B
:101C600001F062FB0399012001F05EFB40F2942039
:101C7000C2F200000068D0B9FFE740F29420C2F23F
:101C80000000694648600220086043F23100C0F657
:101C9000000046F21A21C0F600018022002303F062
:101CA000C5FA012802D0FFE700BFFFE707E040F2D6
:101CB0009420C2F20000006802F09EFCFFE740F2B0
:101CC000FC11C2F200010020087040F26800C2F26C
:101CD0000000006840F2E411C2F20001086040F226
:101CE000EC11C2F20001032008602FE000200A215D
:101CF000029101F019FB0299012001F015FB46F257
:101D0000CF10C0F6000000F025F840F29420C2F297
:101D10000000006880B1FFE740F29420C2F20000AA
:101D2000006802F071FD40F60C01C4F20101086880
:101D300020F48060086000E0FFE740F2EC11C2F29E
:101D400000010320086001E000BFFFE7012002F06E
:101D5000A1FB70E580B584B0039040F2B420C2F2DC
:101D600000000068002102F037FFFFE740F20E207C
:101D7000C2F2000001780120FF2902902AD1FFE77A
:101D800040F20D20C2F2000000780A280AD1FFE7D5
:101D900040F20C20C2F20000017801200D290290CF
:101DA00018D0FFE740F20D20C2F2000001780020B9
:101DB0000D2901900BD1FFE740F20C20C2F2000088
:101DC00000780A38B0FA80F040090190FFE70198E6
:101DD0000290FFE70298C00700B3FFE740F20C2132
:101DE000C2F20001087840F20D22C2F20002107027
:101DF000039840F20E2CC2F2000C9CF80020531CF9
:101E00008CF80030805C087040F2B420C2F2000010
:101E1000006800231A4602F063FFA7E740F20E2194
:101E2000C2F200010020087004B080BD80B586B009
:101E30000590049140F28030C2F2000000680290E8
:101E400040F21C20C2F200000268002182F8551006
:101E50000068043002F074F888B9FFE740F21C20F3
:101E6000C2F200000068C16A012000FA01F240F2EB
:101E7000D821C2F2000108689043086000E0FFE743
:101E80000598013018BBFFE7049800B3FFE740F264
:101E90005831C2F2000148680190019A40F21C20BA
:101EA000C2F2000003689A60019A92680368DA60DF
:101EB00002680432019B9B685A6002680432019BED
:101EC0009A60006841610868013008603DE002984E
:101ED000059908440390039840F21C21C2F20001C6
:101EE000096848600398029988420ED2FFE740F2E1
:101EF0002820C2F20000006840F21C21C2F200015A
:101F00000968043102F08AF81EE040F22420C2F28F
:101F10000000006840F21C21C2F20001096804318F
:101F200002F07CF8039840F23431C2F200010968F3
:101F3000884207D2FFE7039840F23431C2F2000131
:101F4000086000E0FFE7FFE7FFE706B080BD0000A4
:101F500080B582B0019002F0B5F840F2C821C2F21B
:101F6000000108680130086040F21C20C2F2000045
:101F7000006898B9FFE7019840F21C21C2F2000105
:101F8000086040F2C820C2F200000068012803D1B6
:101F9000FFE700F0F7FA00E0FFE71CE040F2543002
:101FA000C2F200000068A0B9FFE740F21C20C2F2B4
:101FB00000000068C06A0199C96A884207D8FFE733
:101FC000019840F21C21C2F20001086000E0FFE726
:101FD00000E0FFE7FFE740F2D420C2F20000016812
:101FE000013101600068019908640198C16A01200B
:101FF00000FA01F240F2D821C2F200010868104351
:1020000008600198C06A00EB800040F23021C2F203
:10201000000101EB8000406800900098019A9060F8
:1020200000988068019AD06001980430009A926804
:10203000506001980430009A9060019AD06A00EBD9
:10204000800001EB800050610198C06A00EB8002C3
:1020500051F82200013041F8220002F05FF840F20E
:102060005430C2F200000068C8B1FFE740F21C2003
:10207000C2F200000068C06A0199C96A88420CD2A5
:10208000FFE74EF60451CEF200014FF08050086099
:10209000BFF34F8FBFF36F8F00E0FFE700E0FFE774
:1020A00002B080BD80B582B002F00CF840F28430FE
:1020B000C2F20000006828BBFFE740F2DC20C2F259
:1020C0000000009001F08AFF40F2F020C2F2000010
:1020D000019001F083FF0099019840F22022C2F2A2
:1020E0000002116040F22C21C2F2000108600520BC
:1020F0001021002202F022FD40F28431C2F20001E0
:10210000086000E0FFE702F009F802B080BD0000BF
:1021100080B582B0FFE740F2CC20C2F20000006838
:1021200008B3FFE701F0CEFF40F26C30C2F20000CE
:10213000C068C06801900198043001F001FF40F2CE
:10214000C821C2F2000108680138086040F2CC21C1
:10215000C2F2000108680138086001F0DFFF019851
:1021600000F08CF8D7E702B080BD000080B582B0E7
:10217000019000910198006CB8B1FFE70199C8681F
:102180000A6C1044C86001988168C068884204D312
:10219000FFE701990868C86000E0FFE70098019A2E
:1021A000D168126CFEF78CF8FFE702B080BD00002A
:1021B00080B586B0059004910392002002900598A6
:1021C000806B01900598006C78B9FFE7059800686E
:1021D00048B9FFE70598806803F0CAF902900599AD
:1021E0000020886000E0FFE741E00398B8B9FFE70E
:1021F000059A04995068126CFEF762F805994868D0
:102200000A6C10444860059948688968884204D37C
:10221000FFE705990868486000E0FFE726E0059AB7
:102220000499D068126CFEF74BF80599C8680A6CDF
:10223000801AC86005980168C068884206D2FFE726
:10224000059988680A6C801AC86000E0FFE7039867
:10225000022809D1FFE7019820B1FFE70198013872
:10226000019000E0FFE700E0FFE7FFE7FFE70198EC
:10227000013005998863029806B080BD80B582B0B0
:1022800001900198006B01F06FFF019801F06CFF65
:1022900002B080BD83B0002001900120009040F288
:1022A000D820C2F200000068022803D3FFE7012013
:1022B0000190FFE740F21C20C2F200000068C06AF3
:1022C00018B1FFE7002002901FE040F23020C2F278
:1022D00000000068022803D3FFE70020029013E00B
:1022E000019818B1FFE7002002900CE040F2343072
:1022F000C2F20000006840F28031C2F200010968B9
:10230000401A0290FFE7FFE7FFE7029803B070472B
:1023100082B0019040F22020C2F200000068006804
:10232000B0FA80F04009019908600198006848B946
:10233000FFE740F22020C2F200000068C068006899
:10234000009002E000200090FFE7009802B0704784
:1023500080B584B00290FFE7FFF7DAFE40F230204C
:10236000C2F20000006802280CD3FFE74EF60451C9
:10237000CEF200014FF080500860BFF34F8FBFF3E3
:102380006F8F00E0FFE7FFF785FF019001980228BB
:1023900029D3FFE702F0F6FA40F23430C2F200002F
:1023A000006840F28031C2F20001096888420BD215
:1023B000FFE74FF0500080F31188BFF36F8FBFF33A
:1023C0004F8F0390FFE7FEE7FFF764FF019001984E
:1023D000022804D3FFE7019801F012FF00E0FFE7B5
:1023E00003F02CFA00E0FFE7B6E7000080B584B008
:1023F000DDF818C00390029101928DF80330029825
:1024000018B9FFE70698006003E001980699086094
:10241000FFE703980699C86302980699086406982E
:10242000012102F0D9FB9DF80300069981F85000C4
:1024300006990020886404B080BD000080B58AB091
:10244000DDF83CC0DDF838C0DDF834C0DDF830C060
:1024500007900691059204930E98006B05998900E8
:10246000A522FDF772FF0E98006B059900EB810025
:1024700004380390039820F0070003909DF80C00A7
:10248000400758B1FFE74FF0500080F31188BFF3C9
:102490006F8FBFF34F8F0890FFE7FEE70698F8B104
:1024A000FFE700200290FFE70298092813D8FFE712
:1024B0000698029A805C0E99114481F834000698BF
:1024C0000299405C08B9FFE705E0FFE7FFE70298E3
:1024D00001300290E8E70E99002081F83D0004E009
:1024E0000E99002081F83400FFE70C9805280BD3E3
:1024F000FFE74FF0500080F31188BFF36F8FBFF3F9
:102500004F8F0990FFE7FEE70C98052803D3FFE7FC
:1025100004200C9000E0FFE70C980E99C8620C981C
:102520000E9988640E9900200190C8640E980430BA
:1025300001F06CFD0E98183001F068FD01980E99BD
:1025400009610C99C1F105010E9A91610E994962D8
:102550000E9908650E9981F854000E9981F855007E
:1025600003980799049A00F003FC0E9908600D98EF
:1025700020B1FFE70E980D99086000E0FFE70AB070
:1025800080BD000080B584B000200390FFE7039871
:10259000042810D8FFE7039800EB800140F23020B8
:1025A000C2F2000000EB810001F018FDFFE7039884
:1025B00001300390EBE740F20430C2F200000190DA
:1025C00001F00CFD40F21830C2F20000029001F060
:1025D00005FD40F24030C2F2000001F0FFFC40F285
:1025E0006C30C2F2000001F0F9FC40F25830C2F247
:1025F000000001F0F3FC0199029840F22422C2F29B
:102600000002116040F22821C2F20001086004B00B
:1026100080BD000080B586B00590049103920293BE
:10262000002001900498059948600598006104987D
:102630000399884216D8FFE703980299401A059932
:102640008969884203D3FFE70120019009E040F245
:102650002C20C2F2000000680599043101F0DEFC74
:10266000FFE717E003980299884208D2FFE7049831
:102670000299884203D3FFE70120019009E040F26C
:102680002020C2F2000000680599043101F0C6FC68
:10269000FFE7FFE7019806B080BD000080B582B07B
:1026A000019001F00FFD0198806B18B9FFE7012040
:1026B000009002E000200090FFE701F02FFD00985D
:1026C00002B080BD80B582B0019001F0FBFC0198A2
:1026D000806B0199C96B884203D1FFE7012000900C
:1026E00002E000200090FFE701F018FD009802B022
:1026F00080BD000080B588B004900498806C039081
:1027000000200290039858B9FFE74FF0500080F383
:102710001188BFF36F8FBFF34F8F0590FFE7FEE780
:102720000398806B0399C96B88420BD3FFE74FF086
:10273000500080F31188BFF36F8FBFF34F8F069067
:10274000FFE7FEE70398806B0399C96B884239D293
:10275000FFE7039890F845008DF80700039804A957
:102760000022FFF725FD02909DF90700013088B98E
:10277000FFE70398406A58B1FFE70398243002F05E
:1027800093FF18B1FFE70120029000E0FFE700E0AF
:10279000FFE716E09DF907007F280BD1FFE74FF018
:1027A000500080F31188BFF36F8FBFF34F8F0790F6
:1027B000FFE7FEE79DF807000130039981F8450027
:1027C000FFE700E0FFE7029808B080BD0648006818
:1027D000006880F3088862B661B6BFF34F8FBFF31D
:1027E0006F8F00DF00BF00BF08ED00E080B584B050
:1027F0000390029140F22020C2F200000068C068FD
:10280000C06801900198043001F09AFB019890F89B
:1028100028004007002806D5FFE701980399029A8F
:1028200000F01CF907E0019991F8280000F0FE0083
:1028300081F82800FFE70198016A884704B080BD4D
:1028400080B58CB0FFE740F28430C2F2000000682F
:1028500006A9002202F07EFB002800F0AF80FFE70F
:102860000698B0F1FF3F17DCFFE706A8043002909E
:10287000029858B9FFE74FF0500080F31188BFF37A
:102880006F8FBFF34F8F0A90FFE7FEE702990A6848
:1028900048688968904700E0FFE70698002800F143
:1028A0008C80FFE7089805900598406928B1FFE7FC
:1028B0000598043001F044FB00E0FFE704A800F0B5
:1028C00005F903900698013801460191082800F2A5
:1028D00072800199DFE801F00505323A5B050532A7
:1028E0003A00059991F8280040F0010081F828008D
:1028F0000598079B81691944039AFFF78BFED8B1AD
:10290000FFE7059890F828004007002808D5FFE762
:102910000598079982691144039A00F09FF807E02F
:10292000059991F8280000F0FE0081F82800FFE7E3
:102930000598016A884700E0FFE73DE0059991F8B6
:10294000280000F0FE0081F8280035E0059991F894
:10295000280040F0010081F8280007980599886157
:102960000598806958B9FFE74FF0500080F311884F
:10297000BFF36F8FBFF34F8F0B90FFE7FEE7059814
:10298000039B816919441A46FFF744FE14E0059839
:1029900090F828008007002804D4FFE7059801F08C
:1029A000E3FB07E0059991F8280000F0FE0081F8AC
:1029B0002800FFE700E0FFE7FFE744E70CB080BD39
:1029C00080B584B00390029101F0DCFF684600F00E
:1029D0007DF801900098D8BBFFE7029860B9FFE747
:1029E00003980199884207D8FFE702F027FF039870
:1029F0000199FFF7FBFE2AE0029858B1FFE740F289
:102A00002C20C2F2000000680068B0FA80F0400993
:102A10000290FFE740F28430C2F2000000680399A0
:102A2000019A891A029A01F0F1FC02F007FF60B9DD
:102A3000FFE74EF60451CEF200014FF080500860DF
:102A4000BFF34F8FBFF36F8F00E0FFE7FFE702E0B8
:102A500002F0F4FEFFE704B080BD000080B584B052
:102A6000039002910192FFE70398029B8169194448
:102A7000019AFFF7CFFD48B1FFE7039881690298FB
:102A8000084402900398016A8847EDE704B080BDCE
:102A900040F22420C2F200000068006840B9FFE75D
:102AA00040F23431C2F200014FF0FF3008600CE018
:102AB00040F22420C2F200000068C068006840F2C2
:102AC0003431C2F200010860FFE7704780B582B080
:102AD000019002F013FC0090009840F21021C2F225
:102AE00000010968884206D2FFE700F011F8019959
:102AF0000120086003E0019900200860FFE70098CA
:102B000040F21021C2F200010860009802B080BDBE
:102B100080B582B0FFE740F22020C2F200000068DA
:102B2000006870B1FFE740F22020C2F200000068A8
:102B3000C0680068019001984FF0FF31FFF756FE22
:102B4000E9E740F22022C2F200021068009040F251
:102B50002C21C2F20001086810600098086002B0E1
:102B600080BD000083B00020009040F20400C2F25B
:102B700000000068013058B1FFE74FF0500080F3CB
:102B80001188BFF36F8FBFF34F8F0190FFE7FEE710
:102B90004FF0500080F31188BFF36F8FBFF34F8F5A
:102BA0000290FFE7009808B9FFE7FBE703B0704722
:102BB00084B002900020019002980090029858B9C9
:102BC000FFE74FF0500080F31188BFF36F8FBFF322
:102BD0004F8F0390FFE7FEE70098406940F25831BD
:102BE000C2F20001884214D1FFE70098806A40F2E7
:102BF0004031C2F20001884209D0FFE70098806AA4
:102C000018B9FFE70120019000E0FFE700E0FFE7CF
:102C100000E0FFE7019804B07047000080B584B081
:102C20000390FFE701A8FFF773FB02900298019958
:102C3000FFF7C6FEFFF704FEF4E7000080B582B0A0
:102C4000019001F03FFA019890F845008DF80300DB
:102C5000FFE79DF90300012825DBFFE70198806C61
:102C600050B1FFE70198FFF745FD18B1FFE701F00C
:102C70005BFC00E0FFE710E00198406A58B1FFE715
:102C80000198243002F010FD18B1FFE701F04CFC70
:102C900000E0FFE700E006E0FFE79DF803000138F1
:102CA0008DF80300D5E70199FF2081F8450001F078
:102CB00035FA01F007FA019890F844008DF8020007
:102CC000FFE79DF90200012816DBFFE70198006984
:102CD00080B1FFE70198103002F0E6FC18B1FFE781
:102CE00001F022FC00E0FFE79DF8020001388DF8BA
:102CF000020000E000E0E4E70199FF2081F84400D1
:102D000001F00CFA02B080BD80B582B0019001F0F4
:102D100039FE0198FDF77EFA009002F08FFD0098D1
:102D200002B080BD80B584B00390FFE70120009021
:102D3000322100F0F9FA42F21070029001F0AAFB81
:102D400000982D21019100F0EFFA029801F0A2FB0A
:102D50000098372100F0E8FA029801F09BFB0098F8
:102D6000019900F0E1FA029801F094FBDEE700001F
:102D700083B0029001910092029804380290029967
:102D80004FF080700860029804380290019820F09B
:102D9000010002990860029804380290029942F6F4
:102DA0006530C0F600000860029814380290009860
:102DB00002990860029820380290029803B0704788
:102DC00083B0029041F20400C4F202000068019056
:102DD000019843F6FF71CEF6FF710840019002980A
:102DE0000090042808D3FFE7009805280AD0FFE7E1
:102DF0000098072806D011E00299019840EA813036
:102E000001900CE0029820F00400029002990198D1
:102E100040EA813040F08050019000E0FFE70198E7
:102E200041F20401C4F20201086003B070470000DF
:102E300097B016900020149040F20671C0F6081169
:102E4000099140F20121C0F20341089107900690D8
:102E5000059104900391029041F20400C4F2020033
:102E60000068C0F3810015901598019040B1FFE70C
:102E7000019801280AD0FFE7019802280CD05AE0F7
:102E800041F20020C0F27A0013905AE041F2002093
:102E9000C0F27A00139054E041F20400C4F2020040
:102EA000006800F480300F900F98B0F5803F19D182
:102EB000FFE741F20020C0F27A000C9041F20400DA
:102EC000C4F20200006800F400300E900E98B0F5D5
:102ED000003F06D1FFE740F60010C0F23D000C9025
:102EE000FFE705E040F60010C0F23D000C90FFE760
:102EF00041F20400C4F202000168C1F383410D9164
:102F000000680001002805D5FFE70D9840F010008B
:102F10000D90FFE70D980E2804D8FFE70D980230BA
:102F20000D9003E00D9801300D90FFE70C980D997E
:102F30004843139005E041F20020C0F27A0013905C
:102F4000FFE741F20400C4F202000168C9B20909B6
:102F50000B910B9A06A9895C0A9113990A9AD140A0
:102F600012910168C1F302210B910B9A04A9895CAB
:102F70000A9112990A9AD14011910068C0F3C220B7
:102F80000B900B9902A8405C0A9012980A99C840CD
:102F9000109016980090032810D80099DFE801F0EF
:102FA0000205080B1398149009E01298149006E09B
:102FB0001198149003E01098149000E0FFE7149823
:102FC00017B0704781B00090009800F01F020121F7
:102FD00001FA02F3810941F20002C4F202028858A8
:102FE0001843885001B0704781B00090009800F0FD
:102FF0001F02012101FA02F3810941F20002C4F229
:10300000020288589843885001B0704781B0009000
:10301000009800F01F02012101FA02F3810941F238
:103020000002C4F2020288581843885001B0704769
:1030300010B594B0139046F25413C0F600030193F8
:10304000186859689A68D3F80CC0D3F810E05C6926
:103050000894CDF81CE0CDF818C0059204910390B7
:103060009869D9691A6AD3F824C0D3F828E0DC6AD1
:103070000E94CDF834E0CDF830C00B920A9109904F
:10308000186B596B9A6BDB6B1293119210910F9026
:1030900000208DF80B00FFE79DF80B1003A850F8F7
:1030A000310048B1FFE740F60C01C4F201010868A5
:1030B00040F48060086008E040F60C01C4F20101B1
:1030C000086820F480600860FFE79DF80B0007287F
:1030D00016D8FFE79DF80B10481C8DF80B0003A8CD
:1030E00000EBC10080884FF47A71484344F6D35115
:1030F000C1F26201A0FB0110800901F0CBF903E0ED
:1031000000208DF80B00FFE7C6E7000080B58AB00D
:10311000099000200790ADF81A000590FFE740F2F3
:103120009C20C2F20000008840F2CE71884221D873
:10313000FFE740F60800C4F201000068C00500285F
:103140000FD5FFE740F29A21C2F200010888013052
:10315000088040F29C21C2F20001088801300880FA
:1031600007E040F29C21C2F200010888013008808B
:10317000FFE71EE040F29A20C2F2000001886422BC
:10318000514340F29C22C2F200021388B1FBF3F3D8
:1031900040F29E21C2F200010B70002313800380D5
:1031A00040F21820C2F2000000681A4601F098FDB3
:1031B000FFE740F29820C2F20000008840F2E731B9
:1031C00088420ED1FFE740F29821C2F200010020B0
:1031D000088040F26801C2F200010868013008600E
:1031E00007E040F29821C2F200010888013008800F
:1031F000FFE70798089005980130059040F6080011
:10320000C4F201000068C005002803D5FFE70120D3
:10321000079002E000200790FFE70898079988428E
:1032200006D1FFE7BDF81A000130ADF81A001AE028
:1032300040F2DC10C2F20000006807990191BDF86D
:103240001A10ADF8081001A9002300931A4601F0E6
:1032500047FD009840F2E012C2F200020121116025
:10326000ADF81A00FFE7059847F6D501C2F2E9610B
:1032700048434FEA700042F2DD41C0F20611884235
:103280004ED8FFE740F60C41C4F20101086880F017
:103290008000086040F29420C2F200000068E8B1AB
:1032A000FFE740F29420C2F200000068FEF784F8C5
:1032B000032809D0FFE741F20C01C4F201010868BC
:1032C00080F40050086008E041F20C01C4F20101F2
:1032D000086820F400500860FFE708E041F20C01A4
:1032E000C4F20101086820F400500860FFE7BDF84F
:1032F0001A0000097C2809D8FFE740F60C41C4F207
:103300000101086880F04000086008E040F60C41C8
:10331000C4F20101086820F040000860FFE7FFE701
:10332000012001F0B7F8FAE680B582B001908DF87F
:103330000310019880B9FFE79DF8030000EB8001BE
:103340004FF0FF3000EB410240F20040C4F20000B9
:10335000032100F059FA14E0019801280ED1FFE78B
:103360009DF8030000EB80014FF0FF3000EB4102BD
:103370004FF08040002100F047FA01E000BFFFE776
:10338000FFE702B080BD000084B0002003900290EF
:1033900041F20001C4F20201086840F48030086084
:1033A000FFE703980130039041F20000C4F20200ED
:1033B000006800F400300290FFE7029900200190BD
:1033C00041B9FFE703984FF6FF71401A18BF01207B
:1033D0000190FFE70198C0070028E2D1FFE741F222
:1033E0000000C4F2020000688003002802D4FFE756
:1033F000FFE7FEE741F20401C4F202010091086810
:10340000086008680860086840F480600860086820
:1034100020F440300860086840F4403008600868D4
:103420004FF6FF72CFF2C3721040086008680022A6
:10343000C0F628021043086041F20001C4F2020104
:10344000086840F080700860FFE741F20000C4F2B5
:10345000020000688001002801D4FFE7F5E741F28F
:103460000401C4F20201086820F003000860086843
:1034700040F002000860FFE741F20400C4F20200DD
:1034800000680007002801D4FFE7F5E704B07047A3
:1034900080B5FFF779FF80BD81B000900099086882
:1034A00040F08000086001B07047000084B00390D5
:1034B000ADF80A100192BDF80A00014600910328F8
:1034C00000F259810099DFE811F004005D00BC00B2
:1034D0001B010399086A20F00100086203998869BA
:1034E00020F003008861019802880399086A10435C
:1034F00008620399086A20F0020008620198828835
:103500000399086A10430862039842F60041C4F226
:103510000101884208D0FFE7039843F20041C4F25A
:10352000010188422DD1FFE70399086A20F00400C9
:103530000862019842880399086A10430862039957
:10354000086A20F0080008620198C2880399086A96
:10355000104308620399486820F48070486001981D
:10356000028903994868104348600399486820F429
:103570000070486001984289039948681043486088
:10358000FFE7F9E00399086A20F010000862039948
:10359000886920F440708861019802880399086A5C
:1035A00040EA021008620399086A20F020000862CD
:1035B000019882880399086A40EA02100862039819
:1035C00042F60041C4F20101884208D0FFE70398A7
:1035D00043F20041C4F20101884231D1FFE703996F
:1035E000086A20F040000862019842880399086A3E
:1035F00040EA021008620399086A20F0800008621D
:103600000198C2880399086A40EA02100862039987
:10361000486820F4806048600198028903994868EE
:1036200040EA820048600399486820F400604860DE
:10363000019842890399486840EA82004860FFE7A0
:103640009AE00399086A20F4807008620399C869B7
:1036500020F00300C861019802880399086A40EAD3
:10366000022008620399086A20F400700862019839
:1036700082880399086A40EA02200862039842F6A9
:103680000041C4F20101884208D0FFE7039843F2E9
:103690000041C4F20101884231D1FFE70399086A71
:1036A00020F480600862019842880399086A40EA21
:1036B000022008620399086A20F4006008620198F9
:1036C000C2880399086A40EA0220086203994868A0
:1036D00020F480504860019802890399486840EAC4
:1036E000021048600399486820F40050486001982F
:1036F00042890399486840EA02104860FFE73BE0CE
:103700000399086A20F4805008620399C86920F47C
:103710004070C861019802880399086A40EA023043
:1037200008620399086A20F40050086201988288B0
:103730000399086A40EA02300862039842F60041A1
:10374000C4F20101884208D0FFE7039843F2004128
:10375000C4F2010188420DD1FFE70399486820F4C3
:1037600080404860019802890399486840EA8210C5
:103770004860FFE700E0FFE704B0704783B00290C5
:10378000ADF80610ADF80420BDF806000146009122
:10379000032836D80099DFE801F0020E1B270299B2
:1037A000886920F070008861BDF80420029988695A
:1037B0001043886126E00299886920F4E04088611E
:1037C000BDF804200299886940EA0220886119E066
:1037D0000299C86920F07000C861BDF80420029900
:1037E000C8691043C8610DE00299C86920F4E0403F
:1037F000C861BDF804200299C86940EA0220C86186
:1038000000E0FFE703B0704784B00390ADF80A1002
:103810000192BDF80A0001460091032814D80099CE
:10382000DFE801F002060A0E0198039948630CE0F4
:1038300001980399886308E001980399C86304E03C
:1038400001980399086400E0FFE704B070470000A6
:1038500083B00290ADF80610ADF80420BDF8060064
:1038600001460091032836D80099DFE801F0020EE6
:103870001B270299886920F008008861BDF80420A0
:10388000029988691043886126E00299886920F4CA
:1038900000608861BDF804200299886940EA02202E
:1038A000886119E00299C86920F00800C861BDF874
:1038B00004200299C8691043C8610DE00299C869E3
:1038C00020F40060C861BDF804200299C86940EA8C
:1038D0000220C86100E0FFE703B0704780B58AB0FE
:1038E000099009980890B0F1804F41D0FFE70898FF
:1038F00040F20041C4F20001884242D0FFE708983C
:1039000040F60001C4F20001884243D0FFE7089866
:1039100040F60041C4F20001884244D0FFE7089815
:1039200041F20001C4F20001884245D0FFE7089847
:1039300041F20041C4F20001884246D0FFE70898F6
:1039400042F60041C4F20101884208D0FFE708981E
:1039500043F20041C4F2010188423FD047E040F207
:103960000B300790FFF752FB0798FFF73DFB3FE056
:103970004FF480600690FFF749FB0698FFF734FB91
:1039800036E040F201400590FFF740FB0598FFF755
:103990002BFB2DE040F202400490FFF737FB049828
:1039A000FFF722FB24E040F203400390FFF72EFBD9
:1039B0000398FFF719FB1BE040F204400290FFF769
:1039C00025FB0298FFF710FB12E040F20540019042
:1039D000FFF71CFB0198FFF707FB09E040F20D30F1
:1039E0000090FFF713FB0098FFF7FEFA00E0FFE7F7
:1039F0000AB080BD81B000900099086840F00100D5
:103A0000086001B07047000082B0019000910098FA
:103A1000008801998862019842F60041C4F20101D0
:103A2000884255D0FFE70198B0F1804F50D0FFE7B2
:103A3000019840F20041C4F20001884248D0FFE7FB
:103A4000019840F60001C4F20001884240D0FFE72F
:103A5000019840F60041C4F20001884238D0FFE7E7
:103A6000019843F20041C4F20101884230D0FFE7DF
:103A7000019844F60041C4F20101884228D0FFE7D2
:103A8000019845F20001C4F20101884220D0FFE70D
:103A9000019845F20041C4F20101884218D0FFE7C5
:103AA000019841F60001C4F20001884210D0FFE7FE
:103AB000019841F60041C4F20001884208D0FFE7B6
:103AC000019842F20001C4F20001884216D1FFE7DA
:103AD0000199086820F0700008600098408800F0A4
:103AE000600201990868104308600098808800F01F
:103AF00010020199086810430860FFE70098806889
:103B00000199C862019841F20001C4F200018842A3
:103B100016D0FFE7019841F20041C4F2000188424B
:103B20000ED0FFE70199086820F440700860009803
:103B3000808900F440720199086810430860FFE72B
:103B4000019842F60041C4F20101884208D0FFE723
:103B5000019843F20041C4F20101884205D1FFE718
:103B60000098807B01990863FFE70199486940F05C
:103B70000100486102B0704782B001900091009A44
:103B8000019908699043086102B0704784B00290BF
:103B900001910298C068019908400090029800695C
:103BA0000199084206D0FFE7009818B1FFE701200D
:103BB000039002E000200390FFE7039804B07047F1
:103BC00082B0019000208DF80300FFE79DF803000C
:103BD000092813DCFFE701989DF8031030F8112045
:103BE00040F2A821C2F20001086810440860FFE713
:103BF0009DF8030001308DF80300E7E740F2A820AC
:103C0000C2F2000000684CF6CD41CCF6CC41A0FBDE
:103C10000110C0F3CF0002B07047000080B586B03D
:103C2000ADF81600BDF816106FF39F2140F2B020DA
:103C3000C2F200000180008802F022F80190029197
:103C400045F2EC12C1F6B8624EF68533C3F6D17375
:103C500002F02EF8019A029B02F02AF8024601981F
:103C600003920A46029904924EF24812C1F27A4235
:103C700044F2AE73C4F20D0302F01AF80246039840
:103C80000B46049901F054FF48F21F52C5F2EB12A3
:103C90004BF6B863C4F2420301F04AFF01F016FF8D
:103CA000014640F2AC20C2F200000160006802F060
:103CB000EBF906B080BD000083B001908DF80310D1
:103CC0000198D0F8F00008B3FFE700208DF802005B
:103CD000FFE79DF8020077280ED8FFE79DF8030064
:103CE00001999DF8022021F81200FFE79DF80200DB
:103CF00001308DF80200ECE701990020C1F8F000D6
:103D0000019890F8EE008DF80B0022E001208DF86C
:103D10000100FFE79DF80100782810D8FFE701991E
:103D20009DF8012001EB420030F8020C21F812004E
:103D3000FFE79DF8010001308DF80100EAE79DF8EA
:103D4000030001990880019890F8EE008DF80B00AF
:103D5000FFE79DF80B0003B07047000080B588B006
:103D60000790069100200590049003900290079818
:103D7000019044F20041C4F20001884225D0FFE7DF
:103D8000019844F60001C4F20001884222D0FFE706
:103D9000019844F60041C4F2000188421FD0FFE7B9
:103DA000019845F20001C4F2000188421CD0FFE7EF
:103DB000019843F60001C4F20101884219D1FFE7DE
:103DC0000320FFF735F8059014E00220FFF730F8E4
:103DD00005900FE00220FFF72BF805900AE0022083
:103DE000FFF726F8059005E00220FFF721F805907F
:103DF00000E0FFE70598069900EB5100B0FBF1F0F9
:103E0000029002984FF6F07108400490029800F07A
:103E10000F000390BDF81000BDF80C10084307997F
:103E2000886008B080BD000080B588B00790079812
:103E3000069044F20041C4F20001884229D0FFE715
:103E4000069844F60001C4F2000188422AD0FFE738
:103E5000069844F60041C4F2000188422BD0FFE7E7
:103E6000069845F20001C4F2000188422CD0FFE719
:103E7000069843F60001C4F2010188422DD1FFE704
:103E800040F20E300590FFF7C1F80598FFF7ACF847
:103E900024E040F211400490FFF7B8F80498FFF7CF
:103EA000A3F81BE040F212400390FFF7AFF803982D
:103EB000FFF79AF812E040F213400290FFF7A6F8DD
:103EC0000298FFF791F809E040F214400190FFF7E3
:103ED0009DF80198FFF788F800E0FFE708B080BD83
:103EE00081B000900099C86840F40050C86001B0EB
:103EF0007047000082B0019000910199C86820F4D9
:103F0000C060C860009A0199C8681043C86002B0D8
:103F10007047000083B00290019100200090029849
:103F2000C0680090009820F0080000900199009867
:103F30000843009000980299C86003B070470000E1
:103F400082B00190019800690090019841688068F2
:103F500088600199486889684860009840680199BC
:103F6000884205D1FFE7019880680099486000E029
:103F7000FFE701990020086100990868013808608E
:103F80000098006802B0704782B00190ADF802104E
:103F90000198007D0A280BD8FFE7BDF802000199BF
:103FA0000A7D531C0B7501EB420121F8020C13E052
:103FB0000198806920B1FFE7019900208861FFE73F
:103FC000019900200875BDF8020001990A7D531C73
:103FD0000B7521F81200FFE702B0704781B0009026
:103FE000009901F10800486000994FF0FF308860A7
:103FF000009901F10800C860009901F1080008610A
:1040000000990020086001B07047000081B0009066
:1040100000990020086101B07047000084B003904F
:1040200002910298006800900098013020B9FFE7E3
:1040300003980069019010E0039808300190FFE7B1
:104040000198406800680099884205D8FFE7FFE7BB
:10405000019840680190F3E7FFE7019840680299F2
:1040600048600298416888600198029988600298C7
:104070000199486003980299086103990868013022
:10408000086004B07047000083B00290019102986C
:1040900040680090009801994860009880680199F4
:1040A0008860019800998968486001980099886043
:1040B000029801990861029908680130086003B00C
:1040C0007047000082B04FF0500080F31188BFF3BA
:1040D0006F8FBFF34F8F009040F20400C2F20000D8
:1040E0000168013101600068012814D1FFE74EF634
:1040F0000450CEF200000068000658B1FFE74FF010
:10410000500080F31188BFF36F8FBFF34F8F019082
:10411000FFE7FEE7FFE702B07047000082B040F221
:104120000400C2F20000006858B9FFE74FF05000E9
:1041300080F31188BFF36F8FBFF34F8F0090FFE7BD
:10414000FEE740F20400C2F200000168013901609C
:10415000006830B9FFE700200190019880F31188D2
:10416000FFE702B07047000080B582B0019001986F
:1041700040B1FFE700F006FC0198FCF77AF801F087
:104180005DFBFFE702B080BD40F20000C2F200001C
:10419000016844F6D352C1F26202A1FB02318B09DD
:1041A00040F2C421C2F200010B600B686FF07F4146
:1041B000B1FBF3F140F23033C2F20003196040F278
:1041C000C023C2F200032D2119604EF21001CEF27D
:1041D000000100230B604EF2180CCEF2000CCCF85C
:1041E00000300068A0FB02024FF0FF3000EB92109D
:1041F0004EF21402CEF200021060072008607047F1
:1042000080B586B00590059840F23031C2F20001C9
:104210000968884207D9FFE740F23030C2F2000057
:1042200000680590FFE74EF21001CEF20001086829
:1042300020F0010008604EF21800CEF20000026883
:1042400040F2C420C2F2000000680599013900FB69
:1042500001200490049840F2C021C2F200010968D4
:10426000884209D9FFE740F2C020C2F2000001688D
:104270000498401A0490FFE772B6BFF34F8FBFF364
:104280006F8FFDF75FF8D8B9FFE74EF21800CEF256
:10429000000000684EF21401CEF2000108604EF2F8
:1042A0001002CEF20002106840F00100106040F2EF
:1042B000C420C2F2000000680138086062B6A3E0C2
:1042C00004984EF21401CEF2000108604EF218017B
:1042D000CEF20001002008604EF21001CEF2000183
:1042E000086840F00100086005980190019830B11D
:1042F000FFE7BFF34F8F30BFBFF36F8FFFE762B6AB
:10430000BFF34F8FBFF36F8F72B6BFF34F8FBFF303
:104310006F8F4EF21000CEF200000621016000689F
:10432000C003002833D5FFE740F2C420C2F20000EA
:104330000068049A4EF21801CEF200010968891A49
:10434000084401380090009840F2C021C2F20001F8
:104350000968884209D3FFE7009840F2C421C2F2FD
:1043600000010968884208D9FFE740F2C420C2F280
:104370000000006801380090FFE700984EF2140139
:10438000CEF2000108600598013803901EE0059800
:1043900040F2C421C2F200010A6850434EF21802F2
:1043A000CEF200021268801A029002980A68B0FBEE
:1043B000F2F0039003980130096848430299401ACB
:1043C0004EF21401CEF200010860FFE74EF2180130
:1043D000CEF20001002008604EF21001CEF2000182
:1043E000086840F001000860039800F0E7F940F227
:1043F000C420C2F20000006801384EF21401CEF26F
:104400000001086062B6FFE706B080BD80B584B0E9
:1044100003900291019203980090FFF753FE0098D9
:1044200090F94400013028B9FFE70099002081F895
:104430004400FFE7009890F94500013028B9FFE7F4
:104440000099002081F84500FFE7FFF767FE00981C
:10445000806B38B9FFE7009824300299019A00F088
:104460008DF800E0FFE70098FEF7E8FB04B080BDA0
:1044700081B0009000990120C1F8F00001B07047B0
:1044800081B0009000990120886100990020087592
:1044900001B0704780B584B002900020019002986E
:1044A000E0B1FFE740F2D020C2F20000006858B14E
:1044B000FFE74FF0500080F31188BFF36F8FBFF319
:1044C0004F8F0390FFE7FEE700F05CFA02980021AF
:1044D000FDF7ACFC01F0B2F9019000E0FFE70198B4
:1044E00060B9FFE74EF60451CEF200014FF0805064
:1044F0000860BFF34F8FBFF36F8F00E0FFE704B09A
:1045000080BD000081B0009040F23830C2F200005F
:1045100000680099086040F28030C2F20000006834
:104520000099486001B0704740F28C31C2F200013E
:10453000012008607047000080B584B002900191AE
:10454000029858B9FFE74FF0500080F31188BFF38D
:104550006F8FBFF34F8F0390FFE7FEE7029840F2A3
:104560001C21C2F2000109681831FFF757FD0198BC
:104570000121FDF75BFC04B080BD000080B586B072
:10458000049003910292049858B9FFE74FF050004D
:1045900080F31188BFF36F8FBFF34F8F0590FFE754
:1045A000FEE7049840680190019840F21C21C2F295
:1045B00000010A68D061019880680A681062086882
:1045C0001830019A9268506008681830019A90601B
:1045D00004980968886204990868013008600298A4
:1045E00020B1FFE74FF0FF300390FFE703980299F7
:1045F000FDF71CFC06B080BD80B584B00290029827
:104600000190029858B9FFE74FF0500080F31188ED
:10461000BFF36F8FBFF34F8F0390FFE7FEE7019863
:1046200040F21C21C2F200010968884265D0FFE710
:104630000198002861D0FFE7FFF744FD0198FEF7DD
:10464000B7FA002855D0FFE701980430FFF778FC4F
:104650000198C16A012000FA01F240F2D821C2F2A9
:1046600000010868104308600198C06A00EB8000F0
:1046700040F23021C2F2000101EB8000406800905E
:104680000098019A906000988068019AD060019823
:104690000430009A9268506001980430009A90604B
:1046A000019AD06A00EB800001EB80005061019814
:1046B000C06A00EB800251F82200013041F822006C
:1046C0000198C06A40F21C21C2F200010968C96A5F
:1046D00088420CD3FFE74EF60451CEF200014FF0B2
:1046E00080500860BFF34F8FBFF36F8F00E0FFE78C
:1046F00000E0FFE7FFF712FD00E0FFE704B080BD38
:1047000080B586B040F22C31C2F2000168464160AB
:104710000023036042F25130C0F6000046F2282127
:10472000C0F60001802200F081FD0390039801286B
:1047300004D1FFE701F094F9039000E0FFE703984C
:10474000012823D1FFE74FF0500080F31188BFF319
:104750006F8FBFF34F8F049040F23431C2F20001EB
:104760004FF0FF30086040F25431C2F200010120E6
:10477000086040F28031C2F200010020086000F0C1
:1047800069F908B1FFE700E0FFE70FE003980130A7
:1047900058B9FFE74FF0500080F31188BFF36F8FD7
:1047A000BFF34F8F0590FFE7FEE7FFE746F23820A3
:1047B000C0F60000006806B080BD000082B0009026
:1047C00040F28030C2F2000000680099084440F2D4
:1047D0003431C2F20001096888420BD9FFE74FF07B
:1047E000500080F31188BFF36F8FBFF34F8F01909C
:1047F000FFE7FEE7009A40F28031C2F2000108684C
:104800001044086002B0704780B586B00490FFF78E
:1048100059FC049838B9FFE740F21C20C2F20000AE
:104820000068019002E004980190FFE7019803906E
:1048300003980430FFF784FBD0B9FFE70398C06A00
:1048400000EB800140F23020C2F2000050F821005D
:1048500068B9FFE70398C16A012000FA01F240F24B
:10486000D821C2F20001086890430860FFE700E029
:10487000FFE70398806A28B1FFE703981830FFF735
:104880005FFB00E0FFE70398011D40F25830C2F2E1
:104890000000FFF7F9FB00200290FFE702980028D4
:1048A00014DCFFE703980299084490F854000128AB
:1048B00007D1FFE7039802990144002081F85400D2
:1048C000FFE7FFE7029801300290E7E7FFF726FCD9
:1048D00040F25430C2F20000006838B1FFE7FFF741
:1048E000F1FBFEF7D5F8FFF719FC00E0FFE70398AE
:1048F00040F21C21C2F20001096888423ED1FFE764
:1049000040F25430C2F200000068F0B1FFE740F21C
:10491000D020C2F20000006858B1FFE74FF050000D
:1049200080F31188BFF36F8FBFF34F8F0590FFE7C0
:10493000FEE74EF60451CEF200014FF080500860C1
:10494000BFF34F8FBFF36F8F17E040F25830C2F2C2
:104950000000006840F2C821C2F2000109688842E4
:1049600007D1FFE740F21C21C2F2000100200860DD
:1049700002E000F00FF8FFE7FFE700E0FFE706B016
:1049800080BD000040F2D021C2F200010868013071
:104990000860704785B040F2D020C2F20000006885
:1049A00038B1FFE740F28C31C2F20001012008600B
:1049B0004DE040F28C31C2F200010020086040F26C
:1049C000D820C2F20000006803900398B0FA80F08B
:1049D0008DF80B009DF80B00C0F11F0001900198AD
:1049E00000EB800140F23020C2F2000050F82100BC
:1049F00058B9FFE74FF0500080F31188BFF36F8F75
:104A0000BFF34F8F0490FFE7FEE7019800EB8001B2
:104A100040F23020C2F2000000EB810000900099CB
:104A2000486840684860009948680831884205D164
:104A3000FFE70099486840684860FFE700984068D1
:104A4000C06840F21C21C2F200010860FFE705B017
:104A50007047000080B586B04EF20040CEF20000F4
:104A6000039001780491FF21017000788DF80B000C
:104A70009DF80B0000F0500040F2B821C2F2000196
:104A8000087040F2BC21C2F2000107200860FFE775
:104A90009DF80B00000600280DD5FFE740F2BC2171
:104AA000C2F200010868013808609DF80B00400060
:104AB0008DF80B00ECE740F2BC20C2F20000006869
:104AC00003280BD0FFE74FF0500080F31188BFF3AD
:104AD0006F8FBFF34F8F0590FFE7FEE740F2BC21D9
:104AE000C2F20001086800020860086800F4E06093
:104AF000086004984EF20041CEF2000108704EF6B4
:104B00002051CEF20001086840F4E0000860086817
:104B100040F0E0400860FFF737FB40F20401C2F2CA
:104B20000001002001900860FDF750FEFFF732FF02
:104B3000FEF718F8019806B080BD000080B588B077
:104B4000069005918DF8132000200390069880B3FD
:104B5000FFE706994FF0FF30B0FBF1F0059988426E
:104B600027D3FFE706980599484310F1550F20D841
:104B7000FFE7069805994843029002985430FEF7E3
:104B8000C3F80390039890B1FFE703980190019850
:104B90005430019006980599019A9DF81330DDF87C
:104BA0000CC0EE46CEF800C0FDF720FC00E0FFE7A9
:104BB0000EE0039858B9FFE74FF0500080F31188DA
:104BC000BFF36F8FBFF34F8F0790FFE7FEE7FFE75D
:104BD000039808B080BD000080B586B003900291B4
:104BE0000120019003980090009858B9FFE74FF01A
:104BF000500080F31188BFF36F8FBFF34F8F049085
:104C0000FFE7FEE70098002856D0FFE70098C06B4A
:104C1000002851D0FFE70098C26B016C4FF0FF30C5
:104C2000B0FBF2F0884247D3FFE7FFF74BFA009959
:104C30000B68C86B0A6C00FB02308860009900208A
:104C4000886300990868486000990B68C86B0A6C13
:104C5000013800FB0230C8600099FF2081F8440051
:104C6000009981F845000298D0B9FFE700980069E3
:104C7000A0B1FFE70098103000F016FD60B1FFE72B
:104C80004EF60451CEF200014FF080500860BFF3A1
:104C90004F8FBFF36F8F00E0FFE700E0FFE708E012
:104CA00000981030FFF79AF900982430FFF796F932
:104CB000FFE7FFF733FA02E000200190FFE70198D9
:104CC00058B9FFE74FF0500080F31188BFF36F8FA2
:104CD000BFF34F8F0590FFE7FEE7019806B080BD58
:104CE00080B592B00C900B910A9209930020089025
:104CF0000C980490049858B9FFE74FF0500080F3E7
:104D00001188BFF36F8FBFF34F8F0E90FFE7FEE761
:104D10000B990020029039B9FFE70498006C002835
:104D200018BF01200290FFE70298C00758B1FFE7C3
:104D30004FF0500080F31188BFF36F8FBFF34F8F98
:104D40000F90FFE7FEE7099900200229019007D1A3
:104D5000FFE70498C06B013818BF01200190FFE7FE
:104D60000198C00758B1FFE74FF0500080F3118859
:104D7000BFF36F8FBFF34F8F1090FFE7FEE700F098
:104D8000A1FA01460020009031B9FFE70A980028F7
:104D900018BF01200090FFE70098C00758B1FFE757
:104DA0004FF0500080F31188BFF36F8FBFF34F8F28
:104DB0001190FFE7FEE7FFE7FFF784F90498806BA7
:104DC0000499C96B884204D3FFE70998022858D197
:104DD000FFE70498806B039004980B99099AFDF7FC
:104DE000E7F907900498806CE0B1FFE70998022882
:104DF00004D1FFE7039808B1FFE712E00498FDF73C
:104E000079FC60B1FFE74EF60451CEF200014FF09D
:104E100080500860BFF34F8FBFF36F8F00E0FFE754
:104E2000FFE729E00498406AA0B1FFE70498243026
:104E300000F03AFC60B1FFE74EF60451CEF20001FB
:104E40004FF080500860BFF34F8FBFF36F8F00E0CB
:104E5000FFE710E0079860B1FFE74EF60451CEF28D
:104E600000014FF080500860BFF34F8FBFF36F8F8A
:104E700000E0FFE7FFE7FFE7FFF750F901200D90A3
:104E800065E00A9828B9FFE7FFF748F900200D9080
:104E90005DE0089830B9FFE705A8FFF733FB012074
:104EA000089000E0FFE7FFE7FFE7FFF737F9FFF7BC
:104EB00069FDFFF707F9049890F94400013028B91B
:104EC000FFE70499002081F84400FFE7049890F977
:104ED0004500013028B9FFE70499002081F845001A
:104EE000FFE7FFF71BF905A80AA900F021F928BB85
:104EF000FFE70498FDF7E6FBC8B1FFE70498103020
:104F00000A99FFF719FB0498FDF798FE00F096FC4C
:104F100060B9FFE74EF60451CEF200014FF0805029
:104F20000860BFF34F8FBFF36F8FFFE705E0049872
:104F3000FDF784FE00F082FCFFE707E00498FDF730
:104F40007DFE00F07BFC00200D9000E034E70D9822
:104F500012B080BD80B58EB00990089107920020F4
:104F6000069009980390039858B9FFE74FF0500056
:104F700080F31188BFF36F8FBFF34F8F0B90FFE764
:104F8000FEE708990020019039B9FFE70398006C0B
:104F9000002818BF01200190FFE70198C00758B111
:104FA000FFE74FF0500080F31188BFF36F8FBFF31E
:104FB0004F8F0C90FFE7FEE700F084F901460020D8
:104FC000009031B9FFE70798002818BF0120009032
:104FD000FFE70098C00758B1FFE74FF0500080F39B
:104FE0001188BFF36F8FBFF34F8F0D90FFE7FEE780
:104FF000FFE7FFF767F80398806B0290029830B3E1
:10500000FFE703980899FDF7B1F802980138039972
:10501000886303980069A0B1FFE70398103000F09F
:1050200043FB60B1FFE74EF60451CEF200014FF0B2
:1050300080500860BFF34F8FBFF36F8F00E0FFE732
:1050400000E0FFE7FFF76AF801200A906DE007989B
:1050500028B9FFE7FFF762F800200A9065E006989C
:1050600030B9FFE704A8FFF74DFA0120069000E0F1
:10507000FFE7FFE7FFE7FFF751F8FFF783FCFFF7D4
:1050800021F8039890F94400013028B9FFE703990B
:10509000002081F84400FFE7039890F945000130B3
:1050A00028B9FFE70399002081F84500FFE7FFF7E3
:1050B00035F804A807A900F03BF830BBFFE70398D8
:1050C000FDF7ECFAD0B1FFE7039824300799FFF71A
:1050D00033FA0398FDF7B2FD00F0B0FB60B9FFE7CB
:1050E0004EF60451CEF200014FF080500860BFF33D
:1050F0004F8FBFF36F8F00E0FFE705E00398FDF7E8
:105100009DFD00F09BFBFFE70EE00398FDF796FD89
:1051100000F094FB0398FDF7C1FA18B1FFE70020F7
:105120000A9002E0FFE7FFE763E70A980EB080BD50
:1051300080B588B005900491059858B9FFE74FF005
:10514000500080F31188BFF36F8FBFF34F8F06902D
:10515000FFE7FEE7049858B9FFE74FF0500080F3EF
:105160001188BFF36F8FBFF34F8F0790FFE7FEE704
:10517000FEF7A8FF40F28030C2F200000068029003
:10518000029805994968401A019040F21C20C2F229
:105190000000006890F8550058B1FFE740F21C206D
:1051A000C2F200000168002081F855000120039040
:1051B00037E004980068013018B9FFE70020039039
:1051C0002EE040F23830C2F200000068059909680C
:1051D00088420CD0FFE7029805994968884206D3B7
:1051E000FFE70120039004990020086017E0019870
:1051F0000499096888420BD2FFE7019A049908686C
:10520000801A08600598FFF77DF90020039005E0FB
:1052100004990020086001200390FFE7FFE7FFE703
:10522000FFE7FEF77BFF039808B080BD70B58CB038
:10523000DDF844C0DDF840C00B900A91ADF826209F
:105240000893BDF826008000FDF75EFD05900598E7
:1052500080B1FFE75820FDF757FD0790079820B170
:10526000FFE705980799086303E00598FEF77CFFC0
:10527000FFE702E000200790FFE70798D8B1FFE7BB
:105280000B980A99BDF82620089BDDF840C0119CB8
:10529000079DEE460026CEF80C60CEF80850CEF8FA
:1052A0000440CEF800C0FDF7C9F80798FCF750FE9F
:1052B0000120069003E04FF0FF300690FFE70698CC
:1052C0000CB070BD81B040F25430C2F200000068F2
:1052D00018B9FFE7012000900DE040F2D020C2F2A3
:1052E0000000006818B9FFE70220009002E00020EB
:1052F0000090FFE7FFE7009801B0704781B040F2EF
:105300008030C2F2000000680090009801B0704741
:1053100080B58AB00020069040F2D020C2F2000092
:105320000068002840F01981FFE740F28031C2F2A6
:10533000000108680130059005980860059858BB81
:10534000FFE740F22420C2F200000068006858B174
:10535000FFE74FF0500080F31188BFF36F8FBFF36A
:105360004F8F0990FFE7FEE740F22422C2F20002CD
:105370001068049040F22821C2F200010868106011
:105380000498086040F23831C2F200010868013028
:105390000860FDF77DFB00E0FFE7059840F234313F
:1053A000C2F2000109688842C0F0B680FFE7FFE75B
:1053B00040F22420C2F200000068006840B9FFE714
:1053C00040F23431C2F200014FF0FF300860A2E039
:1053D00040F22420C2F200000068C068C068089053
:1053E00008984068079005980799884207D2FFE718
:1053F000079840F23431C2F2000108608BE0FFE709
:1054000008984069039008988168C0688860089986
:105410008868C968486003984068089904318842E0
:1054200005D1FFE70898C06803994860FFE708992D
:105430000020486103990868013808600898806A6C
:10544000F8B1FFE70898806A02900898C169006A7D
:1054500088600899C869096A486002984068089994
:105460001831884205D1FFE70898006A0299486020
:10547000FFE70899002088620299086801380860EF
:1054800000E0FFE70898C16A012000FA01F240F24B
:10549000D821C2F200010868104308600898C06A69
:1054A00000EB800040F23021C2F2000101EB8000ED
:1054B000406801900198089A906001988068089A65
:1054C000D06008980430019A9268506008980430BF
:1054D000019A9060089AD06A00EB800001EB80008E
:1054E00050610898C06A00EB800251F82200013038
:1054F00041F822000898C06A40F21C21C2F2000163
:105500000968C96A884203D3FFE70120069000E0DA
:10551000FFE7FFE74CE7FFE740F21C20C2F2000084
:105520000068C06A00EB800140F23020C2F2000047
:1055300050F82100022803D3FFE70120069000E085
:10554000FFE740F28C30C2F20000006818B1FFE7BC
:105550000120069000E0FFE707E040F23C31C2F294
:105560000001086801300860FFE706980AB080BDB6
:1055700080B586B0039003980290002001900398B4
:10558000002800F08D80FFE7029840F21C21C2F253
:105590000001096888420BD0FFE74FF0500080F30C
:1055A0001188BFF36F8FBFF34F8F0490FFE7FEE7C3
:1055B0000298C06C58B9FFE74FF0500080F3118893
:1055C000BFF36F8FBFF34F8F0590FFE7FEE70299A0
:1055D000C86C0138C8640299C86A896C88425DD079
:1055E000FFE70298C06C002856D1FFE7029804300C
:1055F000FEF7A6FC68B9FFE70298C16A012000FA2D
:1056000001F240F2D821C2F200010868904308601C
:1056100000E0FFE70299886CC8620299C86AC0F18D
:10562000050088610298C16A012000FA01F340F286
:10563000D822C2F200021168194311600299C96AA6
:1056400001EB810140F23022C2F2000202EB810143
:10565000496800910099029B996000998968029BB2
:10566000D96002990431009B9B685960029904310A
:10567000009B9960029BD96A01EB810102EB8101D9
:1056800059610299C96A01EB810352F82310013173
:1056900042F82310019000E0FFE700E0FFE700E0A0
:1056A000FFE7019806B080BD80B588B006900698E7
:1056B000C068C0680590059858B9FFE74FF05000E2
:1056C00080F31188BFF36F8FBFF34F8F0790FFE711
:1056D000FEE70598806A03900598C169006A8860B2
:1056E0000599C869096A48600398406805991831A6
:1056F000884205D1FFE70598006A03994860FFE7F3
:10570000059900208862039908680138086040F212
:10571000D020C2F200000068002859D1FFE70598A8
:105720004069029005988168C0688860059988681A
:10573000C96848600298406805990431884205D1DB
:10574000FFE70598C06802994860FFE705990020C7
:10575000486102990868013808600598C16A01200B
:1057600000FA01F240F2D821C2F2000108681043A9
:1057700008600598C06A00EB800040F23021C2F258
:10578000000101EB8000406801900198059A90604B
:1057900001988068059AD06005980430019A926853
:1057A000506005980430019A9060059AD06A00EB29
:1057B000800001EB800050610598C06A00EB800218
:1057C00051F82200013041F82200FDF761F91BE099
:1057D00040F24031C2F20001486800900098059AFA
:1057E000D06100988068059A106205981830009A78
:1057F0009268506005981830009A90600598816210
:10580000086801300860FFE70598C06A40F21C2173
:10581000C2F200010968C96A884208D9FFE701207D
:10582000049040F28C31C2F20001086002E00020D6
:105830000490FFE7049808B080BD000080B588B0F0
:1058400000200690059040F2D020C2F200000068CF
:1058500058B9FFE74FF0500080F31188BFF36F8F06
:10586000BFF34F8F0790FFE7FEE7FEF72BFC40F2F8
:10587000D020C2F2000001680139016000680028F0
:1058800040F0E780FFE740F2C820C2F20000006865
:10589000002800F0DD80FFE7FFE740F24030C2F271
:1058A00000000068002800F09080FFE740F24030E0
:1058B000C2F20000C068C06806900698806A049032
:1058C0000698C169006A88600699C869096A4860D3
:1058D0000498406806991831884205D1FFE7069878
:1058E000006A04994860FFE70699002088620499DD
:1058F0000868013808600698406903900698816836
:10590000C068886006998868C968486003984068DC
:1059100006990431884205D1FFE70698C0680399CB
:105920004860FFE70699002048610399086801383C
:1059300008600698C16A012000FA01F240F2D821FD
:10594000C2F200010868104308600698C06A00EBC4
:10595000800040F23021C2F2000101EB800040687B
:1059600002900298069A906002988068069AD06029
:1059700006980430029A9268506006980430029AA1
:105980009060069AD06A00EB800001EB80005061C5
:105990000698C06A00EB800251F82200013041F8FD
:1059A00022000698C06A40F21C21C2F20001096878
:1059B000C96A884207D3FFE740F28C31C2F2000186
:1059C0000120086000E0FFE767E7069818B1FFE7ED
:1059D000FDF75EF8FFE740F23C30C2F200000068DD
:1059E00001900198E0B1FFE7FFE7FFF791FC38B1C4
:1059F000FFE740F28C31C2F200010120086000E0B4
:105A0000FFE7019801380190FFE701980028ECD1E9
:105A1000FFE740F23C31C2F200010020086000E0E4
:105A2000FFE740F28C30C2F20000006870B1FFE77F
:105A3000012005904EF60451CEF200014FF0805047
:105A40000860BFF34F8FBFF36F8F00E0FFE7FFE702
:105A500000E0FFE7FEF762FB059808B080BD00009C
:105A600080B584B000200290FCF71CFB40F284302B
:105A7000C2F200000068B8B1FFE740F28830C2F21D
:105A80000000694648600220086042F61D40C0F6EA
:105A9000000046F22D21C0F600014FF48072002371
:105AA000FFF7C4FB029000E0FFE7029858B9FFE758
:105AB0004FF0500080F31188BFF36F8FBFF34F8F0B
:105AC0000390FFE7FEE7029804B080BD21F000429A
:105AD00001F00043A2F16052B2F5801F28BFD2F15D
