:020000040800F2
:1000000078430020D5010008DD010008DF01000869
:10001000E1010008E3010008E5010008000000001C
:100020000000000000000000000000007106000851
:10003000E90100080000000021060008B5060008DC
:10004000EF010008EF010008EF010008EF010008D0
:10005000EF010008EF010008EF010008EF010008C0
:10006000EF010008EF010008EF010008EF010008B0
:10007000EF010008EF010008EF010008EF010008A0
:10008000EF010008EF010008EF010008EF01000890
:10009000EF010008EF010008EF010008EF01000880
:1000A000EF010008EF010008EF0100085907000800
:1000B000EF010008EF010008EF010008EF01000860
:1000C000EF010008EF010008EF010008EF01000850
:1000D000EF010008A9070008EF010008EF01000880
:1000E000EF010008EF010008EF010008EF01000830
:1000F000EF010008EF010008EF010008EF01000820
:10010000EF010008EF010008EF010008EF0100080F
:10011000EF010008EF010008EF010008EF010008FF
:10012000EF010008EF010008EF010008EF010008EF
:1001300000F002F800F03EF80AA090E8000C8244BB
:100140008344AAF10107DA4501D100F033F8AFF298
:10015000090EBAE80F0013F0010F18BFFB1A43F0A5
:1001600001031847345B0000545B0000103A24BFC1
:1001700078C878C1FAD8520724BF30C830C144BF0C
:1001800004680C607047000000230024002500264E
:10019000103A28BF78C1FBD8520728BF30C148BFEA
:1001A0000B6070471FB59DE8030000F0F9F81FBD14
:1001B00010B510BD00F0AAF91146FFF7F3FF01F0EA
:1001C0003BFA00F0C8F903B4FFF7F2FF03BC00F0FC
:1001D000F9F900000948804709480047FEE7FEE7B3
:1001E000FEE7FEE7FEE7FEE7FEE7FEE7FEE7FEE7E7
:1001F00004480549054A064B70470000F10600080F
:100200003101000878030020784300207823002083
:100210007823002070B5064600F0A6F8056806F1C0
:100220000B0020F00704B4429CBF002070BD2B4699
:100230006A68BAB11068A04210D304F1080188427C
:100240003CBF5068586007D351681019416011686D
:10025000091B016058601460101D70BD1346526880
:10026000002AE7D12146284600F086F80028DED192
:1002700070BD70B50446051F00F076F80068002CCC
:1002800014BF446870BD002C18BFAC423CBF204670
:100290006468F8D301680A18AA4218BF456003D100
:1002A0002A6805461144016028684119A1421CBF13
:1002B0006C6070BD6168696021680844286070BD29
:1002C000002800DA40427047032A40F2308010F0E4
:1002D000030C00F0158011F8013BBCF1020F6244E1
:1002E00098BF11F801CB00F8013B38BF11F8013B72
:1002F000A2F1040298BF00F801CB38BF00F8013B1F
:1003000011F0030300F08280083AC0F0088051F831
:10031000043B083A51F804CBA0E80810F5E7121D99
:100320005CBF51F8043B40F8043BAFF30080D207B8
:1003300024BF11F8013B11F801CB48BF11F8012B84
:1003400024BF00F8013B00F801CB48BF00F8012BA7
:10035000704702F0FF0343EA032242EA024200F040
:1003600089B87047704770470048704710000020F8
:10037000704770477047704738B504460A460020FA
:100380006946AFF30080002808BF38BD02460099D7
:10039000204600F099F8012038BD012000F0AEB8E9
:1003A000F8B5AFF30080054600200C46102000BFD2
:1003B0000646A819A0420DD9324669460020AFF37F
:1003C0000080070008BF00F099F80098A04218BF0D
:1003D0000546C419FFF7C8FF05600746F01D20F069
:1003E00007004619284600F00AF8B44208BFF8BDD5
:1003F000A21B31463868BDE8F84000F065B800211E
:100400000160C0E9011070471020704710B5203A14
:10041000C0F00B80B1E81850A0E81850B1E81850AF
:10042000A0E81850203ABFF4F5AF5FEA027C24BF81
:10043000B1E81850A0E8185044BF18C918C0BDE86A
:1004400010405FEA827C24BF51F8043B40F8043B33
:1004500008BF7047D20728BF31F8023B48BF11F8E8
:10046000012B28BF20F8023B48BF00F8012B704742
:100470004FF0000200B5134694469646203922BF3D
:10048000A0E80C50A0E80C50B1F12001BFF4F7AF88
:10049000090728BFA0E80C5048BF0CC05DF804EB6A
:1004A000890028BF40F8042B08BF704748BF20F8D8
:1004B000022B11F0804F18BF00F8012B704700008D
:1004C0000048704708000020034640688C4600281A
:1004D00018BF88423CBF03464068F8D318681844E8
:1004E000884207D00CF1030020F00700001D411ADC
:1004F000521A0146081D0A60FFF7BBBE10B500F096
:1005000039F8BDE8104000F02FB870477546FFF786
:10051000D7FFAE4605006946534620F007008546E2
:1005200018B020B5FFF764FEBDE820404FF000068C
:100530004FF000074FF000084FF0000BAC46ACE85E
:10054000C009ACE8C009ACE8C009ACE8C00921F0BA
:1005500007018D46704710B50446AFF30080204672
:10056000BDE81040FFF72FBE002801D000F02AB8E8
:100570007047000010B5012805D0002103A000F04D
:1005800027F8012010BD09A1F8E7000053494752A0
:10059000544D454D3A204F7574206F662068656153
:1005A00070206D656D6F7279000000003A2048651B
:1005B0006170206D656D6F727920636F72727570F6
:1005C0007465640001491820ABBEFEE726000200F6
:1005D00070B505460C460A2000E06D1C00F011F8CD
:1005E00035B128780028F8D102E0641C00F009F841
:1005F00014B120780028F8D1BDE870400A20AFF38C
:10060000008008B569468DF800000320ABBE08BD28
:10061000FFE700BFFDE70000000000000000000051
:10062000EFF30980BFF36F8F0D4B1A6820E9F00FCD
:1006300010602DE908404FF0500080F3118803F05E
:100640000BFF4FF0000080F31188BDE808401968E7
:100650000868B0E8F00F80F30988BFF36F8F704728
:100660000002002000000000000000000000000068
:10067000074B19680868B0E8F00F80F30988BFF3EA
:100680006F8F4FF0000080F311884EF00D0E704711
:100690000002002080B500F0B9F800F0EDF800F09D
:1006A000C5FA00F009FA00F053FA00F09BFA00F0E6
:1006B00091F880BD80B582B04FF0500080F3118872
:1006C000BFF36F8FBFF34F8F009004F083FB40B1F7
:1006D000FFE74EF60451CEF200014FF08050086063
:1006E000FFE700200190019880F3118802B080BDDF
:1006F00080B541F20001C4F20201086840F0010037
:10070000086041F20403C4F2020318680C22CEF61A
:10071000FF021040186008684FF6FF72CFF6F662CD
:1007200010400860086820F48020086018684FF6C0
:10073000FF7CCFF2007C00EA0C00186008681040D3
:10074000086041F20801C4F202014FF41F00086082
:1007500002F0EEFC80BD000080B542F60040C4F21D
:100760000100022103F062F8012808D1FFE742F6F8
:100770000040C4F20100022103F04EF812E042F6FC
:100780000040C4F20100042103F050F8012808D110
:10079000FFE742F60040C4F20100042103F03CF8F8
:1007A000FFE7FFE780BD00007047000080B582B022
:1007B0008DF807008DF806109DF8060000F028F966
:1007C0009DF8070000F0C6F89DF8060000F04AF911
:1007D00002B080BD80B582B042F20040C4F2010098
:1007E000019000F01DFB0020009000F089FB0099B3
:1007F000019800F001FB009B01980222194600F0CD
:100800008FFB019800F046FB02B080BD80B541F23D
:100810001801C4F20201086840F01C000860086872
:1008200040F480400860086840F601021043086008
:10083000086840F40070086041F21C01C4F2020133
:10084000086840F001000860086840F00200086095
:10085000086840F004000860032002F0F1F980BD50
:1008600080B582B00190019805F070F940F2D9414D
:10087000484380B202B080BD80B58AB041F200002A
:10088000C4F2010010210891012209924FF4005393
:1008900000F01EFE099B40F60000C4F20100059026
:1008A000042103910322029200F012FE029A05989D
:1008B00008994FF48063049300F00AFE029A0899A5
:1008C000099B40F60040C4F20100079000F000FED2
:1008D000029A079818210091022300F0F9FD00996F
:1008E000029A0598099B00F0F3FD029A039B059874
:1008F0000021019100F0ECFD0199029A059808236E
:1009000000F0E6FD039B07980899099A00F0E0FDC6
:10091000049B07980899099A00F0DAFD0598089950
:10092000099A8023069300F0D3FD05980899099A47
:10093000202300F0CDFD069B07980899099A00F046
:10094000C7FD07980899099A402300F0C1FD0AB035
:1009500080BD000081B08DF8030000208DF80200FA
:10096000FFE79DF80200012817DCFFE740F60C01C5
:10097000C4F20101086820F080000860086840F0B7
:1009800020000860086820F020000860FFE79DF85C
:10099000020001308DF80200E3E700208DF802002C
:1009A000FFE79DF80200072830DCFFE79DF8030011
:1009B0000006002809D5FFE740F60C01C4F201014A
:1009C000086840F08000086008E040F60C01C4F2BE
:1009D0000101086820F080000860FFE740F60C0184
:1009E000C4F20101086840F0200008609DF803008F
:1009F00040008DF80300086820F020000860FFE741
:100A00009DF8020001308DF80200CAE701B070477E
:100A100081B08DF803009DF8030048B9FFE740F668
:100A20000C41C4F20101086820F0040008600EE0E7
:100A30009DF80300012809D1FFE740F60C41C4F2FC
:100A40000101086820F480600860FFE7FFE740F6D6
:100A50000C01C4F20101086820F02000086001B018
:100A60007047000081B08DF803009DF8030048B97D
:100A7000FFE740F60C41C4F20101086840F00400B1
:100A800008600EE09DF80300012809D1FFE740F659
:100A90000C41C4F20101086840F480600860FFE77F
:100AA000FFE740F60C01C4F20101086820F02000C5
:100AB000086001B07047000080B584B04FF4C0609A
:100AC00002F0F6F84FF08040019002F057FD0198D7
:100AD00040F26C01C2F2000140F237420A8000226B
:100AE00002924A808A8040F2E7338B608A818A735F
:100AF00002F0DAFD0198029940F27C02C2F2000293
:100B00009180012303931380D18051801181518101
:100B100002F01CFB0198029940F2572202F0C4FC3B
:100B200001980299602202F079FC0198029A11461C
:100B300002F0DEFC019802F0FFFA019802F0AAFD33
:100B4000029800F0B9FB039800F0B6FB04B080BD3A
:100B500080B584B04FF4C06002F0AAF840F20040C3
:100B6000C4F20000039002F009FD039840F28801EE
:100B7000C2F2000140F237420A80002202924A800B
:100B80008A8040F2E7338B608A818A7302F08CFDA1
:100B90000299039840F29802C2F200029180012368
:100BA0001380D1805180118151810321019102F084
:100BB000CDFA0199039840F2572202F075FC019991
:100BC0000398602202F02AFC0199029A039802F02D
:100BD0008FFC039802F0B0FA039802F05BFD04B0BA
:100BE00080BD000040F62C01C4F200014FF47A7081
:100BF000086040F62801C4F2000140F23740086066
:100C000040F64001C4F2000140F2F310086040F6E3
:100C10002001C4F20001086840F48050086040F6EA
:100C20000001C4F200010120086070477047000015
:100C300080B586B0059000208DF81300022000F0EA
:100C400031FA40F2C400C2F2000003F073F940F23E
:100C5000A400C2F2000003F075F9FFE742F2004081
:100C6000C4F2010000F016FA40F2BE01C2F2000127
:100C7000088040F2A400C2F20000407D002800F08D
:100C8000AC80FFE740F2BA00C2F2000000780146F3
:100C9000039148B1FFE70398012859D0FFE7039873
:100CA000022800F0888097E040F2BE00C2F2000007
:100CB000018840F2A400C2F20000029002F0C6FED9
:100CC0000298007D0B283FD1FFE740F2A400C2F25A
:100CD000000002F0C9FD014640F2BC00C2F2000073
:100CE0000180008801904FF07C50FFF7B9FD01466C
:100CF0000198884207DAFFE740F2BA01C2F2000128
:100D0000022008701FE040F2BC00C2F20000008820
:100D100000904CF6CD40C4F22C00FFF7A1FD014637
:100D20000098884207DDFFE740F2BA01C2F20001F5
:100D30000220087006E040F2BA01C2F20001012070
:100D40000870FFE7FFE7FFE7642003F005F943E0E1
:100D500040F2BE00C2F20000038840F2B810C2F2B6
:100D6000000040F2C201C2F2000140F2C102C2F230
:100D7000000200F075FAC0B1FFE740F2C200C2F213
:100D80000000008802F09EFD014640F2C000C2F261
:100D900000000170017840F2C400C2F2000002F0CD
:100DA000DFFD0021FFF702FD01E000BFFFE7642047
:100DB00003F0D2F810E040F2BA01C2F200010020C4
:100DC000087040F2A400C2F2000003F0BBF84FF438
:100DD0007A7003F0C1F8FFE700E0FFE73EE70000AC
:100DE00080B582B0019000208DF80300FFE76420F9
:100DF00003F0B2F8FBE7000082B001900091009888
:100E000030B1FFE70199886840F40060886005E030
:100E10000199886820F400608860FFE702B070479D
:100E200080B586B005900598049042F20041C4F266
:100E30000101884210D0FFE7049842F60001C4F295
:100E40000101884211D0FFE7049843F60041C4F243
:100E50000101884212D01AE040F20930039001F0FB
:100E60004FFF039801F038FF12E040F20A30029081
:100E700001F046FF029801F02FFF09E040F20F3029
:100E8000019001F03DFF019801F026FF00E0FFE72F
:100E900006B080BD81B0009000988068C00730B96E
:100EA000FFE70099886840F001008860FFE701B023
:100EB0007047000082B001900091009A0199086883
:100EC0009043086002B0704783B002900191002007
:100ED0008DF80300029800680199084204D0FFE7EA
:100EE00001208DF80300FFE79DF8030003B0704771
:100EF00042F20440C4F20100006800F01F00704795
:100F000081B0009042F20441C4F20101086820F46B
:100F100070200860009A08681043086001B07047AC
:100F200085B004908DF80F108DF80E2002939DF877
:100F30000F0005281CDCFFE70498406B01909DF82A
:100F40000F0000EB80011F2000FA01F10198884397
:100F500001909DF80E009DF80F1001EB810100FA41
:100F600001F10198084301900198049948634AE00F
:100F70009DF80F000B281FDCFFE70498006B019021
:100F80009DF80F0000EB8000A0F11E011F2000FA69
:100F900001F10198884301909DF80E009DF80F1013
:100FA00001EB81011E3900FA01F10198084301901B
:100FB00001980499086325E09DF80F000F281FDCB5
:100FC000FFE70498C06A01909DF80F0000EB8000D5
:100FD000A0F13C011F2000FA01F101988843019023
:100FE0009DF80E009DF80F1001EB81013C3900FACD
:100FF00001F101980843019001980499C86200E04A
:10100000FFE7FFE7FFE79DF80E0009281BDCFFE77D
:101010000498006900909DF80E0000EB4001072045
:1010200000FA01F100988843009002989DF80E1094
:1010300001EB410100FA01F100980843009000988B
:101040000499086124E09DF80E0011281EDCFFE7DA
:101050000498C06800909DF80E0000EB4000A0F1DD
:101060001E01072000FA01F10098884300900298C1
:101070009DF80E1001EB41011E3900FA01F10098B4
:101080000843009000980499C86000E0FFE7FFE77C
:1010900005B0704781B000900098C06C80B201B07C
:1010A0007047000080B582B08DF807009DF80700FA
:1010B00002280AD1FFE742F20040C4F201000222F6
:1010C00000231946FFF72CFF11E09DF807000328C5
:1010D0000AD1FFE742F20040C4F2010003220023DC
:1010E0001946FFF71DFF01E000BFFFE7FFE702B071
:1010F00080BD000082B001908DF803109DF80300C0
:10110000C00730B1FFE70199886840F4800088602B
:10111000FFE79DF803008007002806D5FFE7019947
:10112000886840F400108860FFE702B07047000054
:1011300080B582B00190FFE742F20040C4F20100A6
:101140001021FFF7C1FEE0BBFFE742F20040C4F20E
:1011500001000221FFF7B8FE90B3FFE742F2004022
:10116000C4F201000221FFF7A5FEFFF7C1FE02282D
:101170000FD1FFE742F20040C4F20100FFF78AFFFF
:1011800040F2CC11C2F2000108800320FFF78AFF71
:101190000EE042F20040C4F20100FFF77BFF40F294
:1011A000CE11C2F2000108800220FFF77BFFFFE7AB
:1011B00042F20040C4F201000121FFF79BFFFFE76C
:1011C00011E042F20040C4F201000221FFF77CFE70
:1011D00040B1FFE742F20040C4F201000121FFF7F5
:1011E00089FFFFE7FFE7012002F0B6FE42F2004070
:1011F000C4F201000221FFF767FEB0B1FFE742F23F
:101200000040C4F2010000900221FFF753FE009855
:10121000FFF740FF0146009840F2CC12C2F20002F4
:1012200011800121FFF766FF19E042F20040C4F28D
:1012300001001021FFF748FE40B1FFE742F20040F5
:10124000C4F201000121FFF755FF07E042F2004020
:10125000C4F201000121FFF74DFFFFE7FFE76BE755
:1012600084B0039002910192ADF8023000208DF815
:1012700001000198007809280BD8FFE7BDF802208B
:1012800003990868104408600199087801300870D3
:101290000EE0039800684CF6CD41CCF6CC41A0FBA3
:1012A0000110C0080299088001208DF80100FFE7B5
:1012B0009DF8010004B0704781B08DF803009DF8DF
:1012C000030048B9FFE740F22041C4F2000108687A
:1012D00020F4805008600FE09DF80300012808D139
:1012E000FFE72021C4F20001086820F00100086037
:1012F00001E000BFFFE7FFE701B0704782B00120C7
:1013000001908DF8030040F22430C2F20000006822
:1013100020B1FFE700208DF803002BE040F2703091
:10132000C2F20000006820B1FFE700208DF8030042
:101330001FE040F22030C2F20000006820B1FFE759
:1013400000208DF8030013E040F23C30C2F20000B0
:10135000006840F2AC21C2F20001096801398842FC
:1013600004D1FFE702208DF8030000E0FFE7FFE76C
:10137000FFE7FFE79DF8030002B0704780B588B033
:10138000069006980190019858B9FFE74FF0500079
:1013900080F31188BFF36F8FBFF34F8F0790FFE784
:1013A000FEE7019840F20021C2F20001096888427C
:1013B00004D1FFE700208DF8170063E002F0E4FBA2
:1013C00001984069049040F20820C2F200000068D1
:1013D000039040F20C20C2F200000068029002F07C
:1013E000FFFB04980399884205D0FFE7049802990F
:1013F000884204D1FFE702208DF8170041E00498ED
:1014000040F23C31C2F20001884225D1FFE7019849
:10141000806AE0B9FFE703208DF8170000200090F4
:10142000FFE70098002811DCFFE7019800990844C5
:1014300090F85400012804D1FFE702208DF817002E
:1014400004E0FFE7009801300090EAE703E00220A3
:101450008DF81700FFE713E0049840F25031C2F214
:101460000001884203D0FFE7049820B9FFE7042079
:101470008DF8170003E001208DF81700FFE7FFE764
:10148000FFE7FFE79DF8170008B080BD81B08DF839
:1014900003009DF8030048B9FFE740F22041C4F281
:1014A0000001086840F4805008600FE09DF80300D8
:1014B000012808D1FFE72021C4F20001086840F0AC
:1014C0000100086001E000BFFFE7FFE701B07047DF
:1014D00087B006900591049203930020019000903C
:1014E000059800F00F0001909DF81400C006002838
:1014F00005D5FFE70499019808430190FFE7002014
:10150000ADF80A00FFE7BDF80A00072842D8FFE758
:10151000BDF80A100398C840C007A0B3FFE70698BB
:1015200000680090BDF80A0081000F2000FA01F168
:101530000098884300900198BDF80A10890000FACD
:1015400001F10098084300900598282809D1FFE789
:10155000BDF80A10012088400399084006994861A7
:101560000DE00598482809D1FFE7BDF80A100120D1
:1015700088400399084006990861FFE7FFE7009853
:1015800006990860FFE7FFE7BDF80A000130ADF8F3
:101590000A00B8E70820ADF80A00FFE7BDF80A0026
:1015A0000F2846D8FFE7BDF80A100398C840C007C7
:1015B000C0B3FFE7069840680090BDF80A006FF0DE
:1015C0001F0101EB80020F2000FA02F20098904305
:1015D00000900198BDF80A2001EB820100FA01F1A8
:1015E0000098084300900598282809D1FFE7BDF826
:1015F0000A100120884003990840069948610DE0CF
:101600000598482809D1FFE7BDF80A100120884055
:101610000399084006990861FFE7FFE700980699DB
:101620004860FFE7FFE7BDF80A000130ADF80A00A7
:10163000B4E707B07047000080B586B00020049082
:101640000590FFF727F8049A01210391084602F05C
:10165000D7FF049A0146039840F2FC13C2F200033C
:101660001960042102F0CCFF0399049A40F2D413CC
:10167000C2F200031860084602F0C2FF0399049A00
:1016800040F28823C2F2000318600520029002F0A5
:10169000B7FF0399049A0346029840F2C41CC2F2B1
:1016A000000CCCF8003002F0ABFF0399049A40F232
:1016B000C813C2F200031860102002F0A1FF049BBF
:1016C00040F29821C2F20001086040F2F010C2F22C
:1016D0000000694648600220086041F2D970C0F6F7
:1016E000000045F66141C0F600014FF4007203F0BE
:1016F000FFFA012803D0FFE7FEF78AFFFFE740F279
:101700008420C2F20000694648600120086042F669
:10171000B950C0F6000045F65541C0F600018022E0
:10172000002303F0E5FA012803D0FFE7FEF770FF7E
:10173000FFE740F2D010C2F2000069464860012085
:10174000086041F23110C0F6000045F64C41C0F689
:1017500000018022002303F0CBFA012803D0FFE729
:10176000FEF756FFFFE740F2BC10C2F200006946E8
:1017700048600120086040F63140C0F6000045F6A0
:101780003041C0F600018022002303F0B1FA0128A5
:1017900003D0FFE7FEF73CFFFFE740F2C010C2F2C4
:1017A0000000694648600120086040F6E150C0F63C
:1017B000000045F63E41C0F600018022002303F000
:1017C00097FA012803D0FFE7FEF722FFFFE702F0B8
:1017D000F9FCFFE7FEE7000080B58AB0099014200D
:1017E00008900020FFF768FDFFE740F26800C2F2B2
:1017F00000000068032816D3FFE740F2EC10C2F2A5
:101800000000007878B9FFE700200790FFF73EFE60
:1018100007980A2101F0D6FB40F2EC11C2F2000158
:1018200001200870FFE740F26800C2F20000006883
:101830000B2816D3FFE740F2EB10C2F2000000784D
:1018400078B9FFE7012006900A2101F0BBFB06985A
:10185000FFF71CFE069840F2EB11C2F2000108707F
:10186000FFE740F26800C2F20000006840F2DC11BD
:10187000C2F200010968401A15281ED3FFE740F2A2
:101880007820C2F20000006880B1FFE740F27820C3
:10189000C2F20000006802F019FD40F60C01C4F22B
:1018A0000101086820F480600860FFE740F2DC1165
:1018B000C2F2000100200860FFE740F26800C2F2B7
:1018C0000000006840F2E011C2F200010968401A0D
:1018D000032808D3FFE70020FFF7EEFC01200A21D0
:1018E00001F070FBFFE740F2D410C2F20000006884
:1018F00040F2E611C2F20001002203F08DF8012847
:1019000040F0A280FFE740F26800C2F200000068E9
:1019100040F2E011C2F20001086040F2E610C2F2AB
:10192000000040880B2807DCFFE740F2E411C2F218
:1019300000010020087086E040F2E610C2F20000CC
:101940004088652863DBFFE740F2E610C2F2000042
:101950004088B0F5FA7F5ADAFFE740F2E610C2F2AB
:1019600000000078D8B1FFE740F2E610C2F20000B4
:101970004088A038FEF7A4FC0F2808DCFFE740F2FF
:10198000EA11C2F2000108780130087006E040F266
:10199000EA11C2F2000100200870FFE71AE040F2ED
:1019A000E610C2F2000040888C38FEF789FC0D2852
:1019B00008DCFFE740F2EA11C2F2000108780130CA
:1019C000087006E040F2EA11C2F20001002008703F
:1019D000FFE7FFE740F2EA10C2F2000000780228B9
:1019E0000DD3FFE740F2E411C2F2000101200870BC
:1019F00040F2EA11C2F200010020087006E040F255
:101A0000E411C2F2000103200870FFE71AE040F27F
:101A1000E610C2F200004088A0F54870FEF750FCC6
:101A20004F2807DCFFE740F2E411C2F20001022078
:101A3000087006E040F2E411C2F2000103200870D1
:101A4000FFE7FFE7FFE7FFE740F2E410C2F2000024
:101A5000007801460591032800F223810599DFE80B
:101A600011F00400AD00F6001E0140F2E411C2F2D4
:101A700000010320087040F60800C4F2010000686D
:101A8000C005002809D5FFE740F60C41C4F201016A
:101A9000086820F00100086008E040F60C41C4F23C
:101AA0000101086840F001000860FFE740F2FC1007
:101AB000C2F20000006840F2E511C2F2000100220B
:101AC00002F0AAFF012876D1FFE740F2E510C2F24A
:101AD000000000780A2818D8FFE70021084601F026
:101AE00071FA40F2F810C2F20000006860B1FFE73E
:101AF00040F2F810C2F20000006802F0E7FB01209B
:101B00000A2101F05FFAFFE754E040F2F810C2F258
:101B100000000068D0B9FFE740F2F810C2F2000000
:101B2000694648600220086042F6A530C0F6000011
:101B300045F66B41C0F600018022002303F0D8F87F
:101B4000012802D1FFE700BFFFE707E040F2F810ED
:101B5000C2F20000006802F0B1FAFFE740F2E510BF
:101B6000C2F200000078282805D8FFE700201E21D7
:101B700001F028FA12E040F2E510C2F2000000780D
:101B8000502805D8FFE70020322101F01BFA04E0BD
:101B90000020502101F016FAFFE7FFE740F2EB10BA
:101BA000C2F20000007820B1FFE70020FFF76EFCD2
:101BB000FFE7FFE701E000BFFFE772E000200A2136
:101BC000049101F0FFF90499012001F0FBF940F2C2
:101BD0007820C2F200000068D0B9FFE740F2782018
:101BE000C2F20000694648600220086042F62950AF
:101BF000C0F6000045F67841C0F6000180220023BF
:101C000003F076F8012802D0FFE700BFFFE707E006
:101C100040F27820C2F20000006802F04FFAFFE7BD
:101C200040F2EA11C2F200010020087040F26800A0
:101C3000C2F20000006840F2DC11C2F2000108604C
:101C400040F2E411C2F200010320087029E00020F4
:101C50000A21039101F0B6F90399012001F0B2F9CC
:101C600040F27820C2F20000006880B1FFE740F245
:101C70007820C2F20000006802F028FB40F60C0158
:101C8000C4F20101086820F48060086000E0FFE70A
:101C900040F2E411C2F200010320087001E000BF2D
:101CA000FFE7012002F058F99FE5000080B586B0FB
:101CB0000590049140F26430C2F200000068029086
:101CC00040F20020C2F200000268002182F85510A4
:101CD0000068043001F096FE88B9FFE740F200206A
:101CE000C2F200000068C16A012000FA01F240F26D
:101CF000BC21C2F2000108689043086000E0FFE7E1
:101D00000598013018BBFFE7049800B3FFE740F2E5
:101D10003C31C2F2000148680190019A40F2002073
:101D2000C2F2000003689A60019A92680368DA6060
:101D300002680432019B9B685A6002680432019B6E
:101D40009A60006841610868013008603DE00298CF
:101D5000059908440390039840F20021C2F2000163
:101D6000096848600398029988420ED2FFE740F262
:101D70000C20C2F20000006840F20021C2F2000113
:101D80000968043101F0ACFE1EE040F20820C2F206
:101D90000000006840F20021C2F20001096804312D
:101DA00001F09EFE039840F21831C2F2000109686A
:101DB000884207D2FFE7039840F21831C2F20001CF
:101DC000086000E0FFE7FFE7FFE706B080BD000026
:101DD00080B582B0019001F0D7FE40F2AC21C2F292
:101DE000000108680130086040F20020C2F20000E3
:101DF000006898B9FFE7019840F20021C2F20001A3
:101E0000086040F2AC20C2F200000068012803D153
:101E1000FFE700F0F7FA00E0FFE71CE040F238309F
:101E2000C2F200000068A0B9FFE740F20020C2F251
:101E300000000068C06A0199C96A884207D8FFE7B4
:101E4000019840F20021C2F20001086000E0FFE7C3
:101E500000E0FFE7FFE740F2B820C2F200000168AF
:101E6000013101600068019908640198C16A01208C
:101E700000FA01F240F2BC21C2F2000108681043EE
:101E800008600198C06A00EB800040F21421C2F2A1
:101E9000000101EB8000406800900098019A90607A
:101EA00000988068019AD06001980430009A926886
:101EB000506001980430009A9060019AD06A00EB5B
:101EC000800001EB800050610198C06A00EB800245
:101ED00051F82200013041F8220001F081FE40F269
:101EE0003830C2F200000068C8B1FFE740F20020BD
:101EF000C2F200000068C06A0199C96A88420CD227
:101F0000FFE74EF60451CEF200014FF0805008601A
:101F1000BFF34F8FBFF36F8F00E0FFE700E0FFE7F5
:101F200002B080BD80B582B001F02EFE40F2683074
:101F3000C2F20000006828BBFFE740F2C020C2F2F6
:101F40000000009001F0ACFD40F2D420C2F200008D
:101F5000019001F0A5FD0099019840F20422C2F21F
:101F60000002116040F21021C2F200010860052059
:101F70001021002202F044FB40F26831C2F200015D
:101F8000086000E0FFE701F02BFE02B080BD00001A
:101F900080B582B0FFE740F2B020C2F200000068D6
:101FA00008B3FFE701F0F0FD40F25030C2F200004C
:101FB000C068C06801900198043001F023FD40F230
:101FC000AC21C2F2000108680138086040F2B0217B
:101FD000C2F2000108680138086001F001FE0198B2
:101FE00000F08CF8D7E702B080BD000080B582B069
:101FF000019000910198006CB8B1FFE70199C868A1
:102000000A6C1044C86001988168C068884204D393
:10201000FFE701990868C86000E0FFE70098019AAF
:10202000D168126CFEF750F9FFE702B080BD0000E6
:1020300080B586B005900491039200200290059827
:10204000806B01900598006C78B9FFE705980068EF
:1020500048B9FFE70598806802F0ECFF0290059907
:102060000020886000E0FFE741E00398B8B9FFE78F
:10207000059A04995068126CFEF726F9059948688C
:102080000A6C10444860059948688968884204D3FE
:10209000FFE705990868486000E0FFE726E0059A39
:1020A0000499D068126CFEF70FF90599C8680A6C9C
:1020B000801AC86005980168C068884206D2FFE7A8
:1020C000059988680A6C801AC86000E0FFE70398E9
:1020D000022809D1FFE7019820B1FFE701980138F4
:1020E000019000E0FFE700E0FFE7FFE7FFE701986E
:1020F000013005998863029806B080BD80B582B032
:1021000001900198006B01F091FD019801F08EFDA6
:1021100002B080BD83B0002001900120009040F209
:10212000BC20C2F200000068022803D3FFE70120B0
:102130000190FFE740F20020C2F200000068C06A90
:1021400018B1FFE7002002901FE040F21420C2F215
:1021500000000068022803D3FFE70020029013E08C
:10216000019818B1FFE7002002900CE040F218300F
:10217000C2F20000006840F26431C2F20001096856
:10218000401A0290FFE7FFE7FFE7029803B07047AD
:1021900082B0019040F20420C2F2000000680068A2
:1021A000B0FA80F04009019908600198006848B9C8
:1021B000FFE740F20420C2F200000068C068006837
:1021C000009002E000200090FFE7009802B0704706
:1021D00080B584B00290FFE7FFF7DAFE40F21420EA
:1021E000C2F20000006802280CD3FFE74EF604514B
:1021F000CEF200014FF080500860BFF34F8FBFF365
:102200006F8F00E0FFE7FFF785FF0190019802283C
:1022100029D3FFE702F018F940F21830C2F20000AB
:10222000006840F26431C2F20001096888420BD2B2
:10223000FFE74FF0500080F31188BFF36F8FBFF3BB
:102240004F8F0390FFE7FEE7FFF764FF01900198CF
:10225000022804D3FFE7019801F034FD00E0FFE716
:1022600003F04EF800E0FFE7B6E7000080B584B069
:10227000DDF818C00390029101928DF803300298A6
:1022800018B9FFE70698006003E001980699086016
:10229000FFE703980699C8630298069908640698B0
:1022A000012102F0FBF99DF80300069981F8500026
:1022B00006990020886404B080BD000080B58AB013
:1022C000DDF83CC0DDF838C0DDF834C0DDF830C0E2
:1022D00007900691059204930E98006B059989006A
:1022E000A522FEF736F80E98006B059900EB8100E9
:1022F00004380390039820F0070003909DF80C0029
:10230000400758B1FFE74FF0500080F31188BFF34A
:102310006F8FBFF34F8F0890FFE7FEE70698F8B185
:10232000FFE700200290FFE70298092813D8FFE793
:102330000698029A805C0E99114481F83400069840
:102340000299405C08B9FFE705E0FFE7FFE7029864
:1023500001300290E8E70E99002081F83D0004E08A
:102360000E99002081F83400FFE70C9805280BD364
:10237000FFE74FF0500080F31188BFF36F8FBFF37A
:102380004F8F0990FFE7FEE70C98052803D3FFE77E
:1023900004200C9000E0FFE70C980E99C8620C989E
:1023A0000E9988640E9900200190C8640E9804303C
:1023B00001F08EFB0E98183001F08AFB01980E99FF
:1023C00009610C99C1F105010E9A91610E9949625A
:1023D0000E9908650E9981F854000E9981F8550000
:1023E00003980799049A00F003FC0E9908600D9871
:1023F00020B1FFE70E980D99086000E0FFE70AB0F2
:1024000080BD000080B584B000200390FFE70398F2
:10241000042810D8FFE7039800EB800140F2142055
:10242000C2F2000000EB810001F03AFBFFE70398E5
:1024300001300390EBE740F2E820C2F20000019087
:1024400001F02EFB40F2FC20C2F20000029001F0ED
:1024500027FB40F22430C2F2000001F021FB40F2E1
:102460005030C2F2000001F01BFB40F23C30C2F2DF
:10247000000001F015FB0199029840F20822C2F217
:102480000002116040F20C21C2F20001086004B0A9
:1024900080BD000080B586B0059004910392029340
:1024A00000200190049805994860059800610498FF
:1024B0000399884216D8FFE703980299401A0599B4
:1024C0008969884203D3FFE70120019009E040F2C7
:1024D0001020C2F2000000680599043101F000FBF1
:1024E000FFE717E003980299884208D2FFE70498B3
:1024F0000299884203D3FFE70120019009E040F2EE
:102500000420C2F2000000680599043101F0E8FAE5
:10251000FFE7FFE7019806B080BD000080B582B0FC
:10252000019001F031FB0198806B18B9FFE70120A1
:10253000009002E000200090FFE701F051FB0098BE
:1025400002B080BD80B582B0019001F01DFB019802
:10255000806B0199C96B884203D1FFE7012000908D
:1025600002E000200090FFE701F03AFB009802B083
:1025700080BD000080B588B004900498806C039002
:1025800000200290039858B9FFE74FF0500080F305
:102590001188BFF36F8FBFF34F8F0590FFE7FEE702
:1025A0000398806B0399C96B88420BD3FFE74FF008
:1025B000500080F31188BFF36F8FBFF34F8F0690E9
:1025C000FFE7FEE70398806B0399C96B884239D215
:1025D000FFE7039890F845008DF80700039804A9D9
:1025E0000022FFF725FD02909DF90700013088B910
:1025F000FFE70398406A58B1FFE70398243002F0E0
:10260000B5FD18B1FFE70120029000E0FFE700E010
:10261000FFE716E09DF907007F280BD1FFE74FF099
:10262000500080F31188BFF36F8FBFF34F8F079077
:10263000FFE7FEE79DF807000130039981F84500A8
:10264000FFE700E0FFE7029808B080BD0648006899
:10265000006880F3088862B661B6BFF34F8FBFF39E
:102660006F8F00DF00BF00BF08ED00E080B584B0D1
:102670000390029140F20420C2F200000068C0689A
:10268000C06801900198043001F0BCF9019890F8FD
:1026900028004007002806D5FFE701980399029A11
:1026A00000F01CF907E0019991F8280000F0FE0005
:1026B00081F82800FFE70198016A884704B080BDCF
:1026C00080B58CB0FFE740F26830C2F200000068CD
:1026D00006A9002202F0A0F9002800F0AF80FFE771
:1026E0000698B0F1FF3F17DCFFE706A80430029020
:1026F000029858B9FFE74FF0500080F31188BFF3FC
:102700006F8FBFF34F8F0A90FFE7FEE702990A68C9
:1027100048688968904700E0FFE70698002800F1C4
:102720008C80FFE7089805900598406928B1FFE77D
:102730000598043001F066F900E0FFE704A800F016
:1027400005F903900698013801460191082800F226
:1027500072800199DFE801F00505323A5B05053228
:102760003A00059991F8280040F0010081F828000E
:102770000598079B81691944039AFFF78BFED8B12E
:10278000FFE7059890F828004007002808D5FFE7E4
:102790000598079982691144039A00F09FF807E0B1
:1027A000059991F8280000F0FE0081F82800FFE765
:1027B0000598016A884700E0FFE73DE0059991F838
:1027C000280000F0FE0081F8280035E0059991F816
:1027D000280040F0010081F82800079805998861D9
:1027E0000598806958B9FFE74FF0500080F31188D1
:1027F000BFF36F8FBFF34F8F0B90FFE7FEE7059896
:10280000039B816919441A46FFF744FE14E00598BA
:1028100090F828008007002804D4FFE7059801F00D
:1028200005FA07E0059991F8280000F0FE0081F80C
:102830002800FFE700E0FFE7FFE744E70CB080BDBA
:1028400080B584B00390029101F0FEFD684600F06F
:102850007DF801900098D8BBFFE7029860B9FFE7C8
:1028600003980199884207D8FFE702F049FD0398D1
:102870000199FFF7FBFE2AE0029858B1FFE740F20A
:102880001020C2F2000000680068B0FA80F0400931
:102890000290FFE740F26830C2F20000006803993E
:1028A000019A891A029A01F013FB02F029FD60B91E
:1028B000FFE74EF60451CEF200014FF08050086061
:1028C000BFF34F8FBFF36F8F00E0FFE7FFE702E03A
:1028D00002F016FDFFE704B080BD000080B584B0B3
:1028E000039002910192FFE70398029B81691944CA
:1028F000019AFFF7CFFD48B1FFE70398816902987D
:10290000084402900398016A8847EDE704B080BD4F
:1029100040F20820C2F200000068006840B9FFE7FA
:1029200040F21831C2F200014FF0FF3008600CE0B5
:1029300040F20820C2F200000068C068006840F25F
:102940001831C2F200010860FFE7704780B582B01D
:10295000019002F035FA0090009840F2F411C2F2B2
:1029600000010968884206D2FFE700F011F80199DA
:102970000120086003E0019900200860FFE700984B
:1029800040F2F411C2F200010860009802B080BD6C
:1029900080B582B0FFE740F20420C2F20000006878
:1029A000006870B1FFE740F20420C2F20000006846
:1029B000C0680068019001984FF0FF31FFF756FEA4
:1029C000E9E740F20422C2F200021068009040F2EF
:1029D0001021C2F20001086810600098086002B07F
:1029E00080BD000083B00020009040F20400C2F2DD
:1029F00000000068013058B1FFE74FF0500080F34D
:102A00001188BFF36F8FBFF34F8F0190FFE7FEE791
:102A10004FF0500080F31188BFF36F8FBFF34F8FDB
:102A20000290FFE7009808B9FFE7FBE703B07047A3
:102A300084B002900020019002980090029858B94A
:102A4000FFE74FF0500080F31188BFF36F8FBFF3A3
:102A50004F8F0390FFE7FEE70098406940F23C315A
:102A6000C2F20001884214D1FFE70098806A40F268
:102A70002431C2F20001884209D0FFE70098806A41
:102A800018B9FFE70120019000E0FFE700E0FFE751
:102A900000E0FFE7019804B07047000080B584B003
:102AA0000390FFE701A8FFF773FB029002980199DA
:102AB000FFF7C6FEFFF704FEF4E7000080B582B022
:102AC000019001F061F8019890F845008DF803003D
:102AD000FFE79DF90300012825DBFFE70198806CE3
:102AE00050B1FFE70198FFF745FD18B1FFE701F08E
:102AF0007DFA00E0FFE710E00198406A58B1FFE777
:102B00000198243002F032FB18B1FFE701F06EFAB1
:102B100000E0FFE700E006E0FFE79DF80300013872
:102B20008DF80300D5E70199FF2081F8450001F0F9
:102B300057F801F029F8019890F844008DF8020048
:102B4000FFE79DF90200012816DBFFE70198006905
:102B500080B1FFE70198103002F008FB18B1FFE7E1
:102B600001F044FA00E0FFE79DF8020001388DF81B
:102B7000020000E000E0E4E70199FF2081F8440052
:102B800001F02EF802B080BD80B582B0019001F056
:102B90005BFC0198FDF73EFB009002F0B1FB009852
:102BA00002B080BD80B584B00390FFE701200090A3
:102BB000322100F007FA42F21070029001F0CCF9D5
:102BC00000982D21019100F0FDF9029801F0C4F95F
:102BD0000098372100F0F6F9029801F0BDF900984D
:102BE000019900F0EFF9029801F0B6F9DEE7000074
:102BF00083B00290019100920298043802900299E9
:102C00004FF080700860029804380290019820F01C
:102C1000010002990860029804380290029942F675
:102C2000E510C0F600000860029814380290009881
:102C300002990860029820380290029803B0704709
:102C400083B0029041F20400C4F2020000680190D7
:102C5000019843F6FF71CEF6FF710840019002988B
:102C60000090042808D3FFE7009805280AD0FFE762
:102C70000098072806D011E00299019840EA8130B7
:102C800001900CE0029820F0040002900299019853
:102C900040EA813040F08050019000E0FFE7019869
:102CA00041F20401C4F20201086003B07047000061
:102CB00081B0ADF80200BDF8020000F01F02012152
:102CC00001FA02F3810941F20002C4F202028858BB
:102CD0001843885001B0704781B0ADF80200BDF8CC
:102CE000020000F01F02012101FA02F3810941F202
:102CF0000002C4F2020288589843885001B070471D
:102D000081B0ADF80200BDF8020000F01F02012101
:102D100001FA02F3810941F20002C4F2020288586A
:102D20001843885001B0704780B588B0079045F6C9
:102D30001841C0F6000101A81822FDF7C5FA0020CD
:102D40008DF80300FFE79DF8031001A810F821009B
:102D500048B1FFE740F60C01C4F20101086840F4F5
:102D60008060086008E040F60C01C4F201010868C8
:102D700020F480600860FFE79DF80300052816D85E
:102D8000FFE79DF80310481C8DF8030001A800EB35
:102D9000810040884FF47A71484344F6D351C1F220
:102DA0006201A0FB0110800901F0D6F803E00020C9
:102DB0008DF80300FFE7C6E780B586B005900020D8
:102DC0008DF81200ADF810000390FFE740F280206C
:102DD000C2F20000008840F2CE71884221D8FFE79D
:102DE00040F60800C4F201000068C00500280FD5B5
:102DF000FFE740F27E21C2F200010888013008801E
:102E000040F28021C2F2000108880130088007E00A
:102E100040F28021C2F20001088801300880FFE7FB
:102E20001EE040F27E20C2F200000188642251437D
:102E300040F28022C2F200021388B1FBF3F340F2A9
:102E40008221C2F200010B7000231380038040F244
:102E5000FC10C2F2000000681A4601F0A3FCFFE774
:102E600040F27C20C2F20000008840F2E731884244
:102E70000ED1FFE740F27C21C2F200010020088061
:102E800040F26801C2F2000108680130086007E002
:102E900040F27C21C2F20001088801300880FFE77F
:102EA0009DF812008DF8130003980130039040F64E
:102EB0000800C4F201000068C005002804D5FFE73F
:102EC00001208DF8120003E000208DF81200FFE7CA
:102ED0009DF813009DF81210884206D1FFE7BDF857
:102EE00010000130ADF810001CE040F2D410C2F226
:102EF000000000689DF812108DF80410BDF8101045
:102F0000ADF8061001A9002300931A4601F04AFC0F
:102F1000009840F2D812C2F2000201211170ADF8FF
:102F20001000FFE7039847F6D501C2F2E961484374
:102F30004FEAB00041F26E21C0F2830188423DD8D1
:102F4000FFE741F20C01C4F20101086880F400506F
:102F5000086040F27820C2F200000068FEF70EFA26
:102F600048B9FFE740F60C41C4F20101086880F05F
:102F70008000086008E040F60C41C4F201010868D6
:102F800020F080000860FFE7BDF8100041F28731B3
:102F9000884209D8FFE740F60C41C4F201010868F5
:102FA00080F04000086008E040F60C41C4F20101E6
:102FB000086820F040000860FFE7FFE7012000F00C
:102FC000CBFF03E780B582B08DF807008DF80610BF
:102FD0009DF8070080B9FFE79DF8060000EB80012F
:102FE0004FF0FF3000EB410240F20040C4F200001D
:102FF000032100F059FA15E09DF8070001280ED1D1
:10300000FFE79DF8060000EB80014FF0FF3000EB7A
:1030100041024FF08040002100F046FA01E000BF7D
:10302000FFE7FFE702B080BD84B00020039002906C
:1030300041F20001C4F20201086840F480300860E7
:10304000FFE703980130039041F20000C4F2020050
:10305000006800F400300290FFE702990020019020
:1030600041B9FFE703984FF6FF71401A18BF0120DE
:103070000190FFE70198C0070028E2D1FFE741F285
:103080000000C4F2020000688003002802D4FFE7B9
:10309000FFE7FEE741F20401C4F202010091086873
:1030A000086008680860086840F480600860086884
:1030B00020F440300860086840F440300860086838
:1030C0004FF6FF72CFF2C37210400860086800220A
:1030D000C0F628021043086041F20001C4F2020168
:1030E000086840F080700860FFE741F20000C4F219
:1030F000020000688001002801D4FFE7F5E741F2F3
:103100000401C4F20201086820F0030008600868A6
:1031100040F002000860FFE741F20400C4F2020040
:1031200000680007002801D4FFE7F5E704B0704706
:1031300080B5FFF779FF80BD81B0009000990868E5
:1031400040F08000086001B07047000084B0039038
:10315000ADF80A100192BDF80A000146009103285B
:1031600000F259810099DFE811F004005D00BC0015
:103170001B010399086A20F001000862039988691D
:1031800020F003008861019802880399086A1043BF
:1031900008620399086A20F0020008620198828898
:1031A0000399086A10430862039842F60041C4F28A
:1031B0000101884208D0FFE7039843F20041C4F2BE
:1031C000010188422DD1FFE70399086A20F004002D
:1031D0000862019842880399086A104308620399BB
:1031E000086A20F0080008620198C2880399086AFA
:1031F000104308620399486820F480704860019881
:10320000028903994868104348600399486820F48C
:1032100000704860019842890399486810434860EB
:10322000FFE7F9E00399086A20F0100008620399AB
:10323000886920F440708861019802880399086ABF
:1032400040EA021008620399086A20F02000086230
:10325000019882880399086A40EA0210086203987C
:1032600042F60041C4F20101884208D0FFE703980A
:1032700043F20041C4F20101884231D1FFE70399D2
:10328000086A20F040000862019842880399086AA1
:1032900040EA021008620399086A20F08000086280
:1032A0000198C2880399086A40EA021008620399EB
:1032B000486820F480604860019802890399486852
:1032C00040EA820048600399486820F40060486042
:1032D000019842890399486840EA82004860FFE704
:1032E0009AE00399086A20F4807008620399C8691B
:1032F00020F00300C861019802880399086A40EA37
:10330000022008620399086A20F40070086201989C
:1033100082880399086A40EA02200862039842F60C
:103320000041C4F20101884208D0FFE7039843F24C
:103330000041C4F20101884231D1FFE70399086AD4
:1033400020F480600862019842880399086A40EA84
:10335000022008620399086A20F40060086201985C
:10336000C2880399086A40EA022008620399486803
:1033700020F480504860019802890399486840EA27
:10338000021048600399486820F400504860019892
:1033900042890399486840EA02104860FFE73BE031
:1033A0000399086A20F4805008620399C86920F4E0
:1033B0004070C861019802880399086A40EA0230A7
:1033C00008620399086A20F4005008620198828814
:1033D0000399086A40EA02300862039842F6004105
:1033E000C4F20101884208D0FFE7039843F200418C
:1033F000C4F2010188420DD1FFE70399486820F427
:1034000080404860019802890399486840EA821028
:103410004860FFE700E0FFE704B0704783B0029028
:10342000ADF80610ADF80420BDF806000146009185
:10343000032836D80099DFE801F0020E1B27029915
:10344000886920F070008861BDF8042002998869BD
:103450001043886126E00299886920F4E040886181
:10346000BDF804200299886940EA0220886119E0C9
:103470000299C86920F07000C861BDF80420029963
:10348000C8691043C8610DE00299C86920F4E040A2
:10349000C861BDF804200299C86940EA0220C861E9
:1034A00000E0FFE703B0704784B00390ADF80A1066
:1034B0000192BDF80A0001460091032814D8009932
:1034C000DFE801F002060A0E0198039948630CE058
:1034D00001980399886308E001980399C86304E0A0
:1034E00001980399086400E0FFE704B0704700000A
:1034F00083B00290ADF80610ADF80420BDF80600C8
:1035000001460091032836D80099DFE801F0020E49
:103510001B270299886920F008008861BDF8042003
:10352000029988691043886126E00299886920F42D
:1035300000608861BDF804200299886940EA022091
:10354000886119E00299C86920F00800C861BDF8D7
:1035500004200299C8691043C8610DE00299C86946
:1035600020F40060C861BDF804200299C86940EAEF
:103570000220C86100E0FFE703B0704780B58AB061
:10358000099009980890B0F1804F41D0FFE7089862
:1035900040F20041C4F20001884242D0FFE708989F
:1035A00040F60001C4F20001884243D0FFE70898CA
:1035B00040F60041C4F20001884244D0FFE7089879
:1035C00041F20001C4F20001884245D0FFE70898AB
:1035D00041F20041C4F20001884246D0FFE708985A
:1035E00042F60041C4F20101884208D0FFE7089882
:1035F00043F20041C4F2010188423FD047E040F26B
:103600000B300790FFF77CFB0798FFF765FB3FE067
:103610004FF480600690FFF773FB0698FFF75CFBA2
:1036200036E040F201400590FFF76AFB0598FFF78E
:1036300053FB2DE040F202400490FFF761FB049839
:10364000FFF74AFB24E040F203400390FFF758FBEA
:103650000398FFF741FB1BE040F204400290FFF7A4
:103660004FFB0298FFF738FB12E040F20540019053
:10367000FFF746FB0198FFF72FFB09E040F20D3002
:103680000090FFF73DFB0098FFF726FB00E0FFE707
:103690000AB080BD81B000900099086840F0010038
:1036A000086001B07047000082B00190009100985E
:1036B000008801998862019842F60041C4F2010134
:1036C000884255D0FFE70198B0F1804F50D0FFE716
:1036D000019840F20041C4F20001884248D0FFE75F
:1036E000019840F60001C4F20001884240D0FFE793
:1036F000019840F60041C4F20001884238D0FFE74B
:10370000019843F20041C4F20101884230D0FFE742
:10371000019844F60041C4F20101884228D0FFE735
:10372000019845F20001C4F20101884220D0FFE770
:10373000019845F20041C4F20101884218D0FFE728
:10374000019841F60001C4F20001884210D0FFE761
:10375000019841F60041C4F20001884208D0FFE719
:10376000019842F20001C4F20001884216D1FFE73D
:103770000199086820F0700008600098408800F007
:10378000600201990868104308600098808800F082
:1037900010020199086810430860FFE700988068EC
:1037A0000199C862019841F20001C4F20001884207
:1037B00016D0FFE7019841F20041C4F200018842AF
:1037C0000ED0FFE70199086820F440700860009867
:1037D000808900F440720199086810430860FFE78F
:1037E000019842F60041C4F20101884208D0FFE787
:1037F000019843F20041C4F20101884205D1FFE77C
:103800000098807B01990863FFE70199486940F0BF
:103810000100486102B0704782B001900091009AA7
:10382000019908699043086102B0704784B0029022
:1038300001910298C06801990840009002980069BF
:103840000199084207D0FFE7009820B1FFE7012067
:103850008DF80F0003E000208DF80F00FFE79DF8C2
:103860000F0004B07047000082B0019000208DF876
:103870000300FFE79DF80300092813DCFFE7019828
:103880009DF8031030F8112040F28C21C2F20001A3
:10389000086810440860FFE79DF8030001308DF8C8
:1038A0000300E7E740F28C20C2F2000000684CF60B
:1038B000CD41CCF6CC41A0FB0110C0F3CF0002B04B
:1038C0007047000080B586B0ADF81600BDF8161040
:1038D0006FF39F2140F29420C2F200000180008823
:1038E00001F030FF0190029145F2EC12C1F6B8628E
:1038F0004EF68533C3F6D17301F03CFF019A029B6B
:1039000001F038FF0246019803920A460299049298
:103910004EF24812C1F27A4244F2AE73C4F20D0381
:1039200001F028FF024603980B46049901F062FE5D
:1039300048F21F52C5F2EB124BF6B863C4F24203D1
:1039400001F058FE01F024FE014640F29020C2F240
:1039500000000160006802F0F9F806B080BD0000C8
:1039600083B001908DF80310019890F8F00008B32F
:10397000FFE700208DF80200FFE79DF8020077289E
:103980000ED8FFE79DF8030001999DF8022021F869
:103990001200FFE79DF8020001308DF80200ECE70D
:1039A0000199002081F8F000019890F8EE008DF860
:1039B0000B0022E001208DF80100FFE79DF80100D7
:1039C000782810D8FFE701999DF8012001EB42000B
:1039D00030F8020C21F81200FFE79DF801000130D9
:1039E0008DF80100EAE79DF803000199088001982D
:1039F00090F8EE008DF80B00FFE79DF80B0003B088
:103A00007047000082B00190019800690090019811
:103A100041688068886001994868896848600098B2
:103A200040680199884205D1FFE7019880680099B4
:103A3000486000E0FFE701990020086100990868EC
:103A4000013808600098006802B0704782B00190A9
:103A5000ADF802100198007D0A280BD8FFE7BDF8E9
:103A6000020001990A7D531C0B7501EB420121F8FC
:103A7000020C13E00198407D20B1FFE7019900207E
:103A80004875FFE7019900200875BDF8020001990B
:103A90000A7D531C0B7521F81200FFE702B0704736
:103AA00081B00090009901F10800486000994FF042
:103AB000FF308860009901F10800C860009901F1A9
:103AC0000800086100990020086001B070470000FC
:103AD00081B0009000990020086101B0704700009B
:103AE00084B0039002910298006800900098013021
:103AF00020B9FFE703980069019010E003980830AF
:103B00000190FFE70198406800680099884205D855
:103B1000FFE7FFE7019840680190F3E7FFE70198AE
:103B2000406802994860029841688860019802994B
:103B30008860029801994860039802990861039986
:103B400008680130086004B07047000083B002903C
:103B5000019102984068009000980199486000988F
:103B60008068019988600198009989684860019887
:103B700000998860029801990861029908680130EB
:103B8000086003B07047000082B04FF0500080F32F
:103B90001188BFF36F8FBFF34F8F009040F2040086
:103BA000C2F200000168013101600068012814D1EF
:103BB000FFE74EF60450CEF200000068000658B150
:103BC000FFE74FF0500080F31188BFF36F8FBFF312
:103BD0004F8F0190FFE7FEE7FFE702B0704700005C
:103BE00082B040F20400C2F20000006858B9FFE75A
:103BF0004FF0500080F31188BFF36F8FBFF34F8FEA
:103C00000090FFE7FEE740F20400C2F20000016806
:103C100001390160006830B9FFE700200190019888
:103C200080F31188FFE702B07047000080B582B0D2
:103C30000190019840B1FFE700F006FC0198FCF705
:103C400018FB01F05DFBFFE702B080BD40F2000011
:103C5000C2F20000016844F6D352C1F26202A1FB35
:103C600002318B0940F2A821C2F200010B600B68FF
:103C70006FF07F41B1FBF3F140F21433C2F2000365
:103C8000196040F2A423C2F200032D2119604EF204
:103C90001001CEF2000100230B604EF2180CCEF2A0
:103CA000000CCCF800300068A0FB02024FF0FF309F
:103CB00000EB92104EF21402CEF2000210600720C8
:103CC0000860704780B586B00590059840F21431C1
:103CD000C2F200010968884207D9FFE740F21430B8
:103CE000C2F2000000680590FFE74EF21001CEF22C
:103CF0000001086820F0010008604EF21800CEF2C2
:103D00000000026840F2A820C2F200000068059995
:103D1000013900FB01200490049840F2A421C2F272
:103D200000010968884209D9FFE740F2A420C2F2E5
:103D3000000001680498401A0490FFE772B6BFF3D0
:103D40004F8FBFF36F8FFDF7D9FAD8B9FFE74EF267
:103D50001800CEF2000000684EF21401CEF200010D
:103D600008604EF21002CEF20002106840F001002E
:103D7000106040F2A820C2F200000068013808601C
:103D800062B6A3E004984EF21401CEF2000108607E
:103D90004EF21801CEF20001002008604EF2100130
:103DA000CEF20001086840F001000860059801901B
:103DB000019830B1FFE7BFF34F8F30BFBFF36F8F74
:103DC000FFE762B6BFF34F8FBFF36F8F72B6BFF3DB
:103DD0004F8FBFF36F8F4EF21000CEF2000006211E
:103DE00001600068C003002833D5FFE740F2A82037
:103DF000C2F200000068049A4EF21801CEF20001EF
:103E00000968891A084401380090009840F2A421FA
:103E1000C2F200010968884209D3FFE7009840F226
:103E2000A821C2F200010968884208D9FFE740F2E0
:103E3000A820C2F20000006801380090FFE7009857
:103E40004EF21401CEF2000108600598013803908B
:103E50001EE0059840F2A821C2F200010A68504312
:103E60004EF21802CEF200021268801A02900298F6
:103E70000A68B0FBF2F003900398013009684843E8
:103E80000299401A4EF21401CEF200010860FFE7D9
:103E90004EF21801CEF20001002008604EF210012F
:103EA000CEF20001086840F001000860039800F0BD
:103EB000E7F940F2A820C2F20000006801384EF293
:103EC0001401CEF20001086062B6FFE706B080BDC3
:103ED00080B584B003900291019203980090FFF79F
:103EE00053FE009890F94400013028B9FFE700998B
:103EF000002081F84400FFE7009890F94500013068
:103F000028B9FFE70099002081F84500FFE7FFF797
:103F100067FE0098806B38B9FFE70098243002995B
:103F2000019A00F08DF800E0FFE70098FEF7C6FD6B
:103F300004B080BD81B000900099012081F8F000AC
:103F400001B0704781B00090009901204875009938
:103F50000020087501B0704780B584B00290002041
:103F600001900298E0B1FFE740F2B420C2F20000F5
:103F7000006858B1FFE74FF0500080F31188BFF39D
:103F80006F8FBFF34F8F0390FFE7FEE700F05CFAFF
:103F900002980021FDF78AFE01F0B2F9019000E0DD
:103FA000FFE7019860B9FFE74EF60451CEF2000139
:103FB0004FF080500860BFF34F8FBFF36F8F00E06A
:103FC000FFE704B080BD000081B0009040F21C30DB
:103FD000C2F2000000680099086040F26430C2F24A
:103FE000000000680099486001B0704740F27031ED
:103FF000C2F20001012008607047000080B584B063
:1040000002900191029858B9FFE74FF0500080F3F9
:104010001188BFF36F8FBFF34F8F0390FFE7FEE769
:10402000029840F20021C2F2000109681831FFF73E
:1040300057FD01980121FDF739FE04B080BD000055
:1040400080B586B0049003910292049858B9FFE7B6
:104050004FF0500080F31188BFF36F8FBFF34F8F85
:104060000590FFE7FEE7049840680190019840F250
:104070000021C2F200010A68D061019880680A68D4
:10408000106208681830019A926850600868183009
:10409000019A906004980968886204990868013060
:1040A0000860029820B1FFE74FF0FF300390FFE770
:1040B00003980299FDF7FAFD06B080BD80B584B083
:1040C000029002980190029858B9FFE74FF0500013
:1040D00080F31188BFF36F8FBFF34F8F0390FFE71B
:1040E000FEE7019840F20021C2F20001096888420F
:1040F00065D0FFE70198002861D0FFE7FFF744FD96
:104100000198FEF795FC002855D0FFE70198043090
:10411000FFF778FC0198C16A012000FA01F240F231
:10412000BC21C2F200010868104308600198C06A0F
:1041300000EB800040F21421C2F2000101EB80008C
:10414000406800900098019A906000988068019AF9
:10415000D06001980430009A926850600198043051
:10416000009A9060019AD06A00EB800001EB800019
:1041700050610198C06A00EB800251F822000130C2
:1041800041F822000198C06A40F20021C2F2000109
:104190000968C96A88420CD3FFE74EF60451CEF293
:1041A00000014FF080500860BFF34F8FBFF36F8F57
:1041B00000E0FFE700E0FFE7FFF712FD00E0FFE7A8
:1041C00004B080BD80B586B040F21031C2F200016B
:1041D000684641600023036042F2D110C0F600003F
:1041E00045F68641C0F60001802200F081FD039073
:1041F0000398012804D1FFE701F094F9039000E04F
:10420000FFE70398012823D1FFE74FF0500080F328
:104210001188BFF36F8FBFF34F8F049040F21831B6
:10422000C2F200014FF0FF30086040F23831C2F2B4
:1042300000010120086040F26431C2F20001002058
:10424000086000F069F908B1FFE700E0FFE70FE060
:104250000398013058B9FFE74FF0500080F3118800
:10426000BFF36F8FBFF34F8F0590FFE7FEE7FFE7C8
:1042700045F69440C0F60000006806B080BD00001E
:1042800082B0009040F26430C2F2000000680099F1
:10429000084440F21831C2F20001096888420BD983
:1042A000FFE74FF0500080F31188BFF36F8FBFF32B
:1042B0004F8F0190FFE7FEE7009A40F26431C2F2AF
:1042C000000108681044086002B0704780B586B0ED
:1042D0000490FFF759FC049838B9FFE740F200203A
:1042E000C2F200000068019002E004980190FFE72C
:1042F0000198039003980430FFF784FBD0B9FFE7DF
:104300000398C06A00EB800140F21420C2F2000062
:1043100050F8210068B9FFE70398C16A012000FA4C
:1043200001F240F2BC21C2F200010868904308602B
:10433000FFE700E0FFE70398806A28B1FFE70398F2
:104340001830FFF75FFB00E0FFE70398011D40F224
:104350003C30C2F20000FFF7F9FB00200290FFE7BB
:104360000298002814DCFFE703980299084490F8AB
:104370005400012807D1FFE7039802990144002067
:1043800081F85400FFE7FFE7029801300290E7E769
:10439000FFF726FC40F23830C2F20000006838B166
:1043A000FFE7FFF7F1FBFEF7B3FAFFF719FC00E0B8
:1043B000FFE7039840F20021C2F200010968884239
:1043C0003ED1FFE740F23830C2F200000068F0B1A1
:1043D000FFE740F2B420C2F20000006858B1FFE7E6
:1043E0004FF0500080F31188BFF36F8FBFF34F8FF2
:1043F0000590FFE7FEE74EF60451CEF200014FF0C4
:1044000080500860BFF34F8FBFF36F8F17E040F20B
:104410003C30C2F20000006840F2AC21C2F2000160
:104420000968884207D1FFE740F20021C2F200018B
:104430000020086002E000F00FF8FFE7FFE700E06F
:10444000FFE706B080BD000040F2B421C2F20001D7
:10445000086801300860704785B040F2B420C2F2AD
:104460000000006838B1FFE740F27031C2F200018D
:10447000012008604DE040F27031C2F200010020DE
:10448000086040F2BC20C2F200000068039003986C
:10449000B0FA80F08DF80B009DF80B00C0F11F0002
:1044A0000190019800EB800140F21420C2F200005C
:1044B00050F8210058B9FFE74FF0500080F3118801
:1044C000BFF36F8FBFF34F8F0490FFE7FEE70198B4
:1044D00000EB800140F21420C2F2000000EB8100EA
:1044E0000090009948684068486000994868083121
:1044F000884205D1FFE70099486840684860FFE7B7
:1045000000984068C06840F20021C2F200010860D3
:10451000FFE705B07047000080B586B04EF200405E
:10452000CEF20000039001780491FF210170007821
:104530008DF80B009DF80B0000F0500040F29C211C
:10454000C2F20001087040F2A021C2F2000107206F
:104550000860FFE79DF80B00000600280DD5FFE777
:1045600040F2A021C2F200010868013808609DF8FD
:104570000B0040008DF80B00ECE740F2A020C2F2E7
:104580000000006803280BD0FFE74FF0500080F3D5
:104590001188BFF36F8FBFF34F8F0590FFE7FEE7E2
:1045A00040F2A021C2F20001086800020860086819
:1045B00000F4E060086004984EF20041CEF2000181
:1045C00008704EF62051CEF20001086840F4E00079
:1045D0000860086840F0E0400860FFF737FB40F2F1
:1045E0000401C2F20001002001900860FEF72EF8DD
:1045F000FFF732FFFEF7F6F9019806B080BD000024
:1046000080B588B0069005918DF8132000200390A6
:10461000069880B3FFE706994FF0FF30B0FBF1F04A
:104620000599884227D3FFE706980599484310F17A
:10463000550F20D8FFE70698059948430290029845
:104640005430FEF7A1FA0390039890B1FFE7039866
:10465000019001985430019006980599019A9DF8AF
:104660001330DDF80CC0EE46CEF800C0FDF7FEFDBD
:1046700000E0FFE70EE0039858B9FFE74FF0500065
:1046800080F31188BFF36F8FBFF34F8F0790FFE761
:10469000FEE7FFE7039808B080BD000080B586B054
:1046A000039002910120019003980090009858B95E
:1046B000FFE74FF0500080F31188BFF36F8FBFF317
:1046C0004F8F0490FFE7FEE70098002856D0FFE7E1
:1046D0000098C06B002851D0FFE70098C26B016CB6
:1046E0004FF0FF30B0FBF2F0884247D3FFE7FFF70F
:1046F0004BFA00990B68C86B0A6C00FB02308860AB
:1047000000990020886300990868486000990B6848
:10471000C86B0A6C013800FB0230C8600099FF20AA
:1047200081F84400009981F845000298D0B9FFE76C
:1047300000980069A0B1FFE70098103000F016FD66
:1047400060B1FFE74EF60451CEF200014FF0805009
:104750000860BFF34F8FBFF36F8F00E0FFE700E00B
:10476000FFE708E000981030FFF79AF9009824302E
:10477000FFF796F9FFE7FFF733FA02E00020019018
:10478000FFE7019858B9FFE74FF0500080F3118818
:10479000BFF36F8FBFF34F8F0590FFE7FEE70198E0
:1047A00006B080BD80B592B00C900B910A9209932F
:1047B000002008900C980490049858B9FFE74FF037
:1047C000500080F31188BFF36F8FBFF34F8F0E90AF
:1047D000FFE7FEE70B990020029039B9FFE7049844
:1047E000006C002818BF01200290FFE70298C00764
:1047F00058B1FFE74FF0500080F31188BFF36F8F7F
:10480000BFF34F8F0F90FFE7FEE7099900200229C1
:10481000019007D1FFE70498C06B013818BF012051
:104820000190FFE70198C00758B1FFE74FF0500033
:1048300080F31188BFF36F8FBFF34F8F1090FFE7A6
:10484000FEE700F0A1FA01460020009031B9FFE731
:104850000A98002818BF01200090FFE70098C007C1
:1048600058B1FFE74FF0500080F31188BFF36F8F0E
:10487000BFF34F8F1190FFE7FEE7FFE7FFF784F9E3
:104880000498806B0499C96B884204D3FFE70998A8
:10489000022858D1FFE70498806B039004980B9985
:1048A000099AFDF7C5FB07900498806CE0B1FFE71B
:1048B0000998022804D1FFE7039808B1FFE712E046
:1048C0000498FDF757FE60B1FFE74EF60451CEF2B3
:1048D00000014FF080500860BFF34F8FBFF36F8F20
:1048E00000E0FFE7FFE729E00498406AA0B1FFE796
:1048F0000498243000F03AFC60B1FFE74EF6045112
:10490000CEF200014FF080500860BFF34F8FBFF32D
:104910006F8F00E0FFE710E0079860B1FFE74EF609
:104920000451CEF200014FF080500860BFF34F8F6A
:10493000BFF36F8F00E0FFE7FFE7FFE7FFF750F9F6
:1049400001200D9065E00A9828B9FFE7FFF748F9C4
:1049500000200D905DE0089830B9FFE705A8FFF74B
:1049600033FB0120089000E0FFE7FFE7FFE7FFF7D8
:1049700037F9FFF769FDFFF707F9049890F944004C
:10498000013028B9FFE70499002081F84400FFE7CF
:10499000049890F94500013028B9FFE704990020F8
:1049A00081F84500FFE7FFF71BF905A80AA900F009
:1049B00021F928BBFFE70498FDF7C4FDC8B1FFE764
:1049C000049810300A99FFF719FB0498FEF776F85F
:1049D00000F096FC60B9FFE74EF60451CEF20001FC
:1049E0004FF080500860BFF34F8FBFF36F8FFFE72A
:1049F00005E00498FEF762F800F082FCFFE707E0AC
:104A00000498FEF75BF800F07BFC00200D9000E0BE
:104A100034E70D9812B080BD80B58EB00990089132
:104A200007920020069009980390039858B9FFE771
:104A30004FF0500080F31188BFF36F8FBFF34F8F9B
:104A40000B90FFE7FEE708990020019039B9FFE7D6
:104A50000398006C002818BF01200190FFE701981F
:104A6000C00758B1FFE74FF0500080F31188BFF343
:104A70006F8FBFF34F8F0C90FFE7FEE700F084F9D4
:104A800001460020009031B9FFE70798002818BFC1
:104A900001200090FFE70098C00758B1FFE74FF0F2
:104AA000500080F31188BFF36F8FBFF34F8F0D90CD
:104AB000FFE7FEE7FFE7FFF767F80398806B0290D8
:104AC000029830B3FFE703980899FDF78FFA029830
:104AD00001380399886303980069A0B1FFE7039840
:104AE000103000F043FB60B1FFE74EF60451CEF208
:104AF00000014FF080500860BFF34F8FBFF36F8FFE
:104B000000E0FFE700E0FFE7FFF76AF801200A9006
:104B10006DE0079828B9FFE7FFF762F800200A90D8
:104B200065E0069830B9FFE704A8FFF74DFA0120C9
:104B3000069000E0FFE7FFE7FFE7FFF751F8FFF718
:104B400083FCFFF721F8039890F94400013028B95D
:104B5000FFE70399002081F84400FFE7039890F9EC
:104B60004500013028B9FFE70399002081F845008E
:104B7000FFE7FFF735F804A807A900F03BF830BBC2
:104B8000FFE70398FDF7CAFCD0B1FFE70398243094
:104B90000799FFF733FA0398FDF790FF00F0B0FB99
:104BA00060B9FFE74EF60451CEF200014FF080509D
:104BB0000860BFF34F8FBFF36F8F00E0FFE705E0A2
:104BC0000398FDF77BFF00F09BFBFFE70EE00398E7
:104BD000FDF774FF00F094FB0398FDF79FFC18B1FC
:104BE000FFE700200A9002E0FFE7FFE763E70A988B
:104BF0000EB080BD80B588B005900491059858B975
:104C0000FFE74FF0500080F31188BFF36F8FBFF3C1
:104C10004F8F0690FFE7FEE7049858B9FFE74FF083
:104C2000500080F31188BFF36F8FBFF34F8F079051
:104C3000FFE7FEE7FEF7A8FF40F26430C2F2000093
:104C400000680290029805994968401A019040F264
:104C50000020C2F20000006890F8550058B1FFE74C
:104C600040F20020C2F200000168002081F85500E7
:104C70000120039037E004980068013018B9FFE77D
:104C8000002003902EE040F21C30C2F200000068C9
:104C90000599096888420CD0FFE702980599496890
:104CA000884206D3FFE701200390049900200860A2
:104CB00017E001980499096888420BD2FFE7019A2E
:104CC00004990868801A08600598FFF77DF90020AC
:104CD000039005E004990020086001200390FFE79D
:104CE000FFE7FFE7FFE7FEF77BFF039808B080BD13
:104CF00070B58CB0DDF844C0DDF840C00B900A916F
:104D0000ADF826200893BDF826008000FDF73CFF93
:104D10000590059880B1FFE75820FDF735FF079013
:104D2000079820B1FFE705980799086303E0059805
:104D3000FEF77CFFFFE702E000200790FFE70798FF
:104D4000D8B1FFE70B980A99BDF82620089BDDF83B
:104D500040C0119C079DEE460026CEF80C60CEF8B0
:104D60000850CEF80440CEF800C0FDF7A7FA079827
:104D7000FDF72EF80120069003E04FF0FF3006907B
:104D8000FFE706980CB070BD81B040F23830C2F237
:104D90000000006818B9FFE7012000900DE040F224
:104DA000B420C2F20000006818B9FFE702200090AA
:104DB00002E000200090FFE7FFE7009801B0704795
:104DC00081B040F26430C2F20000006800900098A8
:104DD00001B0704780B58AB00020069040F2B42040
:104DE000C2F200000068002840F01981FFE740F29D
:104DF0006431C2F20001086801300590059808602E
:104E0000059858BBFFE740F20820C2F20000006896
:104E1000006858B1FFE74FF0500080F31188BFF3EE
:104E20006F8FBFF34F8F0990FFE7FEE740F2082234
:104E3000C2F200021068049040F20C21C2F200019C
:104E4000086810600498086040F21C31C2F200014A
:104E5000086801300860FDF75BFD00E0FFE705989A
:104E600040F21831C2F2000109688842C0F0B680F1
:104E7000FFE7FFE740F20820C2F200000068006888
:104E800040B9FFE740F21831C2F200014FF0FF30A5
:104E90000860A2E040F20820C2F200000068C0688A
:104EA000C06808900898406807900598079988425C
:104EB00007D2FFE7079840F21831C2F200010860FC
:104EC0008BE0FFE708984069039008988168C06804
:104ED000886008998868C96848600398406808999C
:104EE0000431884205D1FFE70898C06803994860FB
:104EF000FFE70899002048610399086801380860B5
:104F00000898806AF8B1FFE70898806A02900898CC
:104F1000C169006A88600899C869096A486002988E
:104F2000406808991831884205D1FFE70898006A5F
:104F300002994860FFE70899002088620299086892
:104F40000138086000E0FFE70898C16A012000FA14
:104F500001F240F2BC21C2F200010868104308606F
:104F60000898C06A00EB800040F21421C2F20001F0
:104F700001EB8000406801900198089A90600198C8
:104F80008068089AD06008980430019A926850604E
:104F900008980430019A9060089AD06A00EB80006B
:104FA00001EB800050610898C06A00EB800251F864
:104FB0002200013041F822000898C06A40F2002126
:104FC000C2F200010968C96A884203D3FFE70120E1
:104FD000069000E0FFE7FFE74CE7FFE740F2002024
:104FE000C2F200000068C06A00EB800140F21420A9
:104FF000C2F2000050F82100022803D3FFE701208D
:10500000069000E0FFE740F27030C2F20000006856
:1050100018B1FFE70120069000E0FFE707E040F24B
:105020002031C2F20001086801300860FFE70698ED
:105030000AB080BD80B586B003900398029000202E
:1050400001900398002800F08D80FFE7029840F25D
:105050000021C2F20001096888420BD0FFE74FF03F
:10506000500080F31188BFF36F8FBFF34F8F049010
:10507000FFE7FEE70298C06C58B9FFE74FF0500019
:1050800080F31188BFF36F8FBFF34F8F0590FFE759
:10509000FEE70299C86C0138C8640299C86A896C35
:1050A00088425DD0FFE70298C06C002856D1FFE728
:1050B00002980430FEF7A6FC68B9FFE70298C16ABF
:1050C000012000FA01F240F2BC21C2F2000108689E
:1050D0009043086000E0FFE70299886CC86202997B
:1050E000C86AC0F1050088610298C16A012000FA0F
:1050F00001F340F2BC22C2F20002116819431160B0
:105100000299C96A01EB810140F21422C2F2000245
:1051100002EB8101496800910099029B9960009916
:105120008968029BD96002990431009B9B68596091
:1051300002990431009B9960029BD96A01EB8101BD
:1051400002EB810159610299C96A01EB810352F8AE
:105150002310013142F82310019000E0FFE700E046
:10516000FFE700E0FFE7019806B080BD80B588B09A
:1051700006900698C068C0680590059858B9FFE782
:105180004FF0500080F31188BFF36F8FBFF34F8F44
:105190000790FFE7FEE70598806A03900598C169CC
:1051A000006A88600599C869096A48600398406880
:1051B00005991831884205D1FFE70598006A0399DF
:1051C0004860FFE705990020886203990868013864
:1051D000086040F2B420C2F200000068002859D1F3
:1051E000FFE705984069029005988168C06888606B
:1051F00005998868C9684860029840680599043133
:10520000884205D1FFE70598C06802994860FFE72A
:1052100005990020486102990868013808600598DE
:10522000C16A012000FA01F240F2BC21C2F2000181
:105230000868104308600598C06A00EB800040F2DF
:105240001421C2F2000101EB800040680190019836
:10525000059A906001988068059AD060059804309E
:10526000019A9268506005980430019A9060059AFE
:10527000D06A00EB800001EB800050610598C06AA5
:1052800000EB800251F82200013041F82200FDF7C6
:105290003FFB1BE040F22431C2F20001486800905D
:1052A0000098059AD06100988068059A1062059868
:1052B0001830009A9268506005981830009A9060F3
:1052C00005988162086801300860FFE70598C06AA8
:1052D00040F20021C2F200010968C96A884208D977
:1052E000FFE70120049040F27031C2F20001086033
:1052F00002E000200490FFE7049808B080BD0000A1
:1053000080B588B000200690059040F2B420C2F22B
:105310000000006858B9FFE74FF0500080F3118893
:10532000BFF36F8FBFF34F8F0790FFE7FEE7FEF7E6
:105330002BFC40F2B420C2F2000001680139016088
:105340000068002840F0E780FFE740F2AC20C2F29E
:1053500000000068002800F0DD80FFE7FFE740F272
:105360002430C2F200000068002800F09080FFE7BF
:1053700040F22430C2F20000C068C068069006986F
:10538000806A04900698C169006A88600699C869B5
:10539000096A48600498406806991831884205D126
:1053A000FFE70698006A04994860FFE70699002025
:1053B000886204990868013808600698406903907B
:1053C00006988168C068886006998868C9684860DE
:1053D0000398406806990431884205D1FFE7069892
:1053E000C06803994860FFE7069900204861039967
:1053F0000868013808600698C16A012000FA01F2C5
:1054000040F2BC21C2F2000108681043086006980F
:10541000C06A00EB800040F21421C2F2000101EBEF
:105420008000406802900298069A90600298806816
:10543000069AD06006980430029A926850600698E6
:105440000430029A9060069AD06A00EB800001EB6B
:10545000800050610698C06A00EB800251F822007B
:10546000013041F822000698C06A40F20021C2F2E1
:1054700000010968C96A884207D3FFE740F270312A
:10548000C2F200010120086000E0FFE767E706982C
:1054900018B1FFE7FDF73CFAFFE740F22030C2F217
:1054A0000000006801900198E0B1FFE7FFE7FFF717
:1054B00091FC38B1FFE740F27031C2F200010120E7
:1054C000086000E0FFE7019801380190FFE70198CC
:1054D0000028ECD1FFE740F22031C2F200010020A9
:1054E000086000E0FFE740F27030C2F200000068A0
:1054F00070B1FFE7012005904EF60451CEF2000195
:105500004FF080500860BFF34F8FBFF36F8F00E004
:10551000FFE7FFE700E0FFE7FEF762FB059808B052
:1055200080BD000080B584B000200290FCF7FAFC3A
:1055300040F26830C2F200000068B8B1FFE740F204
:105540006C30C2F20000694648600220086042F6F2
:105550009D20C0F6000045F68B41C0F600014FF4D7
:1055600080720023FFF7C4FB029000E0FFE702987F
:1055700058B9FFE74FF0500080F31188BFF36F8FE9
:10558000BFF34F8F0390FFE7FEE7029804B080BDA2
:1055900021F0004201F00043A2F16052B2F5801FF9
:1055A00028BFD2F17F6C0BD95FEA001C43EAC2022C
:1055B00042EB507018BF704728BF20F001007047C1
:1055C000B2F5801FBCBF184670474FEA410C1CF56E
:1055D000001F02D2084600F01ABB70B500F074F943
:1055E00000000089FFF7F6BF4FF00040A0F58000F3
:1055F0007047000010B591EA030F48BF83F00043E5
:1056000000F1BE81841A71EB030C05D2121943EB31
:105610000C03001B61EB0C014FEA1154A4EB135C6B
:10562000DFF81CE11EEA430F18BF9EEA445F00F05A
:10563000748021EA045123EA0E0343F48013DCF161
:10564000200E32D322FA0CFE10EB0E0023FA0CFED1
:1056500041EB0E01CCF1200E03FA0EFE10EB0E0012
:10566000CCF1200E51F10001B1F5801F32D201EBD7
:10567000045112FA0EF2BDE8104058BF7047401CAA
:1056800038BF5FEA420218BF7047002814BF20F0FD
:10569000010041F100014FEA410313F5001F38BF3B
:1056A0007047A1F1C04100F05DB9012A43EB03024C
:1056B000ACF1200CDCF11F0E32BF4FF0000E23FACC
:1056C0000CF310EB030041EB0451B4EB115FD0D0AD
:1056D000A1EB045101F58011490801EB04515FEA87
:1056E00030000ED350F1000038BF12FA0EFE08D180
:1056F000BDE81040C9E7401C38BF5FEA4202CAD18A
:10570000C3E7BDE810404FEA410313F5001F38BF5F
:105710007047A1F1C04100F025B99EEA445F08D06E
:1057200011EA5E0FBDE8104004BF01F00041002007
:105730007047BDE8104070B500F0C6F864FBBE3E8F
:105740000000E0FF10F0004248BF4042B0FA80F392
:1057500010FA03F10AD0C3F11D0303F5806302EBD5
:1057600003524FEA415002EBD12170474FF0000045
:105770007047000070B5DFF848C11CEA111E1EBF5B
:105780001CEA13159EEA0C0F95EA0C0F00F06F80CF
:1057900081EA03044EEAD47EAE4421EA4C1123EAA6
:1057A0004C1341F4801143F48013AEF17F7EA1FBD2
:1057B000024CA0FB0365361955EB0C05A1FB034C0D
:1057C0004CF10003A0FB021C16EB0C06654153F1E3
:1057D0000003094218BF46F0010613F4007F0BD105
:1057E0004FEA03314FEA053041EA155140EA1650BD
:1057F00034036FF003020AE04FEAC3214FEAC520E9
:1058000041EA555140EA5650F4026FF0020202EBB1
:105810002E4201EB025585EACE710AD05FEA440CB4
:1058200018BF24F0004450F1000041F1000120EACB
:10583000D47040F2FE7C624500D270BDA84214BF15
:105840004FF080444FF04044002E08BF0024BEF1CA
:10585000806FA8BFA1F1C041BDE8704080F2828096
:1058600001F1C04101F000414FF0000070470CEA27
:1058700013159EEA0C0F18BF95EA0C0F06D081EAAB
:10588000030E4FF000000EF0004170BD00F01CF858
:105890008900013E00F007B800F009B84FEA430C58
:1058A0005FEA5C5C08D081EA030100F05BB84FEA74
:1058B000410C5FEA5C5CF6D102494FF00000704792
:1058C0000000FF070000F87F0EF1020E2EF0030E1D
:1058D0005EF8046B364205D4012A43EB030515F547
:1058E000001F12D8012841EB010C1CF5001F0CD839
:1058F0000ED14FEAD17C0CEB4C0C0CF1020C15F5DF
:10590000001F08BF4CEBD37C04E04FF0080C01E013
:105910004FEAD37C0CEB4C0526FA05F606F0070699
:10592000B6F1040C06D20EEB860CBDE870404CF0CC
:10593000010C6047DFE80CF0090B02024FF0004158
:10594000A1F500214FF0000070BD19461046012856
:1059500051EB010418BFD4F5001484BF002001F0FE
:10596000004170BD0808A0F500114FEA31017047F1
:1059700010B591EA030F48BF83F000433FF542AEF4
:10598000841A71EB030C07D28CF0004C121943EB14
:105990000C03001B61EB0C014FEA1154A4EB135CE8
:1059A000DFF8A4E11EEA430F18BF9EEA445F00F04F
:1059B000B48021EA045123EA6E035242C3EB6E0322
:1059C00038BF5B1EDCF1200E25D322FA0CFE10EB53
:1059D0000E0043FA0CFE41EB0E01CCF1200E03FA4F
:1059E0000EFE10EB0E00CCF1200E51F1000129D477
:1059F00001EB045112FA0EF2BDE8104058BF704797
:105A0000401C1CBFB2F1004F704700280CBF491C5E
:105A100020F00100704712EB020E43EB030218BFA7
:105A20004FF0010E4EEA4202ACF1200CDCF11E0EEA
:105A300056D943FA0CFE10EB0E00CCF11E0E51F1BC
:105A4000FF31D5D50EF1010E12FA0EFE404141EBA9
:105A5000010101EB445C5FEA5C5C10D901EB04518D
:105A600010EBDE7038BFBEF1004FBDE8104018BF2C
:105A7000704700280CBF491C20F00100704734D249
:105A80004FEAD42C24F4006411F500111BD0B1FAB4
:105A900081F20B3AA41AA41ED2F12003914030FAED
:105AA00003F31943904001EBCC7101EB0451002C3E
:105AB000BDE81040A8BF704701F1C04101F00041AE
:105AC0004FF000007047B0FA80F310FA03F102D1F2
:105AD000BDE810407047E41A173C4805C90AE2E7E0
