:020000040800F2
:1000000098430020D5010008DD010008DF01000849
:10001000E1010008E3010008E5010008000000001C
:100020000000000000000000000000006106000861
:10003000E90100080000000011060008A5060008FC
:10004000EF010008EF010008EF010008EF010008D0
:10005000EF010008EF010008EF010008EF010008C0
:10006000EF010008EF010008EF010008EF010008B0
:10007000EF010008EF010008EF010008EF010008A0
:10008000EF010008EF010008EF010008EF01000890
:10009000EF010008EF010008EF010008EF01000880
:1000A000EF010008EF010008EF0100084907000810
:1000B000EF010008EF010008EF010008EF01000860
:1000C000EF010008EF010008EF010008EF01000850
:1000D000EF01000899070008EF010008EF01000890
:1000E000EF010008EF010008EF010008EF01000830
:1000F000EF010008EF010008EF010008EF01000820
:10010000EF010008EF010008EF010008EF0100080F
:10011000EF010008EF010008EF010008EF010008FF
:10012000EF010008EF010008EF010008EF010008EF
:1001300000F002F800F03EF80AA090E8000C8244BB
:100140008344AAF10107DA4501D100F033F8AFF298
:10015000090EBAE80F0013F0010F18BFFB1A43F0A5
:10016000010318471460000034600000103A24BFF7
:1001700078C878C1FAD8520724BF30C830C144BF0C
:1001800004680C607047000000230024002500264E
:10019000103A28BF78C1FBD8520728BF30C148BFEA
:1001A0000B6070471FB59DE8030000F0F5F81FBD18
:1001B00010B510BD00F0A6F91146FFF7F3FF01F0EE
:1001C000DBF900F0C4F903B4FFF7F2FF03BC00F061
:1001D000F5F900000948804709480047FEE7FEE7B7
:1001E000FEE7FEE7FEE7FEE7FEE7FEE7FEE7FEE7E7
:1001F00004480549054A064B70470000E10600081F
:100200003101000898030020984300209823002023
:100210009823002070B5064600F0A2F8056806F1A4
:100220000B0020F00704B4429CBF002070BD2B4699
:100230006A68BAB11068A04210D304F1080188427C
:100240003CBF5068586007D351681019416011686D
:10025000091B016058601460101D70BD1346526880
:10026000002AE7D12146284600F082F80028DED196
:1002700070BD70B50446051F00F072F80068002CD0
:1002800014BF446870BD002C18BFAC423CBF204670
:100290006468F8D301680A18AA4218BF456003D100
:1002A0002A6805461144016028684119A1421CBF13
:1002B0006C6070BD6168696021680844286070BD29
:1002C000032A40F2308010F0030C00F0158011F882
:1002D000013BBCF1020F624498BF11F801CB00F85A
:1002E000013B38BF11F8013BA2F1040298BF00F8AE
:1002F00001CB38BF00F8013B11F0030300F082800E
:10030000083AC0F0088051F8043B083A51F804CB91
:10031000A0E80810F5E7121D5CBF51F8043B40F857
:10032000043BAFF30080D20724BF11F8013B11F862
:1003300001CB48BF11F8012B24BF00F8013B00F8A6
:1003400001CB48BF00F8012B704702F0FF0343EADE
:10035000032242EA024200F089B8704770477047B2
:100360000048704710000020704770477047704782
:1003700038B504460A4600206946AFF300800028DD
:1003800008BF38BD02460099204600F099F80120C8
:1003900038BD012000F0AEB8F8B5AFF300800546D7
:1003A00000200C46102000BF0646A819A0420DD917
:1003B000324669460020AFF30080070008BF00F016
:1003C00099F80098A04218BF0546C419FFF7C8FF66
:1003D00005600746F01D20F007004619284600F08A
:1003E0000AF8B44208BFF8BDA21B31463868BDE820
:1003F000F84000F065B800210160C0E901107047C5
:100400001020704710B5203AC0F00B80B1E81850AA
:10041000A0E81850B1E81850A0E81850203ABFF4EE
:10042000F5AF5FEA027C24BFB1E81850A0E818508D
:1004300044BF18C918C0BDE810405FEA827C24BFE1
:1004400051F8043B40F8043B08BF7047D20728BF6F
:1004500031F8023B48BF11F8012B28BF20F8023BBE
:1004600048BF00F8012B70474FF0000200B513465B
:1004700094469646203922BFA0E80C50A0E80C50C4
:10048000B1F12001BFF4F7AF090728BFA0E80C5075
:1004900048BF0CC05DF804EB890028BF40F8042B6E
:1004A00008BF704748BF20F8022B11F0804F18BFDB
:1004B00000F8012B7047000000487047080000203A
:1004C000034640688C46002818BF88423CBF03465C
:1004D0004068F8D318681844884207D00CF103002C
:1004E00020F00700001D411A521A0146081D0A603B
:1004F000FFF7BFBE10B500F039F8BDE8104000F0BE
:100500002FB870477546FFF7D7FFAE46050069461E
:10051000534620F00700854618B020B5FFF768FE67
:10052000BDE820404FF000064FF000074FF00008F4
:100530004FF0000BAC46ACE8C009ACE8C009ACE831
:10054000C009ACE8C00921F007018D46704710B51D
:100550000446AFF300802046BDE81040FFF733BEED
:10056000002801D000F02AB87047000010B501281B
:1005700005D0002103A000F027F8012010BD09A13B
:10058000F8E7000053494752544D454D3A204F7506
:1005900074206F662068656170206D656D6F72797B
:1005A000000000003A2048656170206D656D6F7233
:1005B0007920636F72727570746564000149182048
:1005C000ABBEFEE72600020070B505460C460A20C9
:1005D00000E06D1C00F011F835B128780028F8D142
:1005E00002E0641C00F009F814B120780028F8D16A
:1005F000BDE870400A20AFF3008008B569468DF869
:1006000000000320ABBE08BDFFE700BFFDE7000010
:10061000EFF30980BFF36F8F0D4B1A6820E9F00FDD
:1006200010602DE908404FF0500080F3118804F06D
:1006300065F94FF0000080F31188BDE808401968A3
:100640000868B0E8F00F80F30988BFF36F8F704738
:100650001C0200200000000000000000000000005C
:10066000074B19680868B0E8F00F80F30988BFF3FA
:100670006F8F4FF0000080F311884EF00D0E704721
:100680001C02002080B500F0B9F800F0EDF800F091
:10069000C5FA00F009FA00F053FA00F09BFA00F0F6
:1006A00091F880BD80B582B04FF0500080F3118882
:1006B000BFF36F8FBFF34F8F009004F0DDFD40B1AB
:1006C000FFE74EF60451CEF200014FF08050086073
:1006D000FFE700200190019880F3118802B080BDEF
:1006E00080B541F20001C4F20201086840F0010047
:1006F000086041F20403C4F2020318680C22CEF62B
:10070000FF021040186008684FF6FF72CFF6F662DD
:1007100010400860086820F48020086018684FF6D0
:10072000FF7CCFF2007C00EA0C00186008681040E3
:10073000086041F20801C4F202014FF41F00086092
:1007400002F05AFE80BD000080B542F60040C4F2BF
:100750000100022103F0CEF9012808D1FFE742F69B
:100760000040C4F20100022103F0BAF912E042F69F
:100770000040C4F20100042103F0BCF9012808D1B3
:10078000FFE742F60040C4F20100042103F0A8F99B
:10079000FFE7FFE780BD00007047000080B582B032
:1007A0008DF807008DF806109DF8060000F028F976
:1007B0009DF8070000F0C6F89DF8060000F04AF921
:1007C00002B080BD80B582B042F20040C4F20100A8
:1007D000019000F04FFB0020009000F0B9FB009961
:1007E000019800F033FB009B01980222194600F0AB
:1007F000BFFB019800F078FB02B080BD80B541F2EC
:100800001801C4F20201086840F01C000860086882
:1008100040F480400860086840F601021043086018
:10082000086840F40070086041F21C01C4F2020143
:10083000086840F001000860086840F002000860A5
:10084000086840F004000860032002F013FA80BD3D
:1008500080B582B00190019805F0CAFB40F2D94101
:10086000484380B202B080BD80B58AB041F200003A
:10087000C4F2010010210891012209924FF40053A3
:1008800000F0C6FD099B40F60000C4F2010005908F
:10089000042103910322029200F0BAFD029A059806
:1008A00008994FF48063049300F0B2FD029A08990E
:1008B000099B40F60040C4F20100079000F0A8FD3B
:1008C000029A079818210091022300F0A1FD0099D7
:1008D000029A0598099B00F09BFD029A039B0598DC
:1008E0000021019100F094FD0199029A05980823D6
:1008F00000F08EFD039B07980899099A00F088FD87
:10090000049B07980899099A00F082FD05980899B8
:10091000099A8023069300F07BFD05980899099AAF
:10092000202300F075FD069B07980899099A00F0AE
:100930006FFD07980899099A402300F069FD0AB0F5
:1009400080BD000081B08DF8030000208DF802000A
:10095000FFE79DF80200012817DCFFE740F60C01D5
:10096000C4F20101086820F080000860086840F0C7
:1009700020000860086820F020000860FFE79DF86C
:10098000020001308DF80200E3E700208DF802003C
:10099000FFE79DF80200072830DCFFE79DF8030021
:1009A0000006002809D5FFE740F60C01C4F201015A
:1009B000086840F08000086008E040F60C01C4F2CE
:1009C0000101086820F080000860FFE740F60C0194
:1009D000C4F20101086840F0200008609DF803009F
:1009E00040008DF80300086820F020000860FFE751
:1009F0009DF8020001308DF80200CAE701B070478F
:100A000081B08DF803009DF8030048B9FFE740F678
:100A10000C41C4F20101086820F0040008600EE0F7
:100A20009DF80300012809D1FFE740F60C41C4F20C
:100A30000101086820F480600860FFE7FFE740F6E6
:100A40000C01C4F20101086820F02000086001B028
:100A50007047000081B08DF803009DF8030048B98D
:100A6000FFE740F60C41C4F20101086840F00400C1
:100A700008600EE09DF80300012809D1FFE740F669
:100A80000C41C4F20101086840F480600860FFE78F
:100A9000FFE740F60C01C4F20101086820F02000D5
:100AA000086001B07047000080B584B04FF4C060AA
:100AB00002F0E2F94FF08040019002F0C3FE01988D
:100AC00040F26C01C2F2000140F237420A8000227B
:100AD00002924A808A8040F2E7338B608A818A736F
:100AE00002F046FF0198029940F27C02C2F2000235
:100AF0009180012303931380D18051801181518112
:100B000002F088FC0198029940F2572202F030FE70
:100B100001980299602202F0E5FD0198029A1146BF
:100B200002F04AFE019802F06BFC019802F016FFF9
:100B3000029800F0E7FB039800F0E4FB04B080BDEE
:100B400080B584B04FF4C06002F096F940F20040E6
:100B5000C4F20000039002F075FE039840F2880191
:100B6000C2F2000140F237420A80002202924A801B
:100B70008A8040F2E7338B608A818A7302F0F8FE44
:100B80000299039840F29802C2F200029180012378
:100B90001380D1805180118151810321019102F094
:100BA00039FC0199039840F2572202F0E1FD0199C6
:100BB0000398602202F096FD0199029A039802F0D0
:100BC000FBFD039802F01CFC039802F0C7FE04B082
:100BD00080BD000040F62C01C4F200014FF47A7091
:100BE000086040F62801C4F2000140F23740086076
:100BF00040F64001C4F2000140F2F310086040F6F4
:100C00002001C4F20001086840F48050086040F6FA
:100C10000001C4F2000101200860704780B582B075
:100C200043F60000C4F20100019003F0B1F801980E
:100C30004FF4E13103F046F80198002103F00EF97A
:100C40000198082103F01AF900F0D6FB40F60000E5
:100C5000C4F20100182103224FF4007300F0D8FB06
:100C6000019803F0F1F802B080BD000080B586B0B5
:100C7000059000208DF81300022000F03BFA40F2AE
:100C8000CC00C2F2000003F0A7FB40F2A400C2F2C5
:100C9000000003F0A9FBFFE742F20040C4F20100AC
:100CA00000F020FA40F2C601C2F20001088040F2D2
:100CB000A400C2F200008069002800F0AB80FFE7CA
:100CC00040F2C000C2F200000068039048B1FFE7A4
:100CD0000398012859D0FFE70398022800F0888084
:100CE00097E040F2C600C2F20000018840F2A40082
:100CF000C2F20000029003F0FBF80298007D0B287E
:100D00003FD1FFE740F2A400C2F2000002F00CFF66
:100D1000014640F2C400C2F2000001800088019048
:100D20004FF07C50FFF794FD01460198884207DAA6
:100D3000FFE740F2C001C2F20001022008601FE09C
:100D400040F2C400C2F20000008800904CF6CD4092
:100D5000C4F22C00FFF77CFD01460098884207DDB5
:100D6000FFE740F2C001C2F200010220086006E085
:100D700040F2C001C2F2000101200860FFE7FFE776
:100D8000FFE7642003F03AFB43E040F2C600C2F202
:100D90000000038840F2C010C2F2000040F2CA0115
:100DA000C2F2000140F2C902C2F2000200F080FA71
:100DB000C0B1FFE740F2CA00C2F20000008802F0B2
:100DC000E1FE014640F2C800C2F200000170017865
:100DD00040F2CC00C2F2000002F022FF0021FFF737
:100DE000DDFC01E000BFFFE7642003F007FB10E03B
:100DF00040F2C001C2F200010020086040F2A400ED
:100E0000C2F2000003F0F0FA4FF47A7003F0F6FA41
:100E1000FFE700E0FFE73FE780B582B00190FA20EE
:100E20008DF80300FFE79DF80300292809D3FFE7A9
:100E30009DF80300411E8DF803100121FFF7AEFC61
:100E4000FFE74FF47A7003F0D9FAECE782B0019033
:100E50000091009830B1FFE70199886840F4006084
:100E6000886005E00199886820F400608860FFE7E9
:100E700002B0704780B586B005900598049042F2A4
:100E80000041C4F20101884210D0FFE7049842F605
:100E90000001C4F20101884211D0FFE7049843F633
:100EA0000041C4F20101884212D01AE040F2093038
:100EB000039002F005F8039801F0F0FF12E040F211
:100EC0000A30029001F0FCFF029801F0E7FF09E010
:100ED00040F20F30019001F0F3FF019801F0DEFFC6
:100EE00000E0FFE706B080BD81B000900098806808
:100EF000C00730B9FFE70099886840F001008860BA
:100F0000FFE701B07047000082B001900091009AA5
:100F1000019908689043086002B0704783B002905E
:100F2000019100200090029800680199084203D0C6
:100F3000FFE701200090FFE7009803B07047000032
:100F400042F20440C4F20100006800F01F00704744
:100F500081B0009042F20441C4F20101086820F41B
:100F600070200860009A08681043086001B070475C
:100F700085B004908DF80F108DF80E2002939DF827
:100F80000F0005281CDCFFE70498406B01909DF8DA
:100F90000F0000EB80011F2000FA01F10198884347
:100FA00001909DF80E009DF80F1001EB810100FAF1
:100FB00001F10198084301900198049948634AE0BF
:100FC0009DF80F000B281FDCFFE70498006B0190D1
:100FD0009DF80F0000EB8000A0F11E011F2000FA19
:100FE00001F10198884301909DF80E009DF80F10C3
:100FF00001EB81011E3900FA01F1019808430190CB
:1010000001980499086325E09DF80F000F281FDC64
:10101000FFE70498C06A01909DF80F0000EB800084
:10102000A0F13C011F2000FA01F1019888430190D2
:101030009DF80E009DF80F1001EB81013C3900FA7C
:1010400001F101980843019001980499C86200E0F9
:10105000FFE7FFE7FFE79DF80E0009281BDCFFE72D
:101060000498006900909DF80E0000EB40010720F5
:1010700000FA01F100988843009002989DF80E1044
:1010800001EB410100FA01F100980843009000983B
:101090000499086124E09DF80E0011281EDCFFE78A
:1010A0000498C06800909DF80E0000EB4000A0F18D
:1010B0001E01072000FA01F1009888430090029871
:1010C0009DF80E1001EB41011E3900FA01F1009864
:1010D0000843009000980499C86000E0FFE7FFE72C
:1010E00005B0704781B000900098C06C80B201B02C
:1010F0007047000080B582B08DF807009DF80700AA
:1011000002280AD1FFE742F20040C4F201000222A5
:1011100000231946FFF72CFF11E09DF80700032874
:101120000AD1FFE742F20040C4F20100032200238B
:101130001946FFF71DFF01E000BFFFE7FFE702B020
:1011400080BD000082B001908DF803109DF803006F
:10115000C00730B1FFE70199886840F480008860DB
:10116000FFE79DF803008007002806D5FFE70199F7
:10117000886840F400108860FFE702B07047000004
:1011800080B582B00190FFE742F20040C4F2010056
:101190001021FFF7C3FEE0BBFFE742F20040C4F2BC
:1011A00001000221FFF7BAFE90B3FFE742F20040D0
:1011B000C4F201000221FFF7A7FEFFF7C1FE0228DB
:1011C0000FD1FFE742F20040C4F20100FFF78AFFAF
:1011D00040F2D411C2F2000108800320FFF78AFF19
:1011E0000EE042F20040C4F20100FFF77BFF40F244
:1011F000D611C2F2000108800220FFF77BFFFFE753
:1012000042F20040C4F201000121FFF79BFFFFE71B
:1012100011E042F20040C4F201000221FFF77EFE1D
:1012200040B1FFE742F20040C4F201000121FFF7A4
:1012300089FFFFE7FFE7012003F0E0F842F20040FA
:10124000C4F201000221FFF769FEB0B1FFE742F2EC
:101250000040C4F2010000900221FFF755FE009803
:10126000FFF740FF0146009840F2D412C2F200029C
:1012700011800121FFF766FF19E042F20040C4F23D
:1012800001001021FFF74AFE40B1FFE742F20040A3
:10129000C4F201000121FFF755FF07E042F20040D0
:1012A000C4F201000121FFF74DFFFFE7FFE76BE705
:1012B00085B0049003910292ADF8063000200090B2
:1012C0000298007809280BD8FFE7BDF8062004999A
:1012D00008681044086002990878013008700DE031
:1012E000049800684CF6CD41CCF6CC41A0FB01102F
:1012F000C0080399088001200090FFE7009805B01E
:101300007047000081B00090009848B9FFE740F2B4
:101310002041C4F20001086820F4805008600EE00B
:101320000098012808D1FFE72021C4F200010868D5
:1013300020F00100086001E000BFFFE7FFE701B017
:101340007047000082B001200190009040F24430CC
:10135000C2F20000006818B1FFE70020009028E00A
:1013600040F29030C2F20000006818B1FFE70020A0
:1013700000901DE040F24030C2F20000006818B159
:10138000FFE70020009012E040F25C30C2F2000063
:10139000006840F2CC21C2F200010968013988429C
:1013A00003D1FFE70220009000E0FFE7FFE7FFE73F
:1013B000FFE7009802B0704781B00090009848B9EC
:1013C000FFE740F22041C4F20001086840F4805079
:1013D00008600EE00098012808D1FFE72021C4F240
:1013E0000001086840F00100086001E000BFFFE76D
:1013F000FFE701B07047000080B582B04FF4407045
:10140000019001F05DFD019801F048FD02B080BD42
:1014100087B00690059104920393002001900090FC
:10142000059800F00F0001909DF81400C0060028F8
:1014300005D5FFE70499019808430190FFE70020D4
:10144000ADF80A00FFE7BDF80A00072842D8FFE719
:10145000BDF80A100398C840C007A0B3FFE706987C
:1014600000680090BDF80A0081000F2000FA01F129
:101470000098884300900198BDF80A10890000FA8E
:1014800001F10098084300900598282809D1FFE74A
:10149000BDF80A1001208840039908400699486168
:1014A0000DE00598482809D1FFE7BDF80A10012092
:1014B00088400399084006990861FFE7FFE7009814
:1014C00006990860FFE7FFE7BDF80A000130ADF8B4
:1014D0000A00B8E70820ADF80A00FFE7BDF80A00E7
:1014E0000F2846D8FFE7BDF80A100398C840C00788
:1014F000C0B3FFE7069840680090BDF80A006FF09F
:101500001F0101EB80020F2000FA02F200989043C5
:1015100000900198BDF80A2001EB820100FA01F168
:101520000098084300900598282809D1FFE7BDF8E6
:101530000A100120884003990840069948610DE08F
:101540000598482809D1FFE7BDF80A100120884016
:101550000399084006990861FFE7FFE7009806999C
:101560004860FFE7FFE7BDF80A000130ADF80A0068
:10157000B4E707B07047000080B586B00020049043
:101580000590FFF77FF8049A01210391084603F0C4
:1015900089FA049A0146039840F21823C2F2000324
:1015A0001960082103F07EFA049A0146039840F27C
:1015B000DC13C2F200031960042103F073FA0399EB
:1015C000049A40F2A023C2F20003186005200290A2
:1015D00003F068FA0399049A0346029840F2CC1C7F
:1015E000C2F2000CCCF8003003F05CFA0399049AC4
:1015F00040F2D013C2F200031860402003F052FA08
:10160000049B40F2B821C2F20001086040F20420BD
:10161000C2F20000694648600220086041F25D7035
:10162000C0F6000046F22D11C0F600014FF48072A2
:1016300003F0B0FD012803D0FFE7FEF7E5FFFFE769
:1016400040F29C20C2F20000694648600120086018
:1016500042F6F970C0F6000046F22111C0F6000112
:101660008022002303F096FD012803D0FFE7FEF758
:10167000CBFFFFE740F2D810C2F200006946486095
:101680000120086041F28110C0F6000046F21811F6
:10169000C0F600018022002303F07CFD012803D066
:1016A000FFE7FEF7B1FFFFE740F2C410C2F200000F
:1016B000694648600120086040F66D40C0F60000B1
:1016C00046F2FC01C0F600018022002303F062FD17
:1016D000012803D0FFE7FEF797FFFFE740F2C810AD
:1016E000C2F20000694648600120086040F61960B7
:1016F000C0F6000046F20A11C0F600018022002365
:1017000003F048FD012803D0FFE7FEF77DFFFFE768
:1017100040F29420C2F2000069464860022008604E
:1017200042F61D70C0F6000046F23711C0F6000107
:101730008022002303F02EFD012803D0FFE7FEF7EF
:1017400063FFFFE740F29420C2F20000006803F05C
:101750000FF802F089FFFFE7FEE7000080B588B0D0
:101760000790142006900020FFF7CCFD46F24510AC
:10177000C0F6000000F048FAFFE740F26800C2F24D
:1017800000000068032816D3FFE740F20020C2F2F1
:101790000000006878B9FFE700200590FFF70CFE15
:1017A00005980A2101F074FD40F20021C2F2000107
:1017B00001200860FFE740F26800C2F20000006804
:1017C0000B2816D3FFE740F2FC10C2F200000068BD
:1017D00078B9FFE7012004900A2101F059FD04982F
:1017E000FFF7EAFD049840F2FC11C2F20001086024
:1017F000FFE740F26800C2F20000006840F2E41126
:10180000C2F200010968401A152825D3FFE701F04C
:1018100069FB40F29420C2F20000006880B1FFE74B
:1018200040F29420C2F20000006802F0A1FF40F6EE
:101830000C01C4F20101086820F480600860FFE731
:1018400040F2A421C2F200010020086040F2E4113D
:10185000C2F200010860FFE740F26800C2F2000037
:10186000006840F2E811C2F200010968401A03283A
:1018700019D3FFE701F036FB40F2F811C2F2000184
:1018800000200390087001200A2101F001FD039857
:10189000FFF738FD40F60C41C4F20101086840F042
:1018A0004000086008E040F60C41C4F201010868FD
:1018B00020F040000860FFE740F2DC10C2F20000B8
:1018C000006840F2F011C2F20001002203F0F6FAC3
:1018D000012840F00781FFE740F26800C2F20000F3
:1018E000006840F2E811C2F20001086040F2F01016
:1018F000C2F2000080886528C0F29B80FFE740F2BA
:10190000F010C2F200008088B0F5967F80F29180DE
:10191000FFE740F2F010C2F20000006840BBFFE7B2
:1019200040F2F010C2F200008088912816DBFFE739
:1019300040F2F010C2F200008088AF280ED8FFE716
:1019400040F2F811C2F2000108780130087001205D
:101950000A2101F09DFC01F0D7FA08E040F2F811ED
:10196000C2F200010020087001F0BCFAFFE727E096
:1019700040F2F010C2F200008088892816DBFFE7F1
:1019800040F2F010C2F20000808899280EDCFFE7D8
:1019900040F2F811C2F2000108780130087001200D
:1019A0000A2101F075FC01F0AFFA08E040F2F811ED
:1019B000C2F200010020087001F094FAFFE7FFE78F
:1019C00040F2F810C2F200000078052830D3FFE79B
:1019D000922002F013FD40F60800C4F201000068F6
:1019E000C00500281AD5FFE740F29420C2F200009B
:1019F000006802F0B5FD01F087FA40F26800C2F21B
:101A00000000006840F2E411C2F20001086040F2F8
:101A1000A421C2F200010120086002E001F062FA94
:101A2000FFE740F2F811C2F2000100200870FFE762
:101A300057E040F2F010C2F200000068002848D0E1
:101A4000FFE740F2F010C2F200008088B0F5487F56
:101A50003EDDFFE740F2F010C2F20000808840F265
:101A60004B41884234DCFFE701F04EFA40F2182087
:101A7000C2F200000068002103F062F840F29420F6
:101A8000C2F200000068E0B1FFE740F29420C2F229
:101A90000000006802F06CFE40F60C01C4F2010187
:101AA000086820F48060086040F2A421C2F20001BE
:101AB0000020086040F2A821C2F200010120086065
:101AC000FFE740F2F811C2F2000100200870FFE7C2
:101AD00006E040F2F811C2F2000100200870FFE7B2
:101AE000FFE7FFE740F21820C2F20000006840F272
:101AF000EC11C2F20001002203F0E0F901287ED1CE
:101B0000FFE740F26800C2F20000006840F2E8110E
:101B1000C2F20001086040F2EC10C2F2000000784E
:101B20000A2816D8FFE70021084601F0B1FB40F271
:101B30001020C2F20000006850B1FFE740F2102010
:101B4000C2F20000006802F013FE01F0DDF9FFE7C9
:101B500054E040F21020C2F200000068D0B9FFE764
:101B600040F21020C2F2000069464860022008607E
:101B700042F6D930C0F6000046F25A11C0F6000114
:101B80008022002303F006FB012802D1FFE700BFFB
:101B9000FFE707E040F21020C2F20000006802F008
:101BA000DFFCFFE740F2EC10C2F2000000782828CA
:101BB00005D8FFE700201E2101F06AFB12E040F289
:101BC000EC10C2F200000078502805D8FFE7002092
:101BD000322101F05DFB04E00020502101F058FBB0
:101BE000FFE7FFE740F2FC10C2F20000006820B1FE
:101BF000FFE70020FFF7E0FBFFE7FFE7FFE701203B
:101C000002F0FCFBB9E5000080B584B0039040F21F
:101C1000B820C2F200000068002102F091FFFFE747
:101C200040F20A20C2F2000001780120FF29029050
:101C30002AD1FFE740F20920C2F2000000780A280A
:101C40000AD1FFE740F20820C2F20000017801202B
:101C50000D29029018D0FFE740F20920C2F20000DF
:101C6000017800200D2901900BD1FFE740F20820F8
:101C7000C2F2000000780A38B0FA80F04009019002
:101C8000FFE701980290FFE70298C00700B3FFE763
:101C900040F20821C2F20001087840F20922C2F2A3
:101CA00000021070039840F20A2CC2F2000C9CF85B
:101CB0000020531C8CF80030805C087040F2B82083
:101CC000C2F20000006800231A4602F0BDFFA7E739
:101CD00040F20A21C2F200010020087004B080BD69
:101CE00080B586B00590049140F28430C2F20000C5
:101CF0000068029040F21C20C2F20000026800213D
:101D000082F855100068043002F0CEF888B9FFE779
:101D100040F21C20C2F200000068C16A012000FAF3
:101D200001F240F2DC21C2F2000108689043086031
:101D300000E0FFE70598013018BBFFE7049800B307
:101D4000FFE740F25C31C2F2000148680190019A5D
:101D500040F21C20C2F2000003689A60019A926867
:101D60000368DA6002680432019B9B685A6002686B
:101D70000432019B9A600068416108680130086084
:101D80003DE00298059908440390039840F21C2115
:101D9000C2F20001096848600398029988420ED295
:101DA000FFE740F22820C2F20000006840F21C2148
:101DB000C2F200010968043102F0E4F81EE040F2CA
:101DC0002420C2F20000006840F21C21C2F200018F
:101DD0000968043102F0D6F8039840F23831C2F2B3
:101DE00000010968884207D2FFE7039840F23831C2
:101DF000C2F20001086000E0FFE7FFE7FFE706B07E
:101E000080BD000080B582B0019002F00FF940F271
:101E1000CC21C2F2000108680130086040F21C20A9
:101E2000C2F20000006898B9FFE7019840F21C2157
:101E3000C2F20001086040F2CC20C2F2000000684B
:101E4000012803D1FFE700F0F7FA00E0FFE71CE00C
:101E500040F25830C2F200000068A0B9FFE740F23B
:101E60001C20C2F200000068C06A0199C96A884259
:101E700007D8FFE7019840F21C21C2F20001086078
:101E800000E0FFE700E0FFE7FFE740F2D820C2F202
:101E9000000001680131016000680199086401983F
:101EA000C16A012000FA01F240F2DC21C2F2000115
:101EB0000868104308600198C06A00EB800040F297
:101EC0003021C2F2000101EB8000406800900098D0
:101ED000019A906000988068019AD060019804305F
:101EE000009A9268506001980430009A9060019ABC
:101EF000D06A00EB800001EB800050610198C06A5D
:101F000000EB800251F82200013041F8220002F07B
:101F1000B9F840F25830C2F200000068C8B1FFE7DB
:101F200040F21C20C2F200000068C06A0199C96A30
:101F300088420CD2FFE74EF60451CEF200014FF07A
:101F400080500860BFF34F8FBFF36F8F00E0FFE753
:101F500000E0FFE702B080BD80B582B002F066F815
:101F600040F28830C2F20000006828BBFFE740F270
:101F7000E020C2F20000009001F0E4FF40F2F42003
:101F8000C2F20000019001F0DDFF0099019840F2DB
:101F90002022C2F20002116040F22C21C2F20001A4
:101FA000086005201021002202F07CFD40F28831FB
:101FB000C2F20001086000E0FFE702F063F802B03F
:101FC00080BD000080B582B0FFE740F2D020C2F2B1
:101FD0000000006808B3FFE702F028F840F2703014
:101FE000C2F20000C068C06801900198043001F09E
:101FF0005BFF40F2CC21C2F20001086801380860A2
:1020000040F2D021C2F2000108680138086002F0F5
:1020100039F8019800F08CF8D7E702B080BD0000D5
:1020200080B582B0019000910198006CB8B1FFE7D3
:102030000199C8680A6C1044C86001988168C0683A
:10204000884204D3FFE701990868C86000E0FFE711
:102050000098019AD168126CFEF732F9FFE702B0DE
:1020600080BD000080B586B00590049103920020E9
:1020700002900598806B01900598006C78B9FFE795
:102080000598006848B9FFE70598806803F024FACE
:10209000029005990020886000E0FFE741E0039886
:1020A000B8B9FFE7059A04995068126CFEF708F971
:1020B000059948680A6C1044486005994868896821
:1020C000884204D3FFE705990868486000E0FFE70D
:1020D00026E0059A0499D068126CFEF7F1F805998C
:1020E000C8680A6C801AC86005980168C068884290
:1020F00006D2FFE7059988680A6C801AC86000E07C
:10210000FFE70398022809D1FFE7019820B1FFE714
:1021100001980138019000E0FFE700E0FFE7FFE7EA
:10212000FFE70198013005998863029806B080BDE9
:1021300080B582B001900198006B01F0C9FF019851
:1021400001F0C6FF02B080BD83B0002001900120E5
:10215000009040F2DC20C2F200000068022803D3A5
:10216000FFE701200190FFE740F21C20C2F20000CF
:102170000068C06A18B1FFE7002002901FE040F23B
:102180003020C2F200000068022803D3FFE70020DD
:10219000029013E0019818B1FFE7002002900CE0D4
:1021A00040F23830C2F20000006840F28431C2F2DE
:1021B00000010968401A0290FFE7FFE7FFE7029875
:1021C00003B0704782B0019040F22020C2F20000BC
:1021D00000680068B0FA80F0400901990860019831
:1021E000006848B9FFE740F22020C2F20000006812
:1021F000C0680068009002E000200090FFE70098AF
:1022000002B0704780B584B00290FFE7FFF7DAFEB6
:1022100040F23020C2F20000006802280CD3FFE731
:102220004EF60451CEF200014FF080500860BFF32B
:102230004F8FBFF36F8F00E0FFE7FFF785FF01903F
:102240000198022829D3FFE702F050FB40F2383012
:10225000C2F20000006840F28431C2F20001096855
:1022600088420BD2FFE74FF0500080F31188BFF394
:102270006F8FBFF34F8F0390FFE7FEE7FFF764FF19
:1022800001900198022804D3FFE7019801F06CFF48
:1022900000E0FFE703F086FA00E0FFE7B6E70000A2
:1022A00080B584B0DDF818C00390029101928DF8DA
:1022B0000330029818B9FFE70698006003E0019820
:1022C00006990860FFE703980699C8630298069983
:1022D00008640698012102F033FC9DF8030006997A
:1022E00081F8500006990020886404B080BD000089
:1022F00080B58AB0DDF83CC0DDF838C0DDF834C008
:10230000DDF830C007900691059204930E98006B9B
:1023100005998900A522FEF718F80E98006B05991B
:1023200000EB810004380390039820F0070003902D
:102330009DF80C00400758B1FFE74FF0500080F3C4
:102340001188BFF36F8FBFF34F8F0890FFE7FEE751
:102350000698F8B1FFE700200290FFE702980928ED
:1023600013D8FFE70698029A805C0E99114481F811
:10237000340006980299405C08B9FFE705E0FFE7E2
:10238000FFE7029801300290E8E70E99002081F8FB
:102390003D0004E00E99002081F83400FFE70C981E
:1023A00005280BD3FFE74FF0500080F31188BFF3EF
:1023B0006F8FBFF34F8F0990FFE7FEE70C9805285A
:1023C00003D3FFE704200C9000E0FFE70C980E9980
:1023D000C8620C980E9988640E9900200190C86418
:1023E0000E98043001F0C6FD0E98183001F0C2FDC1
:1023F00001980E9909610C99C1F105010E9A91613C
:102400000E9949620E9908650E9981F854000E994B
:1024100081F8550003980799049A00F003FC0E997F
:1024200008600D9820B1FFE70E980D99086000E054
:10243000FFE70AB080BD000080B584B000200390A3
:10244000FFE70398042810D8FFE7039800EB80010A
:1024500040F23020C2F2000000EB810001F072FD7A
:10246000FFE7039801300390EBE740F20830C2F237
:102470000000019001F066FD40F21C30C2F2000045
:10248000029001F05FFD40F24430C2F2000001F022
:1024900059FD40F27030C2F2000001F053FD40F2ED
:1024A0005C30C2F2000001F04DFD0199029840F24B
:1024B0002422C2F20002116040F22821C2F200017F
:1024C000086004B080BD000080B586B0059004911E
:1024D00003920293002001900498059948600598A2
:1024E000006104980399884216D8FFE7039802997F
:1024F000401A05998969884203D3FFE701200190BA
:1025000009E040F22C20C2F2000000680599043175
:1025100001F038FDFFE717E003980299884208D2DE
:10252000FFE704980299884203D3FFE70120019056
:1025300009E040F22020C2F2000000680599043151
:1025400001F020FDFFE7FFE7019806B080BD000025
:1025500080B582B0019001F069FD0198806B18B9D7
:10256000FFE70120009002E000200090FFE701F06B
:1025700089FD009802B080BD80B582B0019001F065
:1025800055FD0198806B0199C96B884203D1FFE723
:102590000120009002E000200090FFE701F072FDB2
:1025A000009802B080BD000080B588B00490049807
:1025B000806C039000200290039858B9FFE74FF019
:1025C000500080F31188BFF36F8FBFF34F8F0590DA
:1025D000FFE7FEE70398806B0399C96B88420BD332
:1025E000FFE74FF0500080F31188BFF36F8FBFF308
:1025F0004F8F0690FFE7FEE70398806B0399C96B46
:10260000884239D2FFE7039890F845008DF807001B
:10261000039804A90022FFF725FD02909DF9070009
:10262000013088B9FFE70398406A58B1FFE7039883
:10263000243002F0EDFF18B1FFE70120029000E026
:10264000FFE700E0FFE716E09DF907007F280BD1C8
:10265000FFE74FF0500080F31188BFF36F8FBFF397
:102660004F8F0790FFE7FEE79DF8070001300399C1
:1026700081F84500FFE700E0FFE7029808B080BD61
:1026800006480068006880F3088862B661B6BFF348
:102690004F8FBFF36F8F00DF00BF00BF08ED00E07A
:1026A00080B584B00390029140F22020C2F2000075
:1026B0000068C068C06801900198043001F0F4FB24
:1026C000019890F828004007002806D5FFE70198F8
:1026D0000399029A00F01CF907E0019991F828008B
:1026E00000F0FE0081F82800FFE70198016A8847A2
:1026F00004B080BD80B58CB0FFE740F28830C2F2F4
:102700000000006806A9002202F0D8FB002800F0B3
:10271000AF80FFE70698B0F1FF3F17DCFFE706A8A0
:1027200004300290029858B9FFE74FF0500080F350
:102730001188BFF36F8FBFF34F8F0A90FFE7FEE75B
:1027400002990A6848688968904700E0FFE70698A0
:10275000002800F18C80FFE70898059005984069F3
:1027600028B1FFE70598043001F09EFB00E0FFE789
:1027700004A800F005F9039006980138014601917C
:10278000082800F272800199DFE801F00505323A6D
:102790005B0505323A00059991F8280040F00100E8
:1027A00081F828000598079B81691944039AFFF76F
:1027B0008BFED8B1FFE7059890F828004007002865
:1027C00008D5FFE70598079982691144039A00F03C
:1027D0009FF807E0059991F8280000F0FE0081F8C5
:1027E0002800FFE70598016A884700E0FFE73DE021
:1027F000059991F8280000F0FE0081F8280035E0E6
:10280000059991F8280040F0010081F82800079808
:10281000059988610598806958B9FFE74FF0500025
:1028200080F31188BFF36F8FBFF34F8F0B90FFE7DB
:10283000FEE70598039B816919441A46FFF744FE99
:1028400014E0059890F828008007002804D4FFE7DA
:10285000059801F03DFC07E0059991F8280000F08B
:10286000FE0081F82800FFE700E0FFE7FFE744E70C
:102870000CB080BD80B584B00390029102F036F8B0
:10288000684600F07DF801900098D8BBFFE70298F9
:1028900060B9FFE703980199884207D8FFE702F083
:1028A00081FF03980199FFF7FBFE2AE0029858B1D7
:1028B000FFE740F22C20C2F2000000680068B0FA86
:1028C00080F040090290FFE740F28830C2F2000039
:1028D00000680399019A891A029A01F04BFD02F0EF
:1028E00061FF60B9FFE74EF60451CEF200014FF0F0
:1028F00080500860BFF34F8FBFF36F8F00E0FFE79A
:10290000FFE702E002F04EFFFFE704B080BD0000E9
:1029100080B584B0039002910192FFE70398029B77
:1029200081691944019AFFF7CFFD48B1FFE7039889
:1029300081690298084402900398016A8847EDE78C
:1029400004B080BD40F22420C2F20000006800689C
:1029500040B9FFE740F23831C2F200014FF0FF30DA
:1029600008600CE040F22420C2F200000068C06859
:10297000006840F23831C2F200010860FFE770479A
:1029800080B582B0019002F06DFC0090009840F29A
:102990000C21C2F200010968884206D2FFE700F06C
:1029A00011F801990120086003E0019900200860F6
:1029B000FFE7009840F20C21C2F200010860009885
:1029C00002B080BD80B582B0FFE740F22020C2F2A5
:1029D00000000068006870B1FFE740F22020C2F2FA
:1029E00000000068C0680068019001984FF0FF3156
:1029F000FFF756FEE9E740F22022C2F2000210681B
:102A0000009040F22C21C2F200010868106000988A
:102A1000086002B080BD000083B00020009040F24A
:102A20000400C2F200000068013058B1FFE74FF027
:102A3000500080F31188BFF36F8FBFF34F8F019069
:102A4000FFE7FEE74FF0500080F31188BFF36F8F70
:102A5000BFF34F8F0290FFE7009808B9FFE7FBE74D
:102A600003B0704784B0029000200190029800905B
:102A7000029858B9FFE74FF0500080F31188BFF378
:102A80006F8FBFF34F8F0390FFE7FEE70098406919
:102A900040F25C31C2F20001884214D1FFE7009895
:102AA000806A40F24431C2F20001884209D0FFE757
:102AB0000098806A18B9FFE70120019000E0FFE765
:102AC00000E0FFE700E0FFE7019804B07047000076
:102AD00080B584B00390FFE701A8FFF773FB029075
:102AE00002980199FFF7C6FEFFF704FEF4E7000025
:102AF00080B582B0019001F099FA019890F84500F4
:102B00008DF80300FFE79DF90300012825DBFFE7AF
:102B10000198806C50B1FFE70198FFF745FD18B1AF
:102B2000FFE701F0B5FC00E0FFE710E00198406A24
:102B300058B1FFE70198243002F06AFD18B1FFE7B1
:102B400001F0A6FC00E0FFE700E006E0FFE79DF8EB
:102B5000030001388DF80300D5E70199FF2081F8C3
:102B6000450001F08FFA01F061FA019890F84400F5
:102B70008DF80200FFE79DF90200012816DBFFE750
:102B80000198006980B1FFE70198103002F040FD24
:102B900018B1FFE701F07CFC00E0FFE79DF80200C0
:102BA00001388DF8020000E000E0E4E70199FF2021
:102BB00081F8440001F066FA02B080BD80B582B0B1
:102BC000019001F093FE0198FDF724FB009002F0C4
:102BD000E9FD009802B080BD80B584B00390FFE7A6
:102BE00001200090322100F053FB42F2107002905D
:102BF00001F004FC00982D21019100F049FB02989E
:102C000001F0FCFB0098372100F042FB029801F034
:102C1000F5FB0098019900F03BFB029801F0EEFBF8
:102C2000DEE7000083B00290019100920298043820
:102C3000029002994FF08070086002980438029068
:102C4000019820F00100029908600298043802906F
:102C5000029942F61920C0F6000008600298143864
:102C60000290009802990860029820380290029819
:102C700003B0704783B0029041F20400C4F2020036
:102C800000680190019843F6FF71CEF6FF7108408D
:102C9000019002980090042808D3FFE700980528C7
:102CA0000AD0FFE70098072806D011E002990198A2
:102CB00040EA813001900CE0029820F0040002907C
:102CC0000299019840EA813040F08050019000E084
:102CD000FFE7019841F20401C4F20201086003B069
:102CE0007047000097B016900020149040F20671D3
:102CF000C0F60811099140F20121C0F20341089188
:102D000007900690059104900391029041F204000F
:102D1000C4F202000068C0F381001590159801907C
:102D200040B1FFE7019801280AD0FFE70198022887
:102D30000CD05AE041F20020C0F27A0013905AE021
:102D400041F20020C0F27A00139054E041F20400F6
:102D5000C4F20200006800F480300F900F98B0F5C4
:102D6000803F19D1FFE741F20020C0F27A000C90B9
:102D700041F20400C4F20200006800F400300E903A
:102D80000E98B0F5003F06D1FFE740F60010C0F204
:102D90003D000C90FFE705E040F60010C0F23D005A
:102DA0000C90FFE741F20400C4F202000168C1F395
:102DB00083410D9100680001002805D5FFE70D98BB
:102DC00040F010000D90FFE70D980E2804D8FFE7A3
:102DD0000D9802300D9003E00D9801300D90FFE743
:102DE0000C980D994843139005E041F20020C0F281
:102DF0007A001390FFE741F20400C4F20200016878
:102E0000C9B209090B910B9A06A9895C0A91139919
:102E10000A9AD14012910168C1F302210B910B9AD9
:102E200004A9895C0A9112990A9AD140119100680B
:102E3000C0F3C2200B900B9902A8405C0A90129834
:102E40000A99C840109016980090032810D800994D
:102E5000DFE801F00205080B1398149009E01298BE
:102E6000149006E01198149003E01098149000E07C
:102E7000FFE7149817B0704781B00090009800F0F9
:102E80001F02012101FA02F3810941F20002C4F29A
:102E9000020288581843885001B0704781B00090F2
:102EA000009800F01F02012101FA02F3810941F2AA
:102EB0000002C4F2020288589843885001B070475B
:102EC00081B00090009800F01F02012101FA02F386
:102ED000810941F20002C4F2020288581843885066
:102EE00001B0704740F21421C2F2000100200860D6
:102EF00040F2A821C2F20001086040F2A421C2F20F
:102F0000000108607047000080B50021084600F00D
:102F1000BFF901200A2100F0BBF980BD10B594B0C3
:102F2000139046F2BC03C0F6000301931868596879
:102F30009A68D3F80CC0D3F810E05C690894CDF817
:102F40001CE0CDF818C00592049103909869D969E6
:102F50001A6AD3F824C0D3F828E0DC6A0E94CDF8BE
:102F600034E0CDF830C00B920A910990186B596B80
:102F70009A6BDB6B1293119210910F9000208DF8D9
:102F80000B00FFE79DF80B1003A850F8310048B97B
:102F9000FFE740F60C01C4F20101086840F48060CC
:102FA000086008E040F60C01C4F20101086820F452
:102FB00080600860FFE79DF80B00072816D8FFE740
:102FC0009DF80B10481C8DF80B0003A800EBC10006
:102FD00080884FF47A71484344F6D351C1F26201BC
:102FE000A0FB0110800901F009FA03E000208DF830
:102FF0000B00FFE7C6E7000080B592B011900020FB
:1030000002900F90ADF83A000D90089009902021A1
:10301000ADF828108DF81800ADF81600ADF81400C2
:103020000790FFE70998089040F60800C4F20100F5
:103030000068C0F30020099008990998884206D1D9
:10304000FFE7BDF828000130ADF8280024E0BDF806
:1030500028000E281CD8FFE7099848B1FFE740F682
:103060000C41C4F20101086820F00100086008E08A
:1030700040F60C41C4F20101086840F0010008600C
:10308000FFE740F21421C2F2000101200860FFE7CF
:103090000020ADF82800FFE7BDF82800102822D353
:1030A000FFE7002301930793ADF81430ADF8163015
:1030B00005A8011D8DF8183040F21820C2F200005A
:1030C00000681A4601F0C0FD019840F21421C2F2D6
:1030D0000001086040F60C41C4F20101086820F0CC
:1030E00001000860FFE70798D8B1FFE7BDF81600B8
:1030F00064214843BDF81410B0FBF1F005A9043178
:103100008DF818000023ADF81630ADF81430079391
:1031100040F21820C2F2000000681A4601F094FD47
:1031200021E0BDF814000130ADF8140040F60800AD
:10313000C4F201000068C005002806D5FFE7BDF80D
:1031400016000130ADF81600FFE7BDF8140040F29C
:10315000CF71884203D1FFE70120079002E00020F1
:103160000790FFE7FFE740F29820C2F200000088D6
:1031700040F2E73188420ED1FFE740F29821C2F2D7
:1031800000010020088040F26801C2F200010868D6
:103190000130086007E040F29821C2F2000108887F
:1031A00001300880FFE70F9810900D9801300D90C6
:1031B00040F60800C4F201000068C005002803D5ED
:1031C000FFE701200F9002E000200F90FFE710982A
:1031D0000F99884206D1FFE7BDF83A000130ADF8FB
:1031E0003A001AE040F2DC10C2F2000000680F99C9
:1031F0000391BDF83A10ADF8101003A90023009315
:103200001A4601F021FD009840F2E012C2F20002DD
:1032100001211160ADF83A00FFE70D9847F6D5019E
:10322000C2F2E96148434FEA700042F2DD41C0F268
:103230000611884228D8FFE740F60C41C4F201018C
:10324000086880F08000086040F2A420C2F200000C
:10325000006840F21421C2F200010968084348B135
:10326000FFE741F20C01C4F20101086880F400504C
:10327000086008E041F20C01C4F20101086820F482
:1032800000500860FFE7FFE7012001F0B7F8C9E64A
:1032900080B582B001908DF80310019880B9FFE7E6
:1032A0009DF8030000EB80014FF0FF3000EB41027E
:1032B00040F20040C4F20000032100F059FA14E08B
:1032C000019801280ED1FFE79DF8030000EB800173
:1032D0004FF0FF3000EB41024FF08040002100F042
:1032E00047FA01E000BFFFE7FFE702B080BD000042
:1032F00084B000200390029041F20001C4F2020168
:10330000086840F480300860FFE7039801300390BC
:1033100041F20000C4F20200006800F400300290A4
:10332000FFE702990020019041B9FFE703984FF6AB
:10333000FF71401A18BF01200190FFE70198C007F4
:103340000028E2D1FFE741F20000C4F20200006869
:103350008003002802D4FFE7FFE7FEE741F2040103
:10336000C4F20201009108680860086808600868F3
:1033700040F480600860086820F440300860086805
:1033800040F44030086008684FF6FF72CFF2C37215
:103390001040086008680022C0F628021043086048
:1033A00041F20001C4F20201086840F08070086038
:1033B000FFE741F20000C4F202000068800100282B
:1033C00001D4FFE7F5E741F20401C4F20201086805
:1033D00020F003000860086840F002000860FFE782
:1033E00041F20400C4F2020000680007002801D482
:1033F000FFE7F5E704B0704780B5FFF779FF80BDC0
:1034000081B000900099086840F08000086001B029
:103410007047000084B00390ADF80A100192BDF827
:103420000A0001460091032800F259810099DFE863
:1034300011F004005D00BC001B010399086A20F034
:10344000010008620399886920F0030088610198EF
:1034500002880399086A104308620399086A20F0F9
:1034600002000862019882880399086A1043086282
:10347000039842F60041C4F20101884208D0FFE7F8
:10348000039843F20041C4F2010188422DD1FFE7C5
:103490000399086A20F004000862019842880399A1
:1034A000086A104308620399086A20F0080008625D
:1034B0000198C2880399086A104308620399486812
:1034C00020F480704860019802890399486810438D
:1034D00048600399486820F4007048600198428968
:1034E0000399486810434860FFE7F9E00399086AC8
:1034F00020F0100008620399886920F44070886108
:10350000019802880399086A40EA02100862039948
:10351000086A20F020000862019882880399086AEE
:1035200040EA02100862039842F60041C4F2010129
:10353000884208D0FFE7039843F20041C4F201013A
:10354000884231D1FFE70399086A20F04000086201
:10355000019842880399086A40EA021008620399B8
:10356000086A20F0800008620198C2880399086AFE
:1035700040EA021008620399486820F480604860BD
:10358000019802890399486840EA820048600399DB
:10359000486820F4006048600198428903994868AF
:1035A00040EA82004860FFE79AE00399086A20F445
:1035B000807008620399C86920F00300C86101980F
:1035C00002880399086A40EA022008620399086A9F
:1035D00020F400700862019882880399086A40EA22
:1035E00002200862039842F60041C4F201018842B9
:1035F00008D0FFE7039843F20041C4F2010188427A
:1036000031D1FFE70399086A20F4806008620198CD
:1036100042880399086A40EA022008620399086A0E
:1036200020F4006008620198C2880399086A40EAA1
:10363000022008620399486820F48050486001988D
:1036400002890399486840EA021048600399486873
:1036500020F400504860019842890399486840EA84
:1036600002104860FFE73BE00399086A20F48050AD
:1036700008620399C86920F44070C8610198028803
:103680000399086A40EA023008620399086A20F444
:1036900000500862019882880399086A40EA023063
:1036A0000862039842F60041C4F20101884208D042
:1036B000FFE7039843F20041C4F2010188420DD1B3
:1036C000FFE70399486820F4804048600198028928
:1036D0000399486840EA82104860FFE700E0FFE78E
:1036E00004B0704783B00290ADF80610ADF8042026
:1036F000BDF8060001460091032836D80099DFE89E
:1037000001F0020E1B270299886920F07000886181
:10371000BDF80420029988691043886126E0029967
:10372000886920F4E0408861BDF804200299886926
:1037300040EA0220886119E00299C86920F070000F
:10374000C861BDF804200299C8691043C8610DE042
:103750000299C86920F4E040C861BDF804200299CC
:10376000C86940EA0220C86100E0FFE703B0704783
:1037700084B00390ADF80A100192BDF80A0001462A
:103780000091032814D80099DFE801F002060A0E20
:103790000198039948630CE001980399886308E055
:1037A00001980399C86304E001980399086400E054
:1037B000FFE704B07047000083B00290ADF8061038
:1037C000ADF80420BDF8060001460091032836D864
:1037D0000099DFE801F0020E1B270299886920F0AA
:1037E00008008861BDF80420029988691043886147
:1037F00026E00299886920F400608861BDF8042001
:103800000299886940EA0220886119E00299C86932
:1038100020F00800C861BDF804200299C86910436F
:10382000C8610DE00299C86920F40060C861BDF864
:1038300004200299C86940EA0220C86100E0FFE75D
:1038400003B0704780B58AB0099009980890B0F12C
:10385000804F41D0FFE7089840F20041C4F20001D8
:10386000884242D0FFE7089840F60001C4F2000108
:10387000884243D0FFE7089840F60041C4F20001B7
:10388000884244D0FFE7089841F20001C4F20001E9
:10389000884245D0FFE7089841F20041C4F2000198
:1038A000884246D0FFE7089842F60041C4F2010181
:1038B000884208D0FFE7089843F20041C4F20101B2
:1038C00088423FD047E040F20B300790FFF7F8FA0C
:1038D0000798FFF7E3FA3FE04FF480600690FFF7A8
:1038E000EFFA0698FFF7DAFA36E040F20140059069
:1038F000FFF7E6FA0598FFF7D1FA2DE040F2024013
:103900000490FFF7DDFA0498FFF7C8FA24E040F2CC
:1039100003400390FFF7D4FA0398FFF7BFFA1BE0C8
:1039200040F204400290FFF7CBFA0298FFF7B6FA94
:1039300012E040F205400190FFF7C2FA0198FFF74C
:10394000ADFA09E040F20D300090FFF7B9FA0098A7
:10395000FFF7A4FA00E0FFE70AB080BD81B0009055
:103960000099086840F00100086001B0704700004D
:1039700082B00190009100980088019988620198B6
:1039800042F60041C4F20101884255D0FFE7019898
:10399000B0F1804F50D0FFE7019840F20041C4F2EF
:1039A0000001884248D0FFE7019840F60001C4F2C8
:1039B0000001884240D0FFE7019840F60041C4F280
:1039C0000001884238D0FFE7019843F20041C4F279
:1039D0000101884230D0FFE7019844F60041C4F26B
:1039E0000101884228D0FFE7019845F20001C4F2A6
:1039F0000101884220D0FFE7019845F20041C4F25E
:103A00000101884218D0FFE7019841F60001C4F295
:103A10000001884210D0FFE7019841F60041C4F24E
:103A20000001884208D0FFE7019842F20001C4F289
:103A30000001884216D1FFE70199086820F0700064
:103A400008600098408800F06002019908681043FF
:103A500008600098808800F01002019908681043FF
:103A60000860FFE7009880680199C862019841F2F8
:103A70000001C4F20001884216D0FFE7019841F22C
:103A80000041C4F2000188420ED0FFE701990868A6
:103A900020F4407008600098808900F44072019919
:103AA000086810430860FFE7019842F60041C4F23D
:103AB0000101884208D0FFE7019843F20041C4F2B7
:103AC0000101884205D1FFE70098807B01990863D6
:103AD000FFE70199486940F00100486102B0704772
:103AE00082B001900091009A0199086990430861A1
:103AF00002B0704784B0029001910298C0680199A9
:103B000008400090029800690199084206D0FFE73A
:103B1000009818B1FFE70120039002E00020039015
:103B2000FFE7039804B0704782B0019000208DF841
:103B30000300FFE79DF80300092813DCFFE7019865
:103B40009DF8031030F8112040F2AC21C2F20001C0
:103B5000086810440860FFE79DF8030001308DF805
:103B60000300E7E740F2AC20C2F2000000684CF628
:103B7000CD41CCF6CC41A0FB0110C0F3CF0002B088
:103B80007047000080B586B0ADF81600BDF816107D
:103B90006FF39F2140F2B420C2F200000180008840
:103BA00002F022F80190029145F2EC12C1F6B862DF
:103BB0004EF68533C3F6D17302F02EF8019A029BBC
:103BC00002F02AF80246019803920A4602990492EA
:103BD0004EF24812C1F27A4244F2AE73C4F20D03BF
:103BE00002F01AF8024603980B46049901F054FFBC
:103BF00048F21F52C5F2EB124BF6B863C4F242030F
:103C000001F04AFF01F016FF014640F2B020C2F277
:103C100000000160006802F0EBF906B080BD000012
:103C200083B001908DF803100198D0F8F00008B32C
:103C3000FFE700208DF80200FFE79DF802007728DB
:103C40000ED8FFE79DF8030001999DF8022021F8A6
:103C50001200FFE79DF8020001308DF80200ECE74A
:103C600001990020C1F8F000019890F8EE008DF85D
:103C70000B0022E001208DF80100FFE79DF8010014
:103C8000782810D8FFE701999DF8012001EB420048
:103C900030F8020C21F81200FFE79DF80100013016
:103CA0008DF80100EAE79DF803000199088001986A
:103CB00090F8EE008DF80B00FFE79DF80B0003B0C5
:103CC0007047000080B588B00790069100200590ED
:103CD0000490039002900798019044F20041C4F2CE
:103CE0000001884225D0FFE7019844F60001C4F2A4
:103CF0000001884222D0FFE7019844F60041C4F257
:103D0000000188421FD0FFE7019845F20001C4F28C
:103D1000000188421CD0FFE7019843F60001C4F27D
:103D20000101884219D1FFE70320FEF7DBFF059070
:103D300014E00220FEF7D6FF05900FE00220FEF708
:103D4000D1FF05900AE00220FEF7CCFF059005E0C8
:103D50000220FEF7C7FF059000E0FFE705980699EF
:103D600000EB5100B0FBF1F0029002984FF6F071B9
:103D700008400490029800F00F000390BDF8100076
:103D8000BDF80C1008430799886008B080BD00009A
:103D900080B588B007900798069044F20041C4F2BD
:103DA0000001884229D0FFE7069844F60001C4F2DA
:103DB000000188422AD0FFE7069844F60041C4F289
:103DC000000188422BD0FFE7069845F20001C4F2BB
:103DD000000188422CD0FFE7069843F60001C4F2A8
:103DE000010188422DD1FFE740F20E300590FFF728
:103DF00067F80598FFF752F824E040F2114004906C
:103E0000FFF75EF80498FFF749F81BE040F2124014
:103E10000390FFF755F80398FFF740F812E040F2DF
:103E200013400290FFF74CF80298FFF737F809E0CB
:103E300040F214400190FFF743F80198FFF72EF885
:103E400000E0FFE708B080BD81B000900099C8682D
:103E500040F40050C86001B07047000082B001908B
:103E600000910199C86820F4C060C860009A019967
:103E7000C8681043C86002B07047000083B0029069
:103E80000191002000900298C0680090009820F0F6
:103E9000080000900199009808430090009802994A
:103EA000C86003B07047000082B0019001980069BB
:103EB0000090019841688068886001994868896825
:103EC0004860009840680199884205D1FFE7019851
:103ED00080680099486000E0FFE7019900200861D0
:103EE00000990868013808600098006802B07047BF
:103EF00082B00190ADF802100198007D0A280BD81D
:103F0000FFE7BDF8020001990A7D531C0B7501EB18
:103F1000420121F8020C13E00198806920B1FFE70B
:103F2000019900208861FFE7019900200875BDF81C
:103F3000020001990A7D531C0B7521F81200FFE75E
:103F400002B0704781B00090009901F1080048600C
:103F500000994FF0FF308860009901F10800C860B7
:103F6000009901F10800086100990020086001B083
:103F70007047000081B0009000990020086101B0F6
:103F80007047000084B0039002910298006800908E
:103F90000098013020B9FFE703980069019010E014
:103FA000039808300190FFE7019840680068009985
:103FB000884205D8FFE7FFE7019840680190F3E7E2
:103FC000FFE701984068029948600298416888605C
:103FD00001980299886002980199486003980299B3
:103FE0000861039908680130086004B07047000058
:103FF00083B0029001910298406800900098019966
:1040000048600098806801998860019800998968E3
:1040100048600198009988600298019908610299A6
:1040200008680130086003B07047000082B04FF0AC
:10403000500080F31188BFF36F8FBFF34F8F009054
:1040400040F20400C2F20000016801310160006822
:10405000012814D1FFE74EF60450CEF200000068AC
:10406000000658B1FFE74FF0500080F31188BFF30E
:104070006F8FBFF34F8F0190FFE7FEE7FFE702B0BE
:104080007047000082B040F20400C2F200000068F5
:1040900058B9FFE74FF0500080F31188BFF36F8FDE
:1040A000BFF34F8F0090FFE7FEE740F20400C2F23B
:1040B0000000016801390160006830B9FFE70020A5
:1040C0000190019880F31188FFE702B0704700006B
:1040D00080B582B00190019840B1FFE700F006FC86
:1040E0000198FCF7C6F801F05DFBFFE702B080BD68
:1040F00040F20000C2F20000016844F6D352C1F25F
:104100006202A1FB02318B0940F2C821C2F2000118
:104110000B600B686FF07F41B1FBF3F140F2343379
:10412000C2F20003196040F2C423C2F200032D2141
:1041300019604EF21001CEF2000100230B604EF226
:10414000180CCEF2000CCCF800300068A0FB020284
:104150004FF0FF3000EB92104EF21402CEF200024C
:10416000106007200860704780B586B005900598FC
:1041700040F23431C2F200010968884207D9FFE7F2
:1041800040F23430C2F2000000680590FFE74EF2C2
:104190001001CEF20001086820F0010008604EF224
:1041A0001800CEF20000026840F2C820C2F20000FF
:1041B00000680599013900FB01200490049840F241
:1041C000C421C2F200010968884209D9FFE740F220
:1041D000C420C2F2000001680498401A0490FFE76E
:1041E00072B6BFF34F8FBFF36F8FFDF7ABF8D8B93F
:1041F000FFE74EF21800CEF2000000684EF2140104
:10420000CEF2000108604EF21002CEF200021068F9
:1042100040F00100106040F2C820C2F200000068C7
:104220000138086062B6A3E004984EF21401CEF2A1
:10423000000108604EF21801CEF200010020086073
:104240004EF21001CEF20001086840F00100086053
:1042500005980190019830B1FFE7BFF34F8F30BF51
:10426000BFF36F8FFFE762B6BFF34F8FBFF36F8F60
:1042700072B6BFF34F8FBFF36F8F4EF21000CEF2C6
:104280000000062101600068C003002833D5FFE765
:1042900040F2C820C2F200000068049A4EF21801F1
:1042A000CEF200010968891A08440138009000988C
:1042B00040F2C421C2F200010968884209D3FFE735
:1042C000009840F2C821C2F200010968884208D96A
:1042D000FFE740F2C820C2F20000006801380090F9
:1042E000FFE700984EF21401CEF200010860059835
:1042F000013803901EE0059840F2C821C2F2000187
:104300000A6850434EF21802CEF200021268801A78
:10431000029002980A68B0FBF2F003900398013013
:10432000096848430299401A4EF21401CEF2000186
:104330000860FFE74EF21801CEF20001002008608D
:104340004EF21001CEF20001086840F00100086052
:10435000039800F0E7F940F2C820C2F200000068BC
:1043600001384EF21401CEF20001086062B6FFE798
:1043700006B080BD80B584B003900291019203988D
:104380000090FFF753FE009890F94400013028B9DF
:10439000FFE70099002081F84400FFE7009890F9BA
:1043A0004500013028B9FFE70099002081F8450059
:1043B000FFE7FFF767FE0098806B38B9FFE70098CA
:1043C00024300299019A00F08DF800E0FFE7009890
:1043D000FEF78EFB04B080BD81B0009000990120F3
:1043E000C1F8F00001B0704781B000900099012041
:1043F000886100990020087501B0704780B584B0CD
:104400000290002001900298E0B1FFE740F2D42032
:10441000C2F20000006858B1FFE74FF0500080F38F
:104420001188BFF36F8FBFF34F8F0390FFE7FEE755
:1044300000F05CFA02980021FDF752FC01F0B2F99D
:10444000019000E0FFE7019860B9FFE74EF60451E4
:10445000CEF200014FF080500860BFF34F8FBFF3E2
:104460006F8F00E0FFE704B080BD000081B00090D6
:1044700040F23C30C2F2000000680099086040F24F
:104480008430C2F2000000680099486001B07047B3
:1044900040F29031C2F20001012008607047000034
:1044A00080B584B002900191029858B9FFE74FF0AF
:1044B000500080F31188BFF36F8FBFF34F8F0390CD
:1044C000FFE7FEE7029840F21C21C2F200010968F2
:1044D0001831FFF757FD01980121FDF701FC04B0E9
:1044E00080BD000080B586B00490039102920498CC
:1044F00058B9FFE74FF0500080F31188BFF36F8F7A
:10450000BFF34F8F0590FFE7FEE7049840680190E6
:10451000019840F21C21C2F200010A68D0610198A2
:1045200080680A68106208681830019A92685060C2
:1045300008681830019A90600498096888620499A4
:10454000086801300860029820B1FFE74FF0FF30A3
:104550000390FFE703980299FDF7C2FB06B080BD08
:1045600080B584B0029002980190029858B9FFE794
:104570004FF0500080F31188BFF36F8FBFF34F8F60
:104580000390FFE7FEE7019840F21C21C2F2000110
:104590000968884265D0FFE70198002861D0FFE7ED
:1045A000FFF744FD0198FEF75DFA002855D0FFE7BC
:1045B00001980430FFF778FC0198C16A012000FAE5
:1045C00001F240F2DC21C2F20001086810430860E9
:1045D0000198C06A00EB800040F23021C2F2000175
:1045E00001EB8000406800900098019A906000986C
:1045F0008068019AD06001980430009A92685060F7
:1046000001980430009A9060019AD06A00EB800013
:1046100001EB800050610198C06A00EB800251F804
:104620002200013041F822000198C06A40F21C21AA
:10463000C2F200010968C96A88420CD3FFE74EF64E
:104640000451CEF200014FF080500860BFF34F8F4D
:10465000BFF36F8F00E0FFE700E0FFE7FFF712FD19
:1046600000E0FFE704B080BD80B586B040F2303195
:10467000C2F20001684641600023036042F2052057
:10468000C0F6000046F26711C0F60001802200F07B
:1046900081FD03900398012804D1FFE701F094F90C
:1046A000039000E0FFE70398012823D1FFE74FF0D4
:1046B000500080F31188BFF36F8FBFF34F8F0490CA
:1046C00040F23831C2F200014FF0FF30086040F292
:1046D0005831C2F200010120086040F28431C2F278
:1046E00000010020086000F069F908B1FFE700E070
:1046F000FFE70FE00398013058B9FFE74FF0500093
:1047000080F31188BFF36F8FBFF34F8F0590FFE7E2
:10471000FEE7FFE746F27410C0F60000006806B03E
:1047200080BD000082B0009040F28430C2F20000F0
:1047300000680099084440F23831C2F2000109686B
:1047400088420BD9FFE74FF0500080F31188BFF388
:104750006F8FBFF34F8F0190FFE7FEE7009A40F2A3
:104760008431C2F2000108681044086002B070474A
:1047700080B586B00490FFF759FC049838B9FFE77C
:1047800040F21C20C2F200000068019002E0049890
:104790000190FFE70198039003980430FFF784FB32
:1047A000D0B9FFE70398C06A00EB800140F23020E7
:1047B000C2F2000050F8210068B9FFE70398C16A0F
:1047C000012000FA01F240F2DC21C2F20001086887
:1047D00090430860FFE700E0FFE70398806A28B194
:1047E000FFE703981830FFF75FFB00E0FFE703984F
:1047F000011D40F25C30C2F20000FFF7F9FB00201F
:104800000290FFE70298002814DCFFE70398029962
:10481000084490F85400012807D1FFE70398029953
:104820000144002081F85400FFE7FFE702980130BF
:104830000290E7E7FFF726FC40F25830C2F2000092
:10484000006838B1FFE7FFF7F1FBFEF77BF8FFF7F1
:1048500019FC00E0FFE7039840F21C21C2F20001BE
:10486000096888423ED1FFE740F25830C2F20000AA
:104870000068F0B1FFE740F2D420C2F20000006807
:1048800058B1FFE74FF0500080F31188BFF36F8FEE
:10489000BFF34F8F0590FFE7FEE74EF60451CEF2CF
:1048A00000014FF080500860BFF34F8FBFF36F8F50
:1048B00017E040F25C30C2F20000006840F2CC2108
:1048C000C2F200010968884207D1FFE740F21C21CB
:1048D000C2F200010020086002E000F00FF8FFE7DC
:1048E000FFE700E0FFE706B080BD000040F2D42102
:1048F000C2F20001086801300860704785B040F2DC
:10490000D420C2F20000006838B1FFE740F29031D5
:10491000C2F20001012008604DE040F29031C2F285
:1049200000010020086040F2DC20C2F200000068B4
:1049300003900398B0FA80F08DF80B009DF80B00FF
:10494000C0F11F000190019800EB800140F230207F
:10495000C2F2000050F8210058B9FFE74FF05000B4
:1049600080F31188BFF36F8FBFF34F8F0490FFE781
:10497000FEE7019800EB800140F23020C2F2000017
:1049800000EB8100009000994868406848600099F9
:1049900048680831884205D1FFE7009948684068B7
:1049A0004860FFE700984068C06840F21C21C2F2EE
:1049B00000010860FFE705B07047000080B586B0D1
:1049C0004EF20040CEF20000039001780491FF21E6
:1049D000017000788DF80B009DF80B0000F050007E
:1049E00040F2BC21C2F20001087040F2C021C2F2C4
:1049F000000107200860FFE79DF80B000006002873
:104A00000DD5FFE740F2C021C2F20001086801386D
:104A100008609DF80B0040008DF80B00ECE740F2B9
:104A2000C020C2F20000006803280BD0FFE74FF05F
:104A3000500080F31188BFF36F8FBFF34F8F059045
:104A4000FFE7FEE740F2C021C2F200010868000261
:104A50000860086800F4E060086004984EF20041C5
:104A6000CEF2000108704EF62051CEF20001086827
:104A700040F4E0000860086840F0E0400860FFF79C
:104A800037FB40F20401C2F20001002001900860EF
:104A9000FDF7F6FDFFF732FFFDF7BEFF019806B008
:104AA00080BD000080B588B0069005918DF8132078
:104AB00000200390069880B3FFE706994FF0FF307F
:104AC000B0FBF1F00599884227D3FFE706980599D6
:104AD000484310F1550F20D8FFE706980599484341
:104AE000029002985430FEF769F80390039890B151
:104AF000FFE70398019001985430019006980599BA
:104B0000019A9DF81330DDF80CC0EE46CEF800C0D7
:104B1000FDF7C6FB00E0FFE70EE0039858B9FFE79A
:104B20004FF0500080F31188BFF36F8FBFF34F8FAA
:104B30000790FFE7FEE7FFE7039808B080BD00009D
:104B400080B586B0039002910120019003980090F7
:104B5000009858B9FFE74FF0500080F31188BFF379
:104B60006F8FBFF34F8F0490FFE7FEE70098002898
:104B700056D0FFE70098C06B002851D0FFE700989F
:104B8000C26B016C4FF0FF30B0FBF2F0884247D3AC
:104B9000FFE7FFF74BFA00990B68C86B0A6C00FB44
:104BA0000230886000990020886300990868486096
:104BB00000990B68C86B0A6C013800FB0230C860B2
:104BC0000099FF2081F84400009981F8450002987F
:104BD000D0B9FFE700980069A0B1FFE70098103056
:104BE00000F016FD60B1FFE74EF60451CEF2000171
:104BF0004FF080500860BFF34F8FBFF36F8F00E01E
:104C0000FFE700E0FFE708E000981030FFF79AF9AF
:104C100000982430FFF796F9FFE7FFF733FA02E038
:104C200000200190FFE7019858B9FFE74FF05000CE
:104C300080F31188BFF36F8FBFF34F8F0590FFE7AD
:104C4000FEE7019806B080BD80B592B00C900B9144
:104C50000A920993002008900C980490049858B97F
:104C6000FFE74FF0500080F31188BFF36F8FBFF361
:104C70004F8F0E90FFE7FEE70B990020029039B9A5
:104C8000FFE70498006C002818BF01200290FFE79E
:104C90000298C00758B1FFE74FF0500080F3118829
:104CA000BFF36F8FBFF34F8F0F90FFE7FEE70999B8
:104CB00000200229019007D1FFE70498C06B01385A
:104CC00018BF01200190FFE70198C00758B1FFE726
:104CD0004FF0500080F31188BFF36F8FBFF34F8FF9
:104CE0001090FFE7FEE700F0A1FA014600200090D7
:104CF00031B9FFE70A98002818BF01200090FFE7AC
:104D00000098C00758B1FFE74FF0500080F31188BA
:104D1000BFF36F8FBFF34F8F1190FFE7FEE7FFE701
:104D2000FFF784F90498806B0499C96B884204D317
:104D3000FFE70998022858D1FFE70498806B039099
:104D400004980B99099AFDF78DF907900498806CE7
:104D5000E0B1FFE70998022804D1FFE7039808B102
:104D6000FFE712E00498FDF71FFC60B1FFE74EF685
:104D70000451CEF200014FF080500860BFF34F8F16
:104D8000BFF36F8F00E0FFE7FFE729E00498406A78
:104D9000A0B1FFE70498243000F03AFC60B1FFE7CF
:104DA0004EF60451CEF200014FF080500860BFF380
:104DB0004F8FBFF36F8F00E0FFE710E0079860B1FF
:104DC000FFE74EF60451CEF200014FF0805008602C
:104DD000BFF34F8FBFF36F8F00E0FFE7FFE7FFE701
:104DE000FFF750F901200D9065E00A9828B9FFE718
:104DF000FFF748F900200D905DE0089830B9FFE713
:104E000005A8FFF733FB0120089000E0FFE7FFE76C
:104E1000FFE7FFF737F9FFF769FDFFF707F9049898
:104E200090F94400013028B9FFE70499002081F887
:104E30004400FFE7049890F94500013028B9FFE7E6
:104E40000499002081F84500FFE7FFF71BF905A84A
:104E50000AA900F021F928BBFFE70498FDF78CFBB5
:104E6000C8B1FFE7049810300A99FFF719FB0498BE
:104E7000FDF73EFE00F096FC60B9FFE74EF60451E8
:104E8000CEF200014FF080500860BFF34F8FBFF3A8
:104E90006F8FFFE705E00498FDF72AFE00F082FC23
:104EA000FFE707E00498FDF723FE00F07BFC0020FD
:104EB0000D9000E034E70D9812B080BD80B58EB043
:104EC0000990089107920020069009980390039892
:104ED00058B9FFE74FF0500080F31188BFF36F8F90
:104EE000BFF34F8F0B90FFE7FEE70899002001907A
:104EF00039B9FFE70398006C002818BF0120019022
:104F0000FFE70198C00758B1FFE74FF0500080F36A
:104F10001188BFF36F8FBFF34F8F0C90FFE7FEE751
:104F200000F084F901460020009031B9FFE70798AE
:104F3000002818BF01200090FFE70098C00758B173
:104F4000FFE74FF0500080F31188BFF36F8FBFF37E
:104F50004F8F0D90FFE7FEE7FFE7FFF767F8039835
:104F6000806B0290029830B3FFE703980899FDF731
:104F700057F8029801380399886303980069A0B133
:104F8000FFE70398103000F043FB60B1FFE74EF6F7
:104F90000451CEF200014FF080500860BFF34F8FF4
:104FA000BFF36F8F00E0FFE700E0FFE7FFF76AF86D
:104FB00001200A906DE0079828B9FFE7FFF762F833
:104FC00000200A9065E0069830B9FFE704A8FFF7D3
:104FD0004DFA0120069000E0FFE7FFE7FFE7FFF74B
:104FE00051F8FFF783FCFFF721F8039890F944008C
:104FF000013028B9FFE70399002081F84400FFE75A
:10500000039890F94500013028B9FFE70399002083
:1050100081F84500FFE7FFF735F804A807A900F07D
:105020003BF830BBFFE70398FDF792FAD0B1FFE7FA
:10503000039824300799FFF733FA0398FDF758FDDA
:1050400000F0B0FB60B9FFE74EF60451CEF200016C
:105050004FF080500860BFF34F8FBFF36F8F00E0B9
:10506000FFE705E00398FDF743FD00F09BFBFFE73A
:105070000EE00398FDF73CFD00F094FB0398FDF76C
:1050800067FA18B1FFE700200A9002E0FFE7FFE7A8
:1050900063E70A980EB080BD80B588B00590049192
:1050A000059858B9FFE74FF0500080F31188BFF31F
:1050B0006F8FBFF34F8F0690FFE7FEE7049858B954
:1050C000FFE74FF0500080F31188BFF36F8FBFF3FD
:1050D0004F8F0790FFE7FEE7FEF7A8FF40F284300E
:1050E000C2F2000000680290029805994968401ACF
:1050F000019040F21C20C2F20000006890F85500B8
:1051000058B1FFE740F21C20C2F200000168002005
:1051100081F855000120039037E0049800680130C1
:1051200018B9FFE7002003902EE040F23C30C2F2B5
:10513000000000680599096888420CD0FFE70298D2
:1051400005994968884206D3FFE701200390049936
:105150000020086017E001980499096888420BD282
:10516000FFE7019A04990868801A08600598FFF71C
:105170007DF90020039005E00499002008600120DB
:105180000390FFE7FFE7FFE7FFE7FEF77BFF0398EA
:1051900008B080BD70B58CB0DDF844C0DDF840C00B
:1051A0000B900A91ADF826200893BDF826008000E8
:1051B000FDF704FD0590059880B1FFE75820FDF745
:1051C000FDFC0790079820B1FFE705980799086351
:1051D00003E00598FEF77CFFFFE702E00020079060
:1051E000FFE70798D8B1FFE70B980A99BDF826208A
:1051F000089BDDF840C0119C079DEE460026CEF8C6
:105200000C60CEF80850CEF80440CEF800C0FDF790
:105210006FF80798FCF7F6FD0120069003E04FF0C9
:10522000FF300690FFE706980CB070BD81B040F2E9
:105230005830C2F20000006818B9FFE70120009062
:105240000DE040F2D420C2F20000006818B9FFE778
:105250000220009002E000200090FFE7FFE70098A6
:1052600001B0704781B040F28430C2F200000068A3
:105270000090009801B0704780B58AB00020069079
:1052800040F2D420C2F200000068002840F01981EA
:10529000FFE740F28431C2F2000108680130059056
:1052A00005980860059858BBFFE740F22420C2F239
:1052B00000000068006858B1FFE74FF0500080F32D
:1052C0001188BFF36F8FBFF34F8F0990FFE7FEE7A1
:1052D00040F22422C2F200021068049040F2282119
:1052E000C2F20001086810600498086040F23C3186
:1052F000C2F20001086801300860FDF723FB00E0FE
:10530000FFE7059840F23831C2F20001096888428F
:10531000C0F0B680FFE7FFE740F22420C2F20000B1
:105320000068006840B9FFE740F23831C2F200017E
:105330004FF0FF300860A2E040F22420C2F20000EB
:105340000068C068C0680890089840680790059891
:105350000799884207D2FFE7079840F23831C2F236
:10536000000108608BE0FFE7089840690390089807
:105370008168C068886008998868C968486003982F
:10538000406808990431884205D1FFE70898C06851
:1053900003994860FFE7089900204861039908686D
:1053A000013808600898806AF8B1FFE70898806AB9
:1053B00002900898C169006A88600899C869096AFA
:1053C00048600298406808991831884205D1FFE783
:1053D0000898006A02994860FFE7089900208862EF
:1053E000029908680138086000E0FFE70898C16A80
:1053F000012000FA01F240F2DC21C2F2000108684B
:10540000104308600898C06A00EB800040F2302129
:10541000C2F2000101EB8000406801900198089AF7
:10542000906001988068089AD06008980430019ACA
:105430009268506008980430019A9060089AD06A87
:1054400000EB800001EB800050610898C06A00EB1F
:10545000800251F82200013041F822000898C06A09
:1054600040F21C21C2F200010968C96A884203D3D4
:10547000FFE70120069000E0FFE7FFE74CE7FFE7CA
:1054800040F21C20C2F200000068C06A00EB8001FC
:1054900040F23020C2F2000050F82100022803D36D
:1054A000FFE70120069000E0FFE740F29030C2F2F3
:1054B0000000006818B1FFE70120069000E0FFE758
:1054C00007E040F24031C2F2000108680130086094
:1054D000FFE706980AB080BD80B586B003900398B8
:1054E0000290002001900398002800F08D80FFE7D3
:1054F000029840F21C21C2F20001096888420BD0D8
:10550000FFE74FF0500080F31188BFF36F8FBFF3B8
:105510004F8F0490FFE7FEE70298C06C58B9FFE791
:105520004FF0500080F31188BFF36F8FBFF34F8FA0
:105530000590FFE7FEE70299C86C0138C86402993C
:10554000C86A896C88425DD0FFE70298C06C002869
:1055500056D1FFE702980430FEF7A6FC68B9FFE7D2
:105560000298C16A012000FA01F240F2DC21C2F285
:10557000000108689043086000E0FFE70299886C2A
:10558000C8620299C86AC0F1050088610298C16AC0
:10559000012000FA01F340F2DC22C2F2000211689D
:1055A000194311600299C96A01EB810140F230226E
:1055B000C2F2000202EB8101496800910099029B4E
:1055C000996000998968029BD96002990431009B17
:1055D0009B68596002990431009B9960029BD96ACB
:1055E00001EB810102EB810159610299C96A01EB6A
:1055F000810352F82310013142F82310019000E09A
:10560000FFE700E0FFE700E0FFE7019806B080BD9C
:1056100080B588B006900698C068C0680590059867
:1056200058B9FFE74FF0500080F31188BFF36F8F38
:10563000BFF34F8F0790FFE7FEE70598806A03905E
:105640000598C169006A88600599C869096A486057
:105650000398406805991831884205D1FFE70598FD
:10566000006A03994860FFE7059900208862039962
:1056700008680138086040F2D420C2F200000068D7
:10568000002859D1FFE70598406902900598816884
:10569000C068886005998868C96848600298406851
:1056A00005990431884205D1FFE70598C068029941
:1056B0004860FFE7059900204861029908680138B1
:1056C00008600598C16A012000FA01F240F2DC216D
:1056D000C2F200010868104308600598C06A00EB38
:1056E000800040F23021C2F2000101EB80004068EE
:1056F00001900198059A906001988068059AD060A1
:1057000005980430019A9268506005980430019A17
:105710009060059AD06A00EB800001EB8000506138
:105720000598C06A00EB800251F82200013041F870
:105730002200FDF707F91BE040F24431C2F20001FC
:10574000486800900098059AD06100988068059A92
:10575000106205981830009A9268506005981830C9
:10576000009A906005988162086801300860FFE740
:105770000598C06A40F21C21C2F200010968C96A9A
:10578000884208D9FFE70120049040F29031C2F22C
:105790000001086002E000200490FFE7049808B0D0
:1057A00080BD000080B588B000200690059040F2D2
:1057B000D420C2F20000006858B9FFE74FF0500053
:1057C00080F31188BFF36F8FBFF34F8F0790FFE710
:1057D000FEE7FEF72BFC40F2D420C2F20000016885
:1057E000013901600068002840F0E780FFE740F2DF
:1057F000CC20C2F200000068002800F0DD80FFE746
:10580000FFE740F24430C2F200000068002800F0D8
:105810009080FFE740F24430C2F20000C068C068E8
:1058200006900698806A04900698C169006A8860AC
:105830000699C869096A4860049840680699183151
:10584000884205D1FFE70698006A04994860FFE79F
:105850000699002088620499086801380860069853
:105860004069039006988168C068886006998868D6
:10587000C96848600398406806990431884205D198
:10588000FFE70698C06803994860FFE70699002083
:10589000486103990868013808600698C16A0120C8
:1058A00000FA01F240F2DC21C2F200010868104364
:1058B00008600698C06A00EB800040F23021C2F216
:1058C000000101EB8000406802900298069A906007
:1058D00002988068069AD06006980430029A92680E
:1058E000506006980430029A9060069AD06A00EBE5
:1058F000800001EB800050610698C06A00EB8002D6
:1059000051F82200013041F822000698C06A40F2A6
:105910001C21C2F200010968C96A884207D3FFE767
:1059200040F29031C2F200010120086000E0FFE780
:1059300067E7069818B1FFE7FDF704F8FFE740F2C4
:105940004030C2F20000006801900198E0B1FFE72A
:10595000FFE7FFF791FC38B1FFE740F29031C2F268
:1059600000010120086000E0FFE701980138019084
:10597000FFE701980028ECD1FFE740F24031C2F286
:1059800000010020086000E0FFE740F29030C2F222
:105990000000006870B1FFE7012005904EF6045149
:1059A000CEF200014FF080500860BFF34F8FBFF37D
:1059B0006F8F00E0FFE7FFE700E0FFE7FEF762FB25
:1059C000059808B080BD000080B584B0002002902A
:1059D000FCF7C2FA40F28830C2F200000068B8B1A9
:1059E000FFE740F28C30C2F20000694648600220B6
:1059F000086042F6D120C0F6000046F26C11C0F6F5
:105A000000014FF480720023FFF7C4FB029000E016
:105A1000FFE7029858B9FFE74FF0500080F3118874
:105A2000BFF36F8FBFF34F8F0390FFE7FEE702983E
:105A300004B080BD21F0004201F00043A2F16052A9
:105A4000B2F5801F28BFD2F17F6C0BD95FEA001C32
:105A500043EAC20242EB507018BF704728BF20F0E3
:105A600001007047B2F5801FBCBF184670474FEA6F
:105A7000410C1CF5001F02D2084600F01ABB70B59D
:105A800000F074F900000089FFF7F6BF4FF0004006
:105A9000A0F580007047000010B591EA030F48BFE1
:105AA00083F0004300F1BE81841A71EB030C05D230
:105AB000121943EB0C03001B61EB0C014FEA11546C
:105AC000A4EB135CDFF81CE11EEA430F18BF9EEA4B
:105AD000445F00F0748021EA045123EA0E0343F48A
