:020000040800F2
:10000000B8420020D5010008DD010008DF0100082A
:10001000E1010008E3010008E5010008000000001C
:100020000000000000000000000000007106000851
:10003000E90100080000000021060008B5060008DC
:10004000EF010008EF010008EF010008EF010008D0
:10005000EF010008EF010008EF010008EF010008C0
:10006000EF010008EF010008EF010008EF010008B0
:10007000EF010008EF010008EF010008EF010008A0
:10008000EF010008EF010008EF010008EF01000890
:10009000EF010008EF010008EF010008EF01000880
:1000A000EF010008EF010008EF0100085907000800
:1000B000EF010008EF010008EF010008EF01000860
:1000C000EF010008EF010008EF010008EF01000850
:1000D000EF01000835080008EF010008EF010008F3
:1000E000EF010008EF010008EF010008EF01000830
:1000F000EF010008EF010008EF010008EF01000820
:10010000EF010008EF010008EF010008EF0100080F
:10011000EF010008EF010008EF010008EF010008FF
:10012000EF010008EF010008EF010008EF010008EF
:1001300000F002F800F03EF80AA090E8000C8244BB
:100140008344AAF10107DA4501D100F033F8AFF298
:10015000090EBAE80F0013F0010F18BFFB1A43F0A5
:1001600001031847BC670000DC670000103A24BF99
:1001700078C878C1FAD8520724BF30C830C144BF0C
:1001800004680C607047000000230024002500264E
:10019000103A28BF78C1FBD8520728BF30C148BFEA
:1001A0000B6070471FB59DE8030000F0F9F81FBD14
:1001B00010B510BD00F0AAF91146FFF7F3FF01F0EA
:1001C00031FC00F0C8F903B4FFF7F2FF03BC00F004
:1001D000F9F900000948804709480047FEE7FEE7B3
:1001E000FEE7FEE7FEE7FEE7FEE7FEE7FEE7FEE7E7
:1001F00004480549054A064B70470000F10600080F
:1002000031010008B8020020B8420020B8220020C6
:10021000B822002070B5064600F0A6F8056806F181
:100220000B0020F00704B4429CBF002070BD2B4699
:100230006A68BAB11068A04210D304F1080188427C
:100240003CBF5068586007D351681019416011686D
:10025000091B016058601460101D70BD1346526880
:10026000002AE7D12146284600F086F80028DED192
:1002700070BD70B50446051F00F076F80068002CCC
:1002800014BF446870BD002C18BFAC423CBF204670
:100290006468F8D301680A18AA4218BF456003D100
:1002A0002A6805461144016028684119A1421CBF13
:1002B0006C6070BD6168696021680844286070BD29
:1002C000002800DA40427047032A40F2308010F0E4
:1002D000030C00F0158011F8013BBCF1020F6244E1
:1002E00098BF11F801CB00F8013B38BF11F8013B72
:1002F000A2F1040298BF00F801CB38BF00F8013B1F
:1003000011F0030300F08280083AC0F0088051F831
:10031000043B083A51F804CBA0E80810F5E7121D99
:100320005CBF51F8043B40F8043BAFF30080D207B8
:1003300024BF11F8013B11F801CB48BF11F8012B84
:1003400024BF00F8013B00F801CB48BF00F8012BA7
:10035000704702F0FF0343EA032242EA024200F040
:1003600089B87047704770470048704760000020A8
:10037000704770477047704738B504460A460020FA
:100380006946AFF30080002808BF38BD02460099D7
:10039000204600F099F8012038BD012000F0AEB8E9
:1003A000F8B5AFF30080054600200C46102000BFD2
:1003B0000646A819A0420DD9324669460020AFF37F
:1003C0000080070008BF00F099F80098A04218BF0D
:1003D0000546C419FFF7C8FF05600746F01D20F069
:1003E00007004619284600F00AF8B44208BFF8BDD5
:1003F000A21B31463868BDE8F84000F065B800211E
:100400000160C0E9011070471020704710B5203A14
:10041000C0F00B80B1E81850A0E81850B1E81850AF
:10042000A0E81850203ABFF4F5AF5FEA027C24BF81
:10043000B1E81850A0E8185044BF18C918C0BDE86A
:1004400010405FEA827C24BF51F8043B40F8043B33
:1004500008BF7047D20728BF31F8023B48BF11F8E8
:10046000012B28BF20F8023B48BF00F8012B704742
:100470004FF0000200B5134694469646203922BF3D
:10048000A0E80C50A0E80C50B1F12001BFF4F7AF88
:10049000090728BFA0E80C5048BF0CC05DF804EB6A
:1004A000890028BF40F8042B08BF704748BF20F8D8
:1004B000022B11F0804F18BF00F8012B704700008D
:1004C0000048704758000020034640688C460028CA
:1004D00018BF88423CBF03464068F8D318681844E8
:1004E000884207D00CF1030020F00700001D411ADC
:1004F000521A0146081D0A60FFF7BBBE10B500F096
:1005000039F8BDE8104000F02FB870477546FFF786
:10051000D7FFAE4605006946534620F007008546E2
:1005200018B020B5FFF764FEBDE820404FF000068C
:100530004FF000074FF000084FF0000BAC46ACE85E
:10054000C009ACE8C009ACE8C009ACE8C00921F0BA
:1005500007018D46704710B50446AFF30080204672
:10056000BDE81040FFF72FBE002801D000F02AB8E8
:100570007047000010B5012805D0002103A000F04D
:1005800027F8012010BD09A1F8E7000053494752A0
:10059000544D454D3A204F7574206F662068656153
:1005A00070206D656D6F7279000000003A2048651B
:1005B0006170206D656D6F727920636F72727570F6
:1005C0007465640001491820ABBEFEE726000200F6
:1005D00070B505460C460A2000E06D1C00F011F8CD
:1005E00035B128780028F8D102E0641C00F009F841
:1005F00014B120780028F8D1BDE870400A20AFF38C
:10060000008008B569468DF800000320ABBE08BD28
:10061000FFE700BFFDE70000000000000000000051
:10062000EFF30980BFF36F8F0D4B1A6820E9F00FCD
:1006300010602DE908404FF0500080F3118804F05D
:1006400099F94FF0000080F31188BDE8084019685F
:100650000868B0E8F00F80F30988BFF36F8F704728
:100660003001002000000000000000000000000039
:10067000074B19680868B0E8F00F80F30988BFF3EA
:100680006F8F4FF0000080F311884EF00D0E704711
:100690003001002080B500F025F900F055F900F098
:1006A0009DFB00F0FBFA00F029FB00F051FB00F08D
:1006B000F5F880BD80B582B04FF0500080F311880E
:1006C000BFF36F8FBFF34F8F009004F0E5FE40B192
:1006D000FFE74EF60451CEF200014FF08050086063
:1006E000FFE700200190019880F3118802B080BDDF
:1006F00080B541F20001C4F20201086840F0010037
:10070000086041F20403C4F2020318680C22CEF61A
:10071000FF021040186008684FF6FF72CFF6F662CD
:1007200010400860086820F48020086018684FF6C0
:10073000FF7CCFF2007C00EA0C00186008681040D3
:10074000086041F20801C4F202014FF41F00086082
:1007500003F0E2F880BD000080B542F60040C4F22C
:100760000100022103F0E6F8012819D1FFE742F663
:100770000040C4F20100022103F0D2F840F2C402AA
:10078000C2F200020020107042F63441C4F20101AE
:100790000968518042F62441C4F20101086025E055
:1007A00042F60040C4F20100042103F0C3F801281E
:1007B0001AD1FFE742F60040C4F20100042103F021
:1007C000AFF840F2C401C2F200010120087042F605
:1007D0003840C4F201000068488042F62441C4F267
:1007E00001010020086000E0FFE7FFE740F2C400DD
:1007F000C2F20000408863280AD8FFE740F2C40034
:10080000C2F2000001780120884300F041FF03E0BC
:10081000012000F03DFFFFE740F20810C2F20000A7
:10082000006840F2C401C2F2000100231A4604F03D
:1008300081FB80BD7047000080B582B08DF8070055
:100840008DF806109DF8060000F0C4F99DF8070029
:1008500000F0E8F89DF8060000F0F6F902B080BD5F
:1008600083B00290029800F0070000904EF60C5101
:10087000CEF200010868019001984FF6FF02104087
:1008800001900198009A40EA02200022C0F2FA5238
:10089000104301900198086003B0704780B582B0A2
:1008A00042F20040C4F20100019000F0D7FB0020AA
:1008B000009000F041FC0099019800F0BBFB009B08
:1008C000019842F20842C4F20102116841F4602129
:1008D00011600322194600F03FFC019800F0F8FB7C
:1008E00002B080BD80B541F21801C4F2020108686F
:1008F00040F01C000860086840F480400860086808
:1009000040F400600860086840F40070086041F23C
:100910001401C4F20201086840F00300086041F2CB
:100920001C01C4F20201086840F001000860086878
:1009300040F002000860086840F0040008600320EE
:1009400002F074FD80BD000080B58AB041F2000065
:10095000C4F2010010210891012209924FF40053C2
:1009600000F0A2FF089940F60000C4F201000490D4
:10097000032205924FF48063039300F095FF059ADC
:100980000899099B40F60040C4F20100079000F06E
:100990008BFF059A079818210191022300F084FF2C
:1009A00001990498059A099B00F07EFF0498059A26
:1009B00048214FF4807300F077FF0498059A0021D6
:1009C0000291042300F070FF02990498059A08230D
:1009D00000F06AFF059A079808994FF4805300F0D9
:1009E00063FF039B059A0798089900F05DFF049840
:1009F000059A08998023069300F056FF0498059AFB
:100A00000899202300F050FF069B07980899099A3F
:100A100000F04AFF07980899099A402300F044FF24
:100A20000AB080BD82B08DF8070000208DF8060066
:100A3000FFE79DF80600012852DCFFE740F60C01B5
:100A4000C4F20101086820F08000086000208DF8E1
:100A50000500FFE79DF80500FE2808DCFFE700BF62
:100A6000FFE79DF8050001308DF80500F2E740F63C
:100A70000C01C4F20101086840F020000860002069
:100A80008DF80400FFE79DF80400FE2808DCFFE76E
:100A900000BFFFE79DF8040001308DF80400F2E785
:100AA00040F60C01C4F20101086820F02000086043
:100AB00000208DF80300FFE79DF80300FE2808DC06
:100AC000FFE700BFFFE79DF8030001308DF803004A
:100AD000F2E7FFE79DF8060001308DF80600A8E771
:100AE00000208DF80600FFE79DF8060007286FDC60
:100AF000FFE79DF807000006002809D5FFE740F64C
:100B00000C01C4F20101086840F08000086008E0B0
:100B100040F60C01C4F20101086820F08000086072
:100B2000FFE700208DF80200FFE79DF80200FE2895
:100B300008DCFFE700BFFFE79DF8020001308DF8F9
:100B40000200F2E740F60C01C4F20101086840F02F
:100B5000200008609DF8070040008DF80700002085
:100B60008DF80100FFE79DF80100FE2808DCFFE793
:100B700000BFFFE79DF8010001308DF80100F2E7AA
:100B800040F60C01C4F20101086820F02000086062
:100B900000208DF80000FFE79DF80000FE2808DC2B
:100BA000FFE700BFFFE79DF8000001308DF800006F
:100BB000F2E740F60C01C4F20101086820F0800061
:100BC0000860FFE79DF8060001308DF806008BE70E
:100BD00002B0704781B08DF803009DF8030048B95A
:100BE000FFE740F60C41C4F20101086820F4805090
:100BF00008600EE09DF80300012809D1FFE740F6E8
:100C00000C41C4F20101086820F480600860FFE72D
:100C1000FFE740F60C01C4F20101086820F0200053
:100C2000086000208DF80200FFE79DF80200FE2812
:100C300008DCFFE700BFFFE79DF8020001308DF8F8
:100C40000200F2E701B0704781B08DF803009DF813
:100C5000030048B9FFE740F60C41C4F201010868FF
:100C600040F4805008600EE09DF80300012809D18F
:100C7000FFE740F60C41C4F20101086840F48060CF
:100C80000860FFE7FFE740F60C01C4F201010868C5
:100C900020F02000086001B07047000042F62841B3
:100CA000C4F2010142F62F20086042F62C41C4F242
:100CB00001014FF6FF70086042F61841C4F20101CD
:100CC000086840F201221043086042F62041C4F255
:100CD0000101086840F03100086042F60C41C4F29E
:100CE0000101086840F00600086042F60041C4F2C5
:100CF0000101086840F00100086070472821C4F233
:100D0000000140F2374008602C21C4F200014FF48A
:100D10007A7008604FF08041086840F080000860F9
:100D20001822C4F20002106840F060001060342203
:100D3000C4F20002642010602022C4F20002106895
:100D400040F001001060086840F001000860704742
:100D500040F22841C4F2000140F23740086040F2FE
:100D60002C41C4F200014FF47A70086040F2004157
:100D7000C4F20001086840F08000086040F21C42A4
:100D8000C4F20002106840F4C040106040F24042DB
:100D9000C4F200026420106040F23C42C4F200023F
:100DA000106040F22042C4F20002106840F480500B
:100DB0001060086840F001000860704780B582B09C
:100DC000ADF80600BDF8060005F07EFB49F69A1165
:100DD000C4F29A2105F066FA02B080BD80B582B0F7
:100DE00043F60000C4F20100019002F0AFFF019849
:100DF0004FF4E13102F044FF0198002103F00CF8B8
:100E00000198082103F018F800F042FD40F60000B8
:100E1000C4F20100182103224FF4007300F044FDD6
:100E2000019802F0EFFF02B080BD000080B5C2B0B3
:100E3000419000208DF80301022000F04FFA04A831
:100E400003F006FB40F2C800C2F2000003F008FB0A
:100E5000FFE740F2F800C2F20000006840F2E6014D
:100E6000C2F20001002204F039F9012840F0BF80ED
:100E7000FFE740F2C800C2F20000407DC007002832
:100E800000F0B380FFE740F2E000C2F2000000682B
:100E9000029048B1FFE7029801285FD0FFE702986F
:100EA000022800F090809FE040F2E600C2F20000CD
:100EB000018840F2C800C2F20000019002F0F6FF83
:100EC0000198007D0B2845D1FFE740F2E401C2F212
:100ED000000100910020088040F2C800C2F200002A
:100EE00002F042FD0146009801800088262810D8B3
:100EF000FFE740F2E001C2F200010220086040F288
:100F00000C11C2F20001272008700121FFF794FCA8
:100F10001FE040F2E400C2F200000088D12810D3A4
:100F2000FFE740F2E001C2F200010220086040F257
:100F30000C11C2F20001312008700121FFF77CFC86
:100F400006E040F2E001C2F2000101200860FFE784
:100F5000FFE7FFE7642003F08DFA45E040F2E6008A
:100F6000C2F20000038840F2EC00C2F2000040F23E
:100F7000E902C2F200020DF10E0100F099FAE0B1AF
:100F8000FFE7BDF80E0002F021FD014640F2E80047
:100F9000C2F200000170017804A802F06FFD014662
:100FA00040F20C10C2F20000017000218DF8001117
:100FB00000780121FFF740FC01E000BFFFE764205B
:100FC00003F058FA10E040F2E001C2F20001002004
:100FD000086040F2C800C2F2000003F041FA4FF48A
:100FE0007A7003F047FAFFE700E0FFE7FFE730E73A
:100FF00080B582B00190FA208DF80300FFE79DF8DC
:101000000300292809DBFFE79DF80300411E8DF846
:1010100003100021FFF710FCFFE79DF8030040F2EA
:101020000D11C2F2000108704FF47A7003F022FA39
:10103000E5E7000082B001900091009830B1FFE731
:101040000199886840F40060886005E0019988682B
:1010500020F400608860FFE702B0704780B586B07A
:1010600005900598049042F20041C4F201018842C3
:1010700010D0FFE7049842F60001C4F20101884253
:1010800011D0FFE7049843F60041C4F20101884201
:1010900012D01AE040F20930039002F0DBFA039814
:1010A00002F0C6FA12E040F20A30029002F0D2FAE0
:1010B000029802F0BDFA09E040F20F30019002F010
:1010C000C9FA019802F0B4FA00E0FFE706B080BD6B
:1010D00081B0009000988068C00730B9FFE70099A0
:1010E000886840F001008860FFE701B070470000A9
:1010F00082B001900091009A0199086890430860BD
:1011000002B0704783B002900191002000900298D5
:1011100000680199084203D0FFE701200090FFE733
:10112000009803B07047000042F23440C4F201005E
:10113000006800F01F00704781B0009042F2044147
:10114000C4F20101086820F470200860009A086861
:101150001043086001B0704785B004908DF80F10FF
:101160008DF80E2002939DF80F0005281CDCFFE788
:101170000498406B01909DF80F0000EB80011F2048
:1011800000FA01F10198884301909DF80E009DF846
:101190000F1001EB810100FA01F101980843019061
:1011A0000198049948634AE09DF80F000B281FDC62
:1011B000FFE70498006B01909DF80F0000EB8000A2
:1011C000A0F11E011F2000FA01F10198884301904F
:1011D0009DF80E009DF80F1001EB81011E3900FAF9
:1011E00001F101980843019001980499086325E0F2
:1011F0009DF80F000F281FDCFFE70498C06A0190DC
:101200009DF80F0000EB8000A0F13C011F2000FAC8
:1012100001F10198884301909DF80E009DF80F1090
:1012200001EB81013C3900FA01F10198084301907A
:1012300001980499C86200E0FFE7FFE7FFE79DF827
:101240000E0009281BDCFFE70498006900909DF858
:101250000E0000EB4001072000FA01F100988843DE
:10126000009002989DF80E1001EB410100FA01F187
:1012700000980843009000980499086124E09DF8C4
:101280000E0011281EDCFFE70498C06800909DF84E
:101290000E0000EB4000A0F11E01072000FA01F152
:1012A00000988843009002989DF80E1001EB4101D0
:1012B0001E3900FA01F10098084300900098049943
:1012C000C86000E0FFE7FFE705B0704781B000901D
:1012D0000098C06C80B201B07047000081B08DF8FA
:1012E00003009DF8030002280DD1FFE742F23441CC
:1012F000C4F20101086820F01F000860086840F08F
:101300000200086014E09DF8030003280DD1FFE7F8
:1013100042F23441C4F20101086820F01F00086065
:10132000086840F00300086001E000BFFFE7FFE746
:1013300001B0704782B001908DF803109DF8030052
:10134000C00730B1FFE70199886840F480008860E9
:10135000FFE79DF803008007002806D5FFE7019905
:10136000886840F400108860FFE702B07047000012
:1013700080B582B00190FFE742F20040C4F2010064
:101380000221FFF7BFFEB8B3FFE742F20040C4F20C
:1013900001000221FFF7ACFEFFF7C6FE022819D1BB
:1013A000FFE742F20040C4F20100FFF78FFF00099F
:1013B00040F2FC01C2F20001088040F2F800C2F2E3
:1013C0000000006800231A4603F07AFC0320FFF7B0
:1013D00085FF10E042F20040C4F20100FFF776FF03
:1013E000010940F2B410C2F2000000F011F802202E
:1013F000FFF774FFFFE7FFE742F20040C4F201008D
:101400000121FFF797FF322003F034F8B4E7000022
:1014100082B00190ADF802100198007809280AD82E
:10142000FFE7BDF80200019B1A7803EB420101328D
:101430001A7048800CE0019900200870BDF8020085
:10144000019B1A7803EB420101321A704880FFE7D2
:1014500002B0704781B000900098008800097C2895
:1014600015D8FFE7009908880130088040F6080089
:10147000C4F201000068C005002805D5FFE7009907
:1014800048880130488001E000BFFFE7FFE700988F
:101490000088B0F5FA6F04D1FFE7009901200871C8
:1014A00003E0009900200871FFE701B070470000D9
:1014B00084B0039002910192ADF8023000208DF8C3
:1014C00001000198007809280EDCFFE7BDF8022032
:1014D0000399086810440860019908780130087081
:1014E00000208DF8010013E0039800684CF6CD4110
:1014F000CCF6CC41A0FB0110C008029908800399EA
:10150000002008600199087001208DF80100FFE7B4
:101510009DF8010000F0010004B0704781B0009018
:10152000009838B9FFE74FF08041086820F00100CB
:1015300008600FE00098012809D1FFE740F2004160
:10154000C4F20001086820F00100086001E000BF5B
:10155000FFE7FFE701B0704782B0012001900090E3
:1015600040F26820C2F20000006818B1FFE70020D6
:10157000009028E040F2B420C2F20000006818B1E8
:10158000FFE7002000901DE040F26420C2F200005E
:10159000006818B1FFE70020009012E040F28020C0
:1015A000C2F20000006840F2F011C2F200010968C6
:1015B0000139884203D1FFE70220009000E0FFE7F5
:1015C000FFE7FFE7FFE7009802B0704781B00090A7
:1015D000009838B9FFE74FF08041086840F00100FB
:1015E00008600FE00098012809D1FFE740F20041B0
:1015F000C4F20001086840F00100086001E000BF8B
:10160000FFE7FFE701B0704740F60C41C4F201016B
:10161000086880F08000086040F2B010C2F200005C
:10162000007840F22C11C2F2000109780843C0078B
:1016300048B1FFE741F20C01C4F20101086880F4EF
:101640000050086008E041F20C01C4F20101086892
:1016500020F400500860FFE77047000081B0009060
:10166000009900200880009948800099087101B015
:101670007047000080B582B001900198C16943F2C3
:101680003330C3F6D37004F00DFE02B080BD00000D
:1016900081B08DF803009DF80300C00748B1FFE753
:1016A00040F60C41C4F20101086820F00100086016
:1016B00008E040F60C41C4F20101086840F0010066
:1016C0000860FFE701B0704783B0029000200190EE
:1016D0008DF80300FFE79DF80300092810D8FFE705
:1016E00002989DF8031000EB4100418801980844DE
:1016F0000190FFE79DF8030001308DF80300EAE751
:10170000019880B24CF6CD41CCF6CC41A0FB011043
:10171000C00803B07047000080B584B08DF80F009A
:101720009DF80F000A2803D8FFE700F045F841E0D4
:1017300040F22810C2F200000068A8B9FFE740F2AA
:101740002810C2F20000694648600120086043F298
:101750009130C0F6000046F60111C0F6000180226B
:10176000002303F027FE07E040F22810C2F2000039
:10177000006802F031FFFFE70120FFF727FF9DF827
:101780000F00282805D8FFE701201E2102F014F8D9
:101790000FE09DF80F00502805D8FFE70120322107
:1017A00002F00AF804E00120502102F005F8FFE7FA
:1017B000FFE7FFE704B080BD80B540F22810C2F219
:1017C0000000006840B1FFE740F22810C2F20000BC
:1017D000006803F009F8FFE70120FFF79FFE0020F3
:1017E0000A2101F0E9FF80BD81B00090009948888E
:1017F000642250430988B0FBF1F0C0B201B07047D9
:1018000080B584B0039000208DF80B00FFE79DF8B1
:101810000B100120019089B1FFE7039880699DF8C2
:101820000B2040F20401C2F2000151F8221004F032
:1018300025FD002818BF01200190FFE70198C0078F
:1018400030B1FFE79DF80B0001308DF80B00DEE7AB
:101850009DF80B0000EB80000538C0B204B080BDDD
:1018600080B582B001900198FFF72EFFFFF7A6FA2E
:101870000199C8610198FFF7FDFE019988610198FF
:10188000FFF7BEFF019981F8200002B080BD000083
:1018900080B582B04FF44070019001F0DBFE0198FA
:1018A00001F0C6FE02B080BD87B00690059104929B
:1018B0000393002001900090059800F00F00019024
:1018C0009DF81400C006002805D5FFE7049901988B
:1018D00008430190FFE70020ADF80A00FFE7BDF8DC
:1018E0000A00072842D8FFE7BDF80A100398C8404D
:1018F000C007A0B3FFE7069800680090BDF80A0093
:1019000081000F2000FA01F10098884300900198AF
:10191000BDF80A10890000FA01F100980843009010
:101920000598282809D1FFE7BDF80A100120884052
:1019300003990840069948610DE00598482809D1A7
:10194000FFE7BDF80A100120884003990840069976
:101950000861FFE7FFE7009806990860FFE7FFE7E7
:10196000BDF80A000130ADF80A00B8E70820ADF86C
:101970000A00FFE7BDF80A000F2846D8FFE7BDF8C8
:101980000A100398C840C007C0B3FFE70698406834
:101990000090BDF80A006FF01F0101EB80020F20DC
:1019A00000FA02F20098904300900198BDF80A20D6
:1019B00001EB820100FA01F10098084300900598BC
:1019C000282809D1FFE7BDF80A10012088400399B3
:1019D0000840069948610DE00598482809D1FFE7BD
:1019E000BDF80A1001208840039908400699086153
:1019F000FFE7FFE7009806994860FFE7FFE7BDF8BB
:101A00000A000130ADF80A00B4E707B070470000E3
:101A100080B51B200922114600F03CFB0020FEF798
:101A20001FFF80BD80B586B0002004900590FEF7B2
:101A300031FE049A0A200390042103F06FF8049AFF
:101A40000146039840F20813C2F200031960022114
:101A500003F064F840F2F801C2F20001086040F2BD
:101A6000B410C2F2000001F007FE049B40F21C100B
:101A7000C2F20000694648600120086041F6F53076
:101A8000C0F6000046F2B871C0F600014FF4807253
:101A900003F090FC012803D0FFE7FEF7B9FDFFE754
:101AA00040F2AC10C2F200006946486001200860B4
:101AB00043F25970C0F6000046F2AC71C0F6000166
:101AC0008022002303F076FC012803D0FFE7FEF715
:101AD0009FFDFFE740F20010C2F200006946486037
:101AE0000120086041F27130C0F6000046F2A37197
:101AF000C0F600018022002303F05CFC012803D023
:101B0000FFE7FEF785FDFFE740F2F000C2F20000BC
:101B1000694648600120086040F62D60C0F600006C
:101B200046F27871C0F600018022002303F042FCE7
:101B3000012803D0FFE7FEF76BFDFFE740F2F4005A
:101B4000C2F20000694648600120086040F6F1706A
:101B5000C0F6000046F28671C0F600018022002324
:101B600003F028FC012803D0FFE7FEF751FDFFE753
:101B700040F2A810C2F200006946486001200860E7
:101B800043F2C560C0F6000046F2C271C0F6000123
:101B90008022002303F00EFC012803D0FFE7FEF7AC
:101BA00037FDFFE740F2DC10C2F2000069464860F2
:101BB0000120086043F62930C0F6000046F2947117
:101BC000C0F600018022002303F0F4FB012803D0BB
:101BD000FFE7FEF71DFDFFE740F2A810C2F200008C
:101BE000006802F001FEFFF713FF02F079FDFFE746
:101BF000FEE7000080B58AB0099014200890032009
:101C0000079000200590FFF789FC0120FFF786FC74
:101C1000059840F2B801C2F200010491487140F207
:101C20002C11C2F200010870FFF7C6FD0498FFF7FF
:101C300015FD05988DF81B00FFE79DF81B00032894
:101C400016DCFFE740F60C41C4F20101086880F49D
:101C500080500860086880F4806008600A2002F004
:101C600009FCFFE79DF81B0001308DF81B00E4E73D
:101C700027200121FEF7E0FDFF200021FEF7DCFD1B
:101C800046F6EA00C0F6000000F08EFAFFE740F2E8
:101C90000410C2F200000078C00748B1FFE740F628
:101CA0000C41C4F20101086840F04000086008E0FF
:101CB00040F60C41C4F20101086820F040000860C1
:101CC000FFE740F2B800C2F200004079C00738B127
:101CD000FFE740F2B800C2F20000FFF7BBFBFFE7EE
:101CE00040F2C000C2F2000000680B2817D3FFE7E3
:101CF00040F21910C2F200000078C00778B9FFE77F
:101D0000002003900A2101F057FD0398FFF75EFCC5
:101D100040F21911C2F2000101200870FFE740F201
:101D20001810C2F20000007848B1FFE740F2B80096
:101D3000C2F20000FFF792FCFFF73EFDFFE740F222
:101D4000C000C2F2000000680799401A032815D3AA
:101D5000FFE740F20411C2F200010120087040F2D6
:101D60002C11C2F200010020087040F2B800C2F24B
:101D70000000FFF773FCFFF71FFD06E040F20411BF
:101D8000C2F2000100200870FFE740F2C000C2F27A
:101D90000000006840F21011C2F200010968401A08
:101DA000152823D3FFE740F2A810C2F20000006814
:101DB00080B1FFE740F2A810C2F20000006802F014
:101DC00013FD40F60C01C4F20101086820F48060A4
:101DD0000860FFE740F2B011C2F200010020087075
:101DE00040F21011C2F200010860FFE740F2081053
:101DF000C2F20000006840F21411C2F20001002299
:101E000003F06CF9012840F04081FFE740F2C00088
:101E1000C2F200000068079040F21410C2F2000005
:101E2000408864281EDCFFE740F2B800C2F20000E0
:101E3000012141710079C00798B1FFE740F2B80075
:101E4000C2F200000290FFF7CFFCFFF765FC02989A
:101E500040F22C12C2F2000201211170FFF7FEFBCA
:101E6000FFE711E040F2B801C2F200010191002049
:101E7000487140F22C11C2F200010870FFF79CFC7F
:101E80000198FFF7EBFBFFE740F21410C2F20000ED
:101E90004088B0F57A7F40F3A680FFE740F2141047
:101EA000C2F20000408840F6B731884200F39B80C0
:101EB000FFE740F21410C2F200000078C00738B308
:101EC000FFE740F21410C2F200004088B0F5B46F92
:101ED00011DDFFE740F21410C2F200004088400913
:101EE000362808D8FFE740F21811C2F2000108783E
:101EF000013008700BE040F21811C2F2000100201E
:101F0000087040F2B011C2F200010870FFE727E04C
:101F100040F21410C2F200004088B0F5AA6F12DD42
:101F2000FFE740F21410C2F20000408840F2036163
:101F3000884208DCFFE740F21811C2F2000108787D
:101F4000013008700BE040F21811C2F200010020CD
:101F5000087040F2B011C2F200010870FFE7FFE71D
:101F600040F21810C2F20000007805283AD3FFE7CB
:101F7000922002F07FFA40F60800C4F201000068E7
:101F8000C005002818D5FFE740F2A810C2F20000F3
:101F9000006802F021FB40F2C000C2F200000068BD
:101FA00040F21011C2F20001086040F2B011C2F21A
:101FB00000010120087006E040F2B011C2F20001F9
:101FC00000200870FFE740F60C01C4F20101086828
:101FD00020F48060086040F21811C2F20001002075
:101FE0000870FFE750E040F21410C2F200000078E1
:101FF000C007002840D1FFE740F21410C2F20000F1
:102000004088B0F5FA5F36DDFFE740F21410C2F207
:102010000000408842F6F72188422CDCFFE740F2BE
:10202000A810C2F20000006870B1FFE740F2A810EB
:10203000C2F20000006802F0D7FB40F2B011C2F219
:10204000000100200870FFE740F2B800C2F2000073
:10205000FFF704FBFFF7B0FB40F60C01C4F20101EF
:10206000086820F48060086040F21811C2F2000194
:1020700000200870FFE706E040F21811C2F20001EC
:1020800000200870FFE7FFE7FFE7012002F0F2F908
:10209000FDE5000080B586B08DF817008DF81610AC
:1020A0008DF8152000200490039002904EF60C50FD
:1020B000CEF20000006800F4E06001460191B0F546
:1020C000407F27D0FFE70198B0F5806F1DD0FFE774
:1020D0000198B0F5A06F14D0FFE70198B0F5C06F7C
:1020E0000AD0FFE70198B0F5E06F18D1FFE70020B4
:1020F0000390042002901AE0012003900320029034
:1021000015E002200390029011E0032003900120CB
:1021100002900CE0042003900020029007E04FF4AE
:10212000A06000F033F8022003900290FFE79DF8D2
:1021300016000399C1F10401884004909DF8150030
:102140000299C1F104020F21D140014004980843D3
:10215000049004980001049004989DF817104EF222
:102160000042CEF2000288549DF8172002F01F01B1
:10217000012088404EF20011CEF2000141EAD20166
:1021800021F00301086006B080BD000081B000901E
:1021900000980021C0F2FA5108434EF60C51CEF2DD
:1021A0000001086001B0704780B584B00390002042
:1021B0008DF80B008DF80A008DF80900FFE79DF9F6
:1021C0000B1000200029019020D4FFE79DF80A00A1
:1021D0000A2807D1FFE79DF8091000200D2901907A
:1021E00014D0FFE79DF80A1000200D29009008D1B7
:1021F000FFE79DF809000A38B0FA80F04009009026
:10220000FFE7009880F001000190FFE70198C00708
:1022100090B1FFE79DF809008DF80A0003989DF83A
:102220000B104A1C8DF80B20405C8DF809009DF8BE
:10223000090002F0F3F8C2E704B080BD80B582B0B7
:10224000019000208DF80300FFE701989DF803102E
:10225000405C50B1FFE701989DF803104A1C8DF8CF
:102260000320405C02F0DAF8EFE702B080BD000026
:1022700080B582B08DF807009DF8070048F21F5125
:10228000C5F2EB11A0FB0101302040EA51108DF89E
:1022900006009DF807004CF6CD41CCF6CC41A0FBE2
:1022A0000120C00846F26762C6F2666280FB022324
:1022B0009A0802EBD37202EB8202A0EB42003030AC
:1022C0008DF805009DF80700A0FB0121C90801EB6E
:1022D0008101A0EB410040F030008DF804009DF832
:1022E000060002F09BF89DF8050002F097F89DF8B3
:1022F000040002F093F802B080BD000080B584B005
:10230000039003980021C4F2C82104F059F904F0A5
:10231000BFF8ADF80600BDF8060048F21F51C5F23F
:10232000EB11A0FB0101302000EB51108DF80B00E8
:10233000BDF806004CF6CD41CCF6CC41A0FB012007
:10234000C00846F26762C6F2666280FB02239A10FA
:1023500002EBD37202EB8202A0EB420030308DF828
:102360000A00BDF80600A0FB0121C90801EB8101AC
:10237000A0EB410040F030008DF809009DF80B0003
:1023800002F04CF82E2002F049F89DF80A0002F005
:1023900045F89DF8090002F041F804B080BD000046
:1023A00080B584B08DF80F00002002909DF80F00DA
:1023B000143802900298B0F1FF3F2DDCFFE72D208A
:1023C0008DF80E000298FDF77BFF46F26761C6F2BA
:1023D0006661019180FB0102901000EBD27080FBDE
:1023E0000112911001EBD27101EB8101A0EB4100D0
:1023F00030308DF80D000298FDF762FF019980FBE7
:102400000112911001EBD27101EB8101A0EB4100AF
:1024100030308DF80C0030E0029848F21F51C5F2C0
:10242000EB1180FB0101480900EBD17030308DF8D1
:102430000E00029846F26761C6F2666180FB0102F7
:10244000901000EBD27080FB01239A0802EBD3724C
:1024500002EB8202A0EB420030308DF80D000298B2
:1024600080FB0112910801EBD27101EB8101A0EB1D
:10247000410030308DF80C00FFE79DF80E0001F0B0
:10248000CDFF9DF80D0001F0C9FF9DF80C0001F093
:10249000C5FF04B080BD000080B586B005900491F2
:1024A00040F2A820C2F200000068029040F2301012
:1024B000C2F200000268002182F855100068043062
:1024C00001F0D0FC88B9FFE740F23010C2F2000002
:1024D0000068C16A012000FA01F240F20021C2F254
:1024E000000108689043086000E0FFE705980130AC
:1024F00018BBFFE7049800B3FFE740F28021C2F267
:10250000000148680190019A40F23010C2F20000C8
:1025100003689A60019A92680368DA60026804327C
:10252000019B9B685A6002680432019B9A600068B4
:1025300041610868013008603DE00298059908444F
:102540000390039840F23011C2F20001096848601C
:102550000398029988420ED2FFE740F23C10C2F283
:102560000000006840F23011C2F200010968043135
:1025700001F0E8FC1EE040F23810C2F200000068F2
:1025800040F23011C2F200010968043101F0DAFCB6
:10259000039840F25C21C2F200010968884207D228
:1025A000FFE7039840F25C21C2F20001086000E0FE
:1025B000FFE7FFE7FFE706B080BD000080B582B00F
:1025C000019001F013FD40F2F011C2F20001086821
:1025D0000130086040F23010C2F20000006898B983
:1025E000FFE7019840F23011C2F20001086040F2AA
:1025F000F010C2F200000068012803D1FFE700F0EC
:10260000F7FA00E0FFE71CE040F27C20C2F2000095
:102610000068A0B9FFE740F23010C2F20000006885
:10262000C06A0199C96A884207D8FFE7019840F259
:102630003011C2F20001086000E0FFE700E0FFE7B0
:10264000FFE740F2FC10C2F20000016801310160B6
:102650000068019908640198C16A012000FA01F23A
:1026600040F20021C2F2000108681043086001989E
:10267000C06A00EB800040F24411C2F2000101EB9D
:102680008000406800900098019A906000988068EF
:10269000019AD06001980430009A926850600198C5
:1026A0000430009A9060019AD06A00EB800001EB40
:1026B000800050610198C06A00EB800251F822004E
:1026C000013041F8220001F0BDFC40F27C20C2F252
:1026D00000000068C8B1FFE740F23010C2F200000D
:1026E0000068C06A0199C96A88420CD2FFE74EF6B9
:1026F0000451CEF200014FF080500860BFF34F8FBD
:10270000BFF36F8F00E0FFE700E0FFE702B080BD9E
:1027100080B582B001F06AFC40F2AC20C2F2000049
:10272000006828BBFFE740F20420C2F200000090DE
:1027300001F0E8FB40F21820C2F20000019001F025
:10274000E1FB0099019840F23412C2F200021160DC
:1027500040F24011C2F20001086005201021002261
:1027600002F0DCF940F2AC21C2F20001086000E0A6
:10277000FFE701F067FC02B080BD000080B582B0C9
:10278000FFE740F2F410C2F20000006808B3FFE770
:1027900001F02CFC40F29420C2F20000C068C06836
:1027A00001900198043001F05DFB40F2F011C2F29B
:1027B000000108680138086040F2F411C2F200011B
:1027C00008680138086001F03DFC019800F08CF8C1
:1027D000D7E702B080BD000080B582B001900091C3
:1027E0000198006CB8B1FFE70199C8680A6C104401
:1027F000C86001988168C068884204D3FFE70199E6
:102800000868C86000E0FFE70098019AD168126C80
:10281000FDF75AFDFFE702B080BD000080B586B02D
:10282000059004910392002002900598806B01901E
:102830000598006C78B9FFE70598006848B9FFE78C
:102840000598806802F058FF029005990020886082
:1028500000E0FFE741E00398B8B9FFE7059A049963
:102860005068126CFDF730FD059948680A6C1044F9
:102870004860059948688968884204D3FFE705994C
:102880000868486000E0FFE726E0059A0499D068F0
:10289000126CFDF719FD0599C8680A6C801AC860AA
:1028A00005980168C068884206D2FFE705998868E4
:1028B0000A6C801AC86000E0FFE70398022809D17B
:1028C000FFE7019820B1FFE701980138019000E08F
:1028D000FFE700E0FFE7FFE7FFE701980130059918
:1028E0008863029806B080BD80B582B001900198DF
:1028F000006B01F0CDFB019801F0CAFB02B080BD76
:1029000083B0002001900120009040F20020C2F22C
:1029100000000068022803D3FFE701200190FFE7D1
:1029200040F23010C2F200000068C06A18B1FFE740
:10293000002002901FE040F24410C2F20000006844
:10294000022803D3FFE70020029013E0019818B19A
:10295000FFE7002002900CE040F25C20C2F2000091
:10296000006840F2A821C2F200010968401A0290F2
:10297000FFE7FFE7FFE7029803B0704782B00190DE
:1029800040F23410C2F2000000680068B0FA80F033
:102990004009019908600198006848B9FFE740F2D2
:1029A0003410C2F200000068C0680068009002E0C5
:1029B00000200090FFE7009802B0704780B584B017
:1029C0000290FFE7FFF7DAFE40F24410C2F2000087
:1029D000006802280CD3FFE74EF60451CEF2000146
:1029E0004FF080500860BFF34F8FBFF36F8F00E050
:1029F000FFE7FFF785FF01900198022829D3FFE741
:102A000001F0B0FF40F25C20C2F20000006840F22A
:102A1000A821C2F20001096888420BD2FFE74FF0FB
:102A2000500080F31188BFF36F8FBFF34F8F039077
:102A3000FFE7FEE7FFF764FF01900198022804D347
:102A4000FFE7019801F070FB00E0FFE702F0BAFF3A
:102A500000E0FFE7B6E7000080B584B0DDF818C0FD
:102A60000390029101928DF80330029818B9FFE7A4
:102A70000698006003E0019806990860FFE7039854
:102A80000699C8630298069908640698012102F025
:102A900093F89DF80300069981F8500006990020EC
:102AA000886404B080BD000080B58AB0DDF83CC009
:102AB000DDF838C0DDF834C0DDF830C0079006918D
:102AC000059204930E98006B05998900A522FDF7E5
:102AD00040FC0E98006B059900EB810004380390D0
:102AE000039820F0070003909DF80C00400758B1B0
:102AF000FFE74FF0500080F31188BFF36F8FBFF3F3
:102B00004F8F0890FFE7FEE70698F8B1FFE7002037
:102B10000290FFE70298092813D8FFE70698029A67
:102B2000805C0E99114481F8340006980299405C4B
:102B300008B9FFE705E0FFE7FFE7029801300290E0
:102B4000E8E70E99002081F83D0004E00E9900208E
:102B500081F83400FFE70C9805280BD3FFE74FF00E
:102B6000500080F31188BFF36F8FBFF34F8F099030
:102B7000FFE7FEE70C98052803D3FFE704200C903D
:102B800000E0FFE70C980E99C8620C980E998864D3
:102B90000E9900200190C8640E98043001F0CAF923
:102BA0000E98183001F0C6F901980E9909610C9938
:102BB000C1F105010E9A91610E9949620E9908655D
:102BC0000E9981F854000E9981F8550003980799E1
:102BD000049A00F003FC0E9908600D9820B1FFE7FD
:102BE0000E980D99086000E0FFE70AB080BD000074
:102BF00080B584B000200390FFE70398042810D824
:102C0000FFE7039800EB800140F24410C2F200009D
:102C100000EB810001F076F9FFE7039801300390A3
:102C2000EBE740F22C20C2F20000019001F06AF9BB
:102C300040F24020C2F20000029001F063F940F23D
:102C40006820C2F2000001F05DF940F29420C2F267
:102C5000000001F057F940F28020C2F2000001F0BC
:102C600051F90199029840F23812C2F20002116043
:102C700040F23C11C2F20001086004B080BD0000C7
:102C800080B586B0059004910392029300200190D4
:102C90000498059948600598006104980399884252
:102CA00016D8FFE703980299401A05998969884266
:102CB00003D3FFE70120019009E040F24010C2F287
:102CC000000000680599043101F03CF9FFE717E0C6
:102CD00003980299884208D2FFE704980299884233
:102CE00003D3FFE70120019009E040F23410C2F263
:102CF000000000680599043101F024F9FFE7FFE7BF
:102D0000019806B080BD000080B582B0019001F04E
:102D10006DF90198806B18B9FFE70120009002E07F
:102D200000200090FFE701F08DF9009802B080BD0F
:102D300080B582B0019001F059F90198806B01993A
:102D4000C96B884203D1FFE70120009002E0002018
:102D50000090FFE701F076F9009802B080BD000016
:102D600080B588B004900498806C03900020029095
:102D7000039858B9FFE74FF0500080F31188BFF374
:102D80006F8FBFF34F8F0590FFE7FEE70398806BCF
:102D90000399C96B88420BD3FFE74FF0500080F3D3
:102DA0001188BFF36F8FBFF34F8F0690FFE7FEE7E9
:102DB0000398806B0399C96B884239D2FFE7039867
:102DC00090F845008DF80700039804A90022FFF74A
:102DD00025FD02909DF90700013088B9FFE70398AF
:102DE000406A58B1FFE70398243002F021FD18B182
:102DF000FFE70120029000E0FFE700E0FFE716E0B8
:102E00009DF907007F280BD1FFE74FF0500080F3BA
:102E10001188BFF36F8FBFF34F8F0790FFE7FEE777
:102E20009DF807000130039981F84500FFE700E0B5
:102E3000FFE7029808B080BD06480068006880F38C
:102E4000088862B661B6BFF34F8FBFF36F8F00DFA4
:102E500000BF00BF08ED00E080B584B00390029190
:102E600040F23410C2F200000068C068C0680190EF
:102E70000198043000F0F6FF019890F82800400710
:102E8000002806D5FFE701980399029A00F01CF983
:102E900007E0019991F8280000F0FE0081F8280071
:102EA000FFE70198016A884704B080BD80B58CB007
:102EB000FFE740F2AC20C2F20000006806A9002241
:102EC00002F00CF9002800F0AF80FFE70698B0F19F
:102ED000FF3F17DCFFE706A804300290029858B9BC
:102EE000FFE74FF0500080F31188BFF36F8FBFF3FF
:102EF0004F8F0A90FFE7FEE702990A6848688968E1
:102F0000904700E0FFE70698002800F18C80FFE77B
:102F1000089805900598406928B1FFE705980430A6
:102F200000F0A0FF00E0FFE704A800F005F903901F
:102F30000698013801460191082800F27280019933
:102F4000DFE801F00505323A5B0505323A000599E4
:102F500091F8280040F0010081F828000598079BAF
:102F600081691944039AFFF78BFED8B1FFE70598F2
:102F700090F828004007002808D5FFE70598079932
:102F800082691144039A00F09FF807E0059991F8CF
:102F9000280000F0FE0081F82800FFE70598016A8C
:102FA000884700E0FFE73DE0059991F8280000F030
:102FB000FE0081F8280035E0059991F8280040F0DE
:102FC000010081F8280007980599886105988069B3
:102FD00058B9FFE74FF0500080F31188BFF36F8FAF
:102FE000BFF34F8F0B90FFE7FEE70598039B8169C6
:102FF00019441A46FFF744FE14E0059890F828009B
:103000008007002804D4FFE7059801F041F807E0A5
:10301000059991F8280000F0FE0081F82800FFE7EC
:1030200000E0FFE7FFE744E70CB080BD80B584B067
:103030000390029101F096FC684600F07DF8019043
:103040000098D8BBFFE7029860B9FFE703980199A1
:10305000884207D8FFE702F0B5FC03980199FFF713
:10306000FBFE2AE0029858B1FFE740F24010C2F29E
:10307000000000680068B0FA80F040090290FFE7A5
:1030800040F2AC20C2F2000000680399019A891A4C
:10309000029A01F091F902F095FC60B9FFE74EF653
:1030A0000451CEF200014FF080500860BFF34F8F03
:1030B000BFF36F8F00E0FFE7FFE702E002F082FC62
:1030C000FFE704B080BD000080B584B0039002919A
:1030D0000192FFE70398029B81691944019AFFF767
:1030E000CFFD48B1FFE70398816902980844029038
:1030F0000398016A8847EDE704B080BD40F23810BC
:10310000C2F200000068006840B9FFE740F25C21AD
:10311000C2F200014FF0FF3008600CE040F23810BE
:10312000C2F200000068C068006840F25C21C2F290
:1031300000010860FFE7704780B582B0019002F09F
:10314000A1F90090009840F22411C2F20001096830
:10315000884206D2FFE700F011F8019901200860CB
:1031600003E0019900200860FFE7009840F2241175
:10317000C2F200010860009802B080BD80B582B044
:10318000FFE740F23410C2F200000068006870B13E
:10319000FFE740F23410C2F200000068C068006827
:1031A000019001984FF0FF31FFF756FEE9E740F23A
:1031B0003412C2F200021068009040F24011C2F2D4
:1031C0000001086810600098086002B080BD00002F
:1031D00083B00020009040F25000C2F2000000686E
:1031E000013058B1FFE74FF0500080F31188BFF372
:1031F0006F8FBFF34F8F0190FFE7FEE74FF0500056
:1032000080F31188BFF36F8FBFF34F8F0290FFE7FA
:10321000009808B9FFE7FBE703B0704784B002905D
:103220000020019002980090029858B9FFE74FF0F3
:10323000500080F31188BFF36F8FBFF34F8F03905F
:10324000FFE7FEE70098406940F28021C2F20001EA
:10325000884214D1FFE70098806A40F26821C2F2E8
:103260000001884209D0FFE70098806A18B9FFE79B
:103270000120019000E0FFE700E0FFE700E0FFE74A
:10328000019804B07047000080B584B00390FFE758
:1032900001A8FFF773FB029002980199FFF7C6FEA1
:1032A000FFF704FEF4E7000080B582B0019000F063
:1032B0009DFE019890F845008DF80300FFE79DF909
:1032C0000300012825DBFFE70198806C50B1FFE780
:1032D0000198FFF745FD18B1FFE701F015F900E08F
:1032E000FFE710E00198406A58B1FFE701982430E9
:1032F00002F09EFA18B1FFE701F006F900E0FFE7DF
:1033000000E006E0FFE79DF8030001388DF80300B8
:10331000D5E70199FF2081F8450000F093FE00F009
:1033200065FE019890F844008DF80200FFE79DF9D2
:103330000200012816DBFFE70198006980B1FFE772
:103340000198103002F074FA18B1FFE701F0DCF8D0
:1033500000E0FFE79DF8020001388DF8020000E070
:1033600000E0E4E70199FF2081F8440000F06AFEE4
:1033700002B080BD80B582B0019001F0F3FA0198EF
:10338000FCF748FF009002F01DFB009802B080BDE2
:1033900080B584B00390FFE700200090322100F058
:1033A0000BFA42F21070029001F064F800982D219F
:1033B000019100F001FA029801F05CF800983721C1
:1033C00000F0FAF9029801F055F80098019900F020
:1033D000F3F9029801F04EF8DEE7000083B00290A6
:1033E0000191009202980438029002994FF0807087
:1033F0000860029804380290019820F001000299B8
:103400000860029804380290029943F2D110C0F685
:103410000000086002981438029000980299086031
:10342000029820380290029803B0704783B002904F
:1034300041F20400C4F2020000680190019843F6D2
:10344000FF71CEF6FF7108400190029800900428A9
:1034500008D3FFE7009805280AD0FFE7009807285F
:1034600006D011E00299019840EA813001900CE009
:10347000029820F0040002900299019840EA8130FD
:1034800040F08050019000E0FFE7019841F2040114
:10349000C4F20201086003B07047000097B01690B4
:1034A0000020149040F20671C0F60811099140F214
:1034B0000121C0F203410891079006900591049004
:1034C0000391029041F20400C4F202000068C0F3CC
:1034D000810015901598019040B1FFE701980128EF
:1034E0000AD0FFE7019802280CD05AE041F20020F0
:1034F000C0F27A0013905AE041F20020C0F27A0044
:10350000139054E041F20400C4F20200006800F499
:1035100080300F900F98B0F5803F19D1FFE741F24E
:103520000020C0F27A000C9041F20400C4F20200C4
:10353000006800F400300E900E98B0F5003F06D100
:10354000FFE740F60010C0F23D000C90FFE705E0F9
:1035500040F60010C0F23D000C90FFE741F204007D
:10356000C4F202000168C1F383410D9100680001BB
:10357000002805D5FFE70D9840F010000D90FFE7FB
:103580000D980E2804D8FFE70D9802300D9003E047
:103590000D9801300D90FFE70C980D99484313905A
:1035A00005E041F20020C0F27A001390FFE741F2FB
:1035B0000400C4F202000168C9B209090B910B9A18
:1035C00006A9895C0A9113990A9AD140129101685F
:1035D000C1F302210B910B9A04A9895C0A911299FB
:1035E0000A9AD14011910068C0F3C2200B900B9948
:1035F00002A8405C0A9012980A99C8401090169848
:103600000090032810D80099DFE801F00205080BAC
:103610001398149009E01298149006E011981490F1
:1036200003E01098149000E0FFE7149817B070477B
:1036300081B00090009800F01F02012101FA02F30E
:10364000810941F20002C4F202028858984388506E
:1036500001B0704781B00090009800F01F02012176
:1036600001FA02F3810941F20002C4F20202885811
:103670001843885001B0704782B001900199002032
:103680008861019908708DF80300FFE79DF8030039
:1036900009280ED8FFE701989DF8031000EB4101BF
:1036A00000204880FFE79DF8030001308DF80300FB
:1036B000ECE70199002081F820000199C86102B06F
:1036C0007047000080B58AB0099046F25871C0F684
:1036D000000101A82022FCF7F7FD00208DF803006F
:1036E000FFE79DF8031001A810F82100C00748B9B2
:1036F000FFE740F60C01C4F20101086840F4806065
:10370000086008E040F60C01C4F20101086820F4EA
:1037100080600860FFE79DF80300072816D8FFE7E0
:103720009DF80310481C8DF8030001A800EB8100F0
:1037300040884FF47A71484344F6D351C1F2620194
:10374000A0FB0110800900F095FE03E000208DF839
:103750000300FFE7C5E7000080B582B001900020BC
:103760000090FFE7012000F085FE009840F2E7316D
:1037700088420AD1FFE70020009040F2C001C2F267
:10378000000108680130086003E0009801300090F3
:10379000FFE7009847F6D501C2F2E96148434FEAD6
:1037A000700042F2DD41C0F20611884203D8FFE703
:1037B000FDF72AFFFFE7D5E782B001908DF80310EF
:1037C000019868B9FFE79DF8030000EB80014FF016
:1037D000FF3000EB41003421C4F20001086014E026
:1037E000019801280ED1FFE79DF8030000EB80014E
:1037F0004FF0FF3000EB410040F24041C4F20001C5
:10380000086001E000BFFFE7FFE702B0704700007B
:1038100084B000200390029041F20001C4F2020142
:10382000086840F480300860FFE703980130039097
:1038300041F20000C4F20200006800F4003002907F
:10384000FFE702990020019041B9FFE703984FF686
:10385000FF71401A18BF01200190FFE70198C007CF
:103860000028E2D1FFE741F20000C4F20200006844
:103870008003002802D4FFE7FFE7FEE741F20401DE
:10388000C4F20201009108680860086808600868CE
:1038900040F480600860086820F4403008600868E0
:1038A00040F44030086008684FF6FF72CFF2C372F0
:1038B0001040086008680022C0F628021043086023
:1038C00041F20001C4F20201086840F08070086013
:1038D000FFE741F20000C4F2020000688001002806
:1038E00001D4FFE7F5E741F20401C4F202010868E0
:1038F00020F003000860086840F002000860FFE75D
:1039000041F20400C4F2020000680007002801D45C
:10391000FFE7F5E704B0704780B5FFF779FF80BD9A
:1039200082B001900091009A019908699043086162
:1039300002B0704784B0029001910298C06801996A
:1039400008400090029800690199084206D0FFE7FC
:10395000009818B1FFE70120039002E000200390D7
:10396000FFE7039804B0704782B0019040F2D8118D
:10397000C2F20001002008608DF80300FFE79DF807
:103980000300092813DCFFE701989DF8031030F8C5
:10399000112040F2D811C2F20001086810440860FA
:1039A000FFE79DF8030001308DF80300E7E740F2E0
:1039B000D810C2F2000000684CF6CD41CCF6CC41E4
:1039C000A0FB0110C0F3CF0002B0704780B588B0F3
:1039D000ADF81E00002006900590BDF81E006FF3A4
:1039E0009F20ADF81200BDF8120002F06DFD00211D
:1039F000C4F29A2102F056FC0590059840F220117D
:103A0000C2F200010860059802F0EAFB0090019103
:103A100045F2EC12C1F6B8624EF68533C3F6D173A7
:103A200002F0F2F9009A019B02F0EEF902460098CA
:103A300002920A46019903924EF24812C1F27A426A
:103A400044F2AE73C4F20D0302F0DEF902460298AE
:103A50000B46039902F030F948F21F52C5F2EB12FF
:103A60004BF6B863C4F2420302F026F902F0F2F812
:103A70000690069802F00CFD08B080BD83B001905E
:103A80008DF80310019890F8F000C00708B3FFE725
:103A900000208DF80200FFE79DF8020077280ED87D
:103AA000FFE79DF8030001999DF8022021F812001C
:103AB000FFE79DF8020001308DF80200ECE7019964
:103AC000002081F8F000019890F8EE008DF80B00CE
:103AD00026E001208DF80100FFE79DF8010077281E
:103AE00010D8FFE701989DF8012000EB420130F863
:103AF000120021F8020CFFE79DF8010001308DF85B
:103B00000100EAE79DF803000199A1F8EE00019990
:103B1000002081F8F000019800788DF80B00FFE795
:103B20009DF80B0003B0704780B582B00190FFE7AD
:103B300040F2B410C2F200000090FDF791FE46F290
:103B4000D070C0F60000FEF779FB4EF60451CEF2BD
:103B500000014FF080500860BFF34F8FBFF36F8FAD
:103B600046F67700C0F60000FEF768FB009890F874
:103B70002000FEF715FC46F61400C0F60000FEF724
:103B80005DFB40F22010C2F200000068002102F04C
:103B900052FB38B1FFE746F6B000C0F60000FEF772
:103BA0004DFB07E040F22010C2F200000068FEF773
:103BB000A5FBFFE746F64300C0F60000FEF73EFB1C
:103BC00040F20C10C2F200000078FEF751FB46F202
:103BD000FA70C0F60000FEF731FB40F20D10C2F2A1
:103BE00000000078FEF744FB4EF60451CEF20001CF
:103BF0004FF080500860BFF34F8FBFF36F8F46F6D2
:103C00006600C0F60000FEF719FB40F20410C2F295
:103C100000000078C00738B1FFE746F69B00C0F609
:103C20000000FEF70BFBFFE740F22C10C2F2000091
:103C30000078C00778B1FFE746F63200C0F6000012
:103C4000FEF7FCFA40F2B800C2F20000FDF7CCFD2E
:103C5000FEF70EFBFFE740F2B010C2F20000007862
:103C6000C00738B1FFE746F6C500C0F60000FEF712
:103C7000E5FAFFE74FF47A7000F0FCFB58E700002C
:103C800080B588B0079006910020059004900390BD
:103C900002900798019044F20041C4F2000188426A
:103CA00025D0FFE7019844F60001C4F200018842E4
:103CB00022D0FFE7019844F60041C4F20001884297
:103CC0001FD0FFE7019845F20001C4F200018842CD
:103CD0001CD0FFE7019843F60001C4F201018842BD
:103CE00019D1FFE70320FFF7D9FB059014E002206C
:103CF000FFF7D4FB05900FE00220FFF7CFFB059004
:103D00000AE00220FFF7CAFB059005E00220FFF75A
:103D1000C5FB059000E0FFE70598069900EB510010
:103D2000B0FBF1F0029002984FF6F0710840049059
:103D3000029800F00F000390BDF81000BDF80C10C1
:103D400008430799886008B080BD000080B588B03E
:103D500007900798069044F20041C4F2000188429F
:103D600029D0FFE7069844F60001C4F2000188421A
:103D70002AD0FFE7069844F60041C4F200018842C9
:103D80002BD0FFE7069845F20001C4F200018842FB
:103D90002CD0FFE7069843F60001C4F201018842E7
:103DA0002DD1FFE740F20E300590FFF753FC059848
:103DB000FFF73EFC24E040F211400490FFF74AFC7C
:103DC0000498FFF735FC1BE040F212400390FFF728
:103DD00041FC0398FFF72CFC12E040F213400290E4
:103DE000FFF738FC0298FFF723FC09E040F214408B
:103DF0000190FFF72FFC0198FFF71AFC00E0FFE7A6
:103E000008B080BD81B000900099C86840F40050AF
:103E1000C86001B07047000082B001900091019924
:103E2000C86820F4C060C860009A0199C86810434F
:103E3000C86002B07047000083B00290019100207A
:103E400000900298C0680090009820F00800009050
:103E5000019900980843009000980299C86003B047
:103E60007047000082B001900198006900900198AD
:103E7000416880688860019948688968486000984E
:103E800040680199884205D1FFE701988068009950
:103E9000486000E0FFE70199002008610099086888
:103EA000013808600098006802B0704782B0019045
:103EB000ADF802100198007D0A280BD8FFE7BDF885
:103EC000020001990A7D531C0B7501EB420121F898
:103ED000020C14E00198407DC00720B1FFE7019972
:103EE00000204875FFE7019900200875BDF8020021
:103EF00001990A7D531C0B7521F81200FFE702B0EF
:103F00007047000081B00090009901F108004860FE
:103F100000994FF0FF308860009901F10800C860F7
:103F2000009901F10800086100990020086001B0C3
:103F30007047000081B0009000990020086101B036
:103F40007047000084B003900291029800680090CE
:103F50000098013020B9FFE703980069019010E054
:103F6000039808300190FFE70198406800680099C5
:103F7000884205D8FFE7FFE7019840680190F3E722
:103F8000FFE701984068029948600298416888609C
:103F900001980299886002980199486003980299F3
:103FA0000861039908680130086004B07047000098
:103FB00083B00290019102984068009000980199A6
:103FC0004860009880680199886001980099896824
:103FD00048600198009988600298019908610299E7
:103FE00008680130086003B07047000082B04FF0ED
:103FF000500080F31188BFF36F8FBFF34F8F009095
:1040000040F25000C2F20000016801310160006816
:10401000012814D1FFE74EF60450CEF200000068EC
:10402000000658B1FFE74FF0500080F31188BFF34E
:104030006F8FBFF34F8F0190FFE7FEE7FFE702B0FE
:104040007047000082B040F25000C2F200000068E9
:1040500058B9FFE74FF0500080F31188BFF36F8F1E
:10406000BFF34F8F0090FFE7FEE740F25000C2F22F
:104070000000016801390160006830B9FFE70020E5
:104080000190019880F31188FFE702B070470000AB
:1040900080B582B00190019840B1FFE700F062FC6A
:1040A0000198FCF7E6F801F08DFCFFE702B080BD57
:1040B00040F20000C2F20000016844F6D352C1F29F
:1040C0006202A1FB02318B0940F2EC11C2F2000145
:1040D0000B600B686FF07F41B1FBF3F140F25823A6
:1040E000C2F20003196040F2E813C2F200032D216E
:1040F00019604EF21001CEF2000100230B604EF267
:10410000180CCEF2000CCCF800300068A0FB0202C4
:104110004FF0FF3000EB92104EF21402CEF200028C
:10412000106007200860704780B586B0059005983C
:1041300040F25821C2F200010968884207D9FFE71E
:1041400040F25820C2F2000000680590FFE74EF2EE
:104150001001CEF20001086820F0010008604EF264
:104160001800CEF20000026840F2EC10C2F200002B
:1041700000680599013900FB01200490049840F281
:10418000E811C2F200010968884209D9FFE740F24C
:10419000E810C2F2000001680498401A0490FFE79A
:1041A00072B6BFF34F8FBFF36F8FFDF7D5F9D8B954
:1041B000FFE74EF21800CEF2000000684EF2140144
:1041C000CEF2000108604EF21002CEF2000210683A
:1041D00040F00100106040F2EC10C2F200000068F4
:1041E0000138086062B6A3E004984EF21401CEF2E2
:1041F000000108604EF21801CEF2000100200860B4
:104200004EF21001CEF20001086840F00100086093
:1042100005980190019830B1FFE7BFF34F8F30BF91
:10422000BFF36F8FFFE762B6BFF34F8FBFF36F8FA0
:1042300072B6BFF34F8FBFF36F8F4EF21000CEF206
:104240000000062101600068C003002833D5FFE7A5
:1042500040F2EC10C2F200000068049A4EF218011D
:10426000CEF200010968891A0844013800900098CC
:1042700040F2E811C2F200010968884209D3FFE761
:10428000009840F2EC11C2F200010968884208D996
:10429000FFE740F2EC10C2F2000000680138009025
:1042A000FFE700984EF21401CEF200010860059875
:1042B000013803901EE0059840F2EC11C2F20001B3
:1042C0000A6850434EF21802CEF200021268801AB9
:1042D000029002980A68B0FBF2F003900398013054
:1042E000096848430299401A4EF21401CEF20001C7
:1042F0000860FFE74EF21801CEF2000100200860CE
:104300004EF21001CEF20001086840F00100086092
:10431000039800F043FA40F2EC10C2F2000000688B
:1043200001384EF21401CEF20001086062B6FFE7D8
:1043300006B080BD84B0EFF305800190019810288D
:104340001ED3FFE701984EF2F031CEF20001405C3F
:104350008DF803009DF8030040F2E011C2F2000165
:10436000097888420BDAFFE74FF0500080F311889C
:10437000BFF36F8FBFF34F8F0290FFE7FEE7FFE7BA
:104380004EF60C50CEF20000006800F4E06040F2FF
:10439000E411C2F20001096888420BD9FFE74FF02F
:1043A000500080F31188BFF36F8FBFF34F8F0390DE
:1043B000FFE7FEE704B0704780B584B00390029138
:1043C000019203980090FFF711FE009890F94400C5
:1043D000013028B9FFE70099002081F84400FFE789
:1043E000009890F94500013028B9FFE700990020B6
:1043F00081F84500FFE7FFF725FE0098806B38B98C
:10440000FFE7009824300299019A00F0A7F800E035
:10441000FFE70098FEF748FF04B080BD81B08DF83B
:104420000300FFE743F60000C4F20100006800F05B
:104430008000802802D0FFE700BFF3E79DF803006B
:1044400043F60401C4F20101086001B070470000A6
:1044500081B000900099012081F8F00001B0704710
:1044600081B00090009901204875009900200875DE
:1044700001B0704780B584B002900020019002988E
:10448000E0B1FFE740F2F810C2F20000006858B156
:10449000FFE74FF0500080F31188BFF36F8FBFF339
:1044A0004F8F0390FFE7FEE700F05CFA02980021CF
:1044B000FDF7F2FF01F086FA019000E0FFE70198B6
:1044C00060B9FFE74EF60451CEF200014FF0805084
:1044D0000860BFF34F8FBFF36F8F00E0FFE704B0BA
:1044E00080BD000081B0009040F26020C2F2000068
:1044F00000680099086040F2A820C2F2000000683D
:104500000099486001B0704740F2B421C2F2000146
:10451000012008607047000080B584B002900191CE
:10452000029858B9FFE74FF0500080F31188BFF3AD
:104530006F8FBFF34F8F0390FFE7FEE7029840F2C3
:104540003011C2F2000109681831FFF7FBFC019835
:104550000121FDF7A1FF04B080BD000080B586B049
:10456000049003910292049858B9FFE74FF050006D
:1045700080F31188BFF36F8FBFF34F8F0590FFE774
:10458000FEE7049840680190019840F23011C2F2B1
:1045900000010A68D061019880680A6810620868A2
:1045A0001830019A9268506008681830019A90603B
:1045B00004980968886204990868013008600298C4
:1045C00020B1FFE74FF0FF300390FFE70398029917
:1045D000FDF762FF06B080BD80B584B002900298FE
:1045E0000190029858B9FFE74FF0500080F311880E
:1045F000BFF36F8FBFF34F8F0390FFE7FEE7019884
:1046000040F23011C2F200010968884265D0FFE72C
:104610000198002861D0FFE7FFF7E8FC0198FEF75A
:10462000FDFD002855D0FFE701980430FFF71AFC84
:104630000198C16A012000FA01F240F20021C2F2A1
:1046400000010868104308600198C06A00EB800010
:1046500040F24411C2F2000101EB8000406800907A
:104660000098019A906000988068019AD060019843
:104670000430009A9268506001980430009A90606B
:10468000019AD06A00EB800001EB80005061019834
:10469000C06A00EB800251F82200013041F822008C
:1046A0000198C06A40F23011C2F200010968C96A7B
:1046B00088420CD3FFE74EF60451CEF200014FF0D2
:1046C00080500860BFF34F8FBFF36F8F00E0FFE7AC
:1046D00000E0FFE7FFF7B6FC00E0FFE704B080BDB5
:1046E00080B586B040F25421C2F2000168464160B4
:1046F0000023036042F6BD10C0F6000046F60E111E
:10470000C0F60001802200F055FE039003980128B6
:1047100004D1FFE701F068FA039000E0FFE7039897
:10472000012823D1FFE74FF0500080F31188BFF339
:104730006F8FBFF34F8F049040F25C21C2F20001F3
:104740004FF0FF30086040F27C21C2F200010120EE
:10475000086040F2A821C2F200010020086000F0C9
:1047600069F908B1FFE700E0FFE70FE003980130C7
:1047700058B9FFE74FF0500080F31188BFF36F8FF7
:10478000BFF34F8F0590FFE7FEE7FFE746F61C10EB
:10479000C0F60000006806B080BD000082B0009046
:1047A00040F2A820C2F2000000680099084440F2DC
:1047B0005C21C2F20001096888420BD9FFE74FF083
:1047C000500080F31188BFF36F8FBFF34F8F0190BC
:1047D000FFE7FEE7009A40F2A821C2F20001086854
:1047E0001044086002B0704780B586B00490FFF7AF
:1047F000FDFB049838B9FFE740F23010C2F2000028
:104800000068019002E004980190FFE7019803908E
:1048100003980430FFF726FBD0B9FFE70398C06A7E
:1048200000EB800140F24410C2F2000050F8210079
:1048300068B9FFE70398C16A012000FA01F240F26B
:104840000021C2F20001086890430860FFE700E021
:10485000FFE70398806A28B1FFE703981830FFF755
:1048600001FB00E0FFE70398011D40F28020C2F247
:104870000000FFF79DFB00200290FFE70298002850
:1048800014DCFFE703980299084490F854000128CB
:1048900007D1FFE7039802990144002081F85400F2
:1048A000FFE7FFE7029801300290E7E7FFF7CAFB56
:1048B00040F27C20C2F20000006838B1FFE7FFF749
:1048C00095FBFEF71BFCFFF7BDFB00E0FFE703983D
:1048D00040F23011C2F20001096888423ED1FFE780
:1048E00040F27C20C2F200000068F0B1FFE740F225
:1048F000F810C2F20000006858B1FFE74FF0500016
:1049000080F31188BFF36F8FBFF34F8F0590FFE7E0
:10491000FEE74EF60451CEF200014FF080500860E1
:10492000BFF34F8FBFF36F8F17E040F28020C2F2CA
:104930000000006840F2F011C2F2000109688842EC
:1049400007D1FFE740F23011C2F2000100200860F9
:1049500002E000F00FF8FFE7FFE700E0FFE706B036
:1049600080BD000040F2F811C2F200010868013079
:104970000860704785B040F2F810C2F2000000688D
:1049800038B1FFE740F2B421C2F200010120086013
:104990004DE040F2B421C2F200010020086040F274
:1049A0000020C2F20000006803900398B0FA80F083
:1049B0008DF80B009DF80B00C0F11F0001900198CD
:1049C00000EB800140F24410C2F2000050F82100D8
:1049D00058B9FFE74FF0500080F31188BFF36F8F95
:1049E000BFF34F8F0490FFE7FEE7019800EB8001D3
:1049F00040F24410C2F2000000EB810000900099E8
:104A0000486840684860009948680831884205D184
:104A1000FFE70099486840684860FFE700984068F1
:104A2000C06840F23011C2F200010860FFE705B033
:104A30007047000080B586B04EF20040CEF2000014
:104A4000039001780491FF21017000788DF80B002C
:104A50009DF80B0000F0500040F2E011C2F200019E
:104A6000087040F2E411C2F2000107200860FFE77D
:104A70009DF80B00000600280DD5FFE740F2E41179
:104A8000C2F200010868013808609DF80B00400080
:104A90008DF80B00ECE740F2E410C2F20000006871
:104AA00003280BD0FFE74FF0500080F31188BFF3CD
:104AB0006F8FBFF34F8F0590FFE7FEE740F2E411E1
:104AC000C2F20001086800020860086800F4E060B3
:104AD000086004984EF20041CEF2000108704EF6D4
:104AE0002051CEF20001086840F4E0000860086838
:104AF00040F0E0400860FFF7DBFA40F25001C2F2FC
:104B00000001002001900860FEF796F9FFF732FFE0
:104B1000FEF75EFB019806B080BD000080B588B04E
:104B2000069005918DF8132000200390069880B31D
:104B3000FFE706994FF0FF30B0FBF1F0059988428E
:104B400027D3FFE706980599484310F1550F20D861
:104B5000FFE7069805994843029002985430FEF703
:104B600009FC0390039890B1FFE703980190019826
:104B70005430019006980599019A9DF81330DDF89C
:104B80000CC0EE46CEF800C0FDF766FF00E0FFE780
:104B90000EE0039858B9FFE74FF0500080F31188FA
:104BA000BFF36F8FBFF34F8F0790FFE7FEE7FFE77D
:104BB000039808B080BD000080B586B003900291D4
:104BC0000120019003980090009858B9FFE74FF03A
:104BD000500080F31188BFF36F8FBFF34F8F0490A5
:104BE000FFE7FEE70098002856D0FFE70098C06B6B
:104BF000002851D0FFE70098C26B016C4FF0FF30E6
:104C0000B0FBF2F0884247D3FFE7FFF7EFF90099D6
:104C10000B68C86B0A6C00FB0230886000990020AA
:104C2000886300990868486000990B68C86B0A6C33
:104C3000013800FB0230C8600099FF2081F8440071
:104C4000009981F845000298D0B9FFE70098006903
:104C5000A0B1FFE70098103000F0EAFD60B1FFE777
:104C60004EF60451CEF200014FF080500860BFF3C1
:104C70004F8FBFF36F8F00E0FFE700E0FFE708E032
:104C800000981030FFF73EF900982430FFF73AF90A
:104C9000FFE7FFF7D7F902E000200190FFE7019856
:104CA00058B9FFE74FF0500080F31188BFF36F8FC2
:104CB000BFF34F8F0590FFE7FEE7019806B080BD78
:104CC00080B592B00C900B910A9209930020089045
:104CD0000C980490049858B9FFE74FF0500080F307
:104CE0001188BFF36F8FBFF34F8F0E90FFE7FEE782
:104CF0000B990020029039B9FFE70498006C002856
:104D000018BF01200290FFE70298C00758B1FFE7E3
:104D10004FF0500080F31188BFF36F8FBFF34F8FB8
:104D20000F90FFE7FEE7099900200229019007D1C3
:104D3000FFE70498C06B013818BF01200190FFE71E
:104D40000198C00758B1FFE74FF0500080F3118879
:104D5000BFF36F8FBFF34F8F1090FFE7FEE700F0B8
:104D600075FB01460020009031B9FFE70A98002842
:104D700018BF01200090FFE70098C00758B1FFE777
:104D80004FF0500080F31188BFF36F8FBFF34F8F48
:104D90001190FFE7FEE7FFE7FFF728F90498806B23
:104DA0000499C96B884204D3FFE70998022858D1B7
:104DB000FFE70498806B039004980B99099AFDF71C
:104DC0002DFD07900498806CE0B1FFE70998022858
:104DD00004D1FFE7039808B1FFE712E00498FDF75C
:104DE000BFFF60B1FFE74EF60451CEF200014FF075
:104DF00080500860BFF34F8FBFF36F8F00E0FFE775
:104E0000FFE729E00498406AA0B1FFE70498243046
:104E100000F00EFD60B1FFE74EF60451CEF2000146
:104E20004FF080500860BFF34F8FBFF36F8F00E0EB
:104E3000FFE710E0079860B1FFE74EF60451CEF2AD
:104E400000014FF080500860BFF34F8FBFF36F8FAA
:104E500000E0FFE7FFE7FFE7FFF7F4F801200D9020
:104E600065E00A9828B9FFE7FFF7ECF800200D90FD
:104E70005DE0089830B9FFE705A8FFF733FB012094
:104E8000089000E0FFE7FFE7FFE7FFF7DBF8FFF739
:104E900069FDFFF7ABF8049890F94400013028B998
:104EA000FFE70499002081F84400FFE7049890F997
:104EB0004500013028B9FFE70499002081F845003A
:104EC000FFE7FFF7BFF805A80AA900F0F5F928BB2E
:104ED000FFE70498FDF72CFFC8B1FFE704981030F6
:104EE0000A99FFF719FB0498FEF7DEF900F06AFD56
:104EF00060B9FFE74EF60451CEF200014FF080504A
:104F00000860BFF34F8FBFF36F8FFFE705E0049892
:104F1000FEF7CAF900F056FDFFE707E00498FEF738
:104F2000C3F900F04FFD00200D9000E034E70D982C
:104F300012B080BD80B592B00A9009910892079393
:104F40000A980490049858B9FFE74FF0500080F396
:104F50001188BFF36F8FBFF34F8F0B90FFE7FEE712
:104F600009990020019039B9FFE70498006C0028E6
:104F700018BF01200190FFE70198C00758B1FFE773
:104F80004FF0500080F31188BFF36F8FBFF34F8F46
:104F90000C90FFE7FEE7079900200229009007D157
:104FA000FFE70498C06B013818BF01200090FFE7AD
:104FB0000098C00758B1FFE74FF0500080F3118808
:104FC000BFF36F8FBFF34F8F0D90FFE7FEE7FFF743
:104FD000B1F9EFF311814FF0500080F31188BFF366
:104FE0006F8FBFF34F8F0F910E900F98059004981D
:104FF000806B0499C96B884204D3FFE707980228A5
:1050000061D1FFE7049890F845008DF80F000498EF
:10501000806B029004980999079AFDF7FFFB9DF9B0
:105020000F000130A8BBFFE70498806CC8B1FFE710
:105030000798022804D1FFE7029808B1FFE70FE0C4
:105040000498FDF78DFE48B1FFE7089820B1FFE70F
:1050500008990120086000E0FFE700E0FFE7FFE7B4
:1050600016E00498406A88B1FFE70498243000F005
:10507000DFFB48B1FFE7089820B1FFE7089901205E
:10508000086000E0FFE700E0FFE700E0FFE7FFE780
:1050900016E09DF90F007F280BD1FFE74FF050007D
:1050A00080F31188BFF36F8FBFF34F8F1090FFE72E
:1050B000FEE79DF80F000130049981F84500FFE7F5
:1050C0000120069002E000200690FFE7059811906D
:1050D000119880F31188069812B080BD80B58EB00B
:1050E0000990089107920020069009980390039870
:1050F00058B9FFE74FF0500080F31188BFF36F8F6E
:10510000BFF34F8F0B90FFE7FEE708990020019057
:1051100039B9FFE70398006C002818BF01200190FF
:10512000FFE70198C00758B1FFE74FF0500080F348
:105130001188BFF36F8FBFF34F8F0C90FFE7FEE72F
:1051400000F084F901460020009031B9FFE707988C
:10515000002818BF01200090FFE70098C00758B151
:10516000FFE74FF0500080F31188BFF36F8FBFF35C
:105170004F8F0D90FFE7FEE7FFE7FEF737FF03983D
:10518000806B0290029830B3FFE703980899FDF70F
:1051900023FB029801380399886303980069A0B142
:1051A000FFE70398103000F043FB60B1FFE74EF6D5
:1051B0000451CEF200014FF080500860BFF34F8FD2
:1051C000BFF36F8F00E0FFE700E0FFE7FEF73AFF75
:1051D00001200A906DE0079828B9FFE7FEF732FF3B
:1051E00000200A9065E0069830B9FFE704A8FFF7B1
:1051F00079F90120069000E0FFE7FFE7FFE7FEF7FF
:1052000021FFFFF7AFFBFEF7F1FE039890F9440092
:10521000013028B9FFE70399002081F84400FFE737
:10522000039890F94500013028B9FFE70399002061
:1052300081F84500FFE7FEF705FF04A807A900F085
:105240003BF830BBFFE70398FDF75EFDD0B1FFE709
:10525000039824300799FFF75FF90398FEF724F8C5
:1052600000F0B0FB60B9FFE74EF60451CEF200014A
:105270004FF080500860BFF34F8FBFF36F8F00E097
:10528000FFE705E00398FEF70FF800F09BFBFFE750
:105290000EE00398FEF708F800F094FB0398FDF782
:1052A00033FD18B1FFE700200A9002E0FFE7FFE7B7
:1052B00063E70A980EB080BD80B588B00590049170
:1052C000059858B9FFE74FF0500080F31188BFF3FD
:1052D0006F8FBFF34F8F0690FFE7FEE7049858B932
:1052E000FFE74FF0500080F31188BFF36F8FBFF3DB
:1052F0004F8F0790FFE7FEE7FEF778FE40F2A82009
:10530000C2F2000000680290029805994968401AAC
:10531000019040F23010C2F20000006890F8550091
:1053200058B1FFE740F23010C2F2000001680020DF
:1053300081F855000120039037E00498006801309F
:1053400018B9FFE7002003902EE040F26020C2F27F
:10535000000000680599096888420CD0FFE70298B0
:1053600005994968884206D3FFE701200390049914
:105370000020086017E001980499096888420BD260
:10538000FFE7019A04990868801A08600598FFF7FA
:10539000A9F80020039005E004990020086001208E
:1053A0000390FFE7FFE7FFE7FFE7FEF74BFE0398F9
:1053B00008B080BD70B58CB0DDF844C0DDF840C0E9
:1053C0000B900A91ADF826200893BDF826008000C6
:1053D000FDF7D0FF0590059880B1FFE75820FDF755
:1053E000C9FF0790079820B1FFE705980799086360
:1053F00003E00598FEF74CFEFFE702E0002007906F
:10540000FFE70798D8B1FFE70B980A99BDF8262067
:10541000089BDDF840C0119C079DEE460026CEF8A3
:105420000C60CEF80850CEF80440CEF800C0FDF76E
:105430003BFB0798FDF7C2F80120069003E04FF010
:10544000FF300690FFE706980CB070BD81B040F2C7
:105450007C20C2F20000006818B9FFE7012000902C
:105460000DE040F2F810C2F20000006818B9FFE742
:105470000220009002E000200090FFE7FFE7009884
:1054800001B0704781B040F2A820C2F2000000686D
:105490000090009801B0704780B58AB00020069057
:1054A00040F2F810C2F200000068002840F01981B4
:1054B000FFE740F2A821C2F2000108680130059020
:1054C00005980860059858BBFFE740F23810C2F213
:1054D00000000068006858B1FFE74FF0500080F30B
:1054E0001188BFF36F8FBFF34F8F0990FFE7FEE77F
:1054F00040F23812C2F200021068049040F23C11EF
:10550000C2F20001086810600498086040F260214F
:10551000C2F20001086801300860FDF7EFFD00E00D
:10552000FFE7059840F25C21C2F200010968884259
:10553000C0F0B680FFE7FFE740F23810C2F200008B
:105540000068006840B9FFE740F25C21C2F2000148
:105550004FF0FF300860A2E040F23810C2F20000C5
:105560000068C068C068089008984068079005986F
:105570000799884207D2FFE7079840F25C21C2F200
:10558000000108608BE0FFE70898406903900898E5
:105590008168C068886008998868C968486003980D
:1055A000406808990431884205D1FFE70898C0682F
:1055B00003994860FFE7089900204861039908684B
:1055C000013808600898806AF8B1FFE70898806A97
:1055D00002900898C169006A88600899C869096AD8
:1055E00048600298406808991831884205D1FFE761
:1055F0000898006A02994860FFE7089900208862CD
:10560000029908680138086000E0FFE70898C16A5D
:10561000012000FA01F240F20021C2F20001086804
:10562000104308600898C06A00EB800040F2441103
:10563000C2F2000101EB8000406801900198089AD5
:10564000906001988068089AD06008980430019AA8
:105650009268506008980430019A9060089AD06A65
:1056600000EB800001EB800050610898C06A00EBFD
:10567000800251F82200013041F822000898C06AE7
:1056800040F23011C2F200010968C96A884203D3AE
:10569000FFE70120069000E0FFE7FFE74CE7FFE7A8
:1056A00040F23010C2F200000068C06A00EB8001D6
:1056B00040F24410C2F2000050F82100022803D347
:1056C000FFE70120069000E0FFE740F2B420C2F2BD
:1056D0000000006818B1FFE70120069000E0FFE736
:1056E00007E040F26421C2F200010868013008605E
:1056F000FFE706980AB080BD80B586B00390039896
:105700000290002001900398002800F08D80FFE7B0
:10571000029840F23011C2F20001096888420BD0B1
:10572000FFE74FF0500080F31188BFF36F8FBFF396
:105730004F8F0490FFE7FEE70298C06C58B9FFE76F
:105740004FF0500080F31188BFF36F8FBFF34F8F7E
:105750000590FFE7FEE70299C86C0138C86402991A
:10576000C86A896C88425DD0FFE70298C06C002847
:1057700056D1FFE702980430FEF774FB68B9FFE7E3
:105780000298C16A012000FA01F240F20021C2F23F
:10579000000108689043086000E0FFE70299886C08
:1057A000C8620299C86AC0F1050088610298C16A9E
:1057B000012000FA01F340F20022C2F20002116857
:1057C000194311600299C96A01EB810140F2441248
:1057D000C2F2000202EB8101496800910099029B2C
:1057E000996000998968029BD96002990431009BF5
:1057F0009B68596002990431009B9960029BD96AA9
:1058000001EB810102EB810159610299C96A01EB47
:10581000810352F82310013142F82310019000E077
:10582000FFE700E0FFE700E0FFE7019806B080BD7A
:1058300080B588B006900698C068C0680590059845
:1058400058B9FFE74FF0500080F31188BFF36F8F16
:10585000BFF34F8F0790FFE7FEE70598806A03903C
:105860000598C169006A88600599C869096A486035
:105870000398406805991831884205D1FFE70598DB
:10588000006A03994860FFE7059900208862039940
:1058900008680138086040F2F810C2F200000068A1
:1058A000002859D1FFE70598406902900598816862
:1058B000C068886005998868C9684860029840682F
:1058C00005990431884205D1FFE70598C06802991F
:1058D0004860FFE70599002048610299086801388F
:1058E00008600598C16A012000FA01F240F2002127
:1058F000C2F200010868104308600598C06A00EB16
:10590000800040F24411C2F2000101EB80004068C7
:1059100001900198059A906001988068059AD0607E
:1059200005980430019A9268506005980430019AF5
:105930009060059AD06A00EB800001EB8000506116
:105940000598C06A00EB800251F82200013041F84E
:105950002200FDF7D3FB1BE040F26821C2F20001F8
:10596000486800900098059AD06100988068059A70
:10597000106205981830009A9268506005981830A7
:10598000009A906005988162086801300860FFE71E
:105990000598C06A40F23011C2F200010968C96A74
:1059A000884208D9FFE70120049040F2B421C2F2F6
:1059B0000001086002E000200490FFE7049808B0AE
:1059C00080BD000080B588B000200690059040F2B0
:1059D000F810C2F20000006858B9FFE74FF050001D
:1059E00080F31188BFF36F8FBFF34F8F0790FFE7EE
:1059F000FEE7FEF7FBFA40F2F810C2F20000016881
:105A0000013901600068002840F0E780FFE740F2BC
:105A1000F010C2F200000068002800F0DD80FFE70F
:105A2000FFE740F26820C2F200000068002800F0A2
:105A30009080FFE740F26820C2F20000C068C068B2
:105A400006900698806A04900698C169006A88608A
:105A50000699C869096A486004984068069918312F
:105A6000884205D1FFE70698006A04994860FFE77D
:105A70000699002088620499086801380860069831
:105A80004069039006988168C068886006998868B4
:105A9000C96848600398406806990431884205D176
:105AA000FFE70698C06803994860FFE70699002061
:105AB000486103990868013808600698C16A0120A6
:105AC00000FA01F240F20021C2F20001086810431E
:105AD00008600698C06A00EB800040F24411C2F2F0
