:020000040800F2
:10000000B0430020D5010008DD010008DF01000831
:10001000E1010008E3010008E5010008000000001C
:100020000000000000000000000000006106000861
:10003000E90100080000000011060008A5060008FC
:10004000EF010008EF010008EF010008EF010008D0
:10005000EF010008EF010008EF010008EF010008C0
:10006000EF010008EF010008EF010008EF010008B0
:10007000EF010008EF010008EF010008EF010008A0
:10008000EF010008EF010008EF010008EF01000890
:10009000EF010008EF010008EF010008EF01000880
:1000A000EF010008EF010008EF0100084907000810
:1000B000EF010008EF010008EF010008EF01000860
:1000C000EF010008EF010008EF010008EF01000850
:1000D000EF01000829080008EF010008EF010008FF
:1000E000EF010008EF010008EF010008EF01000830
:1000F000EF010008EF010008EF010008EF01000820
:10010000EF010008EF010008EF010008EF0100080F
:10011000EF010008EF010008EF010008EF010008FF
:10012000EF010008EF010008EF010008EF010008EF
:1001300000F002F800F03EF80AA090E8000C8244BB
:100140008344AAF10107DA4501D100F033F8AFF298
:10015000090EBAE80F0013F0010F18BFFB1A43F0A5
:1001600001031847F462000014630000103A24BF32
:1001700078C878C1FAD8520724BF30C830C144BF0C
:1001800004680C607047000000230024002500264E
:10019000103A28BF78C1FBD8520728BF30C148BFEA
:1001A0000B6070471FB59DE8030000F0F5F81FBD18
:1001B00010B510BD00F0A6F91146FFF7F3FF01F0EE
:1001C00095FB00F0C4F903B4FFF7F2FF03BC00F0A5
:1001D000F5F900000948804709480047FEE7FEE7B7
:1001E000FEE7FEE7FEE7FEE7FEE7FEE7FEE7FEE7E7
:1001F00004480549054A064B70470000E10600081F
:1002000031010008B0030020B0430020B0230020DB
:10021000B023002070B5064600F0A2F8056806F18C
:100220000B0020F00704B4429CBF002070BD2B4699
:100230006A68BAB11068A04210D304F1080188427C
:100240003CBF5068586007D351681019416011686D
:10025000091B016058601460101D70BD1346526880
:10026000002AE7D12146284600F082F80028DED196
:1002700070BD70B50446051F00F072F80068002CD0
:1002800014BF446870BD002C18BFAC423CBF204670
:100290006468F8D301680A18AA4218BF456003D100
:1002A0002A6805461144016028684119A1421CBF13
:1002B0006C6070BD6168696021680844286070BD29
:1002C000032A40F2308010F0030C00F0158011F882
:1002D000013BBCF1020F624498BF11F801CB00F85A
:1002E000013B38BF11F8013BA2F1040298BF00F8AE
:1002F00001CB38BF00F8013B11F0030300F082800E
:10030000083AC0F0088051F8043B083A51F804CB91
:10031000A0E80810F5E7121D5CBF51F8043B40F857
:10032000043BAFF30080D20724BF11F8013B11F862
:1003300001CB48BF11F8012B24BF00F8013B00F8A6
:1003400001CB48BF00F8012B704702F0FF0343EADE
:10035000032242EA024200F089B8704770477047B2
:100360000048704750000020704770477047704742
:1003700038B504460A4600206946AFF300800028DD
:1003800008BF38BD02460099204600F099F80120C8
:1003900038BD012000F0AEB8F8B5AFF300800546D7
:1003A00000200C46102000BF0646A819A0420DD917
:1003B000324669460020AFF30080070008BF00F016
:1003C00099F80098A04218BF0546C419FFF7C8FF66
:1003D00005600746F01D20F007004619284600F08A
:1003E0000AF8B44208BFF8BDA21B31463868BDE820
:1003F000F84000F065B800210160C0E901107047C5
:100400001020704710B5203AC0F00B80B1E81850AA
:10041000A0E81850B1E81850A0E81850203ABFF4EE
:10042000F5AF5FEA027C24BFB1E81850A0E818508D
:1004300044BF18C918C0BDE810405FEA827C24BFE1
:1004400051F8043B40F8043B08BF7047D20728BF6F
:1004500031F8023B48BF11F8012B28BF20F8023BBE
:1004600048BF00F8012B70474FF0000200B513465B
:1004700094469646203922BFA0E80C50A0E80C50C4
:10048000B1F12001BFF4F7AF090728BFA0E80C5075
:1004900048BF0CC05DF804EB890028BF40F8042B6E
:1004A00008BF704748BF20F8022B11F0804F18BFDB
:1004B00000F8012B704700000048704748000020FA
:1004C000034640688C46002818BF88423CBF03465C
:1004D0004068F8D318681844884207D00CF103002C
:1004E00020F00700001D411A521A0146081D0A603B
:1004F000FFF7BFBE10B500F039F8BDE8104000F0BE
:100500002FB870477546FFF7D7FFAE46050069461E
:10051000534620F00700854618B020B5FFF768FE67
:10052000BDE820404FF000064FF000074FF00008F4
:100530004FF0000BAC46ACE8C009ACE8C009ACE831
:10054000C009ACE8C00921F007018D46704710B51D
:100550000446AFF300802046BDE81040FFF733BEED
:10056000002801D000F02AB87047000010B501281B
:1005700005D0002103A000F027F8012010BD09A13B
:10058000F8E7000053494752544D454D3A204F7506
:1005900074206F662068656170206D656D6F72797B
:1005A000000000003A2048656170206D656D6F7233
:1005B0007920636F72727570746564000149182048
:1005C000ABBEFEE72600020070B505460C460A20C9
:1005D00000E06D1C00F011F835B128780028F8D142
:1005E00002E0641C00F009F814B120780028F8D16A
:1005F000BDE870400A20AFF3008008B569468DF869
:1006000000000320ABBE08BDFFE700BFFDE7000010
:10061000EFF30980BFF36F8F0D4B1A6820E9F00FDD
:1006200010602DE908404FF0500080F3118803F06E
:10063000EFFF4FF0000080F31188BDE80840196813
:100640000868B0E8F00F80F30988BFF36F8F704738
:100650002002002000000000000000000000000058
:10066000074B19680868B0E8F00F80F30988BFF3FA
:100670006F8F4FF0000080F311884EF00D0E704721
:100680002002002080B500F027F900F063F900F0A7
:1006900027FB00F085FA00F0B3FA00F0DBFA00F077
:1006A000F7F880BD80B582B04FF0500080F311881C
:1006B000BFF36F8FBFF34F8F009004F03BFD40B14D
:1006C000FFE74EF60451CEF200014FF08050086073
:1006D000FFE700200190019880F3118802B080BDEF
:1006E00080B541F20001C4F20201086840F0010047
:1006F000086041F20403C4F2020318680C22CEF62B
:10070000FF021040186008684FF6FF72CFF6F662DD
:1007100010400860086820F48020086018684FF6D0
:10072000FF7CCFF2007C00EA0C00186008681040E3
:10073000086041F20801C4F202014FF41F00086092
:1007400002F058FF80BD000080B542F60040C4F2C0
:100750000100022102F05CFF012819D1FFE742F6F7
:100760000040C4F20100022102F048FF40F2B8024A
:10077000C2F200020020106042F63441C4F20101CE
:100780000968918042F62441C4F20101086025E025
:1007900042F60040C4F20100042102F039FF0128B2
:1007A0001AD1FFE742F60040C4F20100042102F032
:1007B00025FF40F2B801C2F200010120086042F6B4
:1007C0003840C4F201000068888042F62441C4F237
:1007D00001010020086000E0FFE7FFE740F2B800F9
:1007E000C2F20000808863280BD8FFE740F2B8000F
:1007F000C2F200000068B0FA80F0400900F0AEFEDE
:1008000003E0012000F0AAFEFFE740F2F810C2F278
:100810000000006840F2B801C2F2000100231A464D
:1008200004F0D6F980BD00007047000080B582B0AA
:100830008DF807008DF806109DF8060000F05CF9B1
:100840009DF8070000F0FAF89DF8060000F07EF928
:1008500002B080BD83B00290029800F007000090C3
:100860004EF60C51CEF200010868019001984FF647
:10087000FF02104001900198009A40EA02200022F5
:10088000C0F2FA52104301900198086003B070471B
:1008900080B582B042F20040C4F20100019000F045
:1008A00051FB0020009000F0BBFB0099019800F084
:1008B00035FB009B019842F20842C4F20102116824
:1008C00041F4602111600322194600F0B9FB019840
:1008D00000F072FB02B080BD80B541F21801C4F295
:1008E0000201086840F01C000860086840F480407D
:1008F0000860086840F400600860086840F4007010
:10090000086041F21401C4F20201086840F00300DB
:10091000086041F21C01C4F20201086840F00100C5
:100920000860086840F002000860086840F00400B1
:100930000860032002F0C4FB80BD000080B582B0D7
:100940000190019805F0DEFB40F2D941484380B2A6
:1009500002B080BD80B58AB041F20000C4F201004F
:1009600010210891012209924FF4005300F000FF7A
:10097000099B40F60000C4F20100059048210322C3
:10098000029200F0F5FE029A059808994FF48063F0
:10099000049300F0EDFE029A0899099B40F600408E
:1009A000C4F20100079000F0E3FE029A07981821B4
:1009B0000091022300F0DCFE0099029A0598099B41
:1009C00000F0D6FE029A059828214FF4807300F0BB
:1009D000CFFE029A0598002101910423039300F0B1
:1009E000C7FE0199029A0598082300F0C1FE039BF7
:1009F00007980899099A00F0BBFE049B079808998C
:100A0000099A00F0B5FE05980899099A8023069383
:100A100000F0AEFE05980899099A202300F0A8FE80
:100A2000069B07980899099A00F0A2FE0798089972
:100A3000099A402300F09CFE0AB080BD81B08DF879
:100A4000030000208DF80200FFE79DF80200012856
:100A500017DCFFE740F60C01C4F20101086820F042
:100A600080000860086840F020000860086820F0F6
:100A700020000860FFE79DF8020001308DF80200B9
:100A8000E3E700208DF80200FFE79DF80200072849
:100A900030DCFFE79DF803000006002809D5FFE7DA
:100AA00040F60C01C4F20101086840F080000860C3
:100AB00008E040F60C01C4F20101086820F0800053
:100AC0000860FFE740F60C01C4F20101086840F03D
:100AD000200008609DF8030040008DF803000868BE
:100AE00020F020000860FFE79DF8020001308DF83B
:100AF0000200CAE701B0704781B08DF803009DF88D
:100B0000030048B9FFE740F60C41C4F20101086850
:100B100020F0040008600EE09DF80300012809D1D0
:100B2000FFE740F60C41C4F20101086820F4806040
:100B30000860FFE7FFE740F60C01C4F20101086816
:100B400020F02000086001B07047000081B08DF8EF
:100B500003009DF8030048B9FFE740F60C41C4F2DA
:100B60000101086840F0040008600EE09DF80300F1
:100B7000012809D1FFE740F60C41C4F201010868E1
:100B800040F480600860FFE7FFE740F60C01C4F224
:100B90000101086820F02000086001B070470000E3
:100BA00042F62841C4F2010142F62F20086042F6C5
:100BB0002C41C4F201014FF6FF70086042F6184163
:100BC000C4F20101086840F201221043086042F6B5
:100BD0002041C4F20101086840F03100086042F68B
:100BE0000C41C4F20101086840F00600086042F6BA
:100BF0000041C4F20101086840F00100086070473C
:100C00002821C4F2000140F2374008602C21C4F2D0
:100C100000014FF47A7008604FF08041086840F09E
:100C2000800008601822C4F20002106840F06000E2
:100C300010603422C4F20002642010602022C4F24A
:100C40000002106840F001001060086840F00100E8
:100C50000860704740F22841C4F2000140F237407A
:100C6000086040F22C41C4F200014FF47A70086031
:100C700040F20041C4F20001086840F080000860C2
:100C800040F21C42C4F20002106840F4C040106000
:100C900040F24042C4F200026420106040F23C4244
:100CA000C4F20002106040F22042C4F20002106858
:100CB00040F480501060086840F001000860704700
:100CC00080B582B0ADF80600BDF8060005F036FA32
:100CD00049F69A11C4F29A2105F01EF902B080BDBE
:100CE00080B582B043F60000C4F20100019002F02A
:100CF0007DFE01984FF4E13102F012FE01980021CF
:100D000002F0DAFE0198082102F0E6FE00F024FD70
:100D100040F60000C4F20100182103224FF40073D2
:100D200000F026FD019802F0BDFE02B080BD00007B
:100D300080B586B0059000208DF81300022000F0E9
:100D400041FA40F2E800C2F2000003F0CFF940F2AD
:100D5000C000C2F2000003F0D1F9FFE740F2E81052
:100D6000C2F20000006840F2E201C2F2000100227B
:100D700004F002F8012840F0B680FFE740F2C0001E
:100D8000C2F200008069002800F0AB80FFE740F26B
:100D9000DC00C2F200000068039048B1FFE703984E
:100DA000012859D0FFE70398022800F0888097E0D7
:100DB00040F2E200C2F20000018840F2C000C2F23C
:100DC0000000029002F0C2FE0298007D0B283FD185
:100DD000FFE740F2C000C2F2000002F033FC01461F
:100DE00040F2E000C2F200000180008801904FF064
:100DF0007C50FFF7A3FD01460198884207DAFFE720
:100E000040F2DC01C2F20001022008601FE040F263
:100E1000E000C2F20000008800904CF6CD40C4F221
:100E20002C00FFF78BFD01460098884207DDFFE7A5
:100E300040F2DC01C2F200010220086006E040F24C
:100E4000DC01C2F2000101200860FFE7FFE7FFE7D5
:100E5000642003F05DF943E040F2E200C2F20000DA
:100E6000038840F2DC10C2F2000040F2E601C2F258
:100E7000000140F2E502C2F2000200F08DFAC0B1BA
:100E8000FFE740F2E600C2F20000008802F008FC32
:100E9000014640F2E400C2F200000170017840F225
:100EA000E800C2F2000002F049FC0021FFF7BEFC9E
:100EB00001E000BFFFE7642003F02AF910E040F2F0
:100EC000DC01C2F200010020086040F2C000C2F262
:100ED000000003F013F94FF47A7003F019F9FFE7FB
:100EE00000E0FFE7FFE739E780B582B00190FA2024
:100EF0008DF80300FFE79DF80300292809D3FFE7D9
:100F00009DF80300411E8DF803100121FFF78EFCB0
:100F1000FFE7642003F0FCF8EDE7000082B00190E9
:100F20000091009830B1FFE70199886840F40060B3
:100F3000886005E00199886820F400608860FFE718
:100F400002B0704780B586B005900598049042F2D3
:100F50000041C4F20101884210D0FFE7049842F634
:100F60000001C4F20101884211D0FFE7049843F662
:100F70000041C4F20101884212D01AE040F2093067
:100F8000039002F0B1F9039802F09CF912E040F2EC
:100F90000A30029002F0A8F9029802F093F909E0F1
:100FA00040F20F30019002F09FF9019802F08AF9A7
:100FB00000E0FFE706B080BD81B000900098806837
:100FC000C00730B9FFE70099886840F001008860E9
:100FD000FFE701B07047000082B001900091009AD5
:100FE000019908689043086002B0704783B002908E
:100FF000019100200090029800680199084203D0F6
:10100000FFE701200090FFE7009803B07047000061
:1010100042F23440C4F20100006800F01F00704743
:1010200081B0009042F20441C4F20101086820F44A
:1010300070200860009A08681043086001B070478B
:1010400085B004908DF80F108DF80E2002939DF856
:101050000F0005281CDCFFE70498406B01909DF809
:101060000F0000EB80011F2000FA01F10198884376
:1010700001909DF80E009DF80F1001EB810100FA20
:1010800001F10198084301900198049948634AE0EE
:101090009DF80F000B281FDCFFE70498006B019000
:1010A0009DF80F0000EB8000A0F11E011F2000FA48
:1010B00001F10198884301909DF80E009DF80F10F2
:1010C00001EB81011E3900FA01F1019808430190FA
:1010D00001980499086325E09DF80F000F281FDC94
:1010E000FFE70498C06A01909DF80F0000EB8000B4
:1010F000A0F13C011F2000FA01F101988843019002
:101100009DF80E009DF80F1001EB81013C3900FAAB
:1011100001F101980843019001980499C86200E028
:10112000FFE7FFE7FFE79DF80E0009281BDCFFE75C
:101130000498006900909DF80E0000EB4001072024
:1011400000FA01F100988843009002989DF80E1073
:1011500001EB410100FA01F100980843009000986A
:101160000499086124E09DF80E0011281EDCFFE7B9
:101170000498C06800909DF80E0000EB4000A0F1BC
:101180001E01072000FA01F10098884300900298A0
:101190009DF80E1001EB41011E3900FA01F1009893
:1011A0000843009000980499C86000E0FFE7FFE75B
:1011B00005B0704781B000900098C06C80B201B05B
:1011C0007047000081B08DF803009DF803000228ED
:1011D0000DD1FFE742F23441C4F20101086820F06A
:1011E0001F000860086840F00200086014E09DF8E5
:1011F000030003280DD1FFE742F23441C4F201019C
:10120000086820F01F000860086840F003000860CC
:1012100001E000BFFFE7FFE701B0704782B0019037
:101220008DF803109DF80300C00730B1FFE7019966
:10123000886840F480008860FFE79DF8030080071D
:10124000002806D5FFE70199886840F400108860FF
:10125000FFE702B07047000080B582B00190FFE761
:1012600042F20040C4F201000221FFF7BFFEB8B312
:10127000FFE742F20040C4F201000221FFF7ACFE9A
:10128000FFF7C6FE022819D1FFE742F20040C4F280
:101290000100FFF78FFF000940F2EC11C2F20001DC
:1012A000088040F2E810C2F20000006800231A46ED
:1012B00003F054FB0320FFF785FF10E042F20040EB
:1012C000C4F20100FFF776FF010940F2A420C2F248
:1012D000000000F011F80220FFF774FFFFE7FFE7BE
:1012E00042F20040C4F201000121FFF797FF3220D3
:1012F00002F00EFFB4E7000082B00190ADF80210DA
:101300000198007809280AD8FFE7BDF80200019B80
:101310001A7803EB420101321A7048800CE00199FF
:1013200000200870BDF80200019B1A7803EB42010F
:1013300001321A704880FFE702B0704781B0009018
:101340000098008800097C2815D8FFE700990888D4
:101350000130088040F60800C4F201000068C005B2
:10136000002805D5FFE7009948880130488001E052
:1013700000BFFFE7FFE700980088B0F5FA6F04D1DF
:10138000FFE700990120486003E0009900204860D1
:10139000FFE701B07047000085B00490039102920E
:1013A000ADF80630002000900298007809280BD88C
:1013B000FFE7BDF806200499086810440860029908
:1013C0000878013008700DE0049800684CF6CD41B3
:1013D000CCF6CC41A0FB0110C00803990880012085
:1013E0000090FFE7009805B07047000081B00090C2
:1013F0000098012807D1FFE74FF08041086820F0EE
:10140000010008600EE0009848B9FFE740F2004193
:10141000C4F20001086820F00100086001E000BF8C
:10142000FFE7FFE701B0704782B001200190009014
:1014300040F26030C2F20000006818B1FFE70020FF
:10144000009028E040F2AC30C2F20000006818B111
:10145000FFE7002000901DE040F25C30C2F2000087
:10146000006818B1FFE70020009012E040F27830E9
:10147000C2F20000006840F2E821C2F200010968EF
:101480000139884203D1FFE70220009000E0FFE726
:10149000FFE7FFE7FFE7009802B0704781B00090D8
:1014A0000098012807D1FFE74FF08041086840F01D
:1014B000010008600EE0009848B9FFE740F20041E3
:1014C000C4F20001086840F00100086001E000BFBC
:1014D000FFE7FFE701B0704740F60C41C4F201019D
:1014E000086880F08000086040F2A020C2F200008E
:1014F000006840F21C21C2F200010968084348B1AB
:10150000FFE741F20C01C4F20101086880F40050C9
:10151000086008E041F20C01C4F20101086820F4FF
:1015200000500860FFE7704781B0009000990020EC
:101530000880009948800099486001B07047000019
:1015400080B582B001900198C16943F23330C3F68F
:10155000D37004F0E1FC02B080BD000081B00090C7
:10156000009848B1FFE740F60C41C4F20101086859
:1015700020F00100086008E040F60C41C4F20101CF
:10158000086840F001000860FFE701B07047000004
:1015900083B00290002001908DF80300FFE79DF8D2
:1015A0000300092810D8FFE702989DF8031000EB0C
:1015B00041004188019808440190FFE79DF803002D
:1015C00001308DF80300EAE7019880B24CF6CD4176
:1015D000CCF6CC41A0FB0110C00803B0704700005E
:1015E00080B584B08DF80F009DF80F000A2803D84D
:1015F000FFE700F045F841E040F21820C2F2000099
:101600000068A8B9FFE740F21820C2F2000069465E
:1016100048600120086043F22500C0F6000046F251
:101620003841C0F600018022002303F011FD07E0DD
:1016300040F21820C2F20000006802F01BFEFFE733
:101640000020FFF72BFF9DF80F00282805D8FFE7A3
:1016500001201E2101F01EFF0FE09DF80F00502811
:1016600005D8FFE70120322101F014FF04E001203A
:10167000502101F00FFFFFE7FFE7FFE704B080BD57
:1016800080B540F21820C2F20000006840B1FFE7C8
:1016900040F21820C2F20000006802F0F3FEFFE7FB
:1016A0000120FFF7A3FE00200A2101F0F3FE80BD18
:1016B00081B0009000994888642250430988B0FBAB
:1016C000F1F0C0B201B0704780B584B00390002043
:1016D0008DF80B00FFE79DF80B100120019089B1F8
:1016E000FFE7039880699DF80B2040F20401C2F2E5
:1016F000000151F8221004F0FCFB002818BF012063
:101700000190FFE70198C00730B1FFE79DF80B009B
:1017100001308DF80B00DEE79DF80B0000EB800038
:101720000538C0B204B080BD80B582B00190019888
:10173000FFF72EFFFFF7C4FA0199C8610198FFF780
:10174000FFFE019988610198FFF7BEFF019981F8BA
:10175000200002B080BD000080B582B04FF4407020
:10176000019001F0C1FD019801F0ACFD02B080BD17
:1017700087B0069005910492039300200190009099
:10178000059800F00F0001909DF81400C006002895
:1017900005D5FFE70499019808430190FFE7002071
:1017A000ADF80A00FFE7BDF80A00072842D8FFE7B6
:1017B000BDF80A100398C840C007A0B3FFE7069819
:1017C00000680090BDF80A0081000F2000FA01F1C6
:1017D0000098884300900198BDF80A10890000FA2B
:1017E00001F10098084300900598282809D1FFE7E7
:1017F000BDF80A1001208840039908400699486105
:101800000DE00598482809D1FFE7BDF80A1001202E
:1018100088400399084006990861FFE7FFE70098B0
:1018200006990860FFE7FFE7BDF80A000130ADF850
:101830000A00B8E70820ADF80A00FFE7BDF80A0083
:101840000F2846D8FFE7BDF80A100398C840C00724
:10185000C0B3FFE7069840680090BDF80A006FF03B
:101860001F0101EB80020F2000FA02F20098904362
:1018700000900198BDF80A2001EB820100FA01F105
:101880000098084300900598282809D1FFE7BDF883
:101890000A100120884003990840069948610DE02C
:1018A0000598482809D1FFE7BDF80A1001208840B3
:1018B0000399084006990861FFE7FFE70098069939
:1018C0004860FFE7FFE7BDF80A000130ADF80A0005
:1018D000B4E707B07047000080B51B20092211460D
:1018E00000F004FB0020FEF7B5FF80BD80B586B098
:1018F000002004900590FEF7C5FE049A0A2003908C
:10190000082102F059FF049A0146039840F2F813A7
:10191000C2F200031960022102F04EFF40F2E8110A
:10192000C2F20001086040F2A420C2F2000001F0FF
:10193000EDFC049B40F21020C2F2000069464860B2
:101940000120086041F6BD20C0F6000046F24C318F
:10195000C0F600014FF4807203F07AFB012803D037
:10196000FFE7FEF751FEFFE740F29C20C2F20000C5
:10197000694648600120086043F23540C0F6000027
:1019800046F24031C0F600018022002303F060FBE4
:10199000012803D0FFE7FEF737FEFFE740F2F01023
:1019A000C2F20000694648600120086041F25920F7
:1019B000C0F6000046F23731C0F600018022002355
:1019C00003F046FB012803D0FFE7FEF71DFEFFE70B
:1019D00040F2E010C2F20000694648600120086051
:1019E00040F63150C0F6000046F20C31C0F600015E
:1019F0008022002303F02CFB012803D0FFE7FEF731
:101A000003FEFFE740F2E410C2F2000069464860BE
:101A10000120086040F6E960C0F6000046F21A3185
:101A2000C0F600018022002303F012FB012803D03E
:101A3000FFE7FEF7E9FDFFE740F29820C2F2000061
:101A4000694648600120086043F25930C0F6000042
:101A500046F25631C0F600018022002303F0F8FA66
:101A6000012803D0FFE7FEF7CFFDFFE740F2D420C7
:101A7000C2F20000694648600120086043F2E1704C
:101A8000C0F6000046F22831C0F600018022002393
:101A900003F0DEFA012803D0FFE7FEF7B5FDFFE70C
:101AA00040F29820C2F20000006802F0EBFCFFF761
:101AB00013FF02F063FCFFE7FEE7000080B588B08B
:101AC0000790142006900320059000200390FFF754
:101AD0008DFC0120FFF78AFC039840F2A801C2F2B6
:101AE00000010491886040F21C21C2F200010860EC
:101AF000FFF7C6FD0498FFF717FD46F22140C0F638
:101B0000000000F07DFAFFE740F2F410C2F200009E
:101B1000006848B1FFE740F60C41C4F201010868D3
:101B200040F04000086008E040F60C41C4F20101BA
:101B3000086820F040000860FFE740F2A800C2F209
:101B40000000806838B1FFE740F2A800C2F2000050
:101B5000FFF7F4FBFFE740F2B400C2F200000068B8
:101B60000B2816D3FFE740F20C20C2F200000068F9
:101B700078B9FFE7002002900A2101F08BFC02985F
:101B8000FFF78CFC40F20C21C2F20001012008603A
:101B9000FFE740F20820C2F20000007848B1FFE7FA
:101BA00040F2A800C2F20000FFF7BEFCFFF768FD9C
:101BB000FFE740F2B400C2F2000000680599401A45
:101BC00003280FD3FFE740F2F411C2F20001012015
:101BD000086040F2A800C2F20000FFF7A5FCFFF782
:101BE0004FFD06E040F2F411C2F20001002008604F
:101BF000FFE740F2B400C2F20000006840F2FC11BE
:101C0000C2F200010968401A152823D3FFE740F209
:101C10009820C2F20000006880B1FFE740F29820EF
:101C2000C2F20000006802F02DFC40F60C01C4F284
:101C30000101086820F480600860FFE740F2A021FD
:101C4000C2F200010020086040F2FC11C2F2000163
:101C50000860FFE740F2F810C2F20000006840F2AE
:101C60000021C2F20001002203F086F8012840F0B2
:101C70003981FFE740F2B400C2F20000006805902D
:101C800040F20020C2F200008088642819DCFFE7DF
:101C900040F2A800C2F2000001218160406878B1E2
:101CA000FFE740F2A800C2F20000FFF701FDFFF7D6
:101CB00097FC40F21C21C2F2000101200860FFE7FE
:101CC00011E040F2A801C2F20001019100208860F9
:101CD00040F21C21C2F200010860FFF7D1FC01981C
:101CE000FFF722FCFFE740F20020C2F200008088EC
:101CF000B0F57A7F40F3A580FFE740F20020C2F202
:101D00000000808840F6B731884200F39A80FFE7F0
:101D100040F20020C2F20000006838B3FFE740F252
:101D20000020C2F200008088B0F5B46F11DDFFE73B
:101D300040F20020C2F2000080884009362808D80E
:101D4000FFE740F20821C2F2000108780130087074
:101D50000BE040F20821C2F200010020087040F2BE
:101D6000A021C2F200010860FFE727E040F2002056
:101D7000C2F200008088B0F5AA6F12DDFFE740F2E2
:101D80000020C2F20000808840F20361884208DC33
:101D9000FFE740F20821C2F2000108780130087024
:101DA0000BE040F20821C2F200010020087040F26E
:101DB000A021C2F200010860FFE7FFE740F208201F
:101DC000C2F20000007805283AD3FFE7922002F023
:101DD0009FF940F60800C4F201000068C005002821
:101DE00018D5FFE740F29820C2F20000006802F028
:101DF00041FA40F2B400C2F20000006840F2FC1167
:101E0000C2F20001086040F2A021C2F200010120EC
:101E1000086006E040F2A021C2F200010020086044
:101E2000FFE740F60C01C4F20101086820F480606D
:101E3000086040F20821C2F2000100200870FFE7AC
:101E40004FE040F20020C2F200000068002840D0BD
:101E5000FFE740F20020C2F200008088B0F5FA5F90
:101E600036DDFFE740F20020C2F20000808842F633
:101E7000F72188422CDCFFE740F2A800C2F2000004
:101E8000FFF752FBFFF7FCFB40F29820C2F2000084
:101E9000006870B1FFE740F29820C2F200000068CD
:101EA00002F0F0FA40F2A021C2F200010020086026
:101EB000FFE740F60C01C4F20101086820F48060DD
:101EC000086040F20821C2F2000100200870FFE71C
:101ED00006E040F20821C2F2000100200870FFE78E
:101EE000FFE7FFE7012002F013F90DE680B586B0A9
:101EF0008DF817008DF816108DF81520002004902D
:101F0000039002904EF60C50CEF20000006800F4F0
:101F1000E06001460191B0F5407F27D0FFE70198CE
:101F2000B0F5806F1DD0FFE70198B0F5A06F14D019
:101F3000FFE70198B0F5C06F0AD0FFE70198B0F550
:101F4000E06F18D1FFE700200390042002901AE010
:101F5000012003900320029015E0022003900290DC
:101F600011E003200390012002900CE00420039074
:101F70000020029007E04FF4A06000F033F8022048
:101F800003900290FFE79DF816000399C1F1040148
:101F9000884004909DF815000299C1F104020F21B8
:101FA000D140014004980843049004980001049033
:101FB00004989DF817104EF20042CEF200028854A9
:101FC0009DF8172002F01F01012088404EF20011F9
:101FD000CEF2000141EAD20121F00301086006B00F
:101FE00080BD000081B0009000980021C0F2FA513D
:101FF00008434EF60C51CEF20001086001B0704764
:1020000080B584B0039000208DF80B008DF80A0095
:102010008DF80900FFE79DF90B10002000290190C1
:1020200020D4FFE79DF80A000A2807D1FFE79DF8B2
:10203000091000200D29019014D0FFE79DF80A1027
:1020400000200D29009008D1FFE79DF809000A380B
:10205000B0FA80F040090090FFE7009880F001009E
:102060000190FFE70198C00790B1FFE79DF80900D4
:102070008DF80A0003989DF80B104A1C8DF80B2070
:10208000405C8DF809009DF8090002F015F8C2E7E0
:1020900004B080BD80B582B08DF807009DF80700C0
:1020A00048F21F51C5F2EB11A0FB0101302040EABC
:1020B00051108DF806009DF807004CF6CD41CCF686
:1020C000CC41A0FB0120C00846F26762C6F26662FE
:1020D00080FB02239A0802EBD37202EB8202A0EB90
:1020E000420030308DF805009DF80700A0FB01216B
:1020F000C90801EB8101A0EB410040F030008DF8F0
:1021000004009DF8060001F0D7FF9DF8050001F0DE
:10211000D3FF9DF8040001F0CFFF0A2001F0CCFFAF
:102120000D2001F0C9FF02B080BD000080B586B06F
:102130000590049140F2A030C2F2000000680290C5
:1021400040F22020C2F200000268002182F85510FF
:102150000068043001F0D6FC88B9FFE740F2202087
:10216000C2F200000068C16A012000FA01F240F2E8
:10217000F821C2F2000108689043086000E0FFE720
:102180000598013018BBFFE7049800B3FFE740F261
:102190007831C2F2000148680190019A40F2202093
:1021A000C2F2000003689A60019A92680368DA60DC
:1021B00002680432019B9B685A6002680432019BEA
:1021C0009A60006841610868013008603DE002984B
:1021D000059908440390039840F22021C2F20001BF
:1021E000096848600398029988420ED2FFE740F2DE
:1021F0002C20C2F20000006840F22021C2F200014F
:102200000968043101F0ECFC1EE040F22820C2F223
:102210000000006840F22021C2F200010968043188
:1022200001F0DEFC039840F25431C2F2000109686B
:10223000884207D2FFE7039840F25431C2F200010E
:10224000086000E0FFE7FFE7FFE706B080BD0000A1
:1022500080B582B0019001F017FD40F2E821C2F292
:10226000000108680130086040F22020C2F200003E
:10227000006898B9FFE7019840F22021C2F20001FE
:10228000086040F2E820C2F200000068012803D193
:10229000FFE700F0F7FA00E0FFE71CE040F27430DF
:1022A000C2F200000068A0B9FFE740F22020C2F2AD
:1022B00000000068C06A0199C96A884207D8FFE730
:1022C000019840F22021C2F20001086000E0FFE71F
:1022D00000E0FFE7FFE740F2F420C2F200000168EF
:1022E000013101600068019908640198C16A012008
:1022F00000FA01F240F2F821C2F20001086810432E
:1023000008600198C06A00EB800040F23421C2F2FC
:10231000000101EB8000406800900098019A9060F5
:1023200000988068019AD06001980430009A926801
:10233000506001980430009A9060019AD06A00EBD6
:10234000800001EB800050610198C06A00EB8002C0
:1023500051F82200013041F8220001F0C1FC40F2A6
:102360007430C2F200000068C8B1FFE740F22020DC
:10237000C2F200000068C06A0199C96A88420CD2A2
:10238000FFE74EF60451CEF200014FF08050086096
:10239000BFF34F8FBFF36F8F00E0FFE700E0FFE771
:1023A00002B080BD80B582B001F06EFC40F2A43076
:1023B000C2F20000006828BBFFE740F2FC20C2F236
:1023C0000000009001F0ECFB40F21030C2F200007F
:1023D000019001F0E5FB0099019840F22422C2F23D
:1023E0000002116040F23021C2F2000108600520B5
:1023F0001021002202F0E0F940F2A431C2F2000103
:10240000086000E0FFE701F06BFC02B080BD000057
:1024100080B582B0FFE740F2EC20C2F20000006815
:1024200008B3FFE701F030FC40F28C30C2F200004C
:10243000C068C06801900198043001F063FB40F26D
:10244000E821C2F2000108680138086040F2EC217E
:10245000C2F2000108680138086001F041FC0198EF
:1024600000F08CF8D7E702B080BD000080B582B0E4
:10247000019000910198006CB8B1FFE70199C8681C
:102480000A6C1044C86001988168C068884204D30F
:10249000FFE701990868C86000E0FFE70098019A2B
:1024A000D168126CFDF70CFFFFE702B080BD0000A1
:1024B00080B586B0059004910392002002900598A3
:1024C000806B01900598006C78B9FFE7059800686B
:1024D00048B9FFE70598806802F05CFF0290059913
:1024E0000020886000E0FFE741E00398B8B9FFE70B
:1024F000059A04995068126CFDF7E2FE0599486848
:102500000A6C10444860059948688968884204D379
:10251000FFE705990868486000E0FFE726E0059AB4
:102520000499D068126CFDF7CBFE0599C8680A6C57
:10253000801AC86005980168C068884206D2FFE723
:10254000059988680A6C801AC86000E0FFE7039864
:10255000022809D1FFE7019820B1FFE7019801386F
:10256000019000E0FFE700E0FFE7FFE7FFE70198E9
:10257000013005998863029806B080BD80B582B0AD
:1025800001900198006B01F0D1FB019801F0CEFBA6
:1025900002B080BD83B0002001900120009040F285
:1025A000F820C2F200000068022803D3FFE70120F0
:1025B0000190FFE740F22020C2F200000068C06AEC
:1025C00018B1FFE7002002901FE040F23420C2F271
:1025D00000000068022803D3FFE70020029013E008
:1025E000019818B1FFE7002002900CE040F254304F
:1025F000C2F20000006840F2A031C2F20001096896
:10260000401A0290FFE7FFE7FFE7029803B0704728
:1026100082B0019040F22420C2F2000000680068FD
:10262000B0FA80F04009019908600198006848B943
:10263000FFE740F22420C2F200000068C068006892
:10264000009002E000200090FFE7009802B0704781
:1026500080B584B00290FFE7FFF7DAFE40F2342045
:10266000C2F20000006802280CD3FFE74EF60451C6
:10267000CEF200014FF080500860BFF34F8FBFF3E0
:102680006F8F00E0FFE7FFF785FF019001980228B8
:1026900029D3FFE701F0B4FF40F25430C2F200004A
:1026A000006840F2A031C2F20001096888420BD2F2
:1026B000FFE74FF0500080F31188BFF36F8FBFF337
:1026C0004F8F0390FFE7FEE7FFF764FF019001984B
:1026D000022804D3FFE7019801F074FB00E0FFE754
:1026E00002F0BEFF00E0FFE7B6E7000080B584B06F
:1026F000DDF818C00390029101928DF80330029822
:1027000018B9FFE70698006003E001980699086091
:10271000FFE703980699C86302980699086406982B
:10272000012102F097F89DF80300069981F8500006
:1027300006990020886404B080BD000080B58AB08E
:10274000DDF83CC0DDF838C0DDF834C0DDF830C05D
:1027500007900691059204930E98006B05998900E5
:10276000A522FDF7F2FD0E98006B059900EB8100A4
:1027700004380390039820F0070003909DF80C00A4
:10278000400758B1FFE74FF0500080F31188BFF3C6
:102790006F8FBFF34F8F0890FFE7FEE70698F8B101
:1027A000FFE700200290FFE70298092813D8FFE70F
:1027B0000698029A805C0E99114481F834000698BC
:1027C0000299405C08B9FFE705E0FFE7FFE70298E0
:1027D00001300290E8E70E99002081F83D0004E006
:1027E0000E99002081F83400FFE70C9805280BD3E0
:1027F000FFE74FF0500080F31188BFF36F8FBFF3F6
:102800004F8F0990FFE7FEE70C98052803D3FFE7F9
:1028100004200C9000E0FFE70C980E99C8620C9819
:102820000E9988640E9900200190C8640E980430B7
:1028300001F0CEF90E98183001F0CAF901980E99FE
:1028400009610C99C1F105010E9A91610E994962D5
:102850000E9908650E9981F854000E9981F855007B
:1028600003980799049A00F003FC0E9908600D98EC
:1028700020B1FFE70E980D99086000E0FFE70AB06D
:1028800080BD000080B584B000200390FFE703986E
:10289000042810D8FFE7039800EB800140F23420B1
:1028A000C2F2000000EB810001F07AF9FFE7039823
:1028B00001300390EBE740F22430C2F200000190B7
:1028C00001F06EF940F23830C2F20000029001F0DF
:1028D00067F940F26030C2F2000001F061F940F2A5
:1028E0008C30C2F2000001F05BF940F27830C2F2A5
:1028F000000001F055F90199029840F22822C2F235
:102900000002116040F22C21C2F20001086004B004
:1029100080BD000080B586B00590049103920293BB
:10292000002001900498059948600598006104987A
:102930000399884216D8FFE703980299401A05992F
:102940008969884203D3FFE70120019009E040F242
:102950003020C2F2000000680599043101F040F90E
:10296000FFE717E003980299884208D2FFE704982E
:102970000299884203D3FFE70120019009E040F269
:102980002420C2F2000000680599043101F028F902
:10299000FFE7FFE7019806B080BD000080B582B078
:1029A000019001F071F90198806B18B9FFE70120DF
:1029B000009002E000200090FFE701F091F90098FC
:1029C00002B080BD80B582B0019001F05DF9019840
:1029D000806B0199C96B884203D1FFE70120009009
:1029E00002E000200090FFE701F07AF9009802B0C1
:1029F00080BD000080B588B004900498806C03907E
:102A000000200290039858B9FFE74FF0500080F380
:102A10001188BFF36F8FBFF34F8F0590FFE7FEE77D
:102A20000398806B0399C96B88420BD3FFE74FF083
:102A3000500080F31188BFF36F8FBFF34F8F069064
:102A4000FFE7FEE70398806B0399C96B884239D290
:102A5000FFE7039890F845008DF80700039804A954
:102A60000022FFF725FD02909DF90700013088B98B
:102A7000FFE70398406A58B1FFE70398243002F05B
:102A800025FD18B1FFE70120029000E0FFE700E01C
:102A9000FFE716E09DF907007F280BD1FFE74FF015
:102AA000500080F31188BFF36F8FBFF34F8F0790F3
:102AB000FFE7FEE79DF807000130039981F8450024
:102AC000FFE700E0FFE7029808B080BD0648006815
:102AD000006880F3088862B661B6BFF34F8FBFF31A
:102AE0006F8F00DF00BF00BF08ED00E080B584B04D
:102AF0000390029140F22420C2F200000068C068F6
:102B0000C06801900198043000F0FCFF019890F833
:102B100028004007002806D5FFE701980399029A8C
:102B200000F01CF907E0019991F8280000F0FE0080
:102B300081F82800FFE70198016A884704B080BD4A
:102B400080B58CB0FFE740F2A430C2F2000000680C
:102B500006A9002202F010F9002800F0AF80FFE77C
:102B60000698B0F1FF3F17DCFFE706A8043002909B
:102B7000029858B9FFE74FF0500080F31188BFF377
:102B80006F8FBFF34F8F0A90FFE7FEE702990A6845
:102B900048688968904700E0FFE70698002800F140
:102BA0008C80FFE7089805900598406928B1FFE7F9
:102BB0000598043000F0A6FF00E0FFE704A800F04D
:102BC00005F903900698013801460191082800F2A2
:102BD00072800199DFE801F00505323A5B050532A4
:102BE0003A00059991F8280040F0010081F828008A
:102BF0000598079B81691944039AFFF78BFED8B1AA
:102C0000FFE7059890F828004007002808D5FFE75F
:102C10000598079982691144039A00F09FF807E02C
:102C2000059991F8280000F0FE0081F82800FFE7E0
:102C30000598016A884700E0FFE73DE0059991F8B3
:102C4000280000F0FE0081F8280035E0059991F891
:102C5000280040F0010081F8280007980599886154
:102C60000598806958B9FFE74FF0500080F311884C
:102C7000BFF36F8FBFF34F8F0B90FFE7FEE7059811
:102C8000039B816919441A46FFF744FE14E0059836
:102C900090F828008007002804D4FFE7059801F089
:102CA00045F807E0059991F8280000F0FE0081F84A
:102CB0002800FFE700E0FFE7FFE744E70CB080BD36
:102CC00080B584B00390029101F09AFC684600F050
:102CD0007DF801900098D8BBFFE7029860B9FFE744
:102CE00003980199884207D8FFE702F0B9FC0398DE
:102CF0000199FFF7FBFE2AE0029858B1FFE740F286
:102D00003020C2F2000000680068B0FA80F040098C
:102D10000290FFE740F2A430C2F20000006803997D
:102D2000019A891A029A01F095F902F099FC60B9AA
:102D3000FFE74EF60451CEF200014FF080500860DC
:102D4000BFF34F8FBFF36F8F00E0FFE7FFE702E0B5
:102D500002F086FCFFE704B080BD000080B584B0BF
:102D6000039002910192FFE70398029B8169194445
:102D7000019AFFF7CFFD48B1FFE7039881690298F8
:102D8000084402900398016A8847EDE704B080BDCB
:102D900040F22820C2F200000068006840B9FFE756
:102DA00040F25431C2F200014FF0FF3008600CE0F5
:102DB00040F22820C2F200000068C068006840F2BB
:102DC0005431C2F200010860FFE7704780B582B05D
:102DD000019002F0A5F90090009840F21421C2F28F
:102DE00000010968884206D2FFE700F011F8019956
:102DF0000120086003E0019900200860FFE70098C7
:102E000040F21421C2F200010860009802B080BDB7
:102E100080B582B0FFE740F22420C2F200000068D3
:102E2000006870B1FFE740F22420C2F200000068A1
:102E3000C0680068019001984FF0FF31FFF756FE1F
:102E4000E9E740F22422C2F200021068009040F24A
:102E50003021C2F20001086810600098086002B0DA
:102E600080BD000083B00020009040F24000C2F21C
:102E700000000068013058B1FFE74FF0500080F3C8
:102E80001188BFF36F8FBFF34F8F0190FFE7FEE70D
:102E90004FF0500080F31188BFF36F8FBFF34F8F57
:102EA0000290FFE7009808B9FFE7FBE703B070471F
:102EB00084B002900020019002980090029858B9C6
:102EC000FFE74FF0500080F31188BFF36F8FBFF31F
:102ED0004F8F0390FFE7FEE70098406940F278319A
:102EE000C2F20001884214D1FFE70098806A40F2E4
:102EF0006031C2F20001884209D0FFE70098806A81
:102F000018B9FFE70120019000E0FFE700E0FFE7CC
:102F100000E0FFE7019804B07047000080B584B07E
:102F20000390FFE701A8FFF773FB02900298019955
:102F3000FFF7C6FEFFF704FEF4E7000080B582B09D
:102F4000019000F0A1FE019890F845008DF8030073
:102F5000FFE79DF90300012825DBFFE70198806C5E
:102F600050B1FFE70198FFF745FD18B1FFE701F009
:102F700019F900E0FFE710E00198406A58B1FFE757
:102F80000198243002F0A2FA18B1FFE701F00AF923
:102F900000E0FFE700E006E0FFE79DF803000138EE
:102FA0008DF80300D5E70199FF2081F8450000F076
:102FB00097FE00F069FE019890F844008DF8020039
:102FC000FFE79DF90200012816DBFFE70198006981
:102FD00080B1FFE70198103002F078FA18B1FFE7EE
:102FE00001F0E0F800E0FFE79DF8020001388DF8FD
:102FF000020000E000E0E4E70199FF2081F84400CE
:1030000000F06EFE02B080BD80B582B0019001F08C
:10301000F7FA0198FDF7FEF8009002F021FB009806
:1030200002B080BD80B584B00390FFE7012000901E
:10303000322100F02FFA42F21070029001F068F88D
:1030400000982D21019100F025FA029801F060F816
:103050000098372100F01EFA029801F059F8009804
:10306000019900F017FA029801F052F8DEE700002B
:1030700083B0029001910092029804380290029964
:103080004FF080700860029804380290019820F098
:10309000010002990860029804380290029942F6F1
:1030A0006560C0F60000086002981438029000982D
:1030B00002990860029820380290029803B0704785
:1030C00083B0029041F20400C4F202000068019053
:1030D000019843F6FF71CEF6FF7108400190029807
:1030E0000090042808D3FFE7009805280AD0FFE7DE
:1030F0000098072806D011E00299019840EA813033
:1031000001900CE0029820F00400029002990198CE
:1031100040EA813040F08050019000E0FFE70198E4
:1031200041F20401C4F20201086003B070470000DC
:1031300097B016900020149040F20671C0F6081166
:10314000099140F20121C0F20341089107900690D5
:10315000059104900391029041F20400C4F2020030
:103160000068C0F3810015901598019040B1FFE709
:10317000019801280AD0FFE7019802280CD05AE0F4
:1031800041F20020C0F27A0013905AE041F2002090
:10319000C0F27A00139054E041F20400C4F202003D
:1031A000006800F480300F900F98B0F5803F19D17F
:1031B000FFE741F20020C0F27A000C9041F20400D7
:1031C000C4F20200006800F400300E900E98B0F5D2
:1031D000003F06D1FFE740F60010C0F23D000C9022
:1031E000FFE705E040F60010C0F23D000C90FFE75D
:1031F00041F20400C4F202000168C1F383410D9161
:1032000000680001002805D5FFE70D9840F0100088
:103210000D90FFE70D980E2804D8FFE70D980230B7
:103220000D9003E00D9801300D90FFE70C980D997B
:103230004843139005E041F20020C0F27A00139059
:10324000FFE741F20400C4F202000168C9B20909B3
:103250000B910B9A06A9895C0A9113990A9AD1409D
:1032600012910168C1F302210B910B9A04A9895CA8
:103270000A9112990A9AD14011910068C0F3C220B4
:103280000B900B9902A8405C0A9012980A99C840CA
:10329000109016980090032810D80099DFE801F0EC
:1032A0000205080B1398149009E01298149006E098
:1032B0001198149003E01098149000E0FFE7149820
:1032C00017B0704781B00090009800F01F020121F4
:1032D00001FA02F3810941F20002C4F202028858A5
:1032E0009843885001B0704781B00090009800F07A
:1032F0001F02012101FA02F3810941F20002C4F226
:10330000020288581843885001B0704782B001907B
:10331000019900208861019908708DF80300FFE78A
:103320009DF8030009280ED8FFE701989DF80310C7
:1033300000EB410100204880FFE79DF803000130C9
:103340008DF80300ECE70199002081F82000019935
:10335000C86102B07047000010B594B0139046F2F7
:10336000CC23C0F600030193186859689A68D3F813
:103370000CC0D3F810E05C690894CDF81CE0CDF8DF
:1033800018C00592049103909869D9691A6AD3F814
:1033900024C0D3F828E0DC6A0E94CDF834E0CDF8F0
:1033A00030C00B920A910990186B596B9A6BDB6BCA
:1033B0001293119210910F9000208DF80B00FFE7EF
:1033C0009DF80B1003A850F8310048B9FFE740F60C
:1033D0000C01C4F20101086840F48060086008E054
:1033E00040F60C01C4F20101086820F48060086016
:1033F000FFE79DF80B00072816D8FFE79DF80B1094
:10340000481C8DF80B0003A800EBC10080884FF426
:103410007A71484344F6D351C1F26201A0FB011016
:10342000800900F075FE03E000208DF80B00FFE737
:10343000C6E7000080B582B0019000200090FFE751
:10344000012000F065FE009840F2E73188420AD181
:10345000FFE70020009040F2B401C2F200010868CA
:103460000130086003E0009801300090FFE7009809
:1034700047F6D501C2F2E96148434FEA700042F2D3
:10348000DD41C0F20611884203D8FFE7FEF724F8B9
:10349000FFE7D5E782B001908DF80310019801286D
:1034A0000DD1FFE79DF8030000EB80014FF0FF30E6
:1034B00000EB41003421C4F20001086014E00198DF
:1034C00001280ED1FFE79DF8030000EB80014FF0CB
:1034D000FF3000EB410040F24041C4F200010860BF
:1034E00001E000BFFFE7FFE702B0704784B00020B3
:1034F0000390029041F20001C4F20201086840F416
:1035000080300860FFE703980130039041F200002B
:10351000C4F20200006800F400300290FFE7029954
:103520000020019041B9FFE703984FF6FF71401A60
:1035300018BF01200190FFE70198C0070028E2D1E1
:10354000FFE741F20000C4F2020000688003002897
:1035500002D4FFE7FFE7FEE741F20401C4F20201F3
:1035600000910868086008680860086840F4806096
:103570000860086820F440300860086840F4403073
:10358000086008684FF6FF72CFF2C37210400860FF
:1035900008680022C0F628021043086041F20001CA
:1035A000C4F20201086840F080700860FFE741F251
:1035B0000000C4F2020000688001002801D4FFE787
:1035C000F5E741F20401C4F20201086820F00300AB
:1035D0000860086840F002000860FFE741F204005C
:1035E000C4F2020000680007002801D4FFE7F5E7F5
:1035F00004B0704780B5FFF779FF80BD82B00190BD
:103600000091009A019908699043086102B07047DF
:1036100084B0029001910298C0680199084000901E
:10362000029800690199084206D0FFE7009818B196
:10363000FFE70120039002E000200390FFE70398DA
:1036400004B0704782B0019000208DF80300FFE7BE
:103650009DF80300092813DCFFE701989DF803108B
:1036600030F8112040F2C821C2F20001086810446D
:103670000860FFE79DF8030001308DF80300E7E7DD
:1036800040F2C820C2F2000000684CF6CD41CCF6F2
:10369000CC41A0FB0110C0F3CF0002B07047000086
:1036A00080B586B0ADF81600BDF816106FF39F21F7
:1036B00040F2D020C2F200000180008802F0F2F94E
:1036C0000190029145F2EC12C1F6B8624EF68533D4
:1036D000C3F6D17302F0FEF9019A029B02F0FAF9E7
:1036E0000246019803920A46029904924EF2481249
:1036F000C1F27A4244F2AE73C4F20D0302F0EAF969
:10370000024603980B46049902F024F948F21F522E
:10371000C5F2EB124BF6B863C4F2420302F01AF999
:1037200002F0E6F8014640F2CC20C2F2000001604F
:10373000006802F0E7FC06B080BD000083B0019095
:103740008DF803100198D0F8F00008B3FFE70020CF
:103750008DF80200FFE79DF8020077280ED8FFE7FA
:103760009DF8030001999DF8022021F81200FFE75F
:103770009DF8020001308DF80200ECE7019900206D
:10378000C1F8F000019890F8EE008DF80B0022E0EF
:1037900001208DF80100FFE79DF80100782810D87E
:1037A000FFE701999DF8012001EB420030F8020C7F
:1037B00021F81200FFE79DF8010001308DF80100AB
:1037C000EAE79DF8030001990880019890F8EE005F
:1037D0008DF80B00FFE79DF80B0003B07047000069
:1037E00080B584B00390FFE740F2A420C2F200004D
:1037F0000090FDF799FF46F2BF30C0F60000FEF7DB
:10380000FFFB4EF60451CEF2000101914FF08050C3
:1038100002900860BFF34F8FBFF36F8F46F29B306B
:10382000C0F60000FEF7ECFB0098019A02991160C7
:10383000BFF34F8FBFF36F8F90F82000FEF72AFC85
:10384000019902980860BFF34F8FBFF36F8F46F264
:103850006430C0F60000FEF7D3FB019902980860BF
:10386000BFF34F8FBFF36F8F40F2F410C2F200002E
:10387000006838B1FFE746F2E730C0F60000FEF717
:10388000BFFBFFE74EF60451CEF200014FF080502F
:103890000860BFF34F8FBFF36F8F40F21C20C2F25E
:1038A0000000006878B1FFE746F27530C0F600000E
:1038B000FEF7A6FB40F2A800C2F20000FDF7F8FEFA
:1038C000FEF7E8FBFFE74EF60451CEF200014FF0A1
:1038D00080500860BFF34F8FBFF36F8F40F2A0207E
:1038E000C2F20000006838B1FFE746F2FC30C0F6D3
:1038F0000000FEF785FBFFE74EF60451CEF2000113
:103900004FF080500860BFF34F8FBFF36F8F0A20D6
:1039100000F0D2FB4FF47A7000F0FAFB64E700008D
:1039200080B588B007900691002005900490039020
:1039300002900798019044F20041C4F200018842CD
:1039400025D0FFE7019844F60001C4F20001884247
:1039500022D0FFE7019844F60041C4F200018842FA
:103960001FD0FFE7019845F20001C4F20001884230
:103970001CD0FFE7019843F60001C4F20101884220
:1039800019D1FFE70320FFF7D3FB059014E00220D5
:10399000FFF7CEFB05900FE00220FFF7C9FB059073
:1039A0000AE00220FFF7C4FB059005E00220FFF7C4
:1039B000BFFB059000E0FFE70598069900EB51007A
:1039C000B0FBF1F0029002984FF6F07108400490BD
:1039D000029800F00F000390BDF81000BDF80C1025
:1039E00008430799886008B080BD000080B588B0A2
:1039F00007900798069044F20041C4F20001884203
:103A000029D0FFE7069844F60001C4F2000188427D
:103A10002AD0FFE7069844F60041C4F2000188422C
:103A20002BD0FFE7069845F20001C4F2000188425E
:103A30002CD0FFE7069843F60001C4F2010188424A
:103A40002DD1FFE740F20E300590FFF74DFC0598B1
:103A5000FFF738FC24E040F211400490FFF744FCEB
:103A60000498FFF72FFC1BE040F212400390FFF791
:103A70003BFC0398FFF726FC12E040F21340029053
:103A8000FFF732FC0298FFF71DFC09E040F21440FA
:103A90000190FFF729FC0198FFF714FC00E0FFE715
:103AA00008B080BD81B000900099C86840F4005013
:103AB000C86001B07047000082B001900091019988
:103AC000C86820F4C060C860009A0199C8681043B3
:103AD000C86002B07047000083B0029001910020DE
:103AE00000900298C0680090009820F008000090B4
:103AF000019900980843009000980299C86003B0AB
:103B00007047000082B00190019800690090019810
:103B100041688068886001994868896848600098B1
:103B200040680199884205D1FFE7019880680099B3
:103B3000486000E0FFE701990020086100990868EB
:103B4000013808600098006802B0704782B00190A8
:103B5000ADF802100198007D0A280BD8FFE7BDF8E8
:103B6000020001990A7D531C0B7501EB420121F8FB
:103B7000020C13E00198806920B1FFE70199002051
:103B80008861FFE7019900200875BDF802000199DE
:103B90000A7D531C0B7521F81200FFE702B0704735
:103BA00081B00090009901F10800486000994FF041
:103BB000FF308860009901F10800C860009901F1A8
:103BC0000800086100990020086001B070470000FB
:103BD00081B0009000990020086101B0704700009A
:103BE00084B0039002910298006800900098013020
:103BF00020B9FFE703980069019010E003980830AE
:103C00000190FFE70198406800680099884205D854
:103C1000FFE7FFE7019840680190F3E7FFE70198AD
:103C2000406802994860029841688860019802994A
:103C30008860029801994860039802990861039985
:103C400008680130086004B07047000083B002903B
:103C5000019102984068009000980199486000988E
:103C60008068019988600198009989684860019886
:103C700000998860029801990861029908680130EA
:103C8000086003B07047000082B04FF0500080F32E
:103C90001188BFF36F8FBFF34F8F009040F2400049
:103CA000C2F200000168013101600068012814D1EE
:103CB000FFE74EF60450CEF200000068000658B14F
:103CC000FFE74FF0500080F31188BFF36F8FBFF311
:103CD0004F8F0190FFE7FEE7FFE702B0704700005B
:103CE00082B040F24000C2F20000006858B9FFE71D
:103CF0004FF0500080F31188BFF36F8FBFF34F8FE9
:103D00000090FFE7FEE740F24000C2F200000168C9
:103D100001390160006830B9FFE700200190019887
:103D200080F31188FFE702B07047000080B582B0D1
:103D30000190019840B1FFE700F062FC0198FCF7A8
:103D400098FA01F08DFCFFE702B080BD40F2000060
:103D5000C2F20000016844F6D352C1F26202A1FB34
:103D600002318B0940F2E421C2F200010B600B68C2
:103D70006FF07F41B1FBF3F140F25033C2F2000328
:103D8000196040F2E023C2F200032D2119604EF2C7
:103D90001001CEF2000100230B604EF2180CCEF29F
:103DA000000CCCF800300068A0FB02024FF0FF309E
:103DB00000EB92104EF21402CEF2000210600720C7
:103DC0000860704780B586B00590059840F2503184
:103DD000C2F200010968884207D9FFE740F250307B
:103DE000C2F2000000680590FFE74EF21001CEF22B
:103DF0000001086820F0010008604EF21800CEF2C1
:103E00000000026840F2E420C2F200000068059958
:103E1000013900FB01200490049840F2E021C2F235
:103E200000010968884209D9FFE740F2E020C2F2A8
:103E3000000001680498401A0490FFE772B6BFF3CF
:103E40004F8FBFF36F8FFDF7EFFAD8B9FFE74EF250
:103E50001800CEF2000000684EF21401CEF200010C
:103E600008604EF21002CEF20002106840F001002D
:103E7000106040F2E420C2F20000006801380860DF
:103E800062B6A3E004984EF21401CEF2000108607D
:103E90004EF21801CEF20001002008604EF210012F
:103EA000CEF20001086840F001000860059801901A
:103EB000019830B1FFE7BFF34F8F30BFBFF36F8F73
:103EC000FFE762B6BFF34F8FBFF36F8F72B6BFF3DA
:103ED0004F8FBFF36F8F4EF21000CEF2000006211D
:103EE00001600068C003002833D5FFE740F2E420FA
:103EF000C2F200000068049A4EF21801CEF20001EE
:103F00000968891A084401380090009840F2E021BD
:103F1000C2F200010968884209D3FFE7009840F225
:103F2000E421C2F200010968884208D9FFE740F2A3
:103F3000E420C2F20000006801380090FFE700981A
:103F40004EF21401CEF2000108600598013803908A
:103F50001EE0059840F2E421C2F200010A685043D5
:103F60004EF21802CEF200021268801A02900298F5
:103F70000A68B0FBF2F003900398013009684843E7
:103F80000299401A4EF21401CEF200010860FFE7D8
:103F90004EF21801CEF20001002008604EF210012E
:103FA000CEF20001086840F001000860039800F0BC
:103FB00043FA40F2E420C2F20000006801384EF2F9
:103FC0001401CEF20001086062B6FFE706B080BDC2
:103FD00084B0EFF305800190019810281ED3FFE70D
:103FE00001984EF2F031CEF20001405C8DF80300F2
:103FF0009DF8030040F2D821C2F2000109788842FE
:104000000BDAFFE74FF0500080F31188BFF36F8F9A
:10401000BFF34F8F0290FFE7FEE7FFE74EF60C502D
:10402000CEF20000006800F4E06040F2DC21C2F251
:104030000001096888420BD9FFE74FF0500080F378
:104040001188BFF36F8FBFF34F8F0390FFE7FEE739
:1040500004B0704780B584B0039002910192039838
:104060000090FFF711FE009890F94400013028B944
:10407000FFE70099002081F84400FFE7009890F9DD
:104080004500013028B9FFE70099002081F845007C
:10409000FFE7FFF725FE0098806B38B9FFE700982F
:1040A00024300299019A00F0A7F800E0FFE7009899
:1040B000FEF744FF04B080BD81B08DF80300FFE738
:1040C00043F60000C4F20100006800F08000802880
:1040D00002D0FFE700BFF3E79DF8030043F60401B9
:1040E000C4F20101086001B07047000081B0009087
:1040F00000990120C1F8F00001B0704781B0009034
:1041000000990120886100990020087501B070476E
:1041100080B584B00290002001900298E0B1FFE7E2
:1041200040F2F020C2F20000006858B1FFE74FF003
:10413000500080F31188BFF36F8FBFF34F8F039050
:10414000FFE7FEE700F05CFA02980021FDF7EEFFC2
:1041500001F086FA019000E0FFE7019860B9FFE7FF
:104160004EF60451CEF200014FF080500860BFF3CC
:104170004F8FBFF36F8F00E0FFE704B080BD0000FA
:1041800081B0009040F25830C2F2000000680099FF
:10419000086040F2A030C2F2000000680099486058
:1041A00001B0704740F2AC31C2F20001012008605A
:1041B0007047000080B584B002900191029858B910
:1041C000FFE74FF0500080F31188BFF36F8FBFF30C
:1041D0004F8F0390FFE7FEE7029840F22021C2F2E2
:1041E000000109681831FFF7FBFC01980121FDF778
:1041F0009DFF04B080BD000080B586B0049003919F
:104200000292049858B9FFE74FF0500080F31188EC
:10421000BFF36F8FBFF34F8F0590FFE7FEE7049862
:1042200040680190019840F22021C2F200010A6822
:10423000D061019880680A68106208681830019A95
:104240009268506008681830019A90600498096874
:1042500088620499086801300860029820B1FFE77D
:104260004FF0FF300390FFE703980299FDF75EFFE0
:1042700006B080BD80B584B002900298019002988B
:1042800058B9FFE74FF0500080F31188BFF36F8FEC
:10429000BFF34F8F0390FFE7FEE7019840F2202124
:1042A000C2F200010968884265D0FFE70198002842
:1042B00061D0FFE7FFF7E8FC0198FEF7F9FD002861
:1042C00055D0FFE701980430FFF71CFC0198C16A44
:1042D000012000FA01F240F2F821C2F20001086860
:1042E000104308600198C06A00EB800040F234215E
:1042F000C2F2000101EB8000406800900098019A32
:10430000906000988068019AD06001980430009A0B
:104310009268506001980430009A9060019AD06AC7
:1043200000EB800001EB800050610198C06A00EB57
:10433000800251F82200013041F822000198C06A41
:1043400040F22021C2F200010968C96A88420CD3F8
:10435000FFE74EF60451CEF200014FF080500860A6
:10436000BFF34F8FBFF36F8F00E0FFE700E0FFE781
:10437000FFF7B6FC00E0FFE704B080BD80B586B073
:1043800040F24C31C2F200016846416000230360F4
:1043900042F25160C0F6000046F24541C0F600010D
:1043A000802200F055FE03900398012804D1FFE716
:1043B00001F068FA039000E0FFE70398012823D199
:1043C000FFE74FF0500080F31188BFF36F8FBFF30A
:1043D0004F8F049040F25431C2F200014FF0FF3091
:1043E000086040F27431C2F200010120086040F21E
:1043F000A031C2F200010020086000F069F908B1A4
:10440000FFE700E0FFE70FE00398013058B9FFE74E
:104410004FF0500080F31188BFF36F8FBFF34F8FC1
:104420000590FFE7FEE7FFE746F25440C0F60000C4
:10443000006806B080BD000082B0009040F2A0305D
:10444000C2F2000000680099084440F25431C2F200
:104450000001096888420BD9FFE74FF0500080F354
:104460001188BFF36F8FBFF34F8F0190FFE7FEE717
:10447000009A40F2A031C2F20001086810440860BE
:1044800002B0704780B586B00490FFF7FDFB04983A
:1044900038B9FFE740F22020C2F200000068019026
:1044A00002E004980190FFE701980390039804301C
:1044B000FFF728FBD0B9FFE70398C06A00EB800143
:1044C00040F23420C2F2000050F8210068B9FFE742
:1044D0000398C16A012000FA01F240F2F821C2F209
:1044E0000001086890430860FFE700E0FFE70398D9
:1044F000806A28B1FFE703981830FFF703FB00E05C
:10450000FFE70398011D40F27830C2F20000FFF788
:104510009DFB00200290FFE70298002814DCFFE7D3
:1045200003980299084490F85400012807D1FFE746
:10453000039802990144002081F85400FFE7FFE747
:10454000029801300290E7E7FFF7CAFB40F27430AF
:10455000C2F20000006838B1FFE7FFF795FBFEF7F5
:1045600017FCFFF7BDFB00E0FFE7039840F22021B6
:10457000C2F20001096888423ED1FFE740F2743080
:10458000C2F200000068F0B1FFE740F2F020C2F292
:104590000000006858B1FFE74FF0500080F3118829
:1045A000BFF36F8FBFF34F8F0590FFE7FEE74EF627
:1045B0000451CEF200014FF080500860BFF34F8FDE
:1045C000BFF36F8F17E040F27830C2F2000000684E
:1045D00040F2E821C2F200010968884207D1FFE7F2
:1045E00040F22021C2F200010020086002E000F049
:1045F0000FF8FFE7FFE700E0FFE706B080BD00002F
:1046000040F2F021C2F200010868013008607047F2
:1046100085B040F2F020C2F20000006838B1FFE738
:1046200040F2AC31C2F20001012008604DE040F2DE
:10463000AC31C2F200010020086040F2F820C2F262
:104640000000006803900398B0FA80F08DF80B002A
:104650009DF80B00C0F11F000190019800EB800154
:1046600040F23420C2F2000050F8210058B9FFE7B0
:104670004FF0500080F31188BFF36F8FBFF34F8F5F
:104680000490FFE7FEE7019800EB800140F2342040
:10469000C2F2000000EB8100009000994868406879
:1046A0004860009948680831884205D1FFE70099C1
:1046B000486840684860FFE700984068C06840F27A
:1046C0002021C2F200010860FFE705B0704700003A
:1046D00080B586B04EF20040CEF200000390017823
:1046E0000491FF21017000788DF80B009DF80B00FC
:1046F00000F0500040F2D821C2F20001087040F2F0
:10470000DC21C2F2000107200860FFE79DF80B00E2
:10471000000600280DD5FFE740F2DC21C2F20001BF
:104720000868013808609DF80B0040008DF80B0008
:10473000ECE740F2DC20C2F20000006803280BD056
:10474000FFE74FF0500080F31188BFF36F8FBFF386
:104750004F8F0590FFE7FEE740F2DC21C2F2000137
:10476000086800020860086800F4E06008600498C7
:104770004EF20041CEF2000108704EF62051CEF20A
:104780000001086840F4E0000860086840F0E0407C
:104790000860FFF7DBFA40F24001C2F2000100209E
:1047A00001900860FEF792F9FFF732FFFEF75AFB1F
:1047B000019806B080BD000080B588B006900591D4
:1047C0008DF8132000200390069880B3FFE7069928
:1047D0004FF0FF30B0FBF1F00599884227D3FFE797
:1047E00006980599484310F1550F20D8FFE7069821
:1047F00005994843029002985430FEF705FC039057
:10480000039890B1FFE7039801900198543001900C
:1048100006980599019A9DF81330DDF80CC0EE4614
:10482000CEF800C0FDF762FF00E0FFE70EE003985E
:1048300058B9FFE74FF0500080F31188BFF36F8F36
:10484000BFF34F8F0790FFE7FEE7FFE7039808B03D
:1048500080BD000080B586B00390029101200190D8
:1048600003980090009858B9FFE74FF0500080F38C
:104870001188BFF36F8FBFF34F8F0490FFE7FEE700
:104880000098002856D0FFE70098C06B002851D050
:10489000FFE70098C26B016C4FF0FF30B0FBF2F005
:1048A000884247D3FFE7FFF7EFF900990B68C86B21
:1048B0000A6C00FB02308860009900208863009930
:1048C0000868486000990B68C86B0A6C013800FBE7
:1048D0000230C8600099FF2081F84400009981F8F7
:1048E00045000298D0B9FFE700980069A0B1FFE742
:1048F0000098103000F0EAFD60B1FFE74EF6045179
:10490000CEF200014FF080500860BFF34F8FBFF32D
:104910006F8F00E0FFE700E0FFE708E0009810304D
:10492000FFF73EF900982430FFF73AF9FFE7FFF769
:10493000D7F902E000200190FFE7019858B9FFE79E
:104940004FF0500080F31188BFF36F8FBFF34F8F8C
:104950000590FFE7FEE7019806B080BD80B592B0F4
:104960000C900B910A920993002008900C980490E7
:10497000049858B9FFE74FF0500080F31188BFF357
:104980006F8FBFF34F8F0E90FFE7FEE70B9900206C
:10499000029039B9FFE70498006C002818BF012085
:1049A0000290FFE70298C00758B1FFE74FF05000B0
:1049B00080F31188BFF36F8FBFF34F8F0F90FFE726
:1049C000FEE7099900200229019007D1FFE704982A
:1049D000C06B013818BF01200190FFE70198C007A4
:1049E00058B1FFE74FF0500080F31188BFF36F8F8D
:1049F000BFF34F8F1090FFE7FEE700F075FB014615
:104A00000020009031B9FFE70A98002818BF012064
:104A10000090FFE70098C00758B1FFE74FF0500043
:104A200080F31188BFF36F8FBFF34F8F1190FFE7B3
:104A3000FEE7FFE7FFF728F90498806B0499C96B3C
:104A4000884204D3FFE70998022858D1FFE7049869
:104A5000806B039004980B99099AFDF729FD079044
:104A60000498806CE0B1FFE70998022804D1FFE7C1
:104A7000039808B1FFE712E00498FDF7BBFF60B1AF
:104A8000FFE74EF60451CEF200014FF0805008606F
:104A9000BFF34F8FBFF36F8F00E0FFE7FFE729E021
:104AA0000498406AA0B1FFE70498243000F00EFD9E
:104AB00060B1FFE74EF60451CEF200014FF0805096
:104AC0000860BFF34F8FBFF36F8F00E0FFE710E088
:104AD000079860B1FFE74EF60451CEF200014FF0A7
:104AE00080500860BFF34F8FBFF36F8F00E0FFE788
:104AF000FFE7FFE7FFF7F4F801200D9065E00A9863
:104B000028B9FFE7FFF7ECF800200D905DE008986A
:104B100030B9FFE705A8FFF733FB0120089000E05C
:104B2000FFE7FFE7FFE7FFF7DBF8FFF769FDFFF7B8
:104B3000ABF8049890F94400013028B9FFE70499D4
:104B4000002081F84400FFE7049890F94500013007
:104B500028B9FFE70499002081F84500FFE7FFF737
:104B6000BFF805A80AA900F0F5F928BBFFE70498EB
:104B7000FDF728FFC8B1FFE7049810300A99FFF746
:104B800019FB0498FEF7DAF900F06AFD60B9FFE757
:104B90004EF60451CEF200014FF080500860BFF392
:104BA0004F8FBFF36F8FFFE705E00498FEF7C6F95C
:104BB00000F056FDFFE707E00498FEF7BFF900F0AC
:104BC0004FFD00200D9000E034E70D9812B080BD3D
:104BD00080B592B00A900991089207930A980490C0
:104BE000049858B9FFE74FF0500080F31188BFF3E5
:104BF0006F8FBFF34F8F0B90FFE7FEE709990020FF
:104C0000019039B9FFE70498006C002818BF012013
:104C10000190FFE70198C00758B1FFE74FF050003F
:104C200080F31188BFF36F8FBFF34F8F0C90FFE7B6
:104C3000FEE7079900200229009007D1FFE70498BA
:104C4000C06B013818BF01200090FFE70098C00733
:104C500058B1FFE74FF0500080F31188BFF36F8F1A
:104C6000BFF34F8F0D90FFE7FEE7FFF7B1F9EFF3CA
:104C700011814FF0500080F31188BFF36F8FBFF3A5
:104C80004F8F0F910E900F9805900498806B0499A8
:104C9000C96B884204D3FFE70798022861D1FFE778
:104CA000049890F845008DF80F000498806B0290EE
:104CB00004980999079AFDF7FBFB9DF90F00013055
:104CC000A8BBFFE70498806CC8B1FFE707980228EB
:104CD00004D1FFE7029808B1FFE70FE00498FDF761
:104CE00089FE48B1FFE7089820B1FFE70899012045
:104CF000086000E0FFE700E0FFE7FFE716E0049848
:104D0000406A88B1FFE70498243000F0DFFB48B127
:104D1000FFE7089820B1FFE708990120086000E04C
:104D2000FFE700E0FFE700E0FFE7FFE716E09DF99F
:104D30000F007F280BD1FFE74FF0500080F3118860
:104D4000BFF36F8FBFF34F8F1090FFE7FEE79DF823
:104D50000F000130049981F84500FFE7012006901B
:104D600002E000200690FFE705981190119880F36B
:104D70001188069812B080BD80B58EB00990089158
:104D800007920020069009980390039858B9FFE70E
:104D90004FF0500080F31188BFF36F8FBFF34F8F38
:104DA0000B90FFE7FEE708990020019039B9FFE773
:104DB0000398006C002818BF01200190FFE70198BC
:104DC000C00758B1FFE74FF0500080F31188BFF3E0
:104DD0006F8FBFF34F8F0C90FFE7FEE700F084F971
:104DE00001460020009031B9FFE70798002818BF5E
:104DF00001200090FFE70098C00758B1FFE74FF08F
:104E0000500080F31188BFF36F8FBFF34F8F0D9069
:104E1000FFE7FEE7FFE7FEF737FF0398806B02909E
:104E2000029830B3FFE703980899FDF71FFB02983B
:104E300001380399886303980069A0B1FFE70398DC
:104E4000103000F043FB60B1FFE74EF60451CEF2A4
:104E500000014FF080500860BFF34F8FBFF36F8F9A
:104E600000E0FFE700E0FFE7FEF73AFF01200A90CD
:104E70006DE0079828B9FFE7FEF732FF00200A909F
:104E800065E0069830B9FFE704A8FFF779F901203B
:104E9000069000E0FFE7FFE7FFE7FEF721FFFFF7DF
:104EA000AFFBFEF7F1FE039890F94400013028B9FA
:104EB000FFE70399002081F84400FFE7039890F989
:104EC0004500013028B9FFE70399002081F845002B
:104ED000FFE7FEF705FF04A807A900F03BF830BB89
:104EE000FFE70398FDF75AFDD0B1FFE703982430A0
:104EF0000799FFF75FF90398FEF720F800F0B0FB81
:104F000060B9FFE74EF60451CEF200014FF0805039
:104F10000860BFF34F8FBFF36F8F00E0FFE705E03E
:104F20000398FEF70BF800F09BFBFFE70EE00398F9
:104F3000FEF704F800F094FB0398FDF72FFD18B17D
:104F4000FFE700200A9002E0FFE7FFE763E70A9827
:104F50000EB080BD80B588B005900491059858B911
:104F6000FFE74FF0500080F31188BFF36F8FBFF35E
:104F70004F8F0690FFE7FEE7049858B9FFE74FF020
:104F8000500080F31188BFF36F8FBFF34F8F0790EE
:104F9000FFE7FEE7FEF778FE40F2A030C2F2000025
:104FA00000680290029805994968401A019040F201
:104FB0002020C2F20000006890F8550058B1FFE7C9
:104FC00040F22020C2F200000168002081F8550064
:104FD0000120039037E004980068013018B9FFE71A
:104FE000002003902EE040F25830C2F2000000682A
:104FF0000599096888420CD0FFE70298059949682D
:10500000884206D3FFE7012003900499002008603E
:1050100017E001980499096888420BD2FFE7019ACA
:1050200004990868801A08600598FFF7A9F800201D
:10503000039005E004990020086001200390FFE739
:10504000FFE7FFE7FFE7FEF74BFE039808B080BDE0
:1050500070B58CB0DDF844C0DDF840C00B900A910B
:10506000ADF826200893BDF826008000FDF7CCFFA0
:105070000590059880B1FFE75820FDF7C5FF079020
:10508000079820B1FFE705980799086303E00598A2
:10509000FEF74CFEFFE702E000200790FFE70798CD
:1050A000D8B1FFE70B980A99BDF82620089BDDF8D8
:1050B00040C0119C079DEE460026CEF80C60CEF84D
:1050C0000850CEF80440CEF800C0FDF737FB079833
:1050D000FDF7BEF80120069003E04FF0FF30069088
:1050E000FFE706980CB070BD81B040F27430C2F298
:1050F0000000006818B9FFE7012000900DE040F2C1
:10510000F020C2F20000006818B9FFE7022000900A
:1051100002E000200090FFE7FFE7009801B0704731
:1051200081B040F2A030C2F2000000680090009808
:1051300001B0704780B58AB00020069040F2F020A0
:10514000C2F200000068002840F01981FFE740F239
:10515000A031C2F20001086801300590059808608E
:10516000059858BBFFE740F22820C2F20000006813
:10517000006858B1FFE74FF0500080F31188BFF38B
:105180006F8FBFF34F8F0990FFE7FEE740F22822B1
:10519000C2F200021068049040F22C21C2F2000119
:1051A000086810600498086040F25831C2F20001AB
:1051B000086801300860FDF7EBFD00E0FFE70598A7
:1051C00040F25431C2F2000109688842C0F0B68052
:1051D000FFE7FFE740F22820C2F200000068006805
:1051E00040B9FFE740F25431C2F200014FF0FF3006
:1051F0000860A2E040F22820C2F200000068C06807
:10520000C0680890089840680790059807998842F8
:1052100007D2FFE7079840F25431C2F2000108605C
:105220008BE0FFE708984069039008988168C068A0
:10523000886008998868C968486003984068089938
:105240000431884205D1FFE70898C0680399486097
:10525000FFE7089900204861039908680138086051
:105260000898806AF8B1FFE70898806A0290089869
:10527000C169006A88600899C869096A486002982B
:10528000406808991831884205D1FFE70898006AFC
:1052900002994860FFE7089900208862029908682F
:1052A0000138086000E0FFE70898C16A012000FAB1
:1052B00001F240F2F821C2F20001086810430860D0
:1052C0000898C06A00EB800040F23421C2F200016D
:1052D00001EB8000406801900198089A9060019865
:1052E0008068089AD06008980430019A92685060EB
:1052F00008980430019A9060089AD06A00EB800008
:1053000001EB800050610898C06A00EB800251F800
:105310002200013041F822000898C06A40F22021A2
:10532000C2F200010968C96A884203D3FFE701207D
:10533000069000E0FFE7FFE74CE7FFE740F22020A0
:10534000C2F200000068C06A00EB800140F2342025
:10535000C2F2000050F82100022803D3FFE7012029
:10536000069000E0FFE740F2AC30C2F200000068B7
:1053700018B1FFE70120069000E0FFE707E040F2E8
:105380005C31C2F20001086801300860FFE706984E
:105390000AB080BD80B586B00390039802900020CB
:1053A00001900398002800F08D80FFE7029840F2FA
:1053B0002021C2F20001096888420BD0FFE74FF0BC
:1053C000500080F31188BFF36F8FBFF34F8F0490AD
:1053D000FFE7FEE70298C06C58B9FFE74FF05000B6
:1053E00080F31188BFF36F8FBFF34F8F0590FFE7F6
:1053F000FEE70299C86C0138C8640299C86A896CD2
:1054000088425DD0FFE70298C06C002856D1FFE7C4
:1054100002980430FEF776FB68B9FFE70298C16A8C
:10542000012000FA01F240F2F821C2F200010868FE
:105430009043086000E0FFE70299886CC862029917
:10544000C86AC0F1050088610298C16A012000FAAB
:1054500001F340F2F822C2F2000211681943116010
:105460000299C96A01EB810140F23422C2F20002C2
:1054700002EB8101496800910099029B99600099B3
:105480008968029BD96002990431009B9B6859602E
:1054900002990431009B9960029BD96A01EB81015A
:1054A00002EB810159610299C96A01EB810352F84B
:1054B0002310013142F82310019000E0FFE700E0E3
:1054C000FFE700E0FFE7019806B080BD80B588B037
:1054D00006900698C068C0680590059858B9FFE71F
:1054E0004FF0500080F31188BFF36F8FBFF34F8FE1
:1054F0000790FFE7FEE70598806A03900598C16969
:10550000006A88600599C869096A4860039840681C
:1055100005991831884205D1FFE70598006A03997B
:105520004860FFE705990020886203990868013800
:10553000086040F2F020C2F200000068002859D153
:10554000FFE705984069029005988168C068886007
:1055500005998868C96848600298406805990431CF
:10556000884205D1FFE70598C06802994860FFE7C7
:10557000059900204861029908680138086005987B
:10558000C16A012000FA01F240F2F821C2F20001E2
:105590000868104308600598C06A00EB800040F27C
:1055A0003421C2F2000101EB8000406801900198B3
:1055B000059A906001988068059AD060059804303B
:1055C000019A9268506005980430019A9060059A9B
:1055D000D06A00EB800001EB800050610598C06A42
:1055E00000EB800251F82200013041F82200FDF763
:1055F000CFFB1BE040F26031C2F20001486800902E
:105600000098059AD06100988068059A1062059804
:105610001830009A9268506005981830009A90608F
:1056200005988162086801300860FFE70598C06A44
:1056300040F22021C2F200010968C96A884208D9F3
:10564000FFE70120049040F2AC31C2F20001086093
:1056500002E000200490FFE7049808B080BD00003D
:1056600080B588B000200690059040F2F020C2F28C
:105670000000006858B9FFE74FF0500080F3118830
:10568000BFF36F8FBFF34F8F0790FFE7FEE7FEF783
:10569000FBFA40F2F020C2F200000168013901601B
:1056A0000068002840F0E780FFE740F2E820C2F2FF
:1056B00000000068002800F0DD80FFE7FFE740F20F
:1056C0006030C2F200000068002800F09080FFE720
:1056D00040F26030C2F20000C068C06806900698D0
:1056E000806A04900698C169006A88600699C86952
:1056F000096A48600498406806991831884205D1C3
:10570000FFE70698006A04994860FFE706990020C1
:105710008862049908680138086006984069039017
:1057200006988168C068886006998868C96848607A
:105730000398406806990431884205D1FFE706982E
:10574000C06803994860FFE7069900204861039903
:105750000868013808600698C16A012000FA01F261
:1057600040F2F821C2F20001086810430860069870
:10577000C06A00EB800040F23421C2F2000101EB6C
:105780008000406802900298069A906002988068B3
:10579000069AD06006980430029A92685060069883
:1057A0000430029A9060069AD06A00EB800001EB08
:1057B000800050610698C06A00EB800251F8220018
:1057C000013041F822000698C06A40F22021C2F25E
:1057D00000010968C96A884207D3FFE740F2AC318B
:1057E000C2F200010120086000E0FFE767E70698C9
:1057F00018B1FFE7FDF7CCFAFFE740F25C30C2F2E8
:105800000000006801900198E0B1FFE7FFE7FFF7B3
:1058100091FC38B1FFE740F2AC31C2F20001012047
:10582000086000E0FFE7019801380190FFE7019868
:105830000028ECD1FFE740F25C31C2F20001002009
:10584000086000E0FFE740F2AC30C2F20000006800
:1058500070B1FFE7012005904EF60451CEF2000131
:105860004FF080500860BFF34F8FBFF36F8F00E0A1
:10587000FFE7FFE700E0FFE7FEF732FA059808B020
:1058800080BD000080B584B000200290FCF78AFD46
:1058900040F2A430C2F200000068B8B1FFE740F265
:1058A000A830C2F20000694648600220086042F653
:1058B0001D70C0F6000046F24A41C0F600014FF4E8
:1058C00080720023FFF7C4FB029000E0FFE702981C
:1058D00058B9FFE74FF0500080F31188BFF36F8F86
:1058E000BFF34F8F0390FFE7FEE7029804B080BD3F
:1058F00021F0004201F00043A2F16052B2F5801F96
:1059000028BFD2F17F6C0BD95FEA001C43EAC202C8
:1059100042EB507018BF704728BF20F0010070475D
:10592000B2F5801FBCBF184670474FEA410C1CF50A
:10593000001F02D2084600F0C3BC70B500F074F935
:1059400000000089FFF7F6BF4FF00040A0F580008F
:105950007047000010B591EA030F48BF83F0004381
:1059600000F1BE81841A71EB030C05D2121943EBCE
:105970000C03001B61EB0C014FEA1154A4EB135C08
:10598000DFF81CE11EEA430F18BF9EEA445F00F0F7
:10599000748021EA045123EA0E0343F48013DCF1FE
:1059A000200E32D322FA0CFE10EB0E0023FA0CFE6E
:1059B00041EB0E01CCF1200E03FA0EFE10EB0E00AF
:1059C000CCF1200E51F10001B1F5801F32D201EB74
:1059D000045112FA0EF2BDE8104058BF7047401C47
:1059E00038BF5FEA420218BF7047002814BF20F09A
:1059F000010041F100014FEA410313F5001F38BFD8
:105A00007047A1F1C04100F05DB9012A43EB0302E8
:105A1000ACF1200CDCF11F0E32BF4FF0000E23FA68
:105A20000CF310EB030041EB0451B4EB115FD0D049
:105A3000A1EB045101F58011490801EB04515FEA23
:105A400030000ED350F1000038BF12FA0EFE08D11C
:105A5000BDE81040C9E7401C38BF5FEA4202CAD126
:105A6000C3E7BDE810404FEA410313F5001F38BFFC
:105A70007047A1F1C04100F025B99EEA445F08D00B
:105A800011EA5E0FBDE8104004BF01F000410020A4
:105A90007047BDE8104070B500F0C6F864FBBE3E2C
:105AA0000000E0FF10F0004248BF4042B0FA80F32F
:105AB00010FA03F10AD0C3F11D0303F5806302EB72
:105AC00003524FEA415002EBD12170474FF00000E2
:105AD0007047000070B5DFF848C11CEA111E1EBFF8
