:020000040800F2
:1000000098430020D5010008DD010008DF01000849
:10001000E1010008E3010008E5010008000000001C
:100020000000000000000000000000006106000861
:10003000E90100080000000011060008A5060008FC
:10004000EF010008EF010008EF010008EF010008D0
:10005000EF010008EF010008EF010008EF010008C0
:10006000EF010008EF010008EF010008EF010008B0
:10007000EF010008EF010008EF010008EF010008A0
:10008000EF010008EF010008EF010008EF01000890
:10009000EF010008EF010008EF010008EF01000880
:1000A000EF010008EF010008EF0100084907000810
:1000B000EF010008EF010008EF010008EF01000860
:1000C000EF010008EF010008EF010008EF01000850
:1000D000EF01000829080008EF010008EF010008FF
:1000E000EF010008EF010008EF010008EF01000830
:1000F000EF010008EF010008EF010008EF01000820
:10010000EF010008EF010008EF010008EF0100080F
:10011000EF010008EF010008EF010008EF010008FF
:10012000EF010008EF010008EF010008EF010008EF
:1001300000F002F800F03EF80AA090E8000C8244BB
:100140008344AAF10107DA4501D100F033F8AFF298
:10015000090EBAE80F0013F0010F18BFFB1A43F0A5
:10016000010318472C5A00004C5A0000103A24BFD3
:1001700078C878C1FAD8520724BF30C830C144BF0C
:1001800004680C607047000000230024002500264E
:10019000103A28BF78C1FBD8520728BF30C148BFEA
:1001A0000B6070471FB59DE8030000F0F5F81FBD18
:1001B00010B510BD00F0A6F91146FFF7F3FF01F0EE
:1001C00023FB00F0C4F903B4FFF7F2FF03BC00F017
:1001D000F5F900000948804709480047FEE7FEE7B7
:1001E000FEE7FEE7FEE7FEE7FEE7FEE7FEE7FEE7E7
:1001F00004480549054A064B70470000E10600081F
:100200003101000898030020984300209823002023
:100210009823002070B5064600F0A2F8056806F1A4
:100220000B0020F00704B4429CBF002070BD2B4699
:100230006A68BAB11068A04210D304F1080188427C
:100240003CBF5068586007D351681019416011686D
:10025000091B016058601460101D70BD1346526880
:10026000002AE7D12146284600F082F80028DED196
:1002700070BD70B50446051F00F072F80068002CD0
:1002800014BF446870BD002C18BFAC423CBF204670
:100290006468F8D301680A18AA4218BF456003D100
:1002A0002A6805461144016028684119A1421CBF13
:1002B0006C6070BD6168696021680844286070BD29
:1002C000032A40F2308010F0030C00F0158011F882
:1002D000013BBCF1020F624498BF11F801CB00F85A
:1002E000013B38BF11F8013BA2F1040298BF00F8AE
:1002F00001CB38BF00F8013B11F0030300F082800E
:10030000083AC0F0088051F8043B083A51F804CB91
:10031000A0E80810F5E7121D5CBF51F8043B40F857
:10032000043BAFF30080D20724BF11F8013B11F862
:1003300001CB48BF11F8012B24BF00F8013B00F8A6
:1003400001CB48BF00F8012B704702F0FF0343EADE
:10035000032242EA024200F089B8704770477047B2
:100360000048704750000020704770477047704742
:1003700038B504460A4600206946AFF300800028DD
:1003800008BF38BD02460099204600F099F80120C8
:1003900038BD012000F0AEB8F8B5AFF300800546D7
:1003A00000200C46102000BF0646A819A0420DD917
:1003B000324669460020AFF30080070008BF00F016
:1003C00099F80098A04218BF0546C419FFF7C8FF66
:1003D00005600746F01D20F007004619284600F08A
:1003E0000AF8B44208BFF8BDA21B31463868BDE820
:1003F000F84000F065B800210160C0E901107047C5
:100400001020704710B5203AC0F00B80B1E81850AA
:10041000A0E81850B1E81850A0E81850203ABFF4EE
:10042000F5AF5FEA027C24BFB1E81850A0E818508D
:1004300044BF18C918C0BDE810405FEA827C24BFE1
:1004400051F8043B40F8043B08BF7047D20728BF6F
:1004500031F8023B48BF11F8012B28BF20F8023BBE
:1004600048BF00F8012B70474FF0000200B513465B
:1004700094469646203922BFA0E80C50A0E80C50C4
:10048000B1F12001BFF4F7AF090728BFA0E80C5075
:1004900048BF0CC05DF804EB890028BF40F8042B6E
:1004A00008BF704748BF20F8022B11F0804F18BFDB
:1004B00000F8012B704700000048704748000020FA
:1004C000034640688C46002818BF88423CBF03465C
:1004D0004068F8D318681844884207D00CF103002C
:1004E00020F00700001D411A521A0146081D0A603B
:1004F000FFF7BFBE10B500F039F8BDE8104000F0BE
:100500002FB870477546FFF7D7FFAE46050069461E
:10051000534620F00700854618B020B5FFF768FE67
:10052000BDE820404FF000064FF000074FF00008F4
:100530004FF0000BAC46ACE8C009ACE8C009ACE831
:10054000C009ACE8C00921F007018D46704710B51D
:100550000446AFF300802046BDE81040FFF733BEED
:10056000002801D000F02AB87047000010B501281B
:1005700005D0002103A000F027F8012010BD09A13B
:10058000F8E7000053494752544D454D3A204F7506
:1005900074206F662068656170206D656D6F72797B
:1005A000000000003A2048656170206D656D6F7233
:1005B0007920636F72727570746564000149182048
:1005C000ABBEFEE72600020070B505460C460A20C9
:1005D00000E06D1C00F011F835B128780028F8D142
:1005E00002E0641C00F009F814B120780028F8D16A
:1005F000BDE870400A20AFF3008008B569468DF869
:1006000000000320ABBE08BDFFE700BFFDE7000010
:10061000EFF30980BFF36F8F0D4B1A6820E9F00FDD
:1006200010602DE908404FF0500080F3118803F06E
:1006300085FE4FF0000080F31188BDE8084019687E
:100640000868B0E8F00F80F30988BFF36F8F704738
:100650001002002000000000000000000000000068
:10066000074B19680868B0E8F00F80F30988BFF3FA
:100670006F8F4FF0000080F311884EF00D0E704721
:100680001002002080B500F027F900F057F900F0C3
:100690009FFB00F0FDFA00F02BFB00F053FB00F095
:1006A000F7F880BD80B582B04FF0500080F311881C
:1006B000BFF36F8FBFF34F8F009004F0D1FB40B1B9
:1006C000FFE74EF60451CEF200014FF08050086073
:1006D000FFE700200190019880F3118802B080BDEF
:1006E00080B541F20001C4F20201086840F0010047
:1006F000086041F20403C4F2020318680C22CEF62B
:10070000FF021040186008684FF6FF72CFF6F662DD
:1007100010400860086820F48020086018684FF6D0
:10072000FF7CCFF2007C00EA0C00186008681040E3
:10073000086041F20801C4F202014FF41F00086092
:1007400002F0E6FE80BD000080B542F60040C4F233
:100750000100022102F0EAFE012819D1FFE742F66A
:100760000040C4F20100022102F0D6FE40F2B802BD
:10077000C2F200020020106042F63441C4F20101CE
:100780000968918042F62441C4F20101086025E025
:1007900042F60040C4F20100042102F0C7FE012825
:1007A0001AD1FFE742F60040C4F20100042102F032
:1007B000B3FE40F2B801C2F200010120086042F627
:1007C0003840C4F201000068888042F62441C4F237
:1007D00001010020086000E0FFE7FFE740F2B800F9
:1007E000C2F20000808863280BD8FFE740F2B8000F
:1007F000C2F200000068B0FA80F0400900F03CFE50
:1008000003E0012000F038FEFFE740F2E810C2F2FA
:100810000000006840F2B801C2F2000100231A464D
:1008200004F06CF880BD00007047000080B582B015
:100830008DF807008DF806109DF8060000F0C4F949
:100840009DF8070000F0E8F89DF8060000F0F6F9C2
:1008500002B080BD83B00290029800F007000090C3
:100860004EF60C51CEF200010868019001984FF647
:10087000FF02104001900198009A40EA02200022F5
:10088000C0F2FA52104301900198086003B070471B
:1008900080B582B042F20040C4F20100019000F045
:1008A00009FB0020009000F073FB0099019800F014
:1008B000EDFA009B019842F20842C4F2010211686D
:1008C00041F4602111600322194600F071FB019888
:1008D00000F02AFB02B080BD80B541F21801C4F2DD
:1008E0000201086840F01C000860086840F480407D
:1008F0000860086840F400600860086840F4007010
:10090000086041F21401C4F20201086840F00300DB
:10091000086041F21C01C4F20201086840F00100C5
:100920000860086840F002000860086840F00400B1
:100930000860032002F052FB80BD000080B58AB041
:1009400041F20000C4F20100102108910122099235
:100950004FF4005300F09AFE089940F60000C4F2EC
:1009600001000490032205924FF48063039300F08A
:100970008DFE059A0899099B40F60040C4F20100DB
:10098000079000F083FE059A079818210091022332
:1009900000F07CFE00990498059A099B00F076FE11
:1009A0000498059A48214FF4807300F06FFE049874
:1009B000059A002101910423029300F067FE01993A
:1009C0000498059A082300F061FE029B059A079897
:1009D000089900F05BFE039B059A0798089900F0C0
:1009E00055FE0498059A08998023069300F04EFE60
:1009F0000498059A0899202300F048FE069B079862
:100A00000899099A00F042FE07980899099A40232C
:100A100000F03CFE0AB080BD82B08DF807000020D7
:100A20008DF80600FFE79DF80600012852DCFFE77D
:100A300040F60C01C4F20101086820F08000086053
:100A400000208DF80500FFE79DF80500FE2808DC72
:100A5000FFE700BFFFE79DF8050001308DF80500B6
:100A6000F2E740F60C01C4F20101086840F02000F2
:100A7000086000208DF80400FFE79DF80400FE28C0
:100A800008DCFFE700BFFFE79DF8040001308DF8A8
:100A90000400F2E740F60C01C4F20101086820F0FE
:100AA0002000086000208DF80300FFE79DF8030098
:100AB000FE2808DCFFE700BFFFE79DF803000130D8
:100AC0008DF80300F2E7FFE79DF8060001308DF88E
:100AD0000600A8E700208DF80600FFE79DF8060055
:100AE00007286FDCFFE79DF807000006002809D5FE
:100AF000FFE740F60C01C4F20101086840F08000F5
:100B0000086008E040F60C01C4F20101086820F01A
:100B100080000860FFE700208DF80200FFE79DF8E5
:100B20000200FE2808DCFFE700BFFFE79DF8020097
:100B300001308DF80200F2E740F60C01C4F2010129
:100B4000086840F0200008609DF8070040008DF81C
:100B5000070000208DF80100FFE79DF80100FE2846
:100B600008DCFFE700BFFFE79DF8010001308DF8CA
:100B70000100F2E740F60C01C4F20101086820F020
:100B80002000086000208DF80000FFE79DF80000BD
:100B9000FE2808DCFFE700BFFFE79DF800000130FA
:100BA0008DF80000F2E740F60C01C4F2010108687C
:100BB00020F080000860FFE79DF8060001308DF806
:100BC00006008BE702B0704781B08DF803009DF8F6
:100BD000030048B9FFE740F60C41C4F20101086880
:100BE00020F0040008600EE09DF80300012809D100
:100BF000FFE740F60C41C4F20101086820F4806070
:100C00000860FFE7FFE740F60C01C4F20101086845
:100C100020F02000086000208DF80200FFE79DF81A
:100C20000200FE2808DCFFE700BFFFE79DF8020096
:100C300001308DF80200F2E701B0704781B08DF805
:100C400003009DF8030048B9FFE740F60C41C4F2E9
:100C50000101086840F0040008600EE09DF8030000
:100C6000012809D1FFE740F60C41C4F201010868F0
:100C700040F480600860FFE7FFE740F60C01C4F233
:100C80000101086820F02000086001B070470000F2
:100C900042F62841C4F2010142F62F20086042F6D4
:100CA0002C41C4F201014FF6FF70086042F6184172
:100CB000C4F20101086840F201221043086042F6C4
:100CC0002041C4F20101086840F03100086042F69A
:100CD0000C41C4F20101086840F00600086042F6C9
:100CE0000041C4F20101086840F00100086070474B
:100CF0002821C4F2000140F2374008602C21C4F2E0
:100D000000014FF47A7008604FF08041086840F0AD
:100D1000800008601822C4F20002106840F06000F1
:100D200010603422C4F20002642010602022C4F259
:100D30000002106840F001001060086840F00100F7
:100D40000860704740F22841C4F2000140F2374089
:100D5000086040F22C41C4F200014FF47A70086040
:100D600040F20041C4F20001086840F080000860D1
:100D700040F21C42C4F20002106840F4C04010600F
:100D800040F24042C4F200026420106040F23C4253
:100D9000C4F20002106040F22042C4F20002106867
:100DA00040F480501060086840F00100086070470F
:100DB00080B582B0ADF80600BDF8060004F05AFD1B
:100DC00049F69A11C4F29A2104F05EFC02B080BD8B
:100DD00080B582B043F60000C4F20100019002F039
:100DE000C5FC01984FF4E13102F05AFC0198002152
:100DF00002F022FD0198082102F02EFD00F03AFCDD
:100E000040F60000C4F20100182103224FF40073E1
:100E100000F03CFC019802F005FD02B080BD00002E
:100E200080B582B0019000208DF80300022000F010
:100E300081F940F2DC00C2F2000002F0EDFF40F266
:100E4000C000C2F2000002F0EFFFFFE7642002F0F2
:100E5000F5FFFBE780B584B00390FA208DF80B0016
:100E6000FFE79DF80B00411E8DF80B100121019149
:100E7000FFF7DCFC019802F0E1FF9DF80B00002178
:100E8000FFF7D4FC642002F0D9FFEAE782B00190BA
:100E90000091009830B1FFE70199886840F4006044
:100EA000886005E00199886820F400608860FFE7A9
:100EB00002B0704780B586B005900598049042F264
:100EC0000041C4F20101884210D0FFE7049842F6C5
:100ED0000001C4F20101884211D0FFE7049843F6F3
:100EE0000041C4F20101884212D01AE040F20930F8
:100EF000039002F087F9039802F072F912E040F2D1
:100F00000A30029002F07EF9029802F069F909E0D5
:100F100040F20F30019002F075F9019802F060F98B
:100F200000E0FFE706B080BD81B0009000988068C7
:100F3000C00730B9FFE70099886840F00100886079
:100F4000FFE701B07047000082B001900091009A65
:100F5000019908689043086002B0704783B002901E
:100F6000019100200090029800680199084203D086
:100F7000FFE701200090FFE7009803B070470000F2
:100F800042F23440C4F20100006800F01F007047D4
:100F900081B0009042F20441C4F20101086820F4DB
:100FA00070200860009A08681043086001B070471C
:100FB00085B004908DF80F108DF80E2002939DF8E7
:100FC0000F0005281CDCFFE70498406B01909DF89A
:100FD0000F0000EB80011F2000FA01F10198884307
:100FE00001909DF80E009DF80F1001EB810100FAB1
:100FF00001F10198084301900198049948634AE07F
:101000009DF80F000B281FDCFFE70498006B019090
:101010009DF80F0000EB8000A0F11E011F2000FAD8
:1010200001F10198884301909DF80E009DF80F1082
:1010300001EB81011E3900FA01F10198084301908A
:1010400001980499086325E09DF80F000F281FDC24
:10105000FFE70498C06A01909DF80F0000EB800044
:10106000A0F13C011F2000FA01F101988843019092
:101070009DF80E009DF80F1001EB81013C3900FA3C
:1010800001F101980843019001980499C86200E0B9
:10109000FFE7FFE7FFE79DF80E0009281BDCFFE7ED
:1010A0000498006900909DF80E0000EB40010720B5
:1010B00000FA01F100988843009002989DF80E1004
:1010C00001EB410100FA01F10098084300900098FB
:1010D0000499086124E09DF80E0011281EDCFFE74A
:1010E0000498C06800909DF80E0000EB4000A0F14D
:1010F0001E01072000FA01F1009888430090029831
:101100009DF80E1001EB41011E3900FA01F1009823
:101110000843009000980499C86000E0FFE7FFE7EB
:1011200005B0704781B000900098C06C80B201B0EB
:101130007047000081B08DF803009DF8030002287D
:101140000DD1FFE742F23441C4F20101086820F0FA
:101150001F000860086840F00200086014E09DF875
:10116000030003280DD1FFE742F23441C4F201012C
:10117000086820F01F000860086840F0030008605D
:1011800001E000BFFFE7FFE701B0704782B00190C8
:101190008DF803109DF80300C00730B1FFE70199F7
:1011A000886840F480008860FFE79DF803008007AE
:1011B000002806D5FFE70199886840F40010886090
:1011C000FFE702B07047000080B582B00190FFE7F2
:1011D00042F20040C4F201000221FFF7BFFEB8B3A3
:1011E000FFE742F20040C4F201000221FFF7ACFE2B
:1011F000FFF7C6FE022819D1FFE742F20040C4F211
:101200000100FFF78FFF000940F2DC11C2F200017C
:10121000088040F2D810C2F20000006800231A468D
:1012200003F032FA0320FFF785FF10E042F200409E
:10123000C4F20100FFF776FF010940F29420C2F2E8
:10124000000000F011F80220FFF774FFFFE7FFE74E
:1012500042F20040C4F201000121FFF797FF322063
:1012600002F0ECFDB4E7000082B00190ADF802108E
:101270000198007809280AD8FFE7BDF80200019B11
:101280001A7803EB420101321A7048800CE0019990
:1012900000200870BDF80200019B1A7803EB4201A0
:1012A00001321A704880FFE702B0704781B00090A9
:1012B0000098008800097C2815D8FFE70099088865
:1012C0000130088040F60800C4F201000068C00543
:1012D000002805D5FFE7009948880130488001E0E3
:1012E00000BFFFE7FFE700980088B0F5FA6F04D170
:1012F000FFE700990120486003E000990020486062
:10130000FFE701B07047000081B00090009838B945
:10131000FFE74FF08041086820F0010008600FE00F
:101320000098012809D1FFE740F20041C4F2000112
:10133000086820F00100086001E000BFFFE7FFE758
:1013400001B0704782B001200190009040F244301B
:10135000C2F20000006818B1FFE70020009028E00A
:1013600040F29030C2F20000006818B1FFE70020A0
:1013700000901DE040F24030C2F20000006818B159
:10138000FFE70020009012E040F25C30C2F2000063
:10139000006840F2CC21C2F200010968013988429C
:1013A00003D1FFE70220009000E0FFE7FFE7FFE73F
:1013B000FFE7009802B0704781B00090009838B9FC
:1013C000FFE74FF08041086840F0010008600FE03F
:1013D0000098012809D1FFE740F20041C4F2000162
:1013E000086840F00100086001E000BFFFE7FFE788
:1013F00001B0704740F60C41C4F20101086880F06A
:101400008000086040F29020C2F20000006840F2C4
:101410000C21C2F200010968084348B1FFE741F21C
:101420000C01C4F20101086880F40050086008E073
:1014300041F20C01C4F20101086820F40050086078
:10144000FFE7704781B00090009900200880009964
:1014500048800099486001B07047000080B582B0B4
:1014600001900198C16943F23330C3F6D37004F0A0
:101470000BF902B080BD000081B00090009848B127
:10148000FFE740F60C41C4F20101086820F00100BA
:10149000086008E040F60C41C4F20101086840F021
:1014A00001000860FFE701B07047000083B00290C0
:1014B000002001908DF80300FFE79DF80300092844
:1014C00010D8FFE702989DF8031000EB4100418817
:1014D000019808440190FFE79DF8030001308DF862
:1014E0000300EAE7019880B24CF6CD41CCF6CC413E
:1014F000A0FB0110C00803B07047000080B584B0A5
:101500008DF80F009DF80F000A2803D8FFE700F0C0
:1015100045F841E040F20820C2F200000068A8B996
:10152000FFE740F20820C2F200006946486001204F
:10153000086042F64170C0F6000045F67031C0F612
:1015400000018022002303F019FC07E040F208208C
:10155000C2F20000006802F023FDFFE70120FFF760
:101560002BFF9DF80F00282805D8FFE701201E213A
:1015700001F01EFF0FE09DF80F00502805D8FFE78F
:101580000120322101F014FF04E00120502101F07C
:101590000FFFFFE7FFE7FFE704B080BD80B540F233
:1015A0000820C2F20000006840B1FFE740F20820C6
:1015B000C2F20000006802F0FBFDFFE70120FFF728
:1015C000A3FE00200A2101F0F3FE80BD81B000904F
:1015D00000994888642250430988B0FBF1F0C0B2FA
:1015E00001B0704780B584B0039000208DF80B00E7
:1015F000FFE79DF80B100120019089B1FFE70398E8
:1016000080699DF80B2040F20401C2F2000151F8FC
:10161000221004F026F8002818BF01200190FFE7EF
:101620000198C00730B1FFE79DF80B0001308DF83D
:101630000B00DEE79DF80B0000EB80000538C0B220
:1016400004B080BD80B582B001900198FFF72EFFF5
:10165000FFF7AEFB0199C8610198FFF7FFFE019902
:1016600088610198FFF7BEFF019981F8200002B060
:1016700080BD000080B582B04FF44070019001F051
:10168000C1FD019801F0ACFD02B080BD87B00690AD
:10169000059104920393002001900090059800F0BA
:1016A0000F0001909DF81400C006002805D5FFE743
:1016B0000499019808430190FFE70020ADF80A0063
:1016C000FFE7BDF80A00072842D8FFE7BDF80A1077
:1016D0000398C840C007A0B3FFE7069800680090D1
:1016E000BDF80A0081000F2000FA01F1009888433C
:1016F00000900198BDF80A10890000FA01F10098E5
:10170000084300900598282809D1FFE7BDF80A1082
:101710000120884003990840069948610DE005982A
:10172000482809D1FFE7BDF80A1001208840039935
:10173000084006990861FFE7FFE7009806990860EE
:10174000FFE7FFE7BDF80A000130ADF80A00B8E78F
:101750000820ADF80A00FFE7BDF80A000F2846D8B8
:10176000FFE7BDF80A100398C840C007C0B3FFE701
:10177000069840680090BDF80A006FF01F0101EB69
:1017800080020F2000FA02F2009890430090019826
:10179000BDF80A2001EB820100FA01F1009808432C
:1017A00000900598282809D1FFE7BDF80A1001200C
:1017B000884003990840069948610DE0059848283B
:1017C00009D1FFE7BDF80A100120884003990840BD
:1017D00006990861FFE7FFE7009806994860FFE770
:1017E000FFE7BDF80A000130ADF80A00B4E707B022
:1017F0007047000080B51B200922114600F004FB51
:101800000020FFF727F880BD80B586B00020049047
:101810000590FEF737FF049A0A200390082102F092
:1018200061FE049A0146039840F2E813C2F20003F5
:101830001960022102F056FE40F2D811C2F20001F6
:10184000086040F29420C2F2000001F0EDFC049B1D
:1018500040F20020C2F200006946486001200860A2
:1018600041F6D910C0F6000045F68421C0F600010B
:101870004FF4807203F082FA012803D0FFE7FEF7ED
:10188000C3FEFFE740F28C20C2F2000069464860C8
:101890000120086043F25130C0F6000045F678217F
:1018A000C0F600018022002303F068FA012803D06B
:1018B000FFE7FEF7A9FEFFE740F2E010C2F20000EA
:1018C000694648600120086041F2C910C0F6000076
:1018D00045F66F21C0F600018022002303F04EFA86
:1018E000012803D0FFE7FEF78FFEFFE740F2D0109C
:1018F000C2F20000694648600120086040F621609D
:10190000C0F6000045F64421C0F600018022002305
:1019100003F034FA012803D0FFE7FEF775FEFFE776
:1019200040F2D410C2F2000069464860012008600D
:1019300040F65560C0F6000045F65221C0F60001A1
:101940008022002303F01AFA012803D0FFE7FEF7F4
:101950005BFEFFE740F28820C2F200006946486063
:101960000120086043F27520C0F6000045F68E2184
:10197000C0F600018022002303F000FA012803D002
:10198000FFE7FEF741FEFFE740F2B820C2F2000099
:10199000694648600120086043F26150C0F60000CB
:1019A00045F66021C0F600018022002303F0E6F92D
:1019B000012803D0FFE7FEF727FEFFE740F288206B
:1019C000C2F20000006802F0F3FBFFF713FF02F021
:1019D0006BFBFFE7FEE7000080B588B0079014209E
:1019E00006900320059000200390FFF78DFC012056
:1019F000FFF78AFC039840F2A801C2F200010491AB
:101A0000886040F20C21C2F200010860FFF7C6FDB9
:101A10000498FFF717FD45F65930C0F6000000F0B6
:101A20007DFAFFE740F2E410C2F20000006848B11E
:101A3000FFE740F60C41C4F20101086840F04000A5
:101A4000086008E040F60C41C4F20101086820F08B
:101A500040000860FFE740F2A800C2F20000806882
:101A600038B1FFE740F2A800C2F20000FFF71EFC09
:101A7000FFE740F2B400C2F2000000680B2816D362
:101A8000FFE740F2FC10C2F20000006878B9FFE7FF
:101A9000002002900A2101F08BFC0298FFF78CFCD9
:101AA00040F2FC11C2F2000101200860FFE740F2A1
:101AB000F810C2F20000007848B1FFE740F2A80039
:101AC000C2F20000FFF7BEFCFFF768FDFFE740F23F
:101AD000B400C2F2000000680599401A03280FD331
:101AE000FFE740F2E411C2F200010120086040F279
:101AF000A800C2F20000FFF7A5FCFFF74FFD06E0CB
:101B000040F2E411C2F2000100200860FFE740F259
:101B1000B400C2F20000006840F2EC11C2F2000111
:101B20000968401A152823D3FFE740F28820C2F243
:101B30000000006880B1FFE740F28820C2F2000098
:101B4000006802F035FB40F60C01C4F201010868A0
:101B500020F480600860FFE740F29021C2F20001AB
:101B60000020086040F2EC11C2F200010860FFE7BB
:101B700040F2E810C2F20000006840F2F011C2F238
:101B80000001002202F08EFF012840F03981FFE7BA
:101B900040F2B400C2F200000068059040F2F0107C
:101BA000C2F200008088642819DCFFE740F2A80038
:101BB000C2F2000001218160406878B1FFE740F285
:101BC000A800C2F20000FFF701FDFFF797FC40F20A
:101BD0000C21C2F2000101200860FFE711E040F291
:101BE000A801C2F2000101910020886040F20C219E
:101BF000C2F200010860FFF7D1FC0198FFF722FC58
:101C0000FFE740F2F010C2F200008088B0F57A7F62
:101C100040F3A580FFE740F2F010C2F20000808898
:101C200040F6B731884200F39A80FFE740F2F010A7
:101C3000C2F20000006838B3FFE740F2F010C2F2D1
:101C400000008088B0F5B46F11DDFFE740F2F010BE
:101C5000C2F2000080884009362808D8FFE740F229
:101C6000F811C2F200010878013008700BE040F270
:101C7000F811C2F200010020087040F29021C2F277
:101C800000010860FFE727E040F2F010C2F2000018
:101C90008088B0F5AA6F12DDFFE740F2F010C2F2C3
:101CA0000000808840F20361884208DCFFE740F2D0
:101CB000F811C2F200010878013008700BE040F220
:101CC000F811C2F200010020087040F29021C2F227
:101CD00000010860FFE7FFE740F2F810C2F20000E1
:101CE000007805283AD3FFE7922002F0A7F840F6E3
:101CF0000800C4F201000068C005002818D5FFE7FD
:101D000040F28820C2F20000006802F049F940F277
:101D1000B400C2F20000006840F2EC11C2F200010F
:101D2000086040F29021C2F200010120086006E044
:101D300040F29021C2F2000100200860FFE740F667
:101D40000C01C4F20101086820F48060086040F2D0
:101D5000F811C2F2000100200870FFE74FE040F2E6
:101D6000F010C2F200000068002840D0FFE740F207
:101D7000F010C2F200008088B0F5FA5F36DDFFE7B0
:101D800040F2F010C2F20000808842F6F72188424B
:101D90002CDCFFE740F2A800C2F20000FFF752FB84
:101DA000FFF7FCFB40F28820C2F20000006870B12F
:101DB000FFE740F28820C2F20000006802F0F8F964
:101DC00040F29021C2F2000100200860FFE740F6D7
:101DD0000C01C4F20101086820F48060086040F240
:101DE000F811C2F2000100200870FFE706E040F29F
:101DF000F811C2F2000100200870FFE7FFE7FFE7DB
:101E0000012002F01BF80DE680B586B08DF81700B2
:101E10008DF816108DF81520002004900390029084
:101E20004EF60C50CEF20000006800F4E06001466F
:101E30000191B0F5407F27D0FFE70198B0F5806FA2
:101E40001DD0FFE70198B0F5A06F14D0FFE701980F
:101E5000B0F5C06F0AD0FFE70198B0F5E06F18D178
:101E6000FFE700200390042002901AE00120039075
:101E70000320029015E002200390029011E003205D
:101E80000390012002900CE00420039000200290B7
:101E900007E04FF4A06000F033F8022003900290B6
:101EA000FFE79DF816000399C1F1040188400490F2
:101EB0009DF815000299C1F104020F21D1400140A3
:101EC00004980843049004980001049004989DF835
:101ED00017104EF20042CEF2000288549DF81720EF
:101EE00002F01F01012088404EF20011CEF20001E5
:101EF00041EAD20121F00301086006B080BD000074
:101F000081B0009000980021C0F2FA5108434EF6CB
:101F10000C51CEF20001086001B0704780B584B06A
:101F2000039000208DF80B008DF80A008DF8090051
:101F3000FFE79DF90B1000200029019020D4FFE756
:101F40009DF80A000A2807D1FFE79DF80910002034
:101F50000D29019014D0FFE79DF80A1000200D29EB
:101F6000009008D1FFE79DF809000A38B0FA80F028
:101F700040090090FFE7009880F001000190FFE722
:101F80000198C00790B1FFE79DF809008DF80A009D
:101F900003989DF80B104A1C8DF80B20405C8DF8BF
:101FA00009009DF8090001F01DFFC2E704B080BDE3
:101FB00080B582B08DF807009DF8070048F21F51E8
:101FC000C5F2EB11A0FB0101302040EA51108DF861
:101FD00006009DF807004CF6CD41CCF6CC41A0FBA5
:101FE0000120C00846F26762C6F2666280FB0223E7
:101FF0009A0802EBD37202EB8202A0EB420030306F
:102000008DF805009DF80700A0FB0121C90801EB30
:102010008101A0EB410040F030008DF804009DF8F4
:10202000060001F0DFFE9DF8050001F0DBFE9DF8E3
:10203000040001F0D7FE0A2001F0D4FE0D2001F0CB
:10204000D1FE02B080BD000080B586B0059004913D
:1020500040F28430C2F200000068029040F210208A
:10206000C2F200000268002182F8551000680430B6
:1020700001F008FC88B9FFE740F21020C2F200002E
:102080000068C16A012000FA01F240F2DC21C2F2CC
:10209000000108689043086000E0FFE70598013000
:1020A00018BBFFE7049800B3FFE740F25C31C2F2CF
:1020B000000148680190019A40F21020C2F200002D
:1020C00003689A60019A92680368DA6002680432D1
:1020D000019B9B685A6002680432019B9A60006809
:1020E00041610868013008603DE0029805990844A4
:1020F0000390039840F21021C2F200010968486081
:102100000398029988420ED2FFE740F21C20C2F2E7
:102110000000006840F21021C2F200010968043199
:1021200001F0F4FB1EE040F21820C2F2000000684B
:1021300040F21021C2F200010968043101F0E6FB0F
:10214000039840F23831C2F200010968884207D290
:10215000FFE7039840F23831C2F20001086000E066
:10216000FFE7FFE7FFE706B080BD000080B582B063
:10217000019001F01FFC40F2CC21C2F2000108687E
:102180000130086040F21020C2F20000006898B9E7
:10219000FFE7019840F21021C2F20001086040F20E
:1021A000CC20C2F200000068012803D1FFE700F054
:1021B000F7FA00E0FFE71CE040F25830C2F20000FE
:1021C0000068A0B9FFE740F21020C2F200000068EA
:1021D000C06A0199C96A884207D8FFE7019840F2AE
:1021E0001021C2F20001086000E0FFE700E0FFE715
:1021F000FFE740F2D820C2F200000168013101601F
:102200000068019908640198C16A012000FA01F28E
:1022100040F2DC21C2F20001086810430860019816
:10222000C06A00EB800040F22421C2F2000101EB01
:102230008000406800900098019A90600098806843
:10224000019AD06001980430009A92685060019819
:102250000430009A9060019AD06A00EB800001EB94
:10226000800050610198C06A00EB800251F82200A2
:10227000013041F8220001F0C9FB40F25830C2F2AF
:1022800000000068C8B1FFE740F21020C2F2000071
:102290000068C06A0199C96A88420CD2FFE74EF60D
:1022A0000451CEF200014FF080500860BFF34F8F11
:1022B000BFF36F8F00E0FFE700E0FFE702B080BDF3
:1022C00080B582B001F076FB40F28830C2F20000A7
:1022D000006828BBFFE740F2E020C2F20000009057
:1022E00001F0F4FA40F2F420C2F20000019001F093
:1022F000EDFA0099019840F21422C2F20002116036
:1023000040F22021C2F200010860052010210022C5
:1023100002F0E8F840F28831C2F20001086000E003
:10232000FFE701F073FB02B080BD000080B582B012
:10233000FFE740F2D020C2F20000006808B3FFE7D8
:1023400001F038FB40F27030C2F20000C068C06893
:1023500001900198043001F095FA40F2CC21C2F2CC
:10236000000108680138086040F2D021C2F2000183
:1023700008680138086001F049FB019800F08CF80A
:10238000D7E702B080BD000080B582B00190009117
:102390000198006CB8B1FFE70199C8680A6C104455
:1023A000C86001988168C068884204D3FFE701993A
:1023B0000868C86000E0FFE70098019AD168126CD5
:1023C000FDF77EFFFFE702B080BD000080B586B05C
:1023D000059004910392002002900598806B019073
:1023E0000598006C78B9FFE70598006848B9FFE7E1
:1023F0000598806802F064FE0290059900208860CC
:1024000000E0FFE741E00398B8B9FFE7059A0499B7
:102410005068126CFDF754FF059948680A6C104427
:102420004860059948688968884204D3FFE70599A0
:102430000868486000E0FFE726E0059A0499D06844
:10244000126CFDF73DFF0599C8680A6C801AC860D8
:1024500005980168C068884206D2FFE70599886838
:102460000A6C801AC86000E0FFE70398022809D1CF
:10247000FFE7019820B1FFE701980138019000E0E3
:10248000FFE700E0FFE7FFE7FFE70198013005996C
:102490008863029806B080BD80B582B00190019833
:1024A000006B01F0D9FA019801F0D6FA02B080BDB4
:1024B00083B0002001900120009040F2DC20C2F2A5
:1024C00000000068022803D3FFE701200190FFE726
:1024D00040F21020C2F200000068C06A18B1FFE7A5
:1024E000002002901FE040F22420C2F200000068A9
:1024F000022803D3FFE70020029013E0019818B1EF
:10250000FFE7002002900CE040F23830C2F20000F9
:10251000006840F28431C2F200010968401A02905A
:10252000FFE7FFE7FFE7029803B0704782B0019032
:1025300040F21420C2F2000000680068B0FA80F097
:102540004009019908600198006848B9FFE740F226
:102550001420C2F200000068C0680068009002E029
:1025600000200090FFE7009802B0704780B584B06B
:102570000290FFE7FFF7DAFE40F22420C2F20000EB
:10258000006802280CD3FFE74EF60451CEF200019A
:102590004FF080500860BFF34F8FBFF36F8F00E0A4
:1025A000FFE7FFF785FF01900198022829D3FFE795
:1025B00001F0BCFE40F23830C2F20000006840F288
:1025C0008431C2F20001096888420BD2FFE74FF064
:1025D000500080F31188BFF36F8FBFF34F8F0390CC
:1025E000FFE7FEE7FFF764FF01900198022804D39C
:1025F000FFE7019801F07CFA00E0FFE702F0C6FE79
:1026000000E0FFE7B6E7000080B584B0DDF818C051
:102610000390029101928DF80330029818B9FFE7F8
:102620000698006003E0019806990860FFE70398A8
:102630000699C8630298069908640698012101F07A
:102640009FFF9DF80300069981F85000069900202D
:10265000886404B080BD000080B58AB0DDF83CC05D
:10266000DDF838C0DDF834C0DDF830C007900691E1
:10267000059204930E98006B05998900A522FDF739
:1026800064FE0E98006B059900EB810004380390FE
:10269000039820F0070003909DF80C00400758B104
:1026A000FFE74FF0500080F31188BFF36F8FBFF347
:1026B0004F8F0890FFE7FEE70698F8B1FFE700208C
:1026C0000290FFE70298092813D8FFE70698029ABC
:1026D000805C0E99114481F8340006980299405CA0
:1026E00008B9FFE705E0FFE7FFE702980130029035
:1026F000E8E70E99002081F83D0004E00E990020E3
:1027000081F83400FFE70C9805280BD3FFE74FF062
:10271000500080F31188BFF36F8FBFF34F8F099084
:10272000FFE7FEE70C98052803D3FFE704200C9091
:1027300000E0FFE70C980E99C8620C980E99886427
:102740000E9900200190C8640E98043001F0D6F86C
:102750000E98183001F0D2F801980E9909610C9981
:10276000C1F105010E9A91610E9949620E990865B1
:102770000E9981F854000E9981F855000398079935
:10278000049A00F003FC0E9908600D9820B1FFE751
:102790000E980D99086000E0FFE70AB080BD0000C8
:1027A00080B584B000200390FFE70398042810D878
:1027B000FFE7039800EB800140F22420C2F2000002
:1027C00000EB810001F082F8FFE7039801300390ED
:1027D000EBE740F20830C2F20000019001F076F819
:1027E00040F21C30C2F20000029001F06FF840F29B
:1027F0004430C2F2000001F069F840F27030C2F2D9
:10280000000001F063F840F25C30C2F2000001F019
:102810005DF80199029840F21822C2F2000211609C
:1028200040F21C21C2F20001086004B080BD00002B
:1028300080B586B005900491039202930020019028
:1028400004980599486005980061049803998842A6
:1028500016D8FFE703980299401A059989698842BA
:1028600003D3FFE70120019009E040F22020C2F2EB
:10287000000000680599043101F048F8FFE717E00F
:1028800003980299884208D2FFE704980299884287
:1028900003D3FFE70120019009E040F21420C2F2C7
:1028A000000000680599043101F030F8FFE7FFE708
:1028B000019806B080BD000080B582B0019001F0A3
:1028C00079F80198806B18B9FFE70120009002E0C9
:1028D00000200090FFE701F099F8009802B080BD59
:1028E00080B582B0019001F065F80198806B019984
:1028F000C96B884203D1FFE70120009002E000206D
:102900000090FFE701F082F8009802B080BD00005F
:1029100080B588B004900498806C039000200290E9
:10292000039858B9FFE74FF0500080F31188BFF3C8
:102930006F8FBFF34F8F0590FFE7FEE70398806B23
:102940000399C96B88420BD3FFE74FF0500080F327
:102950001188BFF36F8FBFF34F8F0690FFE7FEE73D
:102960000398806B0399C96B884239D2FFE70398BB
:1029700090F845008DF80700039804A90022FFF79E
:1029800025FD02909DF90700013088B9FFE7039803
:10299000406A58B1FFE70398243002F02DFC18B1CB
:1029A000FFE70120029000E0FFE700E0FFE716E00C
:1029B0009DF907007F280BD1FFE74FF0500080F30F
:1029C0001188BFF36F8FBFF34F8F0790FFE7FEE7CC
:1029D0009DF807000130039981F84500FFE700E00A
:1029E000FFE7029808B080BD06480068006880F3E1
:1029F000088862B661B6BFF34F8FBFF36F8F00DFF9
:102A000000BF00BF08ED00E080B584B003900291E4
:102A100040F21420C2F200000068C068C068019053
:102A20000198043000F02EFF019890F8280040072C
:102A3000002806D5FFE701980399029A00F01CF9D7
:102A400007E0019991F8280000F0FE0081F82800C5
:102A5000FFE70198016A884704B080BD80B58CB05B
:102A6000FFE740F28830C2F20000006806A90022A9
:102A700002F018F8002800F0AF80FFE70698B0F1E8
:102A8000FF3F17DCFFE706A804300290029858B910
:102A9000FFE74FF0500080F31188BFF36F8FBFF353
:102AA0004F8F0A90FFE7FEE702990A684868896835
:102AB000904700E0FFE70698002800F18C80FFE7D0
:102AC000089805900598406928B1FFE705980430FB
:102AD00000F0D8FE00E0FFE704A800F005F903903D
:102AE0000698013801460191082800F27280019988
:102AF000DFE801F00505323A5B0505323A00059939
:102B000091F8280040F0010081F828000598079B03
:102B100081691944039AFFF78BFED8B1FFE7059846
:102B200090F828004007002808D5FFE70598079986
:102B300082691144039A00F09FF807E0059991F823
:102B4000280000F0FE0081F82800FFE70598016AE0
:102B5000884700E0FFE73DE0059991F8280000F084
:102B6000FE0081F8280035E0059991F8280040F032
:102B7000010081F828000798059988610598806907
:102B800058B9FFE74FF0500080F31188BFF36F8F03
:102B9000BFF34F8F0B90FFE7FEE70598039B81691A
:102BA00019441A46FFF744FE14E0059890F82800EF
:102BB0008007002804D4FFE7059800F04DFF07E0E8
:102BC000059991F8280000F0FE0081F82800FFE741
:102BD00000E0FFE7FFE744E70CB080BD80B584B0BC
:102BE0000390029101F0A2FB684600F07DF801908D
:102BF0000098D8BBFFE7029860B9FFE703980199F6
:102C0000884207D8FFE702F0C1FB03980199FFF75C
:102C1000FBFE2AE0029858B1FFE740F22020C2F202
:102C2000000000680068B0FA80F040090290FFE7F9
:102C300040F28830C2F2000000680399019A891AB4
:102C4000029A01F09DF802F0A1FB60B9FFE74EF691
:102C50000451CEF200014FF080500860BFF34F8F57
:102C6000BFF36F8F00E0FFE7FFE702E002F08EFBAB
:102C7000FFE704B080BD000080B584B003900291EE
:102C80000192FFE70398029B81691944019AFFF7BB
:102C9000CFFD48B1FFE7039881690298084402908C
:102CA0000398016A8847EDE704B080BD40F2182020
:102CB000C2F200000068006840B9FFE740F2383116
:102CC000C2F200014FF0FF3008600CE040F2182023
:102CD000C2F200000068C068006840F23831C2F2F9
:102CE00000010860FFE7704780B582B0019002F0F4
:102CF000ADF80090009840F20421C2F2000109688A
:102D0000884206D2FFE700F011F80199012008601F
:102D100003E0019900200860FFE7009840F20421D9
:102D2000C2F200010860009802B080BD80B582B098
:102D3000FFE740F21420C2F200000068006870B1A2
:102D4000FFE740F21420C2F200000068C06800688B
:102D5000019001984FF0FF31FFF756FEE9E740F28E
:102D60001422C2F200021068009040F22021C2F248
:102D70000001086810600098086002B080BD000083
:102D800083B00020009040F24000C2F200000068D2
:102D9000013058B1FFE74FF0500080F31188BFF3C6
:102DA0006F8FBFF34F8F0190FFE7FEE74FF05000AA
:102DB00080F31188BFF36F8FBFF34F8F0290FFE74F
:102DC000009808B9FFE7FBE703B0704784B00290B2
:102DD0000020019002980090029858B9FFE74FF048
:102DE000500080F31188BFF36F8FBFF34F8F0390B4
:102DF000FFE7FEE70098406940F25C31C2F2000153
:102E0000884214D1FFE70098806A40F24431C2F250
:102E10000001884209D0FFE70098806A18B9FFE7EF
:102E20000120019000E0FFE700E0FFE700E0FFE79E
:102E3000019804B07047000080B584B00390FFE7AC
:102E400001A8FFF773FB029002980199FFF7C6FEF5
:102E5000FFF704FEF4E7000080B582B0019000F0B7
:102E6000A9FD019890F845008DF80300FFE79DF952
:102E70000300012825DBFFE70198806C50B1FFE7D4
:102E80000198FFF745FD18B1FFE701F021F800E0D8
:102E9000FFE710E00198406A58B1FFE7019824303D
:102EA00002F0AAF918B1FFE701F012F800E0FFE71D
:102EB00000E006E0FFE79DF8030001388DF803000D
:102EC000D5E70199FF2081F8450000F09FFD00F053
:102ED00071FD019890F844008DF80200FFE79DF91C
:102EE0000200012816DBFFE70198006980B1FFE7C7
:102EF0000198103002F080F918B1FFE700F0E8FF08
:102F000000E0FFE79DF8020001388DF8020000E0C4
:102F100000E0E4E70199FF2081F8440000F076FD2D
:102F200002B080BD80B582B0019001F0FFF9019838
:102F3000FDF770F9009002F029FA009802B080BD08
:102F400080B584B00390FFE700200090322100F0AC
:102F50002FFA42F21070029000F070FF00982D21BD
:102F6000019100F025FA029800F068FF00983721DF
:102F700000F01EFA029800F061FF0098019900F03D
:102F800017FA029800F05AFFDEE7000083B00290C3
:102F90000191009202980438029002994FF08070DB
:102FA0000860029804380290019820F0010002990C
:102FB0000860029804380290029942F68150C0F6E7
:102FC0000000086002981438029000980299086086
:102FD000029820380290029803B0704783B00290A4
:102FE00041F20400C4F2020000680190019843F627
:102FF000FF71CEF6FF7108400190029800900428FE
:1030000008D3FFE7009805280AD0FFE700980728B3
:1030100006D011E00299019840EA813001900CE05D
:10302000029820F0040002900299019840EA813051
:1030300040F08050019000E0FFE7019841F2040168
:10304000C4F20201086003B07047000097B0169008
:103050000020149040F20671C0F60811099140F268
:103060000121C0F203410891079006900591049058
:103070000391029041F20400C4F202000068C0F320
:10308000810015901598019040B1FFE70198012843
:103090000AD0FFE7019802280CD05AE041F2002044
:1030A000C0F27A0013905AE041F20020C0F27A0098
:1030B000139054E041F20400C4F20200006800F4EE
:1030C00080300F900F98B0F5803F19D1FFE741F2A3
:1030D0000020C0F27A000C9041F20400C4F2020019
:1030E000006800F400300E900E98B0F5003F06D155
:1030F000FFE740F60010C0F23D000C90FFE705E04E
:1031000040F60010C0F23D000C90FFE741F20400D1
:10311000C4F202000168C1F383410D91006800010F
:10312000002805D5FFE70D9840F010000D90FFE74F
:103130000D980E2804D8FFE70D9802300D9003E09B
:103140000D9801300D90FFE70C980D9948431390AE
:1031500005E041F20020C0F27A001390FFE741F24F
:103160000400C4F202000168C9B209090B910B9A6C
:1031700006A9895C0A9113990A9AD14012910168B3
:10318000C1F302210B910B9A04A9895C0A9112994F
:103190000A9AD14011910068C0F3C2200B900B999C
:1031A00002A8405C0A9012980A99C840109016989C
:1031B0000090032810D80099DFE801F00205080B01
:1031C0001398149009E01298149006E01198149046
:1031D00003E01098149000E0FFE7149817B07047D0
:1031E00081B00090009800F01F02012101FA02F363
:1031F000810941F20002C4F20202885898438850C3
:1032000001B0704781B00090009800F01F020121CA
:1032100001FA02F3810941F20002C4F20202885865
:103220001843885001B0704782B001900199002086
:103230008861019908708DF80300FFE79DF803008D
:1032400009280ED8FFE701989DF8031000EB410113
:1032500000204880FFE79DF8030001308DF803004F
:10326000ECE70199002081F820000199C86102B0C3
:103270007047000010B594B0139045F60423C0F6D3
:1032800000030193186859689A68D3F80CC0D3F802
:1032900010E05C690894CDF81CE0CDF818C00592E8
:1032A000049103909869D9691A6AD3F824C0D3F8B5
:1032B00028E0DC6A0E94CDF834E0CDF830C00B92F3
:1032C0000A910990186B596B9A6BDB6B12931192F0
:1032D00010910F9000208DF80B00FFE79DF80B1068
:1032E00003A850F8310048B9FFE740F60C01C4F2DA
:1032F0000101086840F48060086008E040F60C01B5
:10330000C4F20101086820F480600860FFE79DF8BE
:103310000B00072816D8FFE79DF80B10481C8DF806
:103320000B0003A800EBC10080884FF47A7148437A
:1033300044F6D351C1F26201A0FB0110800900F0F4
:103340007DFD03E000208DF80B00FFE7C6E70000DD
:1033500080B582B0019000200090FFE7012000F0CE
:103360006DFD009840F2E73188420AD1FFE7002066
:10337000009040F2B401C2F2000108680130086018
:1033800003E0009801300090FFE7009847F6D50170
:10339000C2F2E96148434FEA700042F2DD41C0F2F7
:1033A0000611884203D8FFE7FEF724F8FFE7D5E7C8
:1033B00082B001908DF80310019868B9FFE79DF87D
:1033C000030000EB80014FF0FF3000EB410034219F
:1033D000C4F20001086014E0019801280ED1FFE753
:1033E0009DF8030000EB80014FF0FF3000EB41003F
:1033F00040F24041C4F20001086001E000BFFFE775
:10340000FFE702B07047000084B0002003900290F4
:1034100041F20001C4F20201086840F48030086003
:10342000FFE703980130039041F20000C4F202006C
:10343000006800F400300290FFE70299002001903C
:1034400041B9FFE703984FF6FF71401A18BF0120FA
:103450000190FFE70198C0070028E2D1FFE741F2A1
:103460000000C4F2020000688003002802D4FFE7D5
:10347000FFE7FEE741F20401C4F20201009108688F
:10348000086008680860086840F4806008600868A0
:1034900020F440300860086840F440300860086854
:1034A0004FF6FF72CFF2C372104008600868002226
:1034B000C0F628021043086041F20001C4F2020184
:1034C000086840F080700860FFE741F20000C4F235
:1034D000020000688001002801D4FFE7F5E741F20F
:1034E0000401C4F20201086820F0030008600868C3
:1034F00040F002000860FFE741F20400C4F202005D
:1035000000680007002801D4FFE7F5E704B0704722
:1035100080B5FFF779FF80BD82B001900091009ADD
:10352000019908699043086102B0704784B0029025
:1035300001910298C06801990840009002980069C2
:103540000199084206D0FFE7009818B1FFE7012073
:10355000039002E000200390FFE7039804B0704757
:1035600080B584B00390FFE740F29420C2F20000DF
:103570000090FEF767F845F6F720C0F60000FEF76A
:10358000CDFC4EF60451CEF2000101914FF0805077
:1035900002900860BFF34F8FBFF36F8F45F6D320C3
:1035A000C0F60000FEF7BAFC0098019A029911607B
:1035B000BFF34F8FBFF36F8F90F82000FEF7F8FC3A
:1035C000019902980860BFF34F8FBFF36F8F45F6E4
:1035D0009C20C0F60000FEF7A1FC0199029808604B
:1035E000BFF34F8FBFF36F8F40F2E410C2F20000C1
:1035F000006838B1FFE745F61F30C0F60000FEF75F
:103600008DFCFFE74EF60451CEF200014FF08050E2
:103610000860BFF34F8FBFF36F8F40F20C20C2F2F0
:103620000000006878B1FFE745F6AD20C0F6000065
:10363000FEF774FC40F2A800C2F20000FDF7C6FFDE
:10364000FEF7B6FCFFE74EF60451CEF200014FF054
:1036500080500860BFF34F8FBFF36F8F40F2902010
:10366000C2F20000006838B1FFE745F63430C0F61A
:103670000000FEF753FCFFE74EF60451CEF20001C6
:103680004FF080500860BFF34F8FBFF36F8F0A2059
:1036900000F0A8FB4FF47A7000F0D0FB64E7000064
:1036A00080B588B0079006910020059004900390A3
:1036B00002900798019044F20041C4F20001884250
:1036C00025D0FFE7019844F60001C4F200018842CA
:1036D00022D0FFE7019844F60041C4F2000188427D
:1036E0001FD0FFE7019845F20001C4F200018842B3
:1036F0001CD0FFE7019843F60001C4F201018842A3
:1037000019D1FFE70320FFF7A1FC059014E0022088
:10371000FFF79CFC05900FE00220FFF797FC059057
:103720000AE00220FFF792FC059005E00220FFF777
:103730008DFC059000E0FFE70598069900EB51002D
:10374000B0FBF1F0029002984FF6F071084004903F
:10375000029800F00F000390BDF81000BDF80C10A7
:1037600008430799886008B080BD000080B588B024
:1037700007900798069044F20041C4F20001884285
:1037800029D0FFE7069844F60001C4F20001884200
:103790002AD0FFE7069844F60041C4F200018842AF
:1037A0002BD0FFE7069845F20001C4F200018842E1
:1037B0002CD0FFE7069843F60001C4F201018842CD
:1037C0002DD1FFE740F20E300590FFF71BFD059865
:1037D000FFF706FD24E040F211400490FFF712FDD0
:1037E0000498FFF7FDFC1BE040F212400390FFF746
:1037F00009FD0398FFF7F4FC12E040F21340029039
:10380000FFF700FD0298FFF7EBFC09E040F21440DF
:103810000190FFF7F7FC0198FFF7E2FC00E0FFE7FB
:1038200008B080BD81B000900099C86840F4005095
:10383000C86001B07047000082B00190009101990A
:10384000C86820F4C060C860009A0199C868104335
:10385000C86002B07047000083B002900191002060
:1038600000900298C0680090009820F00800009036
:10387000019900980843009000980299C86003B02D
:103880007047000082B00190019800690090019893
:103890004168806888600199486889684860009834
:1038A00040680199884205D1FFE701988068009936
:1038B000486000E0FFE7019900200861009908686E
:1038C000013808600098006802B0704781B000902D
:1038D000009901F10800486000994FF0FF308860BE
:1038E000009901F10800C860009901F10800086121
:1038F00000990020086001B07047000081B000907E
:1039000000990020086101B07047000084B0039066
:1039100002910298006800900098013020B9FFE7FA
:1039200003980069019010E0039808300190FFE7C8
:103930000198406800680099884205D8FFE7FFE7D2
:10394000019840680190F3E7FFE701984068029909
:1039500048600298416888600198029988600298DE
:103960000199486003980299086103990868013039
:10397000086004B07047000083B002900191029883
:10398000406800900098019948600098806801990B
:10399000886001980099896848600198009988605A
:1039A000029801990861029908680130086003B023
:1039B0007047000082B04FF0500080F31188BFF3D1
:1039C0006F8FBFF34F8F009040F24000C2F20000B3
:1039D0000168013101600068012814D1FFE74EF64B
:1039E0000450CEF200000068000658B1FFE74FF027
:1039F000500080F31188BFF36F8FBFF34F8F01909A
:103A0000FFE7FEE7FFE702B07047000082B040F238
:103A10004000C2F20000006858B9FFE74FF05000C4
:103A200080F31188BFF36F8FBFF34F8F0090FFE7D4
:103A3000FEE740F24000C2F2000001680139016077
:103A4000006830B9FFE700200190019880F31188E9
:103A5000FFE702B07047000080B582B00190019886
:103A600040B1FFE700F062FC0198FCF702FC01F0B6
:103A70008DFCFFE702B080BD40F20000C2F2000002
:103A8000016844F6D352C1F26202A1FB02318B09F4
:103A900040F2C821C2F200010B600B686FF07F4159
:103AA000B1FBF3F140F23433C2F20003196040F28B
:103AB000C423C2F200032D2119604EF21001CEF290
:103AC000000100230B604EF2180CCEF2000CCCF873
:103AD00000300068A0FB02024FF0FF3000EB9210B4
:103AE0004EF21402CEF20002106007200860704708
:103AF00080B586B00590059840F23431C2F20001DD
:103B00000968884207D9FFE740F23430C2F200006A
:103B100000680590FFE74EF21001CEF20001086840
:103B200020F0010008604EF21800CEF2000002689A
:103B300040F2C820C2F2000000680599013900FB7C
:103B400001200490049840F2C421C2F200010968E7
:103B5000884209D9FFE740F2C420C2F200000168A0
:103B60000498401A0490FFE772B6BFF34F8FBFF37B
:103B70006F8FFDF7E7FBD8B9FFE74EF21800CEF2E2
:103B8000000000684EF21401CEF2000108604EF20F
:103B90001002CEF20002106840F00100106040F206
:103BA000C820C2F2000000680138086062B6A3E0D5
:103BB00004984EF21401CEF2000108604EF2180192
:103BC000CEF20001002008604EF21001CEF200019A
:103BD000086840F00100086005980190019830B134
:103BE000FFE7BFF34F8F30BFBFF36F8FFFE762B6C2
:103BF000BFF34F8FBFF36F8F72B6BFF34F8FBFF31B
:103C00006F8F4EF21000CEF20000062101600068B6
:103C1000C003002833D5FFE740F2C820C2F20000FD
:103C20000068049A4EF21801CEF200010968891A60
:103C3000084401380090009840F2C421C2F200010B
:103C40000968884209D3FFE7009840F2C821C2F210
:103C500000010968884208D9FFE740F2C820C2F293
:103C60000000006801380090FFE700984EF2140150
:103C7000CEF2000108600598013803901EE0059817
:103C800040F2C821C2F200010A6850434EF2180205
:103C9000CEF200021268801A029002980A68B0FB05
:103CA000F2F0039003980130096848430299401AE2
:103CB0004EF21401CEF200010860FFE74EF2180147
:103CC000CEF20001002008604EF21001CEF2000199
:103CD000086840F001000860039800F043FA40F2E1
:103CE000C820C2F20000006801384EF21401CEF282
:103CF0000001086062B6FFE706B080BD84B0EFF354
:103D000005800190019810281ED3FFE701984EF21C
:103D1000F031CEF20001405C8DF803009DF8030005
:103D200040F2BC21C2F20001097888420BDAFFE7B9
:103D30004FF0500080F31188BFF36F8FBFF34F8FA8
:103D40000290FFE7FEE7FFE74EF60C50CEF20000D0
:103D5000006800F4E06040F2C021C2F2000109688E
:103D600088420BD9FFE74FF0500080F31188BFF372
:103D70006F8FBFF34F8F0390FFE7FEE704B07047EC
:103D800080B584B003900291019203980090FFF7F0
:103D900011FE009890F94400013028B9FFE700991E
:103DA000002081F84400FFE7009890F945000130B9
:103DB00028B9FFE70099002081F84500FFE7FFF7E9
:103DC00025FE0098806B38B9FFE7009824300299EF
:103DD000019A00F0A7F800E0FFE70098FFF73CF831
:103DE00004B080BD81B08DF80300FFE743F600000A
:103DF000C4F20100006800F08000802802D0FFE7D4
:103E000000BFF3E79DF8030043F60401C4F201018B
:103E1000086001B07047000081B000900099012057
:103E2000C1F8F00001B0704781B000900099012006
:103E3000886100990020087501B0704780B584B092
:103E40000290002001900298E0B1FFE740F2D420F8
:103E5000C2F20000006858B1FFE74FF0500080F355
:103E60001188BFF36F8FBFF34F8F0390FFE7FEE71B
:103E700000F05CFA02980021FEF7E6F801F086FAFD
:103E8000019000E0FFE7019860B9FFE74EF60451AA
:103E9000CEF200014FF080500860BFF34F8FBFF3A8
:103EA0006F8F00E0FFE704B080BD000081B000909C
:103EB00040F23C30C2F2000000680099086040F215
:103EC0008430C2F2000000680099486001B0704779
:103ED00040F29031C2F200010120086070470000FA
:103EE00080B584B002900191029858B9FFE74FF075
:103EF000500080F31188BFF36F8FBFF34F8F039093
:103F0000FFE7FEE7029840F21021C2F200010968C3
:103F10001831FFF7FBFC01980121FEF795F804B07A
:103F200080BD000080B586B0049003910292049891
:103F300058B9FFE74FF0500080F31188BFF36F8F3F
:103F4000BFF34F8F0590FFE7FEE7049840680190AC
:103F5000019840F21021C2F200010A68D061019874
:103F600080680A68106208681830019A9268506088
:103F700008681830019A906004980968886204996A
:103F8000086801300860029820B1FFE74FF0FF3069
:103F90000390FFE703980299FEF756F806B080BD3C
:103FA00080B584B0029002980190029858B9FFE75A
:103FB0004FF0500080F31188BFF36F8FBFF34F8F26
:103FC0000390FFE7FEE7019840F21021C2F20001E2
:103FD0000968884265D0FFE70198002861D0FFE7B3
:103FE000FFF7E8FC0198FEF7F1FE002855D0FFE747
:103FF00001980430FFF746FC0198C16A012000FADD
:1040000001F240F2DC21C2F20001086810430860AE
:104010000198C06A00EB800040F22421C2F2000146
:1040200001EB8000406800900098019A9060009831
:104030008068019AD06001980430009A92685060BC
:1040400001980430009A9060019AD06A00EB8000D9
:1040500001EB800050610198C06A00EB800251F8CA
:104060002200013041F822000198C06A40F210217C
:10407000C2F200010968C96A88420CD3FFE74EF614
:104080000451CEF200014FF080500860BFF34F8F13
:10409000BFF36F8F00E0FFE700E0FFE7FFF7B6FC3C
:1040A00000E0FFE704B080BD80B586B040F230315B
:1040B000C2F20001684641600023036042F26D5085
:1040C000C0F6000045F67D31C0F60001802200F008
:1040D00055FE03900398012804D1FFE701F068FA28
:1040E000039000E0FFE70398012823D1FFE74FF09A
:1040F000500080F31188BFF36F8FBFF34F8F049090
:1041000040F23831C2F200014FF0FF30086040F257
:104110005831C2F200010120086040F28431C2F23D
:1041200000010020086000F069F908B1FFE700E035
:10413000FFE70FE00398013058B9FFE74FF0500058
:1041400080F31188BFF36F8FBFF34F8F0590FFE7A8
:10415000FEE7FFE745F68C30C0F60000006806B0C9
:1041600080BD000082B0009040F28430C2F20000B6
:1041700000680099084440F23831C2F20001096831
:1041800088420BD9FFE74FF0500080F31188BFF34E
:104190006F8FBFF34F8F0190FFE7FEE7009A40F269
:1041A0008431C2F2000108681044086002B0704710
:1041B00080B586B00490FFF7FDFB049838B9FFE79F
:1041C00040F21020C2F200000068019002E0049862
:1041D0000190FFE70198039003980430FFF752FB2A
:1041E000D0B9FFE70398C06A00EB800140F22420B9
:1041F000C2F2000050F8210068B9FFE70398C16AD5
:10420000012000FA01F240F2DC21C2F2000108684C
:1042100090430860FFE700E0FFE70398806A28B159
:10422000FFE703981830FFF72DFB00E0FFE7039846
:10423000011D40F25C30C2F20000FFF79DFB002040
:104240000290FFE70298002814DCFFE70398029928
:10425000084490F85400012807D1FFE70398029919
:104260000144002081F85400FFE7FFE70298013085
:104270000290E7E7FFF7CAFB40F25830C2F20000B5
:10428000006838B1FFE7FFF795FBFEF70FFDFFF77A
:10429000BDFB00E0FFE7039840F21021C2F20001ED
:1042A000096888423ED1FFE740F25830C2F2000070
:1042B0000068F0B1FFE740F2D420C2F200000068CD
:1042C00058B1FFE74FF0500080F31188BFF36F8FB4
:1042D000BFF34F8F0590FFE7FEE74EF60451CEF295
:1042E00000014FF080500860BFF34F8FBFF36F8F16
:1042F00017E040F25C30C2F20000006840F2CC21CE
:10430000C2F200010968884207D1FFE740F210219C
:10431000C2F200010020086002E000F00FF8FFE7A1
:10432000FFE700E0FFE706B080BD000040F2D421C7
:10433000C2F20001086801300860704785B040F2A1
:10434000D420C2F20000006838B1FFE740F290319B
:10435000C2F20001012008604DE040F29031C2F24B
:1043600000010020086040F2DC20C2F2000000687A
:1043700003900398B0FA80F08DF80B009DF80B00C5
:10438000C0F11F000190019800EB800140F2242051
:10439000C2F2000050F8210058B9FFE74FF050007A
:1043A00080F31188BFF36F8FBFF34F8F0490FFE747
:1043B000FEE7019800EB800140F22420C2F20000E9
:1043C00000EB8100009000994868406848600099BF
:1043D00048680831884205D1FFE70099486840687D
:1043E0004860FFE700984068C06840F21021C2F2C0
:1043F00000010860FFE705B07047000080B586B097
:104400004EF20040CEF20000039001780491FF21AB
:10441000017000788DF80B009DF80B0000F0500043
:1044200040F2BC21C2F20001087040F2C021C2F289
:10443000000107200860FFE79DF80B000006002838
:104440000DD5FFE740F2C021C2F200010868013833
:1044500008609DF80B0040008DF80B00ECE740F27F
:10446000C020C2F20000006803280BD0FFE74FF025
:10447000500080F31188BFF36F8FBFF34F8F05900B
:10448000FFE7FEE740F2C021C2F200010868000227
:104490000860086800F4E060086004984EF200418B
:1044A000CEF2000108704EF62051CEF200010868ED
:1044B00040F4E0000860086840F0E0400860FFF762
:1044C000DBFA40F24001C2F20001002001900860D6
:1044D000FEF78AFAFFF732FFFEF752FC019806B0AA
:1044E00080BD000080B588B0069005918DF813203E
:1044F00000200390069880B3FFE706994FF0FF3045
:10450000B0FBF1F00599884227D3FFE7069805999B
:10451000484310F1550F20D8FFE706980599484306
:10452000029002985430FEF7FDFC0390039890B17E
:10453000FFE703980190019854300190069805997F
:10454000019A9DF81330DDF80CC0EE46CEF800C09D
:10455000FEF75AF800E0FFE70EE0039858B9FFE7CE
:104560004FF0500080F31188BFF36F8FBFF34F8F70
:104570000790FFE7FEE7FFE7039808B080BD000063
:1045800080B586B0039002910120019003980090BD
:10459000009858B9FFE74FF0500080F31188BFF33F
:1045A0006F8FBFF34F8F0490FFE7FEE7009800285E
:1045B00056D0FFE70098C06B002851D0FFE7009865
:1045C000C26B016C4FF0FF30B0FBF2F0884247D372
:1045D000FFE7FFF7EFF900990B68C86B0A6C00FB67
:1045E000023088600099002088630099086848605C
:1045F00000990B68C86B0A6C013800FB0230C86078
:104600000099FF2081F84400009981F84500029844
:10461000D0B9FFE700980069A0B1FFE7009810301B
:1046200000F0EAFD60B1FFE74EF60451CEF2000162
:104630004FF080500860BFF34F8FBFF36F8F00E0E3
:10464000FFE700E0FFE708E000981030FFF73EF9D1
:1046500000982430FFF73AF9FFE7FFF7D7F902E0B7
:1046600000200190FFE7019858B9FFE74FF0500094
:1046700080F31188BFF36F8FBFF34F8F0590FFE773
:10468000FEE7019806B080BD80B592B00C900B910A
:104690000A920993002008900C980490049858B945
:1046A000FFE74FF0500080F31188BFF36F8FBFF327
:1046B0004F8F0E90FFE7FEE70B990020029039B96B
:1046C000FFE70498006C002818BF01200290FFE764
:1046D0000298C00758B1FFE74FF0500080F31188EF
:1046E000BFF36F8FBFF34F8F0F90FFE7FEE709997E
:1046F00000200229019007D1FFE70498C06B013820
:1047000018BF01200190FFE70198C00758B1FFE7EB
:104710004FF0500080F31188BFF36F8FBFF34F8FBE
:104720001090FFE7FEE700F075FB014600200090C7
:1047300031B9FFE70A98002818BF01200090FFE771
:104740000098C00758B1FFE74FF0500080F3118880
:10475000BFF36F8FBFF34F8F1190FFE7FEE7FFE7C7
:10476000FFF728F90498806B0499C96B884204D339
:10477000FFE70998022858D1FFE70498806B03905F
:1047800004980B99099AFDF721FE07900498806C14
:10479000E0B1FFE70998022804D1FFE7039808B1C8
:1047A000FFE712E00498FEF7B3F860B1FFE74EF6BA
:1047B0000451CEF200014FF080500860BFF34F8FDC
:1047C000BFF36F8F00E0FFE7FFE729E00498406A3E
:1047D000A0B1FFE70498243000F00EFD60B1FFE7C0
:1047E0004EF60451CEF200014FF080500860BFF346
:1047F0004F8FBFF36F8F00E0FFE710E0079860B1C5
:10480000FFE74EF60451CEF200014FF080500860F1
:10481000BFF34F8FBFF36F8F00E0FFE7FFE7FFE7C6
:10482000FFF7F4F801200D9065E00A9828B9FFE73A
:10483000FFF7ECF800200D905DE0089830B9FFE735
:1048400005A8FFF733FB0120089000E0FFE7FFE732
:10485000FFE7FFF7DBF8FFF769FDFFF7ABF8049818
:1048600090F94400013028B9FFE70499002081F84D
:104870004400FFE7049890F94500013028B9FFE7AC
:104880000499002081F84500FFE7FFF7BFF805A86D
:104890000AA900F0F5F928BBFFE70498FEF720F815
:1048A000C8B1FFE7049810300A99FFF719FB049884
:1048B000FEF7D2FA00F06AFD60B9FFE74EF6045148
:1048C000CEF200014FF080500860BFF34F8FBFF36E
:1048D0006F8FFFE705E00498FEF7BEFA00F056FD83
:1048E000FFE707E00498FEF7B7FA00F04FFD00205D
:1048F0000D9000E034E70D9812B080BD80B592B005
:104900000A900991089207930A980490049858B95C
:10491000FFE74FF0500080F31188BFF36F8FBFF3B4
:104920004F8F0B90FFE7FEE709990020019039B9FE
:10493000FFE70498006C002818BF01200190FFE7F2
:104940000198C00758B1FFE74FF0500080F311887D
:10495000BFF36F8FBFF34F8F0C90FFE7FEE7079910
:1049600000200229009007D1FFE70498C06B0138AE
:1049700018BF01200090FFE70098C00758B1FFE77B
:104980004FF0500080F31188BFF36F8FBFF34F8F4C
:104990000D90FFE7FEE7FFF7B1F9EFF311814FF05C
:1049A000500080F31188BFF36F8FBFF34F8F0F91CB
:1049B0000E900F9805900498806B0499C96B8842FB
:1049C00004D3FFE70798022861D1FFE7049890F825
:1049D00045008DF80F000498806B029004980999A7
:1049E000079AFDF7F3FC9DF90F000130A8BBFFE724
:1049F0000498806CC8B1FFE70798022804D1FFE74C
:104A0000029808B1FFE70FE00498FDF781FF48B175
:104A1000FFE7089820B1FFE708990120086000E04F
:104A2000FFE700E0FFE7FFE716E00498406A88B17F
:104A3000FFE70498243000F0DFFB48B1FFE7089857
:104A400020B1FFE708990120086000E0FFE700E0DF
:104A5000FFE700E0FFE7FFE716E09DF90F007F2882
:104A60000BD1FFE74FF0500080F31188BFF36F8F39
:104A7000BFF34F8F1090FFE7FEE79DF80F00013066
:104A8000049981F84500FFE70120069002E000202C
:104A90000690FFE705981190119880F31188069809
:104AA00012B080BD80B58EB00990089107920020A9
:104AB000069009980390039858B9FFE74FF050000B
:104AC00080F31188BFF36F8FBFF34F8F0B90FFE719
:104AD000FEE708990020019039B9FFE70398006CC0
:104AE000002818BF01200190FFE70198C00758B1C6
:104AF000FFE74FF0500080F31188BFF36F8FBFF3D3
:104B00004F8F0C90FFE7FEE700F084F9014600208C
:104B1000009031B9FFE70798002818BF01200090E6
:104B2000FFE70098C00758B1FFE74FF0500080F34F
:104B30001188BFF36F8FBFF34F8F0D90FFE7FEE734
:104B4000FFE7FEF737FF0398806B0290029830B3BF
:104B5000FFE703980899FDF717FC029801380399BD
:104B6000886303980069A0B1FFE70398103000F054
:104B700043FB60B1FFE74EF60451CEF200014FF067
:104B800080500860BFF34F8FBFF36F8F00E0FFE7E7
:104B900000E0FFE7FEF73AFF01200A906DE007987A
:104BA00028B9FFE7FEF732FF00200A9065E006987B
:104BB00030B9FFE704A8FFF779F90120069000E07B
:104BC000FFE7FFE7FFE7FEF721FFFFF7AFFBFEF789
:104BD000F1FE039890F94400013028B9FFE70399EA
:104BE000002081F84400FFE7039890F94500013068
:104BF00028B9FFE70399002081F84500FFE7FEF799
:104C000005FF04A807A900F03BF830BBFFE70398B5
:104C1000FDF752FED0B1FFE7039824300799FFF764
:104C20005FF90398FEF718F900F0B0FB60B9FFE7F1
:104C30004EF60451CEF200014FF080500860BFF3F1
:104C40004F8FBFF36F8F00E0FFE705E00398FEF79B
:104C500003F900F09BFBFFE70EE00398FEF7FCF87A
:104C600000F094FB0398FDF727FE18B1FFE7002042
:104C70000A9002E0FFE7FFE763E70A980EB080BD05
:104C800080B588B005900491059858B9FFE74FF0BA
:104C9000500080F31188BFF36F8FBFF34F8F0690E2
:104CA000FFE7FEE7049858B9FFE74FF0500080F3A4
:104CB0001188BFF36F8FBFF34F8F0790FFE7FEE7B9
:104CC000FEF778FE40F28430C2F2000000680290E5
:104CD000029805994968401A019040F21020C2F2EA
:104CE0000000006890F8550058B1FFE740F210202E
:104CF000C2F200000168002081F8550001200390F5
:104D000037E004980068013018B9FFE700200390ED
:104D10002EE040F23C30C2F20000006805990968BC
:104D200088420CD0FFE7029805994968884206D36B
:104D3000FFE70120039004990020086017E0019824
:104D40000499096888420BD2FFE7019A0499086820
:104D5000801A08600598FFF7A9F80020039005E085
:104D600004990020086001200390FFE7FFE7FFE7B8
:104D7000FFE7FEF74BFE039808B080BD70B58CB01E
:104D8000DDF844C0DDF840C00B900A91ADF8262054
:104D90000893BDF826008000FEF7C4F8059005983A
:104DA00080B1FFE75820FEF7BDF80790079820B1C3
:104DB000FFE705980799086303E00598FEF74CFEA6
:104DC000FFE702E000200790FFE70798D8B1FFE770
:104DD0000B980A99BDF82620089BDDF840C0119C6D
:104DE000079DEE460026CEF80C60CEF80850CEF8AF
:104DF0000440CEF800C0FDF72FFC0798FDF7B6F988
:104E00000120069003E04FF0FF300690FFE7069880
:104E10000CB070BD81B040F25830C2F200000068A2
:104E200018B9FFE7012000900DE040F2D420C2F253
:104E30000000006818B9FFE70220009002E000209F
:104E40000090FFE7FFE7009801B0704781B040F2A3
:104E50008430C2F2000000680090009801B07047F2
:104E600080B58AB00020069040F2D420C2F2000043
:104E70000068002840F01981FFE740F28431C2F257
:104E8000000108680130059005980860059858BB36
:104E9000FFE740F21820C2F200000068006858B135
:104EA000FFE74FF0500080F31188BFF36F8FBFF31F
:104EB0004F8F0990FFE7FEE740F21822C2F200028E
:104EC0001068049040F21C21C2F2000108681060D2
:104ED0000498086040F23C31C2F2000108680130D9
:104EE0000860FDF7E3FE00E0FFE7059840F2383187
:104EF000C2F2000109688842C0F0B680FFE7FFE710
:104F000040F21820C2F200000068006840B9FFE7D4
:104F100040F23831C2F200014FF0FF300860A2E0E9
:104F200040F21820C2F200000068C068C068089013
:104F300008984068079005980799884207D2FFE7CC
:104F4000079840F23831C2F2000108608BE0FFE7B9
:104F500008984069039008988168C068886008993B
:104F60008868C96848600398406808990431884295
:104F700005D1FFE70898C06803994860FFE70899E2
:104F80000020486103990868013808600898806A21
:104F9000F8B1FFE70898806A02900898C169006A32
:104FA00088600899C869096A486002984068089949
:104FB0001831884205D1FFE70898006A02994860D5
:104FC000FFE70899002088620299086801380860A4
:104FD00000E0FFE70898C16A012000FA01F240F200
:104FE000DC21C2F200010868104308600898C06A1A
:104FF00000EB800040F22421C2F2000101EB8000AE
:10500000406801900198089A906001988068089A19
:10501000D06008980430019A926850600898043073
:10502000019A9060089AD06A00EB800001EB800042
:1050300050610898C06A00EB800251F822000130EC
:1050400041F822000898C06A40F21021C2F2000123
:105050000968C96A884203D3FFE70120069000E08F
:10506000FFE7FFE74CE7FFE740F21020C2F2000045
:105070000068C06A00EB800140F22420C2F2000008
:1050800050F82100022803D3FFE70120069000E03A
:10509000FFE740F29030C2F20000006818B1FFE76D
:1050A0000120069000E0FFE707E040F24031C2F245
:1050B0000001086801300860FFE706980AB080BD6B
:1050C00080B586B003900398029000200190039869
:1050D000002800F08D80FFE7029840F21021C2F214
:1050E0000001096888420BD0FFE74FF0500080F3C1
:1050F0001188BFF36F8FBFF34F8F0490FFE7FEE778
:105100000298C06C58B9FFE74FF0500080F3118847
:10511000BFF36F8FBFF34F8F0590FFE7FEE7029954
:10512000C86C0138C8640299C86A896C88425DD02D
:10513000FFE70298C06C002856D1FFE702980430C0
:10514000FEF7A0FB68B9FFE70298C16A012000FAE8
:1051500001F240F2DC21C2F20001086890430860CD
:1051600000E0FFE70299886CC8620299C86AC0F142
:10517000050088610298C16A012000FA01F340F23B
:10518000DC22C2F200021168194311600299C96A57
:1051900001EB810140F22422C2F2000202EB810104
:1051A000496800910099029B996000998968029B67
:1051B000D96002990431009B9B68596002990431BF
:1051C000009B9960029BD96A01EB810102EB81018E
:1051D00059610299C96A01EB810352F82310013128
:1051E00042F82310019000E0FFE700E0FFE700E055
:1051F000FFE7019806B080BD80B588B0069006989C
:10520000C068C0680590059858B9FFE74FF0500096
:1052100080F31188BFF36F8FBFF34F8F0790FFE7C5
:10522000FEE70598806A03900598C169006A886066
:105230000599C869096A486003984068059918315A
:10524000884205D1FFE70598006A03994860FFE7A7
:10525000059900208862039908680138086040F2C7
:10526000D420C2F200000068002859D1FFE7059859
:105270004069029005988168C068886005998868CF
:10528000C96848600298406805990431884205D190
:10529000FFE70598C06802994860FFE7059900207C
:1052A000486102990868013808600598C16A0120C0
:1052B00000FA01F240F2DC21C2F20001086810435A
:1052C00008600598C06A00EB800040F22421C2F219
:1052D000000101EB8000406801900198059A906000
:1052E00001988068059AD06005980430019A926808
:1052F000506005980430019A9060059AD06A00EBDE
:10530000800001EB800050610598C06A00EB8002CC
:1053100051F82200013041F82200FDF7C7FC1BE0E4
:1053200040F24431C2F20001486800900098059AAA
:10533000D06100988068059A106205981830009A2C
:105340009268506005981830009A906005988162C4
:10535000086801300860FFE70598C06A40F2102134
:10536000C2F200010968C96A884208D9FFE7012032
:10537000049040F29031C2F20001086002E0002087
:105380000490FFE7049808B080BD000080B588B0A5
:1053900000200690059040F2D420C2F20000006880
:1053A00058B9FFE74FF0500080F31188BFF36F8FBB
:1053B000BFF34F8F0790FFE7FEE7FEF7FBFA40F2DF
:1053C000D420C2F2000001680139016000680028A1
:1053D00040F0E780FFE740F2CC20C2F20000006816
:1053E000002800F0DD80FFE7FFE740F24430C2F222
:1053F00000000068002800F09080FFE740F2443091
:10540000C2F20000C068C06806900698806A0490E6
:105410000698C169006A88600699C869096A486087
:105420000498406806991831884205D1FFE706982C
:10543000006A04994860FFE7069900208862049991
:1054400008680138086006984069039006988168EA
:10545000C068886006998868C96848600398406891
:1054600006990431884205D1FFE70698C068039980
:105470004860FFE7069900204861039908680138F1
:1054800008600698C16A012000FA01F240F2DC21AE
:10549000C2F200010868104308600698C06A00EB79
:1054A000800040F22421C2F2000101EB800040683C
:1054B00002900298069A906002988068069AD060DE
:1054C00006980430029A9268506006980430029A56
:1054D0009060069AD06A00EB800001EB800050617A
:1054E0000698C06A00EB800251F82200013041F8B2
:1054F00022000698C06A40F21021C2F20001096839
:10550000C96A884207D3FFE740F29031C2F2000136
:105510000120086000E0FFE767E7069818B1FFE7A1
:10552000FDF7C4FBFFE740F24030C2F20000006824
:1055300001900198E0B1FFE7FFE7FFF791FC38B178
:10554000FFE740F29031C2F200010120086000E064
:10555000FFE7019801380190FFE701980028ECD19E
:10556000FFE740F24031C2F200010020086000E095
:10557000FFE740F29030C2F20000006870B1FFE730
:10558000012005904EF60451CEF200014FF08050FC
:105590000860BFF34F8FBFF36F8F00E0FFE7FFE7B7
:1055A00000E0FFE7FEF732FA059808B080BD000082
:1055B00080B584B000200290FCF782FE40F2883073
:1055C000C2F200000068B8B1FFE740F28C30C2F2CE
:1055D0000000694648600220086042F63960C0F663
:1055E000000045F68231C0F600014FF480720023BE
:1055F000FFF7C4FB029000E0FFE7029858B9FFE70D
:105600004FF0500080F31188BFF36F8FBFF34F8FBF
:105610000390FFE7FEE7029804B080BD10B500F0EC
:10562000F5F80CBF0120002010BD10B500F0EEF819
:1056300014BF0120002010BD10B500F02FF98CBF61
:105640000120002010BD10B500F028F92CBF01206A
:10565000002010BD10B500F055F994BF01200020C6
:1056600010BD10B500F04EF934BF0120002010BD70
:10567000401058BFC0F14040491058BFC1F14041EF
:105680008142EFF3008070474FF47F0C1CEAD01288
:105690001EBF1CEAD11392EA0C0F93EA0C0F00F024
:1056A000858090EA010F48BF42F4807240F4000CFC
:1056B00041F400002CF07F4120F07F4000B5A2EBC8
:1056C000030281420FF2081CACEB504E9EF800E042
:1056D000C0F100004FEA4E0E00FB0EFC38BF49003F
:1056E0004FEA2C1C0CFB0EF34FEACE1E0EEB635E52
:1056F0004FEA112C0EFB0CFC4FEAC1214FEA1C5360
:1057000000FB031102F5FA024FEA112C0EFB0CFC10
:105710004FEA01314FEADC4C00FB0C1142EB224214
:10572000C14228BF09184CEB03335DF804EB10EBC2
:10573000410143EBC250B2F57C0F38BF704729D509
:1057400012F0F00F1CBF00F1C04000F000407047A5
:10575000008182838485868788898B8C8D8E8F914A
:105760009293959697999A9C9D9FA0A2A3A5A7A86E
:10577000AAACAEB0B2B3B5B7B9BCBEC0C2C5C7C99A
:10578000CCCED1D4D7D9DCDFE2E6E9ECF0F3F7FAFE
:10579000FE0000004FEA400C0CF1807CBCF17E4F13
:1057A00028BF7047B0F1C04000F026B90CEAD11311
:1057B00090EA010F48BF42F48072624538BF6345EA
:1057C00007D213F47F0F16D080EA010000F00040EA
:1057D000704710B500F0CAF8097EFC3E00F005B82D
:1057E00080EA010000F00040704780EA010000F00C
:1057F000004000F001B912F47F0F04BF0248704767
:1058000080EA010000F0F8B80000C07F50EA010C07
:1058100000F113801CF5000F58BFBCF5000F01D438
:105820008842704707D710F5000F58BF11F5000FD9
:1058300015D488427047894270471CF5000F04D583
:10584000BCF5000FF7D5814270474FF0807C1CEB10
:10585000400F38BF1CEB410F01D28142704710B599
:1058600000F084F8922449004FF000504FF080512E
:10587000FFF7FEBEB0FA80F310FA03F2C3F19D0306
:105880000AD0D90501EB1220530638BF704700F14A
:10589000010008BF20F001007047000050EA010C31
:1058A00000F113801CF5000F58BFBCF5000F01D4A8
:1058B0008842704707D710F5000F58BF11F5000F49
:1058C00015D488427047894270471CF5000F04D5F3
:1058D000BCF5000FF7D5814270474FF0807C1CEB80
:1058E000400F38BF1CEB410F01D28142704710B509
:1058F00000F03CF8922449004FF080504FF00051E6
:10590000FFF7B6BE50EA010C00F113801CF5000F42
:1059100058BFBCF5000F01D48842704707D710F577
:10592000000F58BF11F5000F15D488427047894207
:1059300070471CF5000F04D5BCF5000FF7D5814268
:1059400070474FF0807C1CEB400F38BF1CEB410FC1
:1059500001D28142704710B500F008F89224490046
:105960004FF000504FF08051FFF782BE0EF1020E53
:105970002EF0030E5EF8044B244204D44FEA410299
:10598000B2F17F4F11D84FEA4003B3F17F4F0CD8EB
:105990000ED14FEAD07C0CEB4C0C0CF1020CB2F1A6
:1059A0007F4F08BF4CEBD17C04E04FF0080C01E0C6
:1059B0004FEAD17C0CEB4C0324FA03F404F0070407
:1059C000B4F1040C06D20EEB840CBDE810404CF090
:1059D000010C6047DFE80CF0070802024FF00040BE
:1059E000A0F5800010BD0846420018BFD2F18072B9
:1059F00088BF00F0004010BDFF2141EAD050C00533
:105A0000704700000100000064000000000000007A
:105A10001400000001000000B400000000000000BD
:105A200064000000010000006400000000000000AD
:105A30000A00000001000000BE000000000000009D
:105A4000640000006164383430305F30207461736A
:105A50006B006164383430305F31207461736B00E7
:105A60007561727420696E666F207461736B00617A
:105A700064635F7461736B0073616D706C655F74F8
:105A800061736B006D61696E5F7461736B00726549
:105A900073706F6E63655F7465736B0044657669E0
:105AA00063652073746174653A200A0D0050574D88
:105AB000207369676E616C206465746563746564E6
:105AC0002C20776974682066696C6C696E673A206F
:105AD0000A0D0054656D706572617475726520669B
