:020000040800F2
:10000000D0430020D5010008DD010008DF01000811
:10001000E1010008E3010008E5010008000000001C
:100020000000000000000000000000006106000861
:10003000E90100080000000011060008A5060008FC
:10004000EF010008EF010008EF010008EF010008D0
:10005000EF010008EF010008EF010008EF010008C0
:10006000EF010008EF010008EF010008EF010008B0
:10007000EF010008EF010008EF010008EF010008A0
:10008000EF010008EF010008EF010008EF01000890
:10009000EF010008EF010008EF010008EF01000880
:1000A000EF010008EF010008EF0100084907000810
:1000B000EF010008EF010008EF010008EF01000860
:1000C000EF010008EF010008EF010008EF01000850
:1000D000EF01000899070008EF010008EF01000890
:1000E000EF010008EF010008EF010008EF01000830
:1000F000EF010008EF010008EF010008EF01000820
:10010000EF010008EF010008EF010008EF0100080F
:10011000EF010008EF010008EF010008EF010008FF
:10012000EF010008EF010008EF010008EF010008EF
:1001300000F002F800F03EF80AA090E8000C8244BB
:100140008344AAF10107DA4501D100F033F8AFF298
:10015000090EBAE80F0013F0010F18BFFB1A43F0A5
:1001600001031847CC660000EC660000103A24BF7B
:1001700078C878C1FAD8520724BF30C830C144BF0C
:1001800004680C607047000000230024002500264E
:10019000103A28BF78C1FBD8520728BF30C148BFEA
:1001A0000B6070471FB59DE8030000F0F5F81FBD18
:1001B00010B510BD00F0A6F91146FFF7F3FF01F0EE
:1001C0004BFB00F0C4F903B4FFF7F2FF03BC00F0EF
:1001D000F5F900000948804709480047FEE7FEE7B7
:1001E000FEE7FEE7FEE7FEE7FEE7FEE7FEE7FEE7E7
:1001F00004480549054A064B70470000E10600081F
:1002000031010008D0030020D0430020D02300207B
:10021000D023002070B5064600F0A2F8056806F16C
:100220000B0020F00704B4429CBF002070BD2B4699
:100230006A68BAB11068A04210D304F1080188427C
:100240003CBF5068586007D351681019416011686D
:10025000091B016058601460101D70BD1346526880
:10026000002AE7D12146284600F082F80028DED196
:1002700070BD70B50446051F00F072F80068002CD0
:1002800014BF446870BD002C18BFAC423CBF204670
:100290006468F8D301680A18AA4218BF456003D100
:1002A0002A6805461144016028684119A1421CBF13
:1002B0006C6070BD6168696021680844286070BD29
:1002C000032A40F2308010F0030C00F0158011F882
:1002D000013BBCF1020F624498BF11F801CB00F85A
:1002E000013B38BF11F8013BA2F1040298BF00F8AE
:1002F00001CB38BF00F8013B11F0030300F082800E
:10030000083AC0F0088051F8043B083A51F804CB91
:10031000A0E80810F5E7121D5CBF51F8043B40F857
:10032000043BAFF30080D20724BF11F8013B11F862
:1003300001CB48BF11F8012B24BF00F8013B00F8A6
:1003400001CB48BF00F8012B704702F0FF0343EADE
:10035000032242EA024200F089B8704770477047B2
:100360000048704750000020704770477047704742
:1003700038B504460A4600206946AFF300800028DD
:1003800008BF38BD02460099204600F099F80120C8
:1003900038BD012000F0AEB8F8B5AFF300800546D7
:1003A00000200C46102000BF0646A819A0420DD917
:1003B000324669460020AFF30080070008BF00F016
:1003C00099F80098A04218BF0546C419FFF7C8FF66
:1003D00005600746F01D20F007004619284600F08A
:1003E0000AF8B44208BFF8BDA21B31463868BDE820
:1003F000F84000F065B800210160C0E901107047C5
:100400001020704710B5203AC0F00B80B1E81850AA
:10041000A0E81850B1E81850A0E81850203ABFF4EE
:10042000F5AF5FEA027C24BFB1E81850A0E818508D
:1004300044BF18C918C0BDE810405FEA827C24BFE1
:1004400051F8043B40F8043B08BF7047D20728BF6F
:1004500031F8023B48BF11F8012B28BF20F8023BBE
:1004600048BF00F8012B70474FF0000200B513465B
:1004700094469646203922BFA0E80C50A0E80C50C4
:10048000B1F12001BFF4F7AF090728BFA0E80C5075
:1004900048BF0CC05DF804EB890028BF40F8042B6E
:1004A00008BF704748BF20F8022B11F0804F18BFDB
:1004B00000F8012B704700000048704748000020FA
:1004C000034640688C46002818BF88423CBF03465C
:1004D0004068F8D318681844884207D00CF103002C
:1004E00020F00700001D411A521A0146081D0A603B
:1004F000FFF7BFBE10B500F039F8BDE8104000F0BE
:100500002FB870477546FFF7D7FFAE46050069461E
:10051000534620F00700854618B020B5FFF768FE67
:10052000BDE820404FF000064FF000074FF00008F4
:100530004FF0000BAC46ACE8C009ACE8C009ACE831
:10054000C009ACE8C00921F007018D46704710B51D
:100550000446AFF300802046BDE81040FFF733BEED
:10056000002801D000F02AB87047000010B501281B
:1005700005D0002103A000F027F8012010BD09A13B
:10058000F8E7000053494752544D454D3A204F7506
:1005900074206F662068656170206D656D6F72797B
:1005A000000000003A2048656170206D656D6F7233
:1005B0007920636F72727570746564000149182048
:1005C000ABBEFEE72600020070B505460C460A20C9
:1005D00000E06D1C00F011F835B128780028F8D142
:1005E00002E0641C00F009F814B120780028F8D16A
:1005F000BDE870400A20AFF3008008B569468DF869
:1006000000000320ABBE08BDFFE700BFFDE7000010
:10061000EFF30980BFF36F8F0D4B1A6820E9F00FDD
:1006200010602DE908404FF0500080F3118804F06D
:10063000AFFA4FF0000080F31188BDE80840196858
:100640000868B0E8F00F80F30988BFF36F8F704738
:100650003C0200200000000000000000000000003C
:10066000074B19680868B0E8F00F80F30988BFF3FA
:100670006F8F4FF0000080F311884EF00D0E704721
:100680003C02002080B500F0C1F800F0FDF800F059
:10069000A7FA00F021FA00F047FA00F08FFA00F014
:1006A00091F880BD80B582B04FF0500080F3118882
:1006B000BFF36F8FBFF34F8F009004F027FF40B15F
:1006C000FFE74EF60451CEF200014FF08050086073
:1006D000FFE700200190019880F3118802B080BDEF
:1006E00080B541F20001C4F20201086840F0010047
:1006F000086041F20403C4F2020318680C22CEF62B
:10070000FF021040186008684FF6FF72CFF6F662DD
:1007100010400860086820F48020086018684FF6D0
:10072000FF7CCFF2007C00EA0C00186008681040E3
:10073000086041F20801C4F202014FF41F00086092
:1007400002F0EAFE80BD000080B542F60040C4F22F
:100750000100022103F05EFA012808D1FFE742F60A
:100760000040C4F20100022103F04AFA12E042F60E
:100770000040C4F20100042103F04CFA012808D122
:10078000FFE742F60040C4F20100042103F038FA0A
:10079000FFE7FFE780BD00007047000080B582B032
:1007A0008DF807008DF806109DF8060000F040F95E
:1007B0009DF8070000F0DEF89DF8060000F062F9F1
:1007C00002B080BD80B582B042F20040C4F20100A8
:1007D000019000F037FB0020009000F0A1FB009991
:1007E000019800F01BFB009B019842F20842C4F202
:1007F0000102116841F4602111600322194600F0E2
:100800009FFB019800F058FB02B080BD80B541F21B
:100810001801C4F20201086840F01C000860086872
:1008200040F480400860086840F601021043086008
:10083000086840F40070086041F21401C4F202013B
:10084000086840F00300086041F21C01C4F2020194
:10085000086840F001000860086840F00200086085
:10086000086840F004000860032002F0EDFA80BD43
:1008700080B582B00190019805F030FE40F2D94178
:10088000484380B202B080BD80B58CB041F2000018
:10089000C4F2010010210A9101220B924FF400537F
:1008A00000F026FF0B9B40F60000C4F20100079009
:1008B000482102910322049200F01AFF049A07983B
:1008C0000A994FF48063069300F012FF049A0A9984
:1008D0000B9B40F60040C4F20100099000F008FFB5
:1008E000049A099818210191022300F001FF01994F
:1008F000049A07980B9B00F0FBFE0299049A079854
:100900004FF4807300F0F4FE049A079800210391DD
:100910000423059300F0ECFE0399049A079808233A
:1009200000F0E6FE059B09980A990B9A00F0E0FE9C
:10093000069B09980A990B9A00F0DAFE07980A9923
:100940000B9A8023089300F0D3FE07980A990B9A1C
:10095000202300F0CDFE089B09980A990B9A00F01D
:10096000C7FE09980A990B9A402300F0C1FE0CB00B
:1009700080BD000081B08DF8030000208DF80200DA
:10098000FFE79DF80200012817DCFFE740F60C01A5
:10099000C4F20101086820F080000860086840F097
:1009A00020000860086820F020000860FFE79DF83C
:1009B000020001308DF80200E3E700208DF802000C
:1009C000FFE79DF80200072830DCFFE79DF80300F1
:1009D0000006002809D5FFE740F60C01C4F201012A
:1009E000086840F08000086008E040F60C01C4F29E
:1009F0000101086820F080000860FFE740F60C0164
:100A0000C4F20101086840F0200008609DF803006E
:100A100040008DF80300086820F020000860FFE720
:100A20009DF8020001308DF80200CAE701B070475E
:100A300081B08DF803009DF8030048B9FFE740F648
:100A40000C41C4F20101086820F0040008600EE0C7
:100A50009DF80300012809D1FFE740F60C41C4F2DC
:100A60000101086820F480600860FFE7FFE740F6B6
:100A70000C01C4F20101086820F02000086001B0F8
:100A80007047000081B08DF803009DF8030048B95D
:100A9000FFE740F60C41C4F20101086840F0040091
:100AA00008600EE09DF80300012809D1FFE740F639
:100AB0000C41C4F20101086840F480600860FFE75F
:100AC000FFE740F60C01C4F20101086820F02000A5
:100AD000086001B07047000042F62841C4F20101ED
:100AE00042F62F20086042F62C41C4F201014FF675
:100AF000FF70086042F61841C4F20101086840F234
:100B000001221043086042F62041C4F20101086846
:100B100040F03100086042F60041C4F2010108686B
:100B200040F001000860704780B584B04FF4C060A9
:100B300002F08CFA40F20040C4F20000039002F090
:100B400011FF039840F2BC01C2F2000140F23742AB
:100B50000A80002202924A808A8040F2E7338B604A
:100B60008A818A7302F094FF0299039840F2CC02C2
:100B7000C2F20002918001231380D1805180118143
:100B800051810321019102F0D5FC0199039840F2B3
:100B9000572202F07DFE01990398602202F032FE96
:100BA0000199029A039802F097FE039802F0B8FCAC
:100BB000039802F063FF04B080BD000000BF7047DF
:100BC00080B582B0ADF80600BDF8060005F0A2FCC5
:100BD00049F69A11C4F29A2105F08AFB02B080BD51
:100BE00080B582B043F60000C4F20100019003F02A
:100BF000FFF901984FF4E13103F094F901980021D5
:100C000003F05CFA0198082103F068FA00F064FD33
:100C100040F60000C4F20100182103224FF40073D3
:100C200000F066FD019803F03FFA02B080BD0000BD
:100C300080B586B0059000208DF81300022000F0EA
:100C400041FA40F20010C2F2000003F00FFD40F242
:100C5000D800C2F2000003F011FDFFE740F20020CF
:100C6000C2F20000006840F2FA01C2F20001002264
:100C700004F06EFA012840F0B680FFE740F2D80099
:100C8000C2F200008069002800F0AB80FFE740F26C
:100C9000F400C2F200000068039048B1FFE7039837
:100CA000012859D0FFE70398022800F0888097E0D8
:100CB00040F2FA00C2F20000018840F2D800C2F20D
:100CC0000000029003F044FA0298007D0B283FD107
:100CD000FFE740F2D800C2F2000002F0B5FF014683
:100CE00040F2F800C2F200000180008801904FF04D
:100CF0007C50FFF7BDFD01460198884207DAFFE707
:100D000040F2F401C2F20001022008601FE040F24C
:100D1000F800C2F20000008800904CF6CD40C4F20A
:100D20002C00FFF7A5FD01460098884207DDFFE78C
:100D300040F2F401C2F200010220086006E040F235
:100D4000F401C2F2000101200860FFE7FFE7FFE7BE
:100D5000642003F09DFC43E040F2FA00C2F2000080
:100D6000038840F2F410C2F2000040F2FE01C2F229
:100D7000000140F2FD02C2F2000200F08DFAC0B1A3
:100D8000FFE740F2FE00C2F20000008802F08AFF96
:100D9000014640F2FC00C2F200000170017840F20E
:100DA0000010C2F2000002F0CBFF0021FFF7F6FCBA
:100DB00001E000BFFFE7642003F06AFC10E040F2AE
:100DC000F401C2F200010020086040F2D800C2F233
:100DD000000003F053FC4FF47A7003F059FCFFE776
:100DE00000E0FFE7FFE739E780B582B00190FA2025
:100DF0008DF80300FFE79DF80300292809D3FFE7DA
:100E00009DF80300411E8DF803100121FFF7C6FC79
:100E1000FFE7642003F03CFCEDE7000082B00190A6
:100E20000091009830B1FFE70199886840F40060B4
:100E3000886005E00199886820F400608860FFE719
:100E400002B0704780B586B005900598049042F2D4
:100E50000041C4F20101884210D0FFE7049842F635
:100E60000001C4F20101884211D0FFE7049843F663
:100E70000041C4F20101884212D01AE040F2093068
:100E8000039002F007F9039802F0F2F812E040F242
:100E90000A30029002F0FEF8029802F0E9F809E048
:100EA00040F20F30019002F0F5F8019802F0E0F8FE
:100EB00000E0FFE706B080BD81B000900098806838
:100EC000C00730B9FFE70099886840F001008860EA
:100ED000FFE701B07047000082B001900091009AD6
:100EE000019908689043086002B0704783B002908F
:100EF000019100200090029800680199084203D0F7
:100F0000FFE701200090FFE7009803B07047000062
:100F100042F23440C4F20100006800F01F00704744
:100F200081B0009042F20441C4F20101086820F44B
:100F300070200860009A08681043086001B070478C
:100F400085B004908DF80F108DF80E2002939DF857
:100F50000F0005281CDCFFE70498406B01909DF80A
:100F60000F0000EB80011F2000FA01F10198884377
:100F700001909DF80E009DF80F1001EB810100FA21
:100F800001F10198084301900198049948634AE0EF
:100F90009DF80F000B281FDCFFE70498006B019001
:100FA0009DF80F0000EB8000A0F11E011F2000FA49
:100FB00001F10198884301909DF80E009DF80F10F3
:100FC00001EB81011E3900FA01F1019808430190FB
:100FD00001980499086325E09DF80F000F281FDC95
:100FE000FFE70498C06A01909DF80F0000EB8000B5
:100FF000A0F13C011F2000FA01F101988843019003
:101000009DF80E009DF80F1001EB81013C3900FAAC
:1010100001F101980843019001980499C86200E029
:10102000FFE7FFE7FFE79DF80E0009281BDCFFE75D
:101030000498006900909DF80E0000EB4001072025
:1010400000FA01F100988843009002989DF80E1074
:1010500001EB410100FA01F100980843009000986B
:101060000499086124E09DF80E0011281EDCFFE7BA
:101070000498C06800909DF80E0000EB4000A0F1BD
:101080001E01072000FA01F10098884300900298A1
:101090009DF80E1001EB41011E3900FA01F1009894
:1010A0000843009000980499C86000E0FFE7FFE75C
:1010B00005B0704781B000900098C06C80B201B05C
:1010C0007047000081B08DF803009DF803000228EE
:1010D0000DD1FFE742F23441C4F20101086820F06B
:1010E0001F000860086840F00200086014E09DF8E6
:1010F000030003280DD1FFE742F23441C4F201019D
:10110000086820F01F000860086840F003000860CD
:1011100001E000BFFFE7FFE701B0704782B0019038
:101120008DF803109DF80300C00730B1FFE7019967
:10113000886840F480008860FFE79DF8030080071E
:10114000002806D5FFE70199886840F40010886000
:10115000FFE702B07047000080B582B00190FFE762
:1011600042F20040C4F201000221FFF7BFFEB8B313
:10117000FFE742F20040C4F201000221FFF7ACFE9B
:10118000FFF7C6FE022819D1FFE742F20040C4F281
:101190000100FFF78FFF000940F20421C2F20001B5
:1011A000088040F20020C2F20000006800231A46C6
:1011B00003F094FE0320FFF785FF10E042F20040A9
:1011C000C4F20100FFF776FF010940F2C020C2F22D
:1011D000000000F011F80220FFF774FFFFE7FFE7BF
:1011E00042F20040C4F201000121FFF797FF3220D4
:1011F00003F04EFAB4E7000082B00190ADF802109F
:101200000198007809280AD8FFE7BDF80200019B81
:101210001A7803EB420101321A7048800CE0019900
:1012200000200870BDF80200019B1A7803EB420110
:1012300001321A704880FFE702B0704781B0009019
:101240000098008800097C2815D8FFE700990888D5
:101250000130088040F60800C4F201000068C005B3
:10126000002805D5FFE7009948880130488001E053
:1012700000BFFFE7FFE700980088B0F5FA6F04D1E0
:10128000FFE700990120486003E0009900204860D2
:10129000FFE701B07047000085B00490039102920F
:1012A000ADF80630002000900298007809280BD88D
:1012B000FFE7BDF806200499086810440860029909
:1012C0000878013008700DE0049800684CF6CD41B4
:1012D000CCF6CC41A0FB0110C00803990880012086
:1012E0000090FFE7009805B07047000082B00190C1
:1012F000ADF80210BDF8020009280BD8FFE70198ED
:101300000078FE2805DCFFE70199087801300870B5
:10131000FFE70AE001980078012805DBFFE7019963
:10132000087801380870FFE7FFE701980078812806
:1013300004D3FFE701990120486003E001990020F0
:101340004860FFE70198406802B0704781B00090A4
:10135000009848B9FFE740F22041C4F20001086854
:1013600020F4805008600EE00098012808D1FFE7C3
:101370002021C4F20001086820F00100086001E0AB
:1013800000BFFFE7FFE701B07047000082B0012017
:101390000190009040F27C30C2F20000006818B169
:1013A000FFE70020009028E040F2C830C2F20000C1
:1013B000006818B1FFE7002000901DE040F278308F
:1013C000C2F20000006818B1FFE70020009012E0B0
:1013D00040F29430C2F20000006840F20431C2F2E0
:1013E000000109680139884203D1FFE7022000901B
:1013F00000E0FFE7FFE7FFE7FFE7009802B0704774
:1014000081B00090009848B9FFE740F22041C4F253
:101410000001086840F4805008600EE00098012840
:1014200008D1FFE72021C4F20001086840F0010064
:10143000086001E000BFFFE7FFE701B07047000070
:1014400040F60C41C4F20101086880F08000086099
:1014500040F2BC20C2F20000006840F23821C2F223
:1014600000010968084348B1FFE741F20C01C4F2EA
:101470000101086880F40050086008E041F20C01A6
:10148000C4F20101086820F400500860FFE77047CB
:1014900081B0009000990020088000994880009950
:1014A000486001B07047000080B582B0019001989B
:1014B000C16943F23330C3F6D37004F019FF02B0B0
:1014C00080BD000081B00090009848B1FFE740F671
:1014D0000C41C4F20101086820F00100086008E036
:1014E00040F60C41C4F20101086840F001000860B8
:1014F000FFE701B07047000083B002900020019028
:101500008DF80300FFE79DF80300092810D8FFE7D6
:1015100002989DF8031000EB4100418801980844AF
:101520000190FFE79DF8030001308DF80300EAE722
:10153000019880B24CF6CD41CCF6CC41A0FB011015
:10154000C00803B07047000080B584B08DF80F006C
:101550009DF80F000A2803D8FFE700F051F84DE08E
:1015600040F23420C2F200000068A8B9FFE740F260
:101570003420C2F20000694648600120086042F64B
:10158000AD50C0F6000046F61001C0F60001802202
:10159000002303F049FF07E040F23420C2F20000CC
:1015A000006803F027F9FFE740F2B800C2F200003C
:1015B00000680B2804D3FFE70120FFF721FFFFE7B6
:1015C0000020FFF71DFF9DF80F00282805D8FFE732
:1015D00000201E2101F0ECFE0FE09DF80F005028C6
:1015E00005D8FFE70020322101F0E2FE04E00020F0
:1015F000502101F0DDFEFFE7FFE7FFE704B080BD0B
:1016000080B540F23420C2F20000006840B1FFE72C
:1016100040F23420C2F20000006803F0F3F9FFE763
:101620000020FFF793FE01200A2101F0C1FE80BDDA
:1016300081B0009000994888642250430988B0FB2B
:10164000F1F0C0B201B0704780B584B003900020C3
:101650008DF80B00FFE79DF80B100120019089B178
:10166000FFE7039880699DF80B2040F20401C2F265
:10167000000151F8221004F028FE002818BF0120B4
:101680000190FFE70198C00730B1FFE79DF80B001C
:1016900001308DF80B00DEE79DF80B0000EB8000B9
:1016A0000538C0B204B080BD80B582B00190019809
:1016B000FFF722FFFFF784FA0199C8610198FFF74D
:1016C000F3FE019988610198FFF7BEFF019981F847
:1016D000200002B080BD000080B582B04FF44070A1
:1016E000019001F0D7FC019801F0C2FC02B080BD6E
:1016F00087B006900591049203930020019000901A
:10170000059800F00F0001909DF81400C006002815
:1017100005D5FFE70499019808430190FFE70020F1
:10172000ADF80A00FFE7BDF80A00072842D8FFE736
:10173000BDF80A100398C840C007A0B3FFE7069899
:1017400000680090BDF80A0081000F2000FA01F146
:101750000098884300900198BDF80A10890000FAAB
:1017600001F10098084300900598282809D1FFE767
:10177000BDF80A1001208840039908400699486185
:101780000DE00598482809D1FFE7BDF80A100120AF
:1017900088400399084006990861FFE7FFE7009831
:1017A00006990860FFE7FFE7BDF80A000130ADF8D1
:1017B0000A00B8E70820ADF80A00FFE7BDF80A0004
:1017C0000F2846D8FFE7BDF80A100398C840C007A5
:1017D000C0B3FFE7069840680090BDF80A006FF0BC
:1017E0001F0101EB80020F2000FA02F200989043E3
:1017F00000900198BDF80A2001EB820100FA01F186
:101800000098084300900598282809D1FFE7BDF803
:101810000A100120884003990840069948610DE0AC
:101820000598482809D1FFE7BDF80A100120884033
:101830000399084006990861FFE7FFE700980699B9
:101840004860FFE7FFE7BDF80A000130ADF80A0085
:10185000B4E707B07047000080B586B00020049060
:101860000590FEF70FFF049A0A200390082103F069
:1018700063FA049A0146039840F21023C2F200036F
:101880001960022103F058FA40F20021C2F200016F
:10189000086040F2C020C2F2000001F00DFC049B81
:1018A00040F22C20C2F20000694648600120086026
:1018B00041F62520C0F6000046F22471C0F6000172
:1018C0004FF4807203F0B0FD012803D0FFE7FEF76C
:1018D0009BFEFFE740F2B820C2F200006946486074
:1018E0000120086043F2E110C0F6000046F21871D2
:1018F000C0F600018022002303F096FD012803D0EA
:10190000FFE7FEF781FEFFE740F20820C2F2000089
:10191000694648600120086041F25910C0F6000095
:1019200046F20F71C0F600018022002303F07CFD17
:10193000012803D0FFE7FEF767FEFFE740F2F8104B
:10194000C2F20000694648600120086040F631405C
:10195000C0F6000046F2E461C0F6000180220023D8
:1019600003F062FD012803D0FFE7FEF74DFEFFE71D
:1019700040F2FC10C2F20000694648600120086095
:1019800040F6E950C0F6000046F2F261C0F60001F0
:101990008022002303F048FD012803D0FFE7FEF773
:1019A00033FEFFE740F2B420C2F20000694648600F
:1019B0000120086043F20510C0F6000046F22E71C7
:1019C000C0F600018022002303F02EFD012803D081
:1019D000FFE7FEF719FEFFE740F2F020C2F2000039
:1019E000694648600120086043F6E550C0F60000F3
:1019F00046F20071C0F600018022002303F014FDBE
:101A0000012803D0FFE7FEF7FFFDFFE740F2B42017
:101A1000C2F20000006802F0F5FF02F06FFFFFE77E
:101A2000FEE7000080B584B00390142002900020EF
:101A3000FFF78CFC46F2F970C0F6000000F0A4F944
:101A4000FFE740F20C20C2F20000006848B1FFE757
:101A500040F60C41C4F20101086840F04000086003
:101A600008E040F60C41C4F20101086820F0400093
:101A70000860FFE740F2B800C2F2000000680328E7
:101A800016D3FFE740F22820C2F20000006878B9C0
:101A9000FFE700200190FFF7B3FC01980A2101F055
:101AA00087FC40F22821C2F2000101200860FFE714
:101AB00040F2B800C2F2000000680B2816D3FFE71E
:101AC00040F22420C2F20000006878B9FFE701204C
:101AD00000900A2101F06CFC0098FFF791FC00983F
:101AE00040F22421C2F200010860FFE740F220200A
:101AF000C2F20000007848B1FFE740F2A800C2F24D
:101B00000000FFF7C5FCFFF77BFDFFE740F2B800E0
:101B1000C2F20000006840F21421C2F2000109681C
:101B2000401A152823D3FFE740F2B420C2F2000088
:101B3000006880B1FFE740F2B420C2F20000006804
:101B400002F060FF40F60C01C4F20101086820F4C5
:101B500080600860FFE740F2BC21C2F20001002073
:101B6000086040F21421C2F200010860FFE740F271
:101B70001020C2F20000006840F21821C2F20001F9
:101B8000002203F0E5FA012840F0F980FFE740F277
:101B90001820C2F2000080886528C0F29F80FFE70D
:101BA00040F21820C2F200008088B0F5967F80F2E3
:101BB0009580FFE740F21820C2F20000006828BBC1
:101BC000FFE740F21820C2F200008088912810DB65
:101BD000FFE740F21820C2F200008088AF2808D842
:101BE000FFE740F22021C2F20001087801300870BE
:101BF0000BE040F22021C2F200010020087040F208
:101C0000BC21C2F200010860FFE724E040F2182086
:101C1000C2F200008088892810DBFFE740F218201C
:101C2000C2F200008088992808DCFFE740F22021FA
:101C3000C2F200010878013008700BE040F2202168
:101C4000C2F200010020087040F2BC21C2F2000183
:101C50000860FFE7FFE740F22020C2F200000078B2
:101C600005283AD3FFE7922002F012FD40F6080063
:101C7000C4F201000068C005002818D5FFE740F253
:101C8000B420C2F20000006802F0B4FD40F2B800D7
:101C9000C2F20000006840F21421C2F200010860A4
:101CA00040F2BC21C2F200010120086006E040F2CF
:101CB000BC21C2F2000100200860FFE740F60C01E1
:101CC000C4F20101086820F48060086040F220211D
:101CD000C2F2000100200870FFE74FE040F2182038
:101CE000C2F200000068002840D0FFE740F2182050
:101CF000C2F200008088B0F5487F36DDFFE740F291
:101D00001820C2F20000808840F24B4188422CDC4F
:101D1000FFE740F2A800C2F20000FFF7B9FBFFF7AF
:101D20006FFC40F2B420C2F20000006870B1FFE71F
:101D300040F2B420C2F20000006802F063FE40F2FC
:101D4000BC21C2F2000100200860FFE740F60C0150
:101D5000C4F20101086820F48060086040F220218C
:101D6000C2F2000100200870FFE706E040F22021E7
:101D7000C2F2000100200870FFE7FFE7FFE7012043
:101D800002F086FC5DE6000080B584B00390002080
:101D90008DF80B008DF80A008DF80900FFE79DF91A
:101DA0000B1000200029019020D4FFE79DF80A00C5
:101DB0000A2807D1FFE79DF8091000200D2901909E
:101DC00014D0FFE79DF80A1000200D29009008D1DB
:101DD000FFE79DF809000A38B0FA80F0400900904A
:101DE000FFE7009880F001000190FFE70198C0072D
:101DF00090B1FFE79DF809008DF80A0003989DF85F
:101E00000B104A1C8DF80B20405C8DF809009DF8E2
:101E1000090002F011FCC2E704B080BD80B582B0B9
:101E20008DF807009DF8070048F21F51C5F2EB112D
:101E3000A0FB0101302040EA51108DF806009DF80A
:101E400007004CF6CD41CCF6CC41A0FB0120C008E8
:101E500046F26762C6F2666280FB02239A0802EBD2
:101E6000D37202EB8202A0EB420030308DF8050005
:101E70009DF80700A0FB0121C90801EB8101A0EB3F
:101E8000410040F030008DF804009DF8060002F09B
:101E9000D3FB9DF8050002F0CFFB9DF8040002F093
:101EA000CBFB0A2002F0C8FB0D2002F0C5FB02B0FC
:101EB00080BD000080B586B00590049140F2BC3032
:101EC000C2F200000068029040F23C20C2F2000022
:101ED0000268002182F855100068043002F014F9FD
:101EE00088B9FFE740F23C20C2F200000068C16AF6
:101EF000012000FA01F240F21431C2F20001086838
:101F00009043086000E0FFE70598013018BBFFE749
:101F1000049800B3FFE740F29431C2F20001486830
:101F20000190019A40F23C20C2F2000003689A60DE
:101F3000019A92680368DA6002680432019B9B6828
:101F40005A6002680432019B9A6000684161086827
:101F5000013008603DE00298059908440390039819
:101F600040F23C21C2F200010968486003980299DE
:101F700088420ED2FFE740F24820C2F2000000681B
:101F800040F23C21C2F200010968043102F02AF952
:101F90001EE040F24420C2F20000006840F23C2102
:101FA000C2F200010968043102F01CF9039840F202
:101FB0007031C2F200010968884207D2FFE7039836
:101FC00040F27031C2F20001086000E0FFE7FFE775
:101FD000FFE706B080BD000080B582B0019002F03E
:101FE00055F940F20431C2F200010868013008607E
:101FF00040F23C20C2F20000006898B9FFE7019867
:1020000040F23C21C2F20001086040F20430C2F20A
:1020100000000068012803D1FFE700F0F7FA00E0B4
:10202000FFE71CE040F29030C2F200000068A0B967
:10203000FFE740F23C20C2F200000068C06A01994C
:10204000C96A884207D8FFE7019840F23C21C2F2F2
:102050000001086000E0FFE700E0FFE7FFE740F273
:102060001030C2F20000016801310160006801997E
:1020700008640198C16A012000FA01F240F21431AB
:10208000C2F200010868104308600198C06A00EBC2
:10209000800040F25021C2F2000101EB8000406854
:1020A00000900098019A906000988068019AD06032
:1020B00001980430009A9268506001980430009AA8
:1020C0009060019AD06A00EB800001EB80005061C3
:1020D0000198C06A00EB800251F82200013041F8FB
:1020E000220002F0FFF840F29030C2F200000068D7
:1020F000C8B1FFE740F23C20C2F200000068C06AAD
:102100000199C96A88420CD2FFE74EF60451CEF21B
:1021100000014FF080500860BFF34F8FBFF36F8F07
:1021200000E0FFE700E0FFE702B080BD80B582B0CD
:1021300002F0ACF840F2C030C2F20000006828BBE8
:10214000FFE740F21830C2F20000009002F02AF8D7
:1021500040F22C30C2F20000019002F023F8009906
:10216000019840F24022C2F20002116040F24C217C
:10217000C2F20001086005201021002202F0DCFDFF
:1021800040F2C031C2F20001086000E0FFE702F057
:10219000A9F802B080BD000080B582B0FFE740F230
:1021A0000830C2F20000006808B3FFE702F06EF8E2
:1021B00040F2A830C2F20000C068C06801900198E7
:1021C000043001F0A1FF40F20431C2F200010868BE
:1021D0000138086040F20831C2F200010868013895
:1021E000086002F07FF8019800F08CF8D7E702B0A1
:1021F00080BD000080B582B0019000910198006C14
:10220000B8B1FFE70199C8680A6C1044C86001982A
:102210008168C068884204D3FFE701990868C860F4
:1022200000E0FFE70098019AD168126CFEF748F8C9
:10223000FFE702B080BD000080B586B00590049134
:102240000392002002900598806B01900598006C25
:1022500078B9FFE70598006848B9FFE705988068F6
:1022600003F084FA029005990020886000E0FFE7FF
:1022700041E00398B8B9FFE7059A04995068126CD9
:10228000FEF71EF8059948680A6C104448600599E5
:1022900048688968884204D3FFE705990868486060
:1022A00000E0FFE726E0059A0499D068126CFEF77B
:1022B00007F80599C8680A6C801AC8600598016813
:1022C000C068884206D2FFE7059988680A6C801AC0
:1022D000C86000E0FFE70398022809D1FFE70198F2
:1022E00020B1FFE701980138019000E0FFE700E02E
:1022F000FFE7FFE7FFE7019801300599886302983F
:1023000006B080BD80B582B001900198006B02F0EC
:102310000FF8019802F00CF802B080BD83B00020E5
:1023200001900120009040F21430C2F200000068D9
:10233000022803D3FFE701200190FFE740F23C2091
:10234000C2F200000068C06A18B1FFE700200290E6
:102350001FE040F25020C2F200000068022803D3C0
:10236000FFE70020029013E0019818B1FFE700207A
:1023700002900CE040F27030C2F20000006840F2BF
:10238000BC31C2F200010968401A0290FFE7FFE782
:10239000FFE7029803B0704782B0019040F24020FE
:1023A000C2F2000000680068B0FA80F040090199AC
:1023B00008600198006848B9FFE740F24020C2F287
:1023C00000000068C0680068009002E000200090F3
:1023D000FFE7009802B0704780B584B00290FFE735
:1023E000FFF7DAFE40F25020C2F200000068022837
:1023F0000CD3FFE74EF60451CEF200014FF08050AF
:102400000860BFF34F8FBFF36F8F00E0FFE7FFF768
:1024100085FF01900198022829D3FFE702F0B0FB65
:1024200040F27030C2F20000006840F2BC31C2F2EB
:102430000001096888420BD2FFE74FF0500080F39B
:102440001188BFF36F8FBFF34F8F0390FFE7FEE755
:10245000FFF764FF01900198022804D3FFE7019879
:1024600001F0B2FF00E0FFE703F0E6FA00E0FFE76B
:10247000B6E7000080B584B0DDF818C00390029183
:1024800001928DF80330029818B9FFE706980060B2
:1024900003E0019806990860FFE703980699C8636E
:1024A0000298069908640698012102F093FC9DF8B1
:1024B0000300069981F8500006990020886404B052
:1024C00080BD000080B58AB0DDF83CC0DDF838C0C2
:1024D000DDF834C0DDF830C0079006910592049312
:1024E0000E98006B05998900A522FDF72EFF0E9826
:1024F000006B059900EB810004380390039820F0ED
:10250000070003909DF80C00400758B1FFE74FF01B
:10251000500080F31188BFF36F8FBFF34F8F089087
:10252000FFE7FEE70698F8B1FFE700200290FFE71B
:102530000298092813D8FFE70698029A805C0E9942
:10254000114481F8340006980299405C08B9FFE70D
:1025500005E0FFE7FFE7029801300290E8E70E99F7
:10256000002081F83D0004E00E99002081F834003D
:10257000FFE70C9805280BD3FFE74FF0500080F3DE
:102580001188BFF36F8FBFF34F8F0990FFE7FEE70E
:102590000C98052803D3FFE704200C9000E0FFE728
:1025A0000C980E99C8620C980E9988640E990020B8
:1025B0000190C8640E98043001F00CFE0E9818309B
:1025C00001F008FE01980E9909610C99C1F105010D
:1025D0000E9A91610E9949620E9908650E9981F8DB
:1025E00054000E9981F8550003980799049A00F059
:1025F00003FC0E9908600D9820B1FFE70E980D9925
:10260000086000E0FFE70AB080BD000080B584B03C
:1026100000200390FFE70398042810D8FFE70398F1
:1026200000EB800140F25020C2F2000000EB81007C
:1026300001F0B8FDFFE7039801300390EBE740F2AB
:102640004030C2F20000019001F0ACFD40F2543085
:10265000C2F20000029001F0A5FD40F27C30C2F20F
:10266000000001F09FFD40F2A830C2F2000001F02E
:1026700099FD40F29430C2F2000001F093FD0199FF
:10268000029840F24422C2F20002116040F2482156
:10269000C2F20001086004B080BD000080B586B0C1
:1026A00005900491039202930020019004980599EB
:1026B00048600598006104980399884216D8FFE79E
:1026C00003980299401A05998969884203D3FFE764
:1026D0000120019009E040F24C20C2F200000068A5
:1026E0000599043101F07EFDFFE717E00398029998
:1026F000884208D2FFE704980299884203D3FFE793
:102700000120019009E040F24020C2F20000006880
:102710000599043101F066FDFFE7FFE7019806B077
:1027200080BD000080B582B0019001F0AFFD01983E
:10273000806B18B9FFE70120009002E000200090B4
:10274000FFE701F0CFFD009802B080BD80B582B0F8
:10275000019001F09BFD0198806B0199C96B884243
:1027600003D1FFE70120009002E000200090FFE786
:1027700001F0B8FD009802B080BD000080B588B0BF
:1027800004900498806C039000200290039858B93C
:10279000FFE74FF0500080F31188BFF36F8FBFF356
:1027A0004F8F0590FFE7FEE70398806B0399C96B95
:1027B00088420BD3FFE74FF0500080F31188BFF33E
:1027C0006F8FBFF34F8F0690FFE7FEE70398806B94
:1027D0000399C96B884239D2FFE7039890F8450006
:1027E0008DF80700039804A90022FFF725FD029049
:1027F0009DF90700013088B9FFE70398406A58B196
:10280000FFE70398243003F04DF818B1FFE70120EB
:10281000029000E0FFE700E0FFE716E09DF9070007
:102820007F280BD1FFE74FF0500080F31188BFF3F2
:102830006F8FBFF34F8F0790FFE7FEE79DF807000C
:102840000130039981F84500FFE700E0FFE70298B7
:1028500008B080BD06480068006880F3088862B64A
:1028600061B6BFF34F8FBFF36F8F00DF00BF00BFB4
:1028700008ED00E080B584B00390029140F2402062
:10288000C2F200000068C068C0680190019804307E
:1028900001F03AFC019890F828004007002806D57E
:1028A000FFE701980399029A00F01CF907E00199EB
:1028B00091F8280000F0FE0081F82800FFE7019859
:1028C000016A884704B080BD80B58CB0FFE740F254
:1028D000C030C2F20000006806A9002202F038FCF5
:1028E000002800F0AF80FFE70698B0F1FF3F17DC4B
:1028F000FFE706A804300290029858B9FFE74FF0AE
:10290000500080F31188BFF36F8FBFF34F8F0A9091
:10291000FFE7FEE702990A6848688968904700E087
:10292000FFE70698002800F18C80FFE708980590E3
:102930000598406928B1FFE70598043001F0E4FBF1
:1029400000E0FFE704A800F005F9039006980138BD
:1029500001460191082800F272800199DFE801F038
:102960000505323A5B0505323A00059991F82800D1
:1029700040F0010081F828000598079B81691944FF
:10298000039AFFF78BFED8B1FFE7059890F828006F
:102990004007002808D5FFE7059807998269114488
:1029A000039A00F09FF807E0059991F8280000F0DD
:1029B000FE0081F82800FFE70598016A884700E0DB
:1029C000FFE73DE0059991F8280000F0FE0081F84E
:1029D000280035E0059991F8280040F0010081F8C1
:1029E00028000798059988610598806958B9FFE71C
:1029F0004FF0500080F31188BFF36F8FBFF34F8FFC
:102A00000B90FFE7FEE70598039B816919441A467E
:102A1000FFF744FE14E0059890F82800800700288E
:102A200004D4FFE7059801F083FC07E0059991F8CD
:102A3000280000F0FE0081F82800FFE700E0FFE733
:102A4000FFE744E70CB080BD80B584B003900291ED
:102A500002F096F8684600F07DF801900098D8BB27
:102A6000FFE7029860B9FFE703980199884207D809
:102A7000FFE702F0E1FF03980199FFF7FBFE2AE070
:102A8000029858B1FFE740F24C20C2F20000006803
:102A90000068B0FA80F040090290FFE740F2C030D1
:102AA000C2F2000000680399019A891A029A01F0A3
:102AB00091FD02F0C1FF60B9FFE74EF60451CEF27E
:102AC00000014FF080500860BFF34F8FBFF36F8F4E
:102AD00000E0FFE7FFE702E002F0AEFFFFE704B02F
:102AE00080BD000080B584B0039002910192FFE7A1
:102AF0000398029B81691944019AFFF7CFFD48B101
:102B0000FFE7039881690298084402900398016ADC
:102B10008847EDE704B080BD40F24420C2F20000D7
:102B20000068006840B9FFE740F27031C2F200016E
:102B30004FF0FF3008600CE040F24420C2F2000089
:102B40000068C068006840F27031C2F2000108609D
:102B5000FFE7704780B582B0019002F0CDFC009095
:102B6000009840F23021C2F200010968884206D282
:102B7000FFE700F011F801990120086003E00199D6
:102B800000200860FFE7009840F23021C2F2000107
:102B90000860009802B080BD80B582B0FFE740F2C7
:102BA0004020C2F200000068006870B1FFE740F208
:102BB0004020C2F200000068C068006801900198DF
:102BC0004FF0FF31FFF756FEE9E740F24022C2F234
:102BD00000021068009040F24C21C2F20001086827
:102BE00010600098086002B080BD000083B0002033
:102BF000009040F24000C2F200000068013058B17D
:102C0000FFE74FF0500080F31188BFF36F8FBFF3E1
:102C10004F8F0190FFE7FEE74FF0500080F31188DF
:102C2000BFF36F8FBFF34F8F0290FFE7009808B993
:102C3000FFE7FBE703B0704784B0029000200190EB
:102C400002980090029858B9FFE74FF0500080F3C7
:102C50001188BFF36F8FBFF34F8F0390FFE7FEE73D
:102C60000098406940F29431C2F20001884214D1C8
:102C7000FFE70098806A40F27C31C2F2000188428E
:102C800009D0FFE70098806A18B9FFE7012001909A
:102C900000E0FFE700E0FFE700E0FFE7019804B095
:102CA0007047000080B584B00390FFE701A8FFF7EC
:102CB00073FB029002980199FFF7C6FEFFF704FE2E
:102CC000F4E7000080B582B0019001F0DFFA0198CE
:102CD00090F845008DF80300FFE79DF903000128F7
:102CE00025DBFFE70198806C50B1FFE70198FFF703
:102CF00045FD18B1FFE701F015FD00E0FFE710E02A
:102D00000198406A58B1FFE70198243002F0CAFDEB
:102D100018B1FFE701F006FD00E0FFE700E006E084
:102D2000FFE79DF8030001388DF80300D5E701990E
:102D3000FF2081F8450001F0D5FA01F0A7FA0198CB
:102D400090F844008DF80200FFE79DF90200012889
:102D500016DBFFE70198006980B1FFE701981030AA
:102D600002F0A0FD18B1FFE701F0DCFC00E0FFE796
:102D70009DF8020001388DF8020000E000E0E4E771
:102D80000199FF2081F8440001F0ACFA02B080BD47
:102D900080B582B0019001F0F3FE0198FDF73AFA98
:102DA000009002F049FE009802B080BD80B584B06A
:102DB0000390FFE701200090322100F0F9FA42F27F
:102DC0001070029001F064FC00982D21019100F038
:102DD000EFFA029801F05CFC0098372100F0E8FA65
:102DE000029801F055FC0098019900F0E1FA029870
:102DF00001F04EFCDEE7000083B0029001910092EA
:102E000002980438029002994FF08070086002988E
:102E100004380290019820F001000299086002989D
:102E200004380290029942F6ED30C0F600000860C6
:102E3000029814380290009802990860029820388D
:102E40000290029803B0704783B0029041F20400F0
:102E5000C4F2020000680190019843F6FF71CEF6BB
:102E6000FF710840019002980090042808D3FFE702
:102E7000009805280AD0FFE70098072806D011E03F
:102E80000299019840EA813001900CE0029820F00C
:102E9000040002900299019840EA813040F080508D
:102EA000019000E0FFE7019841F20401C4F2020141
:102EB000086003B07047000097B01690002014908F
:102EC00040F20671C0F60811099140F20121C0F2EA
:102ED0000341089107900690059104900391029098
:102EE00041F20400C4F202000068C0F381001590B2
:102EF0001598019040B1FFE7019801280AD0FFE73B
:102F0000019802280CD05AE041F20020C0F27A0069
:102F100013905AE041F20020C0F27A00139054E07E
:102F200041F20400C4F20200006800F480300F9007
:102F30000F98B0F5803F19D1FFE741F20020C0F2B1
:102F40007A000C9041F20400C4F20200006800F420
:102F500000300E900E98B0F5003F06D1FFE740F626
:102F60000010C0F23D000C90FFE705E040F60010B5
:102F7000C0F23D000C90FFE741F20400C4F20200F1
:102F80000168C1F383410D9100680001002805D557
:102F9000FFE70D9840F010000D90FFE70D980E2808
:102FA00004D8FFE70D9802300D9003E00D98013032
:102FB0000D90FFE70C980D994843139005E041F2FE
:102FC0000020C0F27A001390FFE741F20400C4F23F
:102FD00002000168C9B209090B910B9A06A9895C24
:102FE0000A9113990A9AD14012910168C1F3022102
:102FF0000B910B9A04A9895C0A9112990A9AD14003
:1030000011910068C0F3C2200B900B9902A8405C9C
:103010000A9012980A99C8401090169800900328B8
:1030200010D80099DFE801F00205080B13981490FE
:1030300009E01298149006E01198149003E010989B
:10304000149000E0FFE7149817B0704781B000902B
:10305000009800F01F02012101FA02F3810941F2F8
:103060000002C4F2020288581843885001B0704729
:1030700081B00090009800F01F02012101FA02F3D4
:10308000810941F20002C4F2020288589843885034
:1030900001B0704781B00090009800F01F0201213C
:1030A00001FA02F3810941F20002C4F202028858D7
:1030B0001843885001B0704782B0019001990020F8
:1030C0008861019908708DF80300FFE79DF80300FF
:1030D00009280ED8FFE701989DF8031000EB410185
:1030E00000204880FFE79DF8030001308DF80300C1
:1030F000ECE70199002081F820000199C86102B035
:103100007047000010B594B0139046F2A463C0F667
:1031100000030193186859689A68D3F80CC0D3F873
:1031200010E05C690894CDF81CE0CDF818C0059259
:10313000049103909869D9691A6AD3F824C0D3F826
:1031400028E0DC6A0E94CDF834E0CDF830C00B9264
:103150000A910990186B596B9A6BDB6B1293119261
:1031600010910F9000208DF80B00FFE79DF80B10D9
:1031700003A850F8310048B9FFE740F60C01C4F24B
:103180000101086840F48060086008E040F60C0126
:10319000C4F20101086820F480600860FFE79DF830
:1031A0000B00072816D8FFE79DF80B10481C8DF878
:1031B0000B0003A800EBC10080884FF47A714843EC
:1031C00044F6D351C1F26201A0FB0110800901F065
:1031D0005FFA03E000208DF80B00FFE7C6E7000070
:1031E00080B58AB009900020089003900490ADF853
:1031F0001400FFE7012001F04BFA40F2A800C2F2F0
:103200000000FEF71BF8BDF8141040F2B000C2F247
:103210000000FEF76BF838B1FFE740F23821C2F248
:1032200000010120086006E040F23821C2F20001EE
:1032300000200860FFE70498039040F60800C4F2FD
:1032400001000068C0F30020049040F23820C2F270
:103250000000006888B1FFE740F2A800C2F2000059
:10326000406848B1FFE740F2A800C2F20000FEF754
:10327000DFF9FEF769F9FFE708E040F2A800C2F2C3
:103280000000FEF705F9FEF7BBF9FFE740F20C205E
:10329000C2F20000006848B1FFE740F2A800C2F2A5
:1032A0000000FEF7F5F8FEF7ABF9FFE7BDF81400F4
:1032B000B0F5FA6F07D9FFE740F20C21C2F2000126
:1032C0000120086006E040F20C21C2F2000100205B
:1032D0000860FFE70399049888420ED1FFE7BDF824
:1032E00014004FF6FE71884206DCFFE7BDF81400BB
:1032F0000130ADF81400FFE733E0BDF8141040F2E0
:10330000B000C2F20000FDF7F1FF20B1FFE7049822
:10331000FEF7D8F803E00120FEF7D4F8FFE7BDF888
:103320001400112819D3FFE740F2A800C2F20000F0
:10333000FEF7AEF8FEF764F940F21020C2F200008A
:10334000006804990191BDF81410ADF8081001A9A6
:1033500000231A4601F0C2FDFFE70020ADF814007B
:10336000FFE7089840F2E73188420AD1FFE70020E2
:10337000089040F2B801C2F200010868013008600C
:1033800003E0089801300890FFE7089847F6D50158
:10339000C2F2E96148434FEA700042F2DD41C0F2F7
:1033A0000611884203D8FFE7FEF74AF8FFE721E756
:1033B00080B582B001908DF80310019880B9FFE7C5
:1033C0009DF8030000EB80014FF0FF3000EB41025D
:1033D00040F20040C4F20000032100F059FA14E06A
:1033E000019801280ED1FFE79DF8030000EB800152
:1033F0004FF0FF3000EB41024FF08040002100F021
:1034000047FA01E000BFFFE7FFE702B080BD000020
:1034100084B000200390029041F20001C4F2020146
:10342000086840F480300860FFE70398013003909B
:1034300041F20000C4F20200006800F40030029083
:10344000FFE702990020019041B9FFE703984FF68A
:10345000FF71401A18BF01200190FFE70198C007D3
:103460000028E2D1FFE741F20000C4F20200006848
:103470008003002802D4FFE7FFE7FEE741F20401E2
:10348000C4F20201009108680860086808600868D2
:1034900040F480600860086820F4403008600868E4
:1034A00040F44030086008684FF6FF72CFF2C372F4
:1034B0001040086008680022C0F628021043086027
:1034C00041F20001C4F20201086840F08070086017
:1034D000FFE741F20000C4F202000068800100280A
:1034E00001D4FFE7F5E741F20401C4F202010868E4
:1034F00020F003000860086840F002000860FFE761
:1035000041F20400C4F2020000680007002801D460
:10351000FFE7F5E704B0704780B5FFF779FF80BD9E
:1035200081B000900099086840F08000086001B008
:103530007047000084B00390ADF80A100192BDF806
:103540000A0001460091032800F259810099DFE842
:1035500011F004005D00BC001B010399086A20F013
:10356000010008620399886920F0030088610198CE
:1035700002880399086A104308620399086A20F0D8
:1035800002000862019882880399086A1043086261
:10359000039842F60041C4F20101884208D0FFE7D7
:1035A000039843F20041C4F2010188422DD1FFE7A4
:1035B0000399086A20F00400086201984288039980
:1035C000086A104308620399086A20F0080008623C
:1035D0000198C2880399086A1043086203994868F1
:1035E00020F480704860019802890399486810436C
:1035F00048600399486820F4007048600198428947
:103600000399486810434860FFE7F9E00399086AA6
:1036100020F0100008620399886920F440708861E6
:10362000019802880399086A40EA02100862039927
:10363000086A20F020000862019882880399086ACD
:1036400040EA02100862039842F60041C4F2010108
:10365000884208D0FFE7039843F20041C4F2010119
:10366000884231D1FFE70399086A20F040000862E0
:10367000019842880399086A40EA02100862039997
:10368000086A20F0800008620198C2880399086ADD
:1036900040EA021008620399486820F4806048609C
:1036A000019802890399486840EA820048600399BA
:1036B000486820F40060486001984289039948688E
:1036C00040EA82004860FFE79AE00399086A20F424
:1036D000807008620399C86920F00300C8610198EE
:1036E00002880399086A40EA022008620399086A7E
:1036F00020F400700862019882880399086A40EA01
:1037000002200862039842F60041C4F20101884297
:1037100008D0FFE7039843F20041C4F20101884258
:1037200031D1FFE70399086A20F4806008620198AC
:1037300042880399086A40EA022008620399086AED
:1037400020F4006008620198C2880399086A40EA80
:10375000022008620399486820F48050486001986C
:1037600002890399486840EA021048600399486852
:1037700020F400504860019842890399486840EA63
:1037800002104860FFE73BE00399086A20F480508C
:1037900008620399C86920F44070C86101980288E2
:1037A0000399086A40EA023008620399086A20F423
:1037B00000500862019882880399086A40EA023042
:1037C0000862039842F60041C4F20101884208D021
:1037D000FFE7039843F20041C4F2010188420DD192
:1037E000FFE70399486820F4804048600198028907
:1037F0000399486840EA82104860FFE700E0FFE76D
:1038000004B0704783B00290ADF80610ADF8042004
:10381000BDF8060001460091032836D80099DFE87C
:1038200001F0020E1B270299886920F07000886160
:10383000BDF80420029988691043886126E0029946
:10384000886920F4E0408861BDF804200299886905
:1038500040EA0220886119E00299C86920F07000EE
:10386000C861BDF804200299C8691043C8610DE021
:103870000299C86920F4E040C861BDF804200299AB
:10388000C86940EA0220C86100E0FFE703B0704762
:1038900084B00390ADF80A100192BDF80A00014609
:1038A0000091032814D80099DFE801F002060A0EFF
:1038B0000198039948630CE001980399886308E034
:1038C00001980399C86304E001980399086400E033
:1038D000FFE704B07047000083B00290ADF8061017
:1038E000ADF80420BDF8060001460091032836D843
:1038F0000099DFE801F0020E1B270299886920F089
:1039000008008861BDF80420029988691043886125
:1039100026E00299886920F400608861BDF80420DF
:103920000299886940EA0220886119E00299C86911
:1039300020F00800C861BDF804200299C86910434E
:10394000C8610DE00299C86920F40060C861BDF843
:1039500004200299C86940EA0220C86100E0FFE73C
:1039600003B0704780B58AB0099009980890B0F10B
:10397000804F41D0FFE7089840F20041C4F20001B7
:10398000884242D0FFE7089840F60001C4F20001E7
:10399000884243D0FFE7089840F60041C4F2000196
:1039A000884244D0FFE7089841F20001C4F20001C8
:1039B000884245D0FFE7089841F20041C4F2000177
:1039C000884246D0FFE7089842F60041C4F2010160
:1039D000884208D0FFE7089843F20041C4F2010191
:1039E00088423FD047E040F20B300790FFF752FB90
:1039F0000798FFF73DFB3FE04FF480600690FFF72C
:103A000049FB0698FFF734FB36E040F20140059091
:103A1000FFF740FB0598FFF72BFB2DE040F202403B
:103A20000490FFF737FB0498FFF722FB24E040F2F5
:103A300003400390FFF72EFB0398FFF719FB1BE0F1
:103A400040F204400290FFF725FB0298FFF710FBBD
:103A500012E040F205400190FFF71CFB0198FFF7D0
:103A600007FB09E040F20D300090FFF713FB0098D0
:103A7000FFF7FEFA00E0FFE70AB080BD81B00090DA
:103A80000099086840F00100086001B0704700002C
:103A900082B0019000910098008801998862019895
:103AA00042F60041C4F20101884255D0FFE7019877
:103AB000B0F1804F50D0FFE7019840F20041C4F2CE
:103AC0000001884248D0FFE7019840F60001C4F2A7
:103AD0000001884240D0FFE7019840F60041C4F25F
:103AE0000001884238D0FFE7019843F20041C4F258
:103AF0000101884230D0FFE7019844F60041C4F24A
:103B00000101884228D0FFE7019845F20001C4F284
:103B10000101884220D0FFE7019845F20041C4F23C
:103B20000101884218D0FFE7019841F60001C4F274
:103B30000001884210D0FFE7019841F60041C4F22D
:103B40000001884208D0FFE7019842F20001C4F268
:103B50000001884216D1FFE70199086820F0700043
:103B600008600098408800F06002019908681043DE
:103B700008600098808800F01002019908681043DE
:103B80000860FFE7009880680199C862019841F2D7
:103B90000001C4F20001884216D0FFE7019841F20B
:103BA0000041C4F2000188420ED0FFE70199086885
:103BB00020F4407008600098808900F440720199F8
:103BC000086810430860FFE7019842F60041C4F21C
:103BD0000101884208D0FFE7019843F20041C4F296
:103BE0000101884205D1FFE70098807B01990863B5
:103BF000FFE70199486940F00100486102B0704751
:103C000082B001900091009A01990869904308617F
:103C100002B0704784B0029001910298C068019987
:103C200008400090029800690199084206D0FFE719
:103C3000009818B1FFE70120039002E000200390F4
:103C4000FFE7039804B0704782B0019000208DF820
:103C50000300FFE79DF80300092813DCFFE7019844
:103C60009DF8031030F8112040F2E421C2F2000167
:103C7000086810440860FFE79DF8030001308DF8E4
:103C80000300E7E740F2E420C2F2000000684CF6CF
:103C9000CD41CCF6CC41A0FB0110C0F3CF0002B067
:103CA0007047000080B586B0ADF81600BDF816105C
:103CB0006FF39F2140F2EC20C2F2000001800088E7
:103CC00002F0DCF80190029145F2EC12C1F6B86204
:103CD0004EF68533C3F6D17302F0E8F8019A029BE1
:103CE00002F0E4F80246019803920A46029904920F
:103CF0004EF24812C1F27A4244F2AE73C4F20D039E
:103D000002F0D4F8024603980B46049902F00EF82C
:103D100048F21F52C5F2EB124BF6B863C4F24203ED
:103D200002F004F801F0D0FF014640F2E820C2F2B0
:103D300000000160006802F0D1FB06B080BD000009
:103D400083B001908DF803100198D0F8F00008B30B
:103D5000FFE700208DF80200FFE79DF802007728BA
:103D60000ED8FFE79DF8030001999DF8022021F885
:103D70001200FFE79DF8020001308DF80200ECE729
:103D800001990020C1F8F000019890F8EE008DF83C
:103D90000B0022E001208DF80100FFE79DF80100F3
:103DA000782810D8FFE701999DF8012001EB420027
:103DB00030F8020C21F81200FFE79DF801000130F5
:103DC0008DF80100EAE79DF8030001990880019849
:103DD00090F8EE008DF80B00FFE79DF80B0003B0A4
:103DE0007047000080B584B00390FFE740F2C02028
:103DF000C2F200000090FDF757FC46F29770C0F643
:103E00000000FDF7C1FF4EF60451CEF20001019112
:103E10004FF0805002900860BFF34F8FBFF36F8F59
:103E200046F27370C0F60000FDF7AEFF0098019AED
:103E300002991160BFF34F8FBFF36F8F90F820008E
:103E4000FDF7ECFF019902980860BFF34F8FBFF3B5
:103E50006F8F46F23C70C0F60000FDF795FF0199A8
:103E600002980860BFF34F8FBFF36F8F40F20C20B2
:103E7000C2F20000006838B1FFE746F2BF70C0F63A
:103E80000000FDF781FFFFE74EF60451CEF200017E
:103E90004FF080500860BFF34F8FBFF36F8F40F239
:103EA0003820C2F20000006878B1FFE746F24D709A
:103EB000C0F60000FDF768FF40F2A800C2F2000063
:103EC000FDF7B6FBFDF7AAFFFFE74EF60451CEF271
:103ED00000014FF080500860BFF34F8FBFF36F8F2A
:103EE00040F2BC20C2F20000006838B1FFE746F2A1
:103EF000D470C0F60000FDF747FFFFE74EF604510F
:103F0000CEF200014FF080500860BFF34F8FBFF337
:103F10006F8F0A2000F090FB4FF47A7000F0B8FB2E
:103F200064E7000080B588B00790069100200590F6
:103F30000490039002900798019044F20041C4F26B
:103F40000001884225D0FFE7019844F60001C4F241
:103F50000001884222D0FFE7019844F60041C4F2F4
:103F6000000188421FD0FFE7019845F20001C4F22A
:103F7000000188421CD0FFE7019843F60001C4F21B
:103F80000101884219D1FFE70320FEF795FF059054
:103F900014E00220FEF790FF05900FE00220FEF7EC
:103FA0008BFF05900AE00220FEF786FF059005E0F2
:103FB0000220FEF781FF059000E0FFE705980699D3
:103FC00000EB5100B0FBF1F0029002984FF6F07157
:103FD00008400490029800F00F000390BDF8100014
:103FE000BDF80C1008430799886008B080BD000038
:103FF00080B588B007900798069044F20041C4F25B
:104000000001884229D0FFE7069844F60001C4F277
:10401000000188422AD0FFE7069844F60041C4F226
:10402000000188422BD0FFE7069845F20001C4F258
:10403000000188422CD0FFE7069843F60001C4F245
:10404000010188422DD1FFE740F20E300590FFF7C5
:1040500021F80598FFF70CF824E040F21140049095
:10406000FFF718F80498FFF703F81BE040F212403E
:104070000390FFF70FF80398FEF7FAFF12E040F203
:1040800013400290FFF706F80298FEF7F1FF09E0EF
:1040900040F214400190FEF7FDFF0198FEF7E8FFA3
:1040A00000E0FFE708B080BD81B000900099C868CB
:1040B00040F40050C86001B07047000082B0019029
:1040C00000910199C86820F4C060C860009A019905
:1040D000C8681043C86002B07047000083B0029007
:1040E0000191002000900298C0680090009820F094
:1040F00008000090019900980843009000980299E8
:10410000C86003B07047000082B001900198006958
:1041100000900198416880688860019948688968C2
:104120004860009840680199884205D1FFE70198EE
:1041300080680099486000E0FFE70199002008616D
:1041400000990868013808600098006802B070475C
:1041500082B00190ADF802100198007D0A280BD8BA
:10416000FFE7BDF8020001990A7D531C0B7501EBB6
:10417000420121F8020C13E00198806920B1FFE7A9
:10418000019900208861FFE7019900200875BDF8BA
:10419000020001990A7D531C0B7521F81200FFE7FC
:1041A00002B0704781B00090009901F108004860AA
:1041B00000994FF0FF308860009901F10800C86055
:1041C000009901F10800086100990020086001B021
:1041D0007047000081B0009000990020086101B094
:1041E0007047000084B0039002910298006800902C
:1041F0000098013020B9FFE703980069019010E0B2
:10420000039808300190FFE7019840680068009922
:10421000884205D8FFE7FFE7019840680190F3E77F
:10422000FFE70198406802994860029841688860F9
:104230000198029988600298019948600398029950
:104240000861039908680130086004B070470000F5
:1042500083B0029001910298406800900098019903
:104260004860009880680199886001980099896881
:104270004860019800998860029801990861029944
:1042800008680130086003B07047000082B04FF04A
:10429000500080F31188BFF36F8FBFF34F8F0090F2
:1042A00040F24000C2F20000016801310160006884
:1042B000012814D1FFE74EF60450CEF2000000684A
:1042C000000658B1FFE74FF0500080F31188BFF3AC
:1042D0006F8FBFF34F8F0190FFE7FEE7FFE702B05C
:1042E0007047000082B040F24000C2F20000006857
:1042F00058B9FFE74FF0500080F31188BFF36F8F7C
:10430000BFF34F8F0090FFE7FEE740F24000C2F29C
:104310000000016801390160006830B9FFE7002042
:104320000190019880F31188FFE702B07047000008
:1043300080B582B00190019840B1FFE700F020FC09
:104340000198FBF796FF01F077FBFFE702B080BD15
:1043500040F20000C2F20000016844F6D352C1F2FC
:104360006202A1FB02318B0940F20031C2F200016E
:104370000B600B686FF07F41B1FBF3F140F26C33DF
:10438000C2F20003196040F2FC23C2F200032D21A7
:1043900019604EF21001CEF2000100230B604EF2C4
:1043A000180CCEF2000CCCF800300068A0FB020222
:1043B0004FF0FF3000EB92104EF21402CEF20002EA
:1043C000106007200860704780B586B0059005989A
:1043D00040F26C31C2F200010968884207D9FFE758
:1043E00040F26C30C2F2000000680590FFE74EF228
:1043F0001001CEF20001086820F0010008604EF2C2
:104400001800CEF20000026840F20030C2F2000054
:1044100000680599013900FB01200490049840F2DE
:10442000FC21C2F200010968884209D9FFE740F285
:10443000FC20C2F2000001680498401A0490FFE7D3
:1044400072B6BFF34F8FBFF36F8FFCF79FFFD8B9E2
:10445000FFE74EF21800CEF2000000684EF21401A1
:10446000CEF2000108604EF21002CEF20002106897
:1044700040F00100106040F20030C2F2000000681D
:104480000138086062B6A3E004984EF21401CEF23F
:10449000000108604EF21801CEF200010020086011
:1044A0004EF21001CEF20001086840F001000860F1
:1044B00005980190019830B1FFE7BFF34F8F30BFEF
:1044C000BFF36F8FFFE762B6BFF34F8FBFF36F8FFE
:1044D00072B6BFF34F8FBFF36F8F4EF21000CEF264
:1044E0000000062101600068C003002833D5FFE703
:1044F00040F20030C2F200000068049A4EF2180147
:10450000CEF200010968891A084401380090009829
:1045100040F2FC21C2F200010968884209D3FFE79A
:10452000009840F20031C2F200010968884208D9BF
:10453000FFE740F20030C2F200000068013800904E
:10454000FFE700984EF21401CEF2000108600598D2
:10455000013803901EE0059840F20031C2F20001DC
:104560000A6850434EF21802CEF200021268801A16
:10457000029002980A68B0FBF2F0039003980130B1
:10458000096848430299401A4EF21401CEF2000124
:104590000860FFE74EF21801CEF20001002008602B
:1045A0004EF21001CEF20001086840F001000860F0
:1045B000039800F001FA40F20030C2F200000068F7
:1045C00001384EF21401CEF20001086062B6FFE736
:1045D00006B080BD80B584B003900291019203982B
:1045E0000090FFF753FE009890F94400013028B97D
:1045F000FFE70099002081F84400FFE7009890F958
:104600004500013028B9FFE70099002081F84500F6
:10461000FFE7FFF767FE0098806B38B9FFE7009867
:1046200024300299019A00F0A7F800E0FFE7009813
:10463000FEF748FB04B080BD81B08DF80300FFE7B2
:1046400043F60000C4F20100006800F080008028FA
:1046500002D0FFE700BFF3E79DF8030043F6040133
:10466000C4F20101086001B07047000081B0009001
:1046700000990120C1F8F00001B0704781B00090AE
:1046800000990120886100990020087501B07047E9
:1046900080B584B00290002001900298E0B1FFE75D
:1046A00040F20C30C2F20000006858B1FFE74FF052
:1046B000500080F31188BFF36F8FBFF34F8F0390CB
:1046C000FFE7FEE700F05CFA02980021FDF7F2FB3D
:1046D00001F0B2F9019000E0FFE7019860B9FFE74F
:1046E0004EF60451CEF200014FF080500860BFF347
:1046F0004F8FBFF36F8F00E0FFE704B080BD000075
:1047000081B0009040F27430C2F20000006800995D
:10471000086040F2BC30C2F20000006800994860B6
:1047200001B0704740F2C831C2F2000101200860B8
:104730007047000080B584B002900191029858B98A
:10474000FFE74FF0500080F31188BFF36F8FBFF386
:104750004F8F0390FFE7FEE7029840F23C21C2F240
:10476000000109681831FFF73DFD01980121FDF7AF
:10477000A1FB04B080BD000080B586B00490039119
:104780000292049858B9FFE74FF0500080F3118867
:10479000BFF36F8FBFF34F8F0590FFE7FEE70498DD
:1047A00040680190019840F23C21C2F200010A6881
:1047B000D061019880680A68106208681830019A10
:1047C0009268506008681830019A906004980968EF
:1047D00088620499086801300860029820B1FFE7F8
:1047E0004FF0FF300390FFE703980299FDF762FB5B
:1047F00006B080BD80B584B0029002980190029806
:1048000058B9FFE74FF0500080F31188BFF36F8F66
:10481000BFF34F8F0390FFE7FEE7019840F23C2182
:10482000C2F200010968884265D0FFE701980028BC
:1048300061D0FFE7FFF72AFD0198FEF7FDF9002898
:1048400055D0FFE701980430FFF75EFC0198C16A7C
:10485000012000FA01F240F21431C2F200010868AE
:10486000104308600198C06A00EB800040F25021BC
:10487000C2F2000101EB8000406800900098019AAC
:10488000906000988068019AD06001980430009A86
:104890009268506001980430009A9060019AD06A42
:1048A00000EB800001EB800050610198C06A00EBD2
:1048B000800251F82200013041F822000198C06ABC
:1048C00040F23C21C2F200010968C96A88420CD357
:1048D000FFE74EF60451CEF200014FF08050086021
:1048E000BFF34F8FBFF36F8F00E0FFE700E0FFE7FC
:1048F000FFF7F8FC00E0FFE704B080BD80B586B0AC
:1049000040F26831C2F20001684641600023036052
:1049100042F2D930C0F6000046F61D01C0F6000193
:10492000802200F081FD03900398012804D1FFE765
:1049300001F094F9039000E0FFE70398012823D1E8
:10494000FFE74FF0500080F31188BFF36F8FBFF384
:104950004F8F049040F27031C2F200014FF0FF30EF
:10496000086040F29031C2F200010120086040F27C
:10497000BC31C2F200010020086000F069F908B102
:10498000FFE700E0FFE70FE00398013058B9FFE7C9
:104990004FF0500080F31188BFF36F8FBFF34F8F3C
:1049A0000590FFE7FEE7FFE746F62C00C0F60000A3
:1049B000006806B080BD000082B0009040F2BC30BC
:1049C000C2F2000000680099084440F27031C2F25F
:1049D0000001096888420BD9FFE74FF0500080F3CF
:1049E0001188BFF36F8FBFF34F8F0190FFE7FEE792
:1049F000009A40F2BC31C2F200010868104408601D
:104A000002B0704780B586B00490FFF73FFC049871
:104A100038B9FFE740F23C20C2F200000068019084
:104A200002E004980190FFE7019803900398043096
:104A3000FFF76AFBD0B9FFE70398C06A00EB80017B
:104A400040F25020C2F2000050F8210068B9FFE7A0
:104A50000398C16A012000FA01F240F21431C2F257
:104A60000001086890430860FFE700E0FFE7039853
:104A7000806A28B1FFE703981830FFF745FB00E094
:104A8000FFE70398011D40F29430C2F20000FFF7E7
:104A9000DFFB00200290FFE70298002814DCFFE70C
:104AA00003980299084490F85400012807D1FFE7C1
:104AB000039802990144002081F85400FFE7FFE7C2
:104AC000029801300290E7E7FFF70CFC40F29030CB
:104AD000C2F20000006838B1FFE7FFF7D7FBFEF72E
:104AE0001BF8FFF7FFFB00E0FFE7039840F23C21D3
:104AF000C2F20001096888423ED1FFE740F29030DF
:104B0000C2F200000068F0B1FFE740F20C30C2F2E0
:104B10000000006858B1FFE74FF0500080F31188A3
:104B2000BFF36F8FBFF34F8F0590FFE7FEE74EF6A1
:104B30000451CEF200014FF080500860BFF34F8F58
:104B4000BFF36F8F17E040F29430C2F200000068AC
:104B500040F20431C2F200010968884207D1FFE740
:104B600040F23C21C2F200010020086002E000F0A7
:104B70000FF8FFE7FFE700E0FFE706B080BD0000A9
:104B800040F20C31C2F20001086801300860704741
:104B900085B040F20C30C2F20000006838B1FFE787
:104BA00040F2C831C2F20001012008604DE040F23D
:104BB000C831C2F200010020086040F21430C2F295
:104BC0000000006803900398B0FA80F08DF80B00A5
:104BD0009DF80B00C0F11F000190019800EB8001CF
:104BE00040F25020C2F2000050F8210058B9FFE70F
:104BF0004FF0500080F31188BFF36F8FBFF34F8FDA
:104C00000490FFE7FEE7019800EB800140F250209E
:104C1000C2F2000000EB81000090009948684068F3
:104C20004860009948680831884205D1FFE700993B
:104C3000486840684860FFE700984068C06840F2F4
:104C40003C21C2F200010860FFE705B07047000098
:104C500080B586B04EF20040CEF20000039001789D
:104C60000491FF21017000788DF80B009DF80B0076
:104C700000F0500040F2F421C2F20001087040F24E
:104C8000F821C2F2000107200860FFE79DF80B0041
:104C9000000600280DD5FFE740F2F821C2F200011E
:104CA0000868013808609DF80B0040008DF80B0083
:104CB000ECE740F2F820C2F20000006803280BD0B5
:104CC000FFE74FF0500080F31188BFF36F8FBFF301
:104CD0004F8F0590FFE7FEE740F2F821C2F2000196
:104CE000086800020860086800F4E0600860049842
:104CF0004EF20041CEF2000108704EF62051CEF285
:104D00000001086840F4E0000860086840F0E040F6
:104D10000860FFF71DFB40F24001C2F200010020D5
:104D200001900860FDF796FDFFF732FFFDF75EFF8B
:104D3000019806B080BD000080B588B0069005914E
:104D40008DF8132000200390069880B3FFE70699A2
:104D50004FF0FF30B0FBF1F00599884227D3FFE711
:104D600006980599484310F1550F20D8FFE706989B
:104D700005994843029002985430FEF709F80390D1
:104D8000039890B1FFE70398019001985430019087
:104D900006980599019A9DF81330DDF80CC0EE468F
:104DA000CEF800C0FDF766FB00E0FFE70EE00398D9
:104DB00058B9FFE74FF0500080F31188BFF36F8FB1
:104DC000BFF34F8F0790FFE7FEE7FFE7039808B0B8
:104DD00080BD000080B586B0039002910120019053
:104DE00003980090009858B9FFE74FF0500080F307
:104DF0001188BFF36F8FBFF34F8F0490FFE7FEE77B
:104E00000098002856D0FFE70098C06B002851D0CA
:104E1000FFE70098C26B016C4FF0FF30B0FBF2F07F
:104E2000884247D3FFE7FFF731FA00990B68C86B58
:104E30000A6C00FB023088600099002088630099AA
:104E40000868486000990B68C86B0A6C013800FB61
:104E50000230C8600099FF2081F84400009981F871
:104E600045000298D0B9FFE700980069A0B1FFE7BC
:104E70000098103000F016FD60B1FFE74EF60451C7
:104E8000CEF200014FF080500860BFF34F8FBFF3A8
:104E90006F8F00E0FFE700E0FFE708E000981030C8
:104EA000FFF780F900982430FFF77CF9FFE7FFF760
:104EB00019FA02E000200190FFE7019858B9FFE7D6
:104EC0004FF0500080F31188BFF36F8FBFF34F8F07
:104ED0000590FFE7FEE7019806B080BD80B592B06F
:104EE0000C900B910A920993002008900C98049062
:104EF000049858B9FFE74FF0500080F31188BFF3D2
:104F00006F8FBFF34F8F0E90FFE7FEE70B990020E6
:104F1000029039B9FFE70498006C002818BF0120FF
:104F20000290FFE70298C00758B1FFE74FF050002A
:104F300080F31188BFF36F8FBFF34F8F0F90FFE7A0
:104F4000FEE7099900200229019007D1FFE70498A4
:104F5000C06B013818BF01200190FFE70198C0071E
:104F600058B1FFE74FF0500080F31188BFF36F8F07
:104F7000BFF34F8F1090FFE7FEE700F0A1FA014664
:104F80000020009031B9FFE70A98002818BF0120DF
:104F90000090FFE70098C00758B1FFE74FF05000BE
:104FA00080F31188BFF36F8FBFF34F8F1190FFE72E
:104FB000FEE7FFE7FFF76AF90498806B0499C96B75
:104FC000884204D3FFE70998022858D1FFE70498E4
:104FD000806B039004980B99099AFDF72DF90790BF
:104FE0000498806CE0B1FFE70998022804D1FFE73C
:104FF000039808B1FFE712E00498FDF7BFFB60B12A
:10500000FFE74EF60451CEF200014FF080500860E9
:10501000BFF34F8FBFF36F8F00E0FFE7FFE729E09B
:105020000498406AA0B1FFE70498243000F03AFCED
:1050300060B1FFE74EF60451CEF200014FF0805010
:105040000860BFF34F8FBFF36F8F00E0FFE710E002
:10505000079860B1FFE74EF60451CEF200014FF021
:1050600080500860BFF34F8FBFF36F8F00E0FFE702
:10507000FFE7FFE7FFF736F901200D9065E00A989A
:1050800028B9FFE7FFF72EF900200D905DE00898A2
:1050900030B9FFE705A8FFF733FB0120089000E0D7
:1050A000FFE7FFE7FFE7FFF71DF9FFF769FDFFF7F0
:1050B000EDF8049890F94400013028B9FFE704990D
:1050C000002081F84400FFE7049890F94500013082
:1050D00028B9FFE70499002081F84500FFE7FFF7B2
:1050E00001F905A80AA900F021F928BBFFE70498F7
:1050F000FDF72CFBC8B1FFE7049810300A99FFF7C1
:1051000019FB0498FDF7DEFD00F096FC60B9FFE79F
:105110004EF60451CEF200014FF080500860BFF30C
:105120004F8FBFF36F8FFFE705E00498FDF7CAFDCF
:1051300000F082FCFFE707E00498FDF7C3FD00F0F4
:105140007BFC00200D9000E034E70D9812B080BD8C
:1051500080B58EB0099008910792002006900998BA
:105160000390039858B9FFE74FF0500080F311887F
:10517000BFF36F8FBFF34F8F0B90FFE7FEE70899E8
:105180000020019039B9FFE70398006C002818BF90
:1051900001200190FFE70198C00758B1FFE74FF0E9
:1051A000500080F31188BFF36F8FBFF34F8F0C90C7
:1051B000FFE7FEE700F084F901460020009031B9D6
:1051C000FFE70798002818BF01200090FFE700982C
:1051D000C00758B1FFE74FF0500080F31188BFF3CC
:1051E0006F8FBFF34F8F0D90FFE7FEE7FFE7FFF7ED
:1051F0004DF80398806B0290029830B3FFE7039854
:105200000899FCF7F7FF029801380399886303981F
:105210000069A0B1FFE70398103000F043FB60B1D4
:10522000FFE74EF60451CEF200014FF080500860C7
:10523000BFF34F8FBFF36F8F00E0FFE700E0FFE7A2
:10524000FFF750F801200A906DE0079828B9FFE7B2
:10525000FFF748F800200A9065E0069830B9FFE7AC
:1052600004A8FFF74DFA0120069000E0FFE7FFE7F2
:10527000FFE7FFF737F8FFF783FCFFF707F803981E
:1052800090F94400013028B9FFE70399002081F824
:105290004400FFE7039890F94500013028B9FFE783
:1052A0000399002081F84500FFE7FFF71BF804A8E9
:1052B00007A900F03BF830BBFFE70398FDF732FA8F
:1052C000D0B1FFE7039824300799FFF733FA03982A
:1052D000FDF7F8FC00F0B0FB60B9FFE74EF60451B3
:1052E000CEF200014FF080500860BFF34F8FBFF344
:1052F0006F8F00E0FFE705E00398FDF7E3FC00F0A7
:105300009BFBFFE70EE00398FDF7DCFC00F094FB4D
:105310000398FDF707FA18B1FFE700200A9002E0B2
:10532000FFE7FFE763E70A980EB080BD80B588B05D
:1053300005900491059858B9FFE74FF0500080F3AD
:105340001188BFF36F8FBFF34F8F0690FFE7FEE723
:10535000049858B9FFE74FF0500080F31188BFF36D
:105360006F8FBFF34F8F0790FFE7FEE7FEF78EFFCB
:1053700040F2BC30C2F20000006802900298059929
:105380004968401A019040F23C20C2F200000068D7
:1053900090F8550058B1FFE740F23C20C2F20000FF
:1053A0000168002081F855000120039037E004983F
:1053B0000068013018B9FFE7002003902EE040F2AA
:1053C0007430C2F2000000680599096888420CD068
:1053D000FFE7029805994968884206D3FFE7012054
:1053E000039004990020086017E001980499096867
:1053F00088420BD2FFE7019A04990868801A086076
:105400000598FFF77DF90020039005E0049900203E
:10541000086001200390FFE7FFE7FFE7FFE7FEF7E3
:1054200061FF039808B080BD70B58CB0DDF844C052
:10543000DDF840C00B900A91ADF826200893BDF826
:1054400026008000FDF7A4FC0590059880B1FFE7D9
:105450005820FDF79DFC0790079820B1FFE70598BD
:105460000799086303E00598FEF762FFFFE702E093
:1054700000200790FFE70798D8B1FFE70B980A993B
:10548000BDF82620089BDDF840C0119C079DEE4624
:105490000026CEF80C60CEF80850CEF80440CEF8C6
:1054A00000C0FDF70FF80798FCF796FD0120069065
:1054B00003E04FF0FF300690FFE706980CB070BD98
:1054C00081B040F29030C2F20000006818B9FFE7E6
:1054D000012000900DE040F20C30C2F200000068A4
:1054E00018B9FFE70220009002E000200090FFE7DB
:1054F000FFE7009801B0704781B040F2BC30C2F2C3
:10550000000000680090009801B0704780B58AB034
:105510000020069040F20C30C2F200000068002823
:1055200040F01981FFE740F2BC31C2F20001086887
:105530000130059005980860059858BBFFE740F2D8
:105540004420C2F200000068006858B1FFE74FF045
:10555000500080F31188BFF36F8FBFF34F8F099016
:10556000FFE7FEE740F24422C2F200021068049016
:1055700040F24821C2F200010868106004980860F7
:1055800040F27431C2F20001086801300860FDF792
:10559000C3FA00E0FFE7059840F27031C2F2000163
:1055A00009688842C0F0B680FFE7FFE740F2442078
:1055B000C2F200000068006840B9FFE740F27031B5
:1055C000C2F200014FF0FF300860A2E040F2442038
:1055D000C2F200000068C068C0680890089840687F
:1055E000079005980799884207D2FFE7079840F28D
:1055F0007031C2F2000108608BE0FFE70898406953
:10560000039008988168C068886008998868C968AC
:1056100048600398406808990431884205D1FFE743
:105620000898C06803994860FFE70899002048611E
:1056300003990868013808600898806AF8B1FFE7A4
:105640000898806A02900898C169006A8860089981
:10565000C869096A48600298406808991831884208
:1056600005D1FFE70898006A02994860FFE70899AA
:1056700000208862029908680138086000E0FFE7AE
:105680000898C16A012000FA01F240F21431C2F216
:1056900000010868104308600898C06A00EB8000A9
:1056A00040F25021C2F2000101EB800040680190FD
:1056B0000198089A906001988068089AD0600898CC
:1056C0000430019A9268506008980430019A906002
:1056D000089AD06A00EB800001EB800050610898C6
:1056E000C06A00EB800251F82200013041F822002C
:1056F0000898C06A40F23C21C2F200010968C96AF8
:10570000884203D3FFE70120069000E0FFE7FFE7B0
:105710004CE7FFE740F23C20C2F200000068C06A9C
:1057200000EB800140F25020C2F2000050F821004E
:10573000022803D3FFE70120069000E0FFE740F2D4
:10574000C830C2F20000006818B1FFE701200690DF
:1057500000E0FFE707E040F27831C2F2000108689C
:1057600001300860FFE706980AB080BD80B586B0BA
:10577000039003980290002001900398002800F005
:105780008D80FFE7029840F23C21C2F200010968D7
:1057900088420BD0FFE74FF0500080F31188BFF331
:1057A0006F8FBFF34F8F0490FFE7FEE70298C06C46
:1057B00058B9FFE74FF0500080F31188BFF36F8FA7
:1057C000BFF34F8F0590FFE7FEE70299C86C0138E1
:1057D000C8640299C86A896C88425DD0FFE7029864
:1057E000C06C002856D1FFE702980430FEF78CFC0D
:1057F00068B9FFE70298C16A012000FA01F240F29D
:105800001431C2F2000108689043086000E0FFE72D
:105810000299886CC8620299C86AC0F10500886163
:105820000298C16A012000FA01F340F21432C2F278
:1058300000021168194311600299C96A01EB8101E4
:1058400040F25022C2F2000202EB8101496800914D
:105850000099029B996000998968029BD96002991E
:105860000431009B9B68596002990431009B996048
:10587000029BD96A01EB810102EB81015961029916
:10588000C96A01EB810352F82310013142F8231059
:10589000019000E0FFE700E0FFE700E0FFE701988C
:1058A00006B080BD80B588B006900698C068C06814
:1058B0000590059858B9FFE74FF0500080F3118824
:1058C000BFF36F8FBFF34F8F0790FFE7FEE7059899
:1058D000806A03900598C169006A88600599C86963
:1058E000096A48600398406805991831884205D1D3
:1058F000FFE70598006A03994860FFE705990020D3
:105900008862039908680138086040F20C30C2F2DE
:1059100000000068002859D1FFE70598406902900F
:1059200005988168C068886005998868C96848607A
:105930000298406805990431884205D1FFE705982F
:10594000C06802994860FFE7059900204861029904
:105950000868013808600598C16A012000FA01F260
:1059600040F21431C2F20001086810430860059843
:10597000C06A00EB800040F25021C2F2000101EB4E
:105980008000406801900198059A906001988068B5
:10599000059AD06005980430019A92685060059885
:1059A0000430019A9060059AD06A00EB800001EB08
:1059B000800050610598C06A00EB800251F8220017
:1059C000013041F82200FDF7A7F81BE040F27C31DE
:1059D000C2F20001486800900098059AD0610098D2
:1059E0008068059A106205981830009A9268506095
:1059F00005981830009A9060059881620868013017
:105A00000860FFE70598C06A40F23C21C2F200013D
:105A10000968C96A884208D9FFE70120049040F26A
:105A2000C831C2F20001086002E000200490FFE7E4
:105A3000049808B080BD000080B588B000200690B2
:105A4000059040F20C30C2F20000006858B9FFE740
:105A50004FF0500080F31188BFF36F8FBFF34F8F6B
:105A60000790FFE7FEE7FEF711FC40F20C30C2F2B0
:105A700000000168013901600068002840F0E780FB
:105A8000FFE740F20430C2F200000068002800F096
:105A9000DD80FFE7FFE740F27C30C2F200000068E3
:105AA000002800F09080FFE740F27C30C2F2000056
:105AB000C068C06806900698806A04900698C1691C
:105AC000006A88600699C869096A48600498406855
:105AD00006991831884205D1FFE70698006A0499B3
